{
  "_format": "hh3-artifact-1",
  "contractName": "CanonicalRegistry",
  "sourceName": "contracts/CanonicalRegistry.sol",
  "abi": [
    {
      "inputs": [
        {
          "internalType": "address",
          "name": "escrowImpl_",
          "type": "address"
        },
        {
          "internalType": "address",
          "name": "admin",
          "type": "address"
        }
      ],
      "stateMutability": "nonpayable",
      "type": "constructor"
    },
    {
      "inputs": [
        {
          "internalType": "address",
          "name": "owner",
          "type": "address"
        }
      ],
      "name": "OwnableInvalidOwner",
      "type": "error"
    },
    {
      "inputs": [
        {
          "internalType": "address",
          "name": "account",
          "type": "address"
        }
      ],
      "name": "OwnableUnauthorizedAccount",
      "type": "error"
    },
    {
      "anonymous": false,
      "inputs": [
        {
          "indexed": true,
          "internalType": "bytes32",
          "name": "id",
          "type": "bytes32"
        },
        {
          "indexed": false,
          "internalType": "string",
          "name": "namespace",
          "type": "string"
        },
        {
          "indexed": false,
          "internalType": "string",
          "name": "canonicalString",
          "type": "string"
        },
        {
          "indexed": true,
          "internalType": "address",
          "name": "owner",
          "type": "address"
        }
      ],
      "name": "Claimed",
      "type": "event"
    },
    {
      "anonymous": false,
      "inputs": [
        {
          "indexed": true,
          "internalType": "bytes32",
          "name": "id",
          "type": "bytes32"
        },
        {
          "indexed": false,
          "internalType": "address",
          "name": "escrow",
          "type": "address"
        }
      ],
      "name": "EscrowDeployed",
      "type": "event"
    },
    {
      "anonymous": false,
      "inputs": [
        {
          "indexed": true,
          "internalType": "bytes32",
          "name": "aliasId",
          "type": "bytes32"
        },
        {
          "indexed": true,
          "internalType": "bytes32",
          "name": "primaryId",
          "type": "bytes32"
        }
      ],
      "name": "Linked",
      "type": "event"
    },
    {
      "anonymous": false,
      "inputs": [
        {
          "indexed": true,
          "internalType": "address",
          "name": "previousOwner",
          "type": "address"
        },
        {
          "indexed": true,
          "internalType": "address",
          "name": "newOwner",
          "type": "address"
        }
      ],
      "name": "OwnershipTransferred",
      "type": "event"
    },
    {
      "anonymous": false,
      "inputs": [
        {
          "indexed": true,
          "internalType": "bytes32",
          "name": "id",
          "type": "bytes32"
        },
        {
          "indexed": false,
          "internalType": "string",
          "name": "namespace",
          "type": "string"
        },
        {
          "indexed": false,
          "internalType": "string",
          "name": "canonicalString",
          "type": "string"
        },
        {
          "indexed": true,
          "internalType": "address",
          "name": "previousOwner",
          "type": "address"
        }
      ],
      "name": "Revoked",
      "type": "event"
    },
    {
      "anonymous": false,
      "inputs": [
        {
          "indexed": true,
          "internalType": "bytes32",
          "name": "aliasId",
          "type": "bytes32"
        },
        {
          "indexed": true,
          "internalType": "bytes32",
          "name": "primaryId",
          "type": "bytes32"
        }
      ],
      "name": "Unlinked",
      "type": "event"
    },
    {
      "anonymous": false,
      "inputs": [
        {
          "indexed": true,
          "internalType": "bytes32",
          "name": "namespaceKey",
          "type": "bytes32"
        },
        {
          "indexed": false,
          "internalType": "address",
          "name": "verifier",
          "type": "address"
        }
      ],
      "name": "VerifierUpdated",
      "type": "event"
    },
    {
      "inputs": [
        {
          "internalType": "bytes32",
          "name": "",
          "type": "bytes32"
        }
      ],
      "name": "aliases",
      "outputs": [
        {
          "internalType": "bytes32",
          "name": "",
          "type": "bytes32"
        }
      ],
      "stateMutability": "view",
      "type": "function"
    },
    {
      "inputs": [],
      "name": "beacon",
      "outputs": [
        {
          "internalType": "contract UpgradeableBeacon",
          "name": "",
          "type": "address"
        }
      ],
      "stateMutability": "view",
      "type": "function"
    },
    {
      "inputs": [
        {
          "internalType": "bytes32",
          "name": "id",
          "type": "bytes32"
        }
      ],
      "name": "canonicalOf",
      "outputs": [
        {
          "internalType": "bytes32",
          "name": "",
          "type": "bytes32"
        }
      ],
      "stateMutability": "view",
      "type": "function"
    },
    {
      "inputs": [
        {
          "internalType": "string",
          "name": "namespace",
          "type": "string"
        },
        {
          "internalType": "string",
          "name": "canonicalString",
          "type": "string"
        },
        {
          "internalType": "bytes",
          "name": "proof",
          "type": "bytes"
        }
      ],
      "name": "claim",
      "outputs": [],
      "stateMutability": "nonpayable",
      "type": "function"
    },
    {
      "inputs": [
        {
          "internalType": "bytes32",
          "name": "id",
          "type": "bytes32"
        }
      ],
      "name": "deployEscrow",
      "outputs": [
        {
          "internalType": "address",
          "name": "escrow",
          "type": "address"
        }
      ],
      "stateMutability": "nonpayable",
      "type": "function"
    },
    {
      "inputs": [
        {
          "internalType": "bytes32",
          "name": "primaryId",
          "type": "bytes32"
        },
        {
          "internalType": "bytes32[]",
          "name": "aliasIds",
          "type": "bytes32[]"
        }
      ],
      "name": "linkIds",
      "outputs": [],
      "stateMutability": "nonpayable",
      "type": "function"
    },
    {
      "inputs": [],
      "name": "owner",
      "outputs": [
        {
          "internalType": "address",
          "name": "",
          "type": "address"
        }
      ],
      "stateMutability": "view",
      "type": "function"
    },
    {
      "inputs": [
        {
          "internalType": "bytes32",
          "name": "id",
          "type": "bytes32"
        }
      ],
      "name": "ownerOf",
      "outputs": [
        {
          "internalType": "address",
          "name": "",
          "type": "address"
        }
      ],
      "stateMutability": "view",
      "type": "function"
    },
    {
      "inputs": [
        {
          "internalType": "bytes32",
          "name": "",
          "type": "bytes32"
        }
      ],
      "name": "owners",
      "outputs": [
        {
          "internalType": "address",
          "name": "",
          "type": "address"
        }
      ],
      "stateMutability": "view",
      "type": "function"
    },
    {
      "inputs": [
        {
          "internalType": "bytes32",
          "name": "id",
          "type": "bytes32"
        }
      ],
      "name": "predictAddress",
      "outputs": [
        {
          "internalType": "address",
          "name": "",
          "type": "address"
        }
      ],
      "stateMutability": "view",
      "type": "function"
    },
    {
      "inputs": [],
      "name": "renounceOwnership",
      "outputs": [],
      "stateMutability": "nonpayable",
      "type": "function"
    },
    {
      "inputs": [
        {
          "internalType": "string",
          "name": "namespace",
          "type": "string"
        },
        {
          "internalType": "string",
          "name": "canonicalString",
          "type": "string"
        }
      ],
      "name": "revoke",
      "outputs": [],
      "stateMutability": "nonpayable",
      "type": "function"
    },
    {
      "inputs": [
        {
          "internalType": "string",
          "name": "namespace",
          "type": "string"
        },
        {
          "internalType": "address",
          "name": "verifier",
          "type": "address"
        }
      ],
      "name": "setVerifier",
      "outputs": [],
      "stateMutability": "nonpayable",
      "type": "function"
    },
    {
      "inputs": [
        {
          "internalType": "string",
          "name": "namespace",
          "type": "string"
        },
        {
          "internalType": "string",
          "name": "canonicalString",
          "type": "string"
        }
      ],
      "name": "toId",
      "outputs": [
        {
          "internalType": "bytes32",
          "name": "",
          "type": "bytes32"
        }
      ],
      "stateMutability": "pure",
      "type": "function"
    },
    {
      "inputs": [
        {
          "internalType": "address",
          "name": "newOwner",
          "type": "address"
        }
      ],
      "name": "transferOwnership",
      "outputs": [],
      "stateMutability": "nonpayable",
      "type": "function"
    },
    {
      "inputs": [
        {
          "internalType": "bytes32",
          "name": "primaryId",
          "type": "bytes32"
        },
        {
          "internalType": "bytes32[]",
          "name": "aliasIds",
          "type": "bytes32[]"
        }
      ],
      "name": "unlinkIds",
      "outputs": [],
      "stateMutability": "nonpayable",
      "type": "function"
    },
    {
      "inputs": [
        {
          "internalType": "bytes32",
          "name": "",
          "type": "bytes32"
        }
      ],
      "name": "verifiers",
      "outputs": [
        {
          "internalType": "address",
          "name": "",
          "type": "address"
        }
      ],
      "stateMutability": "view",
      "type": "function"
    }
  ],
  "bytecode": "0x60a060405234801561000f575f5ffd5b50604051611d9a380380611d9a83398101604081905261002e91610130565b806001600160a01b03811661005c57604051631e4fbdf760e01b81525f600482015260240160405180910390fd5b610065816100b9565b50813060405161007490610108565b6001600160a01b03928316815291166020820152604001604051809103905ff0801580156100a4573d5f5f3e3d5ffd5b506001600160a01b0316608052506101619050565b5f80546001600160a01b038381166001600160a01b0319831681178455604051919092169283917f8be0079c531659141344cd1fd0a4f28419497f9722a3daafe3b4186f6b6457e09190a35050565b6104218061197983390190565b80516001600160a01b038116811461012b575f5ffd5b919050565b5f5f60408385031215610141575f5ffd5b61014a83610115565b915061015860208401610115565b90509250929050565b6080516117f26101875f395f81816101880152818161054401526108f301526117f25ff3fe608060405234801561000f575f5ffd5b5060043610610106575f3560e01c80637dd564111161009e578063e75118731161006e578063e751187314610221578063efe1c95014610240578063f2fde38b14610268578063f5020a811461027b578063fb8ad6ff1461028e575f5ffd5b80637dd56411146101d85780638da5cb5b146101eb5780639c76b654146101fb578063b7dc5bc01461020e575f5ffd5b806359659e90116100d957806359659e90146101835780635e868c7c146101aa57806369e5c51d146101bd578063715018a6146101d0575f5ffd5b806310b40f851461010a5780631128d6ed1461011f5780632052023d1461014557806324be209c14610158575b5f5ffd5b61011d610118366004610e99565b6102b6565b005b61013261012d366004610e99565b610411565b6040519081526020015b60405180910390f35b61011d610153366004610f20565b610449565b61016b610166366004610f70565b6104cd565b6040516001600160a01b03909116815260200161013c565b61016b7f000000000000000000000000000000000000000000000000000000000000000081565b61011d6101b8366004610f87565b6105e7565b6101326101cb366004610f70565b61086a565b61011d61088d565b61016b6101e6366004610f70565b6108a0565b5f546001600160a01b031661016b565b61016b610209366004610f70565b6108cc565b61011d61021c366004611026565b6109b7565b61013261022f366004610f70565b60036020525f908152604090205481565b61016b61024e366004610f70565b60016020525f90815260409020546001600160a01b031681565b61011d6102763660046110a0565b610aed565b61011d610289366004611026565b610b2a565b61016b61029c366004610f70565b60026020525f90815260409020546001600160a01b031681565b5f6102c385858585610411565b5f81815260036020526040902054909150156103385760405162461bcd60e51b815260206004820152602960248201527f43616e6f6e6963616c52656769737472793a2063616e6e6f74207265766f6b6560448201526820616e20616c69617360b81b60648201526084015b60405180910390fd5b5f818152600260205260409020546001600160a01b0316331461039d5760405162461bcd60e51b815260206004820152601c60248201527f43616e6f6e6963616c52656769737472793a206e6f74206f776e657200000000604482015260640161032f565b5f818152600260205260409081902080546001600160a01b0319811690915590516001600160a01b0390911690819083907f1991801e741de389663cae6f1385cca0d459908cdb99eeb04693b818e12895ee90610401908a908a908a908a906110e1565b60405180910390a3505050505050565b5f8484848460405160200161042994939291906110e1565b604051602081830303815290604052805190602001209050949350505050565b610451610d8d565b5f8383604051610462929190611112565b604080519182900382205f8181526001602090815292902080546001600160a01b0319166001600160a01b0387169081179091558352925082917f6a0bc92a0af4141c4fe618cedd8505ba42c348a852d400aec2138fcd1eb1645b910160405180910390a250505050565b5f6104d7826108cc565b6001600160a01b03163b156105415760405162461bcd60e51b815260206004820152602a60248201527f43616e6f6e6963616c52656769737472793a20657363726f7720616c726561646044820152691e4819195c1b1bde595960b21b606482015260840161032f565b817f000000000000000000000000000000000000000000000000000000000000000061056c84610db9565b60405161057890610e47565b610583929190611121565b8190604051809103905ff59050801580156105a0573d5f5f3e3d5ffd5b506040516001600160a01b038216815290915082907f21f8d5eaabce7437b233b4fff5aa3984e2b3a77bbb2b3deb5a0eb26425bc6c9e9060200160405180910390a2919050565b5f6105f487878787610411565b90505f610600826108a0565b6001600160a01b0316146106615760405162461bcd60e51b815260206004820152602260248201527f43616e6f6e6963616c52656769737472793a20616c726561647920636c61696d604482015261195960f21b606482015260840161032f565b5f60015f8989604051610675929190611112565b604080519182900390912082526020820192909252015f20546001600160a01b03169050806106fb5760405162461bcd60e51b815260206004820152602c60248201527f43616e6f6e6963616c52656769737472793a206e6f207665726966696572206660448201526b6f72206e616d65737061636560a01b606482015260840161032f565b60405163f5cf2ce160e01b81526001600160a01b0382169063f5cf2ce19061072d908590339089908990600401611165565b6020604051808303815f875af1158015610749573d5f5f3e3d5ffd5b505050506040513d601f19601f8201168201806040525081019061076d9190611199565b6107b95760405162461bcd60e51b815260206004820181905260248201527f43616e6f6e6963616c52656769737472793a20696e76616c69642070726f6f66604482015260640161032f565b5f82815260036020526040902054156107db575f828152600360205260408120555b5f828152600260205260409081902080546001600160a01b03191633908117909155905183907f1474d62beb2ce8a8fbac4d01444f58745a193519e8323fa9da74d8042fe161fe90610834908c908c908c908c906110e1565b60405180910390a3610845826108cc565b6001600160a01b03163b5f036108605761085e826104cd565b505b5050505050505050565b5f8181526003602052604081205480156108845780610886565b825b9392505050565b610895610d8d565b61089e5f610df8565b565b5f60025f6108ad8461086a565b815260208101919091526040015f20546001600160a01b031692915050565b5f5f604051806020016108de90610e47565b601f1982820381018352601f909101166040527f000000000000000000000000000000000000000000000000000000000000000061091b85610db9565b60405160200161092c929190611121565b60408051601f198184030181529082905261094a92916020016111cf565b60408051601f1981840301815282825280516020918201206001600160f81b0319828501523060601b6bffffffffffffffffffffffff1916602185015260358401969096526055808401969096528151808403909601865260759092019052835193019290922092915050565b5f838152600260205260409020546001600160a01b031633146109ec5760405162461bcd60e51b815260040161032f906111eb565b5f5b81811015610ae7575f838383818110610a0957610a09611232565b9050602002013590508460035f8381526020019081526020015f205414610a8a5760405162461bcd60e51b815260206004820152602f60248201527f43616e6f6e6963616c52656769737472793a206e6f7420616e20616c6961732060448201526e6f662074686973207072696d61727960881b606482015260840161032f565b5f818152600360209081526040808320839055600290915280822080546001600160a01b0319163317905551869183917f77dbd64f6e6762286be356bc39dbfefd7120eb79662b0b70480dbfa836785a029190a3506001016109ee565b50505050565b610af5610d8d565b6001600160a01b038116610b1e57604051631e4fbdf760e01b81525f600482015260240161032f565b610b2781610df8565b50565b5f838152600260205260409020546001600160a01b03163314610b5f5760405162461bcd60e51b815260040161032f906111eb565b5f8381526003602052604090205415610bd05760405162461bcd60e51b815260206004820152602d60248201527f43616e6f6e6963616c52656769737472793a207072696d61727920697320697460448201526c73656c6620616e20616c69617360981b606482015260840161032f565b5f5b81811015610ae7575f838383818110610bed57610bed611232565b905060200201359050848103610c545760405162461bcd60e51b815260206004820152602660248201527f43616e6f6e6963616c52656769737472793a2063616e6e6f74206c696e6b2074604482015265379039b2b63360d11b606482015260840161032f565b5f818152600260205260409020546001600160a01b03163314610cc75760405162461bcd60e51b815260206004820152602560248201527f43616e6f6e6963616c52656769737472793a206e6f74206f776e6572206f6620604482015264616c69617360d81b606482015260840161032f565b5f8181526003602052604090205415610d325760405162461bcd60e51b815260206004820152602760248201527f43616e6f6e6963616c52656769737472793a20616c69617320616c7265616479604482015266081b1a5b9ad95960ca1b606482015260840161032f565b5f818152600360209081526040808320889055600290915280822080546001600160a01b031916905551869183917fe706a2f4646de38f6a8496fd5248d967ee433ae657dd7fb94e8ad712c17f59699190a350600101610bd2565b5f546001600160a01b0316331461089e5760405163118cdaa760e01b815233600482015260240161032f565b604080513060248201526044808201939093528151808203909301835260640190526020810180516001600160e01b0316632f84fd1f60e21b17905290565b5f80546001600160a01b038381166001600160a01b0319831681178455604051919092169283917f8be0079c531659141344cd1fd0a4f28419497f9722a3daafe3b4186f6b6457e09190a35050565b6105768061124783390190565b5f5f83601f840112610e64575f5ffd5b50813567ffffffffffffffff811115610e7b575f5ffd5b602083019150836020828501011115610e92575f5ffd5b9250929050565b5f5f5f5f60408587031215610eac575f5ffd5b843567ffffffffffffffff811115610ec2575f5ffd5b610ece87828801610e54565b909550935050602085013567ffffffffffffffff811115610eed575f5ffd5b610ef987828801610e54565b95989497509550505050565b80356001600160a01b0381168114610f1b575f5ffd5b919050565b5f5f5f60408486031215610f32575f5ffd5b833567ffffffffffffffff811115610f48575f5ffd5b610f5486828701610e54565b9094509250610f67905060208501610f05565b90509250925092565b5f60208284031215610f80575f5ffd5b5035919050565b5f5f5f5f5f5f60608789031215610f9c575f5ffd5b863567ffffffffffffffff811115610fb2575f5ffd5b610fbe89828a01610e54565b909750955050602087013567ffffffffffffffff811115610fdd575f5ffd5b610fe989828a01610e54565b909550935050604087013567ffffffffffffffff811115611008575f5ffd5b61101489828a01610e54565b979a9699509497509295939492505050565b5f5f5f60408486031215611038575f5ffd5b83359250602084013567ffffffffffffffff811115611055575f5ffd5b8401601f81018613611065575f5ffd5b803567ffffffffffffffff81111561107b575f5ffd5b8660208260051b840101111561108f575f5ffd5b939660209190910195509293505050565b5f602082840312156110b0575f5ffd5b61088682610f05565b81835281816020850137505f828201602090810191909152601f909101601f19169091010190565b604081525f6110f46040830186886110b9565b82810360208401526111078185876110b9565b979650505050505050565b818382375f9101908152919050565b60018060a01b0383168152604060208201525f82518060408401528060208501606085015e5f606082850101526060601f19601f8301168401019150509392505050565b8481526001600160a01b03841660208201526060604082018190525f9061118f90830184866110b9565b9695505050505050565b5f602082840312156111a9575f5ffd5b81518015158114610886575f5ffd5b5f81518060208401855e5f93019283525090919050565b5f6111e36111dd83866111b8565b846111b8565b949350505050565b60208082526027908201527f43616e6f6e6963616c52656769737472793a206e6f74206f776e6572206f66206040820152667072696d61727960c81b606082015260800190565b634e487b7160e01b5f52603260045260245ffdfe60a060405260405161057638038061057683398101604081905261002291610353565b61002c828261003e565b506001600160a01b0316608052610444565b610047826100fb565b6040516001600160a01b038316907f1cf3b03a6cf19fa2baba4df148e9dcabedea7f8a5c07840e207e5c089be95d3e905f90a28051156100ef576100ea826001600160a01b0316635c60da1b6040518163ffffffff1660e01b8152600401602060405180830381865afa1580156100c0573d5f5f3e3d5ffd5b505050506040513d601f19601f820116820180604052508101906100e49190610415565b82610209565b505050565b6100f761027c565b5050565b806001600160a01b03163b5f0361013557604051631933b43b60e21b81526001600160a01b03821660048201526024015b60405180910390fd5b807fa3f0ad74e5423aebfd80d3ef4346578335a9a72aeaee59ff6cb3582b35133d5080546001600160a01b0319166001600160a01b0392831617905560408051635c60da1b60e01b815290515f92841691635c60da1b9160048083019260209291908290030181865afa1580156101ae573d5f5f3e3d5ffd5b505050506040513d601f19601f820116820180604052508101906101d29190610415565b9050806001600160a01b03163b5f036100f757604051634c9c8ce360e01b81526001600160a01b038216600482015260240161012c565b60605f5f846001600160a01b031684604051610225919061042e565b5f60405180830381855af49150503d805f811461025d576040519150601f19603f3d011682016040523d82523d5f602084013e610262565b606091505b50909250905061027385838361029d565b95945050505050565b341561029b5760405163b398979f60e01b815260040160405180910390fd5b565b6060826102b2576102ad826102fc565b6102f5565b81511580156102c957506001600160a01b0384163b155b156102f257604051639996b31560e01b81526001600160a01b038516600482015260240161012c565b50805b9392505050565b80511561030b57805160208201fd5b60405163d6bda27560e01b815260040160405180910390fd5b80516001600160a01b038116811461033a575f5ffd5b919050565b634e487b7160e01b5f52604160045260245ffd5b5f5f60408385031215610364575f5ffd5b61036d83610324565b60208401519092506001600160401b03811115610388575f5ffd5b8301601f81018513610398575f5ffd5b80516001600160401b038111156103b1576103b161033f565b604051601f8201601f19908116603f011681016001600160401b03811182821017156103df576103df61033f565b6040528181528282016020018710156103f6575f5ffd5b8160208401602083015e5f602083830101528093505050509250929050565b5f60208284031215610425575f5ffd5b6102f582610324565b5f82518060208501845e5f920191825250919050565b60805161011b61045b5f395f601d015261011b5ff3fe6080604052600a600c565b005b60186014601a565b609d565b565b5f7f00000000000000000000000000000000000000000000000000000000000000006001600160a01b0316635c60da1b6040518163ffffffff1660e01b8152600401602060405180830381865afa1580156076573d5f5f3e3d5ffd5b505050506040513d601f19601f820116820180604052508101906098919060ba565b905090565b365f5f375f5f365f845af43d5f5f3e80801560b6573d5ff35b3d5ffd5b5f6020828403121560c9575f5ffd5b81516001600160a01b038116811460de575f5ffd5b939250505056fea26469706673582212204c4b34d787f43c1abf7956b9d978769ebcde7a1a31b9da1b3115f26ddce407e464736f6c634300081c0033a2646970667358221220447df51c2ea24411e6587b55aaca0c8f746f82e5dae24f978e71fbf6220e3cfc64736f6c634300081c0033608060405234801561000f575f5ffd5b5060405161042138038061042183398101604081905261002e9161015f565b806001600160a01b03811661005d57604051631e4fbdf760e01b81525f60048201526024015b60405180910390fd5b61006681610077565b50610070826100c6565b5050610190565b5f80546001600160a01b038381166001600160a01b0319831681178455604051919092169283917f8be0079c531659141344cd1fd0a4f28419497f9722a3daafe3b4186f6b6457e09190a35050565b806001600160a01b03163b5f036100fb5760405163211eb15960e21b81526001600160a01b0382166004820152602401610054565b600180546001600160a01b0319166001600160a01b0383169081179091556040517fbc7cd75a20ee27fd9adebab32041f755214dbc6bffa90cc0225b39da2e5c2d3b905f90a250565b80516001600160a01b038116811461015a575f5ffd5b919050565b5f5f60408385031215610170575f5ffd5b61017983610144565b915061018760208401610144565b90509250929050565b6102848061019d5f395ff3fe608060405234801561000f575f5ffd5b5060043610610055575f3560e01c80633659cfe6146100595780635c60da1b1461006e578063715018a6146100975780638da5cb5b1461009f578063f2fde38b146100af575b5f5ffd5b61006c610067366004610221565b6100c2565b005b6001546001600160a01b03165b6040516001600160a01b03909116815260200160405180910390f35b61006c6100d6565b5f546001600160a01b031661007b565b61006c6100bd366004610221565b6100e9565b6100ca610128565b6100d381610154565b50565b6100de610128565b6100e75f6101d2565b565b6100f1610128565b6001600160a01b03811661011f57604051631e4fbdf760e01b81525f60048201526024015b60405180910390fd5b6100d3816101d2565b5f546001600160a01b031633146100e75760405163118cdaa760e01b8152336004820152602401610116565b806001600160a01b03163b5f036101895760405163211eb15960e21b81526001600160a01b0382166004820152602401610116565b600180546001600160a01b0319166001600160a01b0383169081179091556040517fbc7cd75a20ee27fd9adebab32041f755214dbc6bffa90cc0225b39da2e5c2d3b905f90a250565b5f80546001600160a01b038381166001600160a01b0319831681178455604051919092169283917f8be0079c531659141344cd1fd0a4f28419497f9722a3daafe3b4186f6b6457e09190a35050565b5f60208284031215610231575f5ffd5b81356001600160a01b0381168114610247575f5ffd5b939250505056fea2646970667358221220dffbc12f0cee319820906e11fba561da61f9cf2a1a2c5ab48207b8e86dbb168764736f6c634300081c0033",
  "linkReferences": {},
  "deployedLinkReferences": {},
  "immutableReferences": {
    "2024": [
      {
        "length": 32,
        "start": 392
      },
      {
        "length": 32,
        "start": 1348
      },
      {
        "length": 32,
        "start": 2291
      }
    ]
  },
  "inputSourceName": "project/contracts/CanonicalRegistry.sol",
  "buildInfoId": "solc-0_8_28-7d86f7bf26914ed98d263dbfad859476385808f6"
}