{
  "_format": "hh3-artifact-1",
  "contractName": "EntityRegistry",
  "sourceName": "contracts/EntityRegistry.sol",
  "abi": [
    {
      "inputs": [
        {
          "internalType": "address",
          "name": "accountImpl_",
          "type": "address"
        },
        {
          "internalType": "address",
          "name": "admin",
          "type": "address"
        }
      ],
      "stateMutability": "nonpayable",
      "type": "constructor"
    },
    {
      "inputs": [
        {
          "internalType": "address",
          "name": "owner",
          "type": "address"
        }
      ],
      "name": "OwnableInvalidOwner",
      "type": "error"
    },
    {
      "inputs": [
        {
          "internalType": "address",
          "name": "account",
          "type": "address"
        }
      ],
      "name": "OwnableUnauthorizedAccount",
      "type": "error"
    },
    {
      "anonymous": false,
      "inputs": [
        {
          "indexed": true,
          "internalType": "bytes32",
          "name": "id",
          "type": "bytes32"
        },
        {
          "indexed": false,
          "internalType": "address",
          "name": "account",
          "type": "address"
        }
      ],
      "name": "AccountDeployed",
      "type": "event"
    },
    {
      "anonymous": false,
      "inputs": [
        {
          "indexed": true,
          "internalType": "bytes32",
          "name": "id",
          "type": "bytes32"
        },
        {
          "indexed": false,
          "internalType": "string",
          "name": "namespace",
          "type": "string"
        },
        {
          "indexed": false,
          "internalType": "string",
          "name": "canonicalString",
          "type": "string"
        },
        {
          "indexed": true,
          "internalType": "address",
          "name": "owner",
          "type": "address"
        }
      ],
      "name": "Claimed",
      "type": "event"
    },
    {
      "anonymous": false,
      "inputs": [
        {
          "indexed": true,
          "internalType": "bytes32",
          "name": "aliasId",
          "type": "bytes32"
        },
        {
          "indexed": true,
          "internalType": "bytes32",
          "name": "primaryId",
          "type": "bytes32"
        }
      ],
      "name": "Linked",
      "type": "event"
    },
    {
      "anonymous": false,
      "inputs": [
        {
          "indexed": true,
          "internalType": "address",
          "name": "previousOwner",
          "type": "address"
        },
        {
          "indexed": true,
          "internalType": "address",
          "name": "newOwner",
          "type": "address"
        }
      ],
      "name": "OwnershipTransferred",
      "type": "event"
    },
    {
      "anonymous": false,
      "inputs": [
        {
          "indexed": true,
          "internalType": "bytes32",
          "name": "id",
          "type": "bytes32"
        },
        {
          "indexed": false,
          "internalType": "string",
          "name": "namespace",
          "type": "string"
        },
        {
          "indexed": false,
          "internalType": "string",
          "name": "canonicalString",
          "type": "string"
        },
        {
          "indexed": true,
          "internalType": "address",
          "name": "previousOwner",
          "type": "address"
        }
      ],
      "name": "Revoked",
      "type": "event"
    },
    {
      "anonymous": false,
      "inputs": [
        {
          "indexed": true,
          "internalType": "bytes32",
          "name": "aliasId",
          "type": "bytes32"
        },
        {
          "indexed": true,
          "internalType": "bytes32",
          "name": "primaryId",
          "type": "bytes32"
        }
      ],
      "name": "Unlinked",
      "type": "event"
    },
    {
      "anonymous": false,
      "inputs": [
        {
          "indexed": true,
          "internalType": "bytes32",
          "name": "namespaceKey",
          "type": "bytes32"
        },
        {
          "indexed": false,
          "internalType": "address",
          "name": "verifier",
          "type": "address"
        }
      ],
      "name": "VerifierUpdated",
      "type": "event"
    },
    {
      "inputs": [
        {
          "internalType": "bytes32",
          "name": "",
          "type": "bytes32"
        }
      ],
      "name": "aliases",
      "outputs": [
        {
          "internalType": "bytes32",
          "name": "",
          "type": "bytes32"
        }
      ],
      "stateMutability": "view",
      "type": "function"
    },
    {
      "inputs": [],
      "name": "beacon",
      "outputs": [
        {
          "internalType": "contract UpgradeableBeacon",
          "name": "",
          "type": "address"
        }
      ],
      "stateMutability": "view",
      "type": "function"
    },
    {
      "inputs": [
        {
          "internalType": "bytes32",
          "name": "id",
          "type": "bytes32"
        }
      ],
      "name": "canonicalOf",
      "outputs": [
        {
          "internalType": "bytes32",
          "name": "",
          "type": "bytes32"
        }
      ],
      "stateMutability": "view",
      "type": "function"
    },
    {
      "inputs": [
        {
          "internalType": "string",
          "name": "namespace",
          "type": "string"
        },
        {
          "internalType": "string",
          "name": "canonicalString",
          "type": "string"
        },
        {
          "internalType": "bytes",
          "name": "proof",
          "type": "bytes"
        }
      ],
      "name": "claim",
      "outputs": [],
      "stateMutability": "nonpayable",
      "type": "function"
    },
    {
      "inputs": [
        {
          "internalType": "bytes32",
          "name": "id",
          "type": "bytes32"
        }
      ],
      "name": "deployAccount",
      "outputs": [
        {
          "internalType": "address",
          "name": "account",
          "type": "address"
        }
      ],
      "stateMutability": "nonpayable",
      "type": "function"
    },
    {
      "inputs": [
        {
          "internalType": "bytes32",
          "name": "primaryId",
          "type": "bytes32"
        },
        {
          "internalType": "bytes32[]",
          "name": "aliasIds",
          "type": "bytes32[]"
        }
      ],
      "name": "linkIds",
      "outputs": [],
      "stateMutability": "nonpayable",
      "type": "function"
    },
    {
      "inputs": [],
      "name": "owner",
      "outputs": [
        {
          "internalType": "address",
          "name": "",
          "type": "address"
        }
      ],
      "stateMutability": "view",
      "type": "function"
    },
    {
      "inputs": [
        {
          "internalType": "bytes32",
          "name": "id",
          "type": "bytes32"
        }
      ],
      "name": "ownerOf",
      "outputs": [
        {
          "internalType": "address",
          "name": "",
          "type": "address"
        }
      ],
      "stateMutability": "view",
      "type": "function"
    },
    {
      "inputs": [
        {
          "internalType": "bytes32",
          "name": "",
          "type": "bytes32"
        }
      ],
      "name": "owners",
      "outputs": [
        {
          "internalType": "address",
          "name": "",
          "type": "address"
        }
      ],
      "stateMutability": "view",
      "type": "function"
    },
    {
      "inputs": [
        {
          "internalType": "bytes32",
          "name": "id",
          "type": "bytes32"
        }
      ],
      "name": "predictAddress",
      "outputs": [
        {
          "internalType": "address",
          "name": "",
          "type": "address"
        }
      ],
      "stateMutability": "view",
      "type": "function"
    },
    {
      "inputs": [],
      "name": "renounceOwnership",
      "outputs": [],
      "stateMutability": "nonpayable",
      "type": "function"
    },
    {
      "inputs": [
        {
          "internalType": "string",
          "name": "namespace",
          "type": "string"
        },
        {
          "internalType": "string",
          "name": "canonicalString",
          "type": "string"
        }
      ],
      "name": "revoke",
      "outputs": [],
      "stateMutability": "nonpayable",
      "type": "function"
    },
    {
      "inputs": [
        {
          "internalType": "string",
          "name": "namespace",
          "type": "string"
        },
        {
          "internalType": "address",
          "name": "verifier",
          "type": "address"
        }
      ],
      "name": "setVerifier",
      "outputs": [],
      "stateMutability": "nonpayable",
      "type": "function"
    },
    {
      "inputs": [
        {
          "internalType": "string",
          "name": "namespace",
          "type": "string"
        },
        {
          "internalType": "string",
          "name": "canonicalString",
          "type": "string"
        }
      ],
      "name": "toId",
      "outputs": [
        {
          "internalType": "bytes32",
          "name": "",
          "type": "bytes32"
        }
      ],
      "stateMutability": "pure",
      "type": "function"
    },
    {
      "inputs": [
        {
          "internalType": "address",
          "name": "newOwner",
          "type": "address"
        }
      ],
      "name": "transferOwnership",
      "outputs": [],
      "stateMutability": "nonpayable",
      "type": "function"
    },
    {
      "inputs": [
        {
          "internalType": "bytes32",
          "name": "primaryId",
          "type": "bytes32"
        },
        {
          "internalType": "bytes32[]",
          "name": "aliasIds",
          "type": "bytes32[]"
        }
      ],
      "name": "unlinkIds",
      "outputs": [],
      "stateMutability": "nonpayable",
      "type": "function"
    },
    {
      "inputs": [
        {
          "internalType": "address",
          "name": "newImpl",
          "type": "address"
        }
      ],
      "name": "upgradeAccountImplementation",
      "outputs": [],
      "stateMutability": "nonpayable",
      "type": "function"
    },
    {
      "inputs": [
        {
          "internalType": "bytes32",
          "name": "",
          "type": "bytes32"
        }
      ],
      "name": "verifiers",
      "outputs": [
        {
          "internalType": "address",
          "name": "",
          "type": "address"
        }
      ],
      "stateMutability": "view",
      "type": "function"
    }
  ],
  "bytecode": "0x60a060405234801561000f575f5ffd5b50604051611e1a380380611e1a83398101604081905261002e91610130565b806001600160a01b03811661005c57604051631e4fbdf760e01b81525f600482015260240160405180910390fd5b610065816100b9565b50813060405161007490610108565b6001600160a01b03928316815291166020820152604001604051809103905ff0801580156100a4573d5f5f3e3d5ffd5b506001600160a01b0316608052506101619050565b5f80546001600160a01b038381166001600160a01b0319831681178455604051919092169283917f8be0079c531659141344cd1fd0a4f28419497f9722a3daafe3b4186f6b6457e09190a35050565b610421806119f983390190565b80516001600160a01b038116811461012b575f5ffd5b919050565b5f5f60408385031215610141575f5ffd5b61014a83610115565b915061015860208401610115565b90509250929050565b60805161186b61018e5f395f8181610168015281816107e601528181610a520152610daf015261186b5ff3fe608060405234801561000f575f5ffd5b5060043610610111575f3560e01c80639c76b6541161009e578063efe1c9501161006e578063efe1c9501461024b578063f2fde38b14610273578063f5020a8114610286578063fb8ad6ff14610299578063fc8613f9146102c1575f5ffd5b80639c76b654146101f3578063b7dc5bc014610206578063d01a9cae14610219578063e75118731461022c575f5ffd5b80635e868c7c116100e45780635e868c7c146101a257806369e5c51d146101b5578063715018a6146101c85780637dd56411146101d05780638da5cb5b146101e3575f5ffd5b806310b40f85146101155780631128d6ed1461012a5780632052023d1461015057806359659e9014610163575b5f5ffd5b610128610123366004610f15565b6102d4565b005b61013d610138366004610f15565b61042c565b6040519081526020015b60405180910390f35b61012861015e366004610f9c565b610464565b61018a7f000000000000000000000000000000000000000000000000000000000000000081565b6040516001600160a01b039091168152602001610147565b6101286101b0366004610fec565b6104e8565b61013d6101c336600461108b565b61075d565b610128610780565b61018a6101de36600461108b565b610793565b5f546001600160a01b031661018a565b61018a61020136600461108b565b6107bf565b6101286102143660046110a2565b6108aa565b61018a61022736600461108b565b6109dd565b61013d61023a36600461108b565b60036020525f908152604090205481565b61018a61025936600461108b565b60016020525f90815260409020546001600160a01b031681565b61012861028136600461111c565b610af5565b6101286102943660046110a2565b610b32565b61018a6102a736600461108b565b60026020525f90815260409020546001600160a01b031681565b6101286102cf36600461111c565b610d88565b5f6102e18585858561042c565b5f81815260036020526040902054909150156103535760405162461bcd60e51b815260206004820152602660248201527f456e7469747952656769737472793a2063616e6e6f74207265766f6b6520616e60448201526520616c69617360d01b60648201526084015b60405180910390fd5b5f818152600260205260409020546001600160a01b031633146103b85760405162461bcd60e51b815260206004820152601960248201527f456e7469747952656769737472793a206e6f74206f776e657200000000000000604482015260640161034a565b5f818152600260205260409081902080546001600160a01b0319811690915590516001600160a01b0390911690819083907f1991801e741de389663cae6f1385cca0d459908cdb99eeb04693b818e12895ee9061041c908a908a908a908a9061115d565b60405180910390a3505050505050565b5f84848484604051602001610444949392919061115d565b604051602081830303815290604052805190602001209050949350505050565b61046c610e09565b5f838360405161047d92919061118e565b604080519182900382205f8181526001602090815292902080546001600160a01b0319166001600160a01b0387169081179091558352925082917f6a0bc92a0af4141c4fe618cedd8505ba42c348a852d400aec2138fcd1eb1645b910160405180910390a250505050565b5f6104f58787878761042c565b90505f61050182610793565b6001600160a01b0316146105575760405162461bcd60e51b815260206004820152601f60248201527f456e7469747952656769737472793a20616c726561647920636c61696d656400604482015260640161034a565b5f60015f898960405161056b92919061118e565b604080519182900390912082526020820192909252015f20546001600160a01b03169050806105ee5760405162461bcd60e51b815260206004820152602960248201527f456e7469747952656769737472793a206e6f20766572696669657220666f72206044820152686e616d65737061636560b81b606482015260840161034a565b60405163f5cf2ce160e01b81526001600160a01b0382169063f5cf2ce19061062090859033908990899060040161119d565b6020604051808303815f875af115801561063c573d5f5f3e3d5ffd5b505050506040513d601f19601f8201168201806040525081019061066091906111d1565b6106ac5760405162461bcd60e51b815260206004820152601d60248201527f456e7469747952656769737472793a20696e76616c69642070726f6f66000000604482015260640161034a565b5f82815260036020526040902054156106ce575f828152600360205260408120555b5f828152600260205260409081902080546001600160a01b03191633908117909155905183907f1474d62beb2ce8a8fbac4d01444f58745a193519e8323fa9da74d8042fe161fe90610727908c908c908c908c9061115d565b60405180910390a3610738826107bf565b6001600160a01b03163b5f0361075357610751826109dd565b505b5050505050505050565b5f8181526003602052604081205480156107775780610779565b825b9392505050565b610788610e09565b6107915f610e35565b565b5f60025f6107a08461075d565b815260208101919091526040015f20546001600160a01b031692915050565b5f5f604051806020016107d190610ec3565b601f1982820381018352601f909101166040527f000000000000000000000000000000000000000000000000000000000000000061080e85610e84565b60405160200161081f9291906111f0565b60408051601f198184030181529082905261083d929160200161124b565b60408051601f1981840301815282825280516020918201206001600160f81b0319828501523060601b6bffffffffffffffffffffffff1916602185015260358401969096526055808401969096528151808403909601865260759092019052835193019290922092915050565b5f838152600260205260409020546001600160a01b031633146108df5760405162461bcd60e51b815260040161034a90611267565b5f5b818110156109d7575f8383838181106108fc576108fc6112ab565b9050602002013590508460035f8381526020019081526020015f20541461097a5760405162461bcd60e51b815260206004820152602c60248201527f456e7469747952656769737472793a206e6f7420616e20616c696173206f662060448201526b74686973207072696d61727960a01b606482015260840161034a565b5f818152600360209081526040808320839055600290915280822080546001600160a01b0319163317905551869183917f77dbd64f6e6762286be356bc39dbfefd7120eb79662b0b70480dbfa836785a029190a3506001016108e1565b50505050565b5f6109e7826107bf565b6001600160a01b03163b15610a4f5760405162461bcd60e51b815260206004820152602860248201527f456e7469747952656769737472793a206163636f756e7420616c72656164792060448201526719195c1b1bde595960c21b606482015260840161034a565b817f0000000000000000000000000000000000000000000000000000000000000000610a7a84610e84565b604051610a8690610ec3565b610a919291906111f0565b8190604051809103905ff5905080158015610aae573d5f5f3e3d5ffd5b506040516001600160a01b038216815290915082907fc8c3d9202a1e1a55d43501eb20e9521386e5a89e7c02c0aa6b2a638068ae91cf9060200160405180910390a2919050565b610afd610e09565b6001600160a01b038116610b2657604051631e4fbdf760e01b81525f600482015260240161034a565b610b2f81610e35565b50565b5f838152600260205260409020546001600160a01b03163314610b675760405162461bcd60e51b815260040161034a90611267565b5f8381526003602052604090205415610bd55760405162461bcd60e51b815260206004820152602a60248201527f456e7469747952656769737472793a207072696d61727920697320697473656c6044820152696620616e20616c69617360b01b606482015260840161034a565b5f5b818110156109d7575f838383818110610bf257610bf26112ab565b905060200201359050848103610c565760405162461bcd60e51b815260206004820152602360248201527f456e7469747952656769737472793a2063616e6e6f74206c696e6b20746f207360448201526232b63360e91b606482015260840161034a565b5f818152600260205260409020546001600160a01b03163314610cc65760405162461bcd60e51b815260206004820152602260248201527f456e7469747952656769737472793a206e6f74206f776e6572206f6620616c69604482015261617360f01b606482015260840161034a565b5f8181526003602052604090205415610d2d5760405162461bcd60e51b8152602060048201526024808201527f456e7469747952656769737472793a20616c69617320616c7265616479206c696044820152631b9ad95960e21b606482015260840161034a565b5f818152600360209081526040808320889055600290915280822080546001600160a01b031916905551869183917fe706a2f4646de38f6a8496fd5248d967ee433ae657dd7fb94e8ad712c17f59699190a350600101610bd7565b610d90610e09565b604051631b2ce7f360e11b81526001600160a01b0382811660048301527f00000000000000000000000000000000000000000000000000000000000000001690633659cfe6906024015f604051808303815f87803b158015610df0575f5ffd5b505af1158015610e02573d5f5f3e3d5ffd5b5050505050565b5f546001600160a01b031633146107915760405163118cdaa760e01b815233600482015260240161034a565b5f80546001600160a01b038381166001600160a01b0319831681178455604051919092169283917f8be0079c531659141344cd1fd0a4f28419497f9722a3daafe3b4186f6b6457e09190a35050565b604080513060248201526044808201939093528151808203909301835260640190526020810180516001600160e01b0316632f84fd1f60e21b17905290565b610576806112c083390190565b5f5f83601f840112610ee0575f5ffd5b50813567ffffffffffffffff811115610ef7575f5ffd5b602083019150836020828501011115610f0e575f5ffd5b9250929050565b5f5f5f5f60408587031215610f28575f5ffd5b843567ffffffffffffffff811115610f3e575f5ffd5b610f4a87828801610ed0565b909550935050602085013567ffffffffffffffff811115610f69575f5ffd5b610f7587828801610ed0565b95989497509550505050565b80356001600160a01b0381168114610f97575f5ffd5b919050565b5f5f5f60408486031215610fae575f5ffd5b833567ffffffffffffffff811115610fc4575f5ffd5b610fd086828701610ed0565b9094509250610fe3905060208501610f81565b90509250925092565b5f5f5f5f5f5f60608789031215611001575f5ffd5b863567ffffffffffffffff811115611017575f5ffd5b61102389828a01610ed0565b909750955050602087013567ffffffffffffffff811115611042575f5ffd5b61104e89828a01610ed0565b909550935050604087013567ffffffffffffffff81111561106d575f5ffd5b61107989828a01610ed0565b979a9699509497509295939492505050565b5f6020828403121561109b575f5ffd5b5035919050565b5f5f5f604084860312156110b4575f5ffd5b83359250602084013567ffffffffffffffff8111156110d1575f5ffd5b8401601f810186136110e1575f5ffd5b803567ffffffffffffffff8111156110f7575f5ffd5b8660208260051b840101111561110b575f5ffd5b939660209190910195509293505050565b5f6020828403121561112c575f5ffd5b61077982610f81565b81835281816020850137505f828201602090810191909152601f909101601f19169091010190565b604081525f611170604083018688611135565b8281036020840152611183818587611135565b979650505050505050565b818382375f9101908152919050565b8481526001600160a01b03841660208201526060604082018190525f906111c79083018486611135565b9695505050505050565b5f602082840312156111e1575f5ffd5b81518015158114610779575f5ffd5b60018060a01b0383168152604060208201525f82518060408401528060208501606085015e5f606082850101526060601f19601f8301168401019150509392505050565b5f81518060208401855e5f93019283525090919050565b5f61125f6112598386611234565b84611234565b949350505050565b60208082526024908201527f456e7469747952656769737472793a206e6f74206f776e6572206f66207072696040820152636d61727960e01b606082015260800190565b634e487b7160e01b5f52603260045260245ffdfe60a060405260405161057638038061057683398101604081905261002291610353565b61002c828261003e565b506001600160a01b0316608052610444565b610047826100fb565b6040516001600160a01b038316907f1cf3b03a6cf19fa2baba4df148e9dcabedea7f8a5c07840e207e5c089be95d3e905f90a28051156100ef576100ea826001600160a01b0316635c60da1b6040518163ffffffff1660e01b8152600401602060405180830381865afa1580156100c0573d5f5f3e3d5ffd5b505050506040513d601f19601f820116820180604052508101906100e49190610415565b82610209565b505050565b6100f761027c565b5050565b806001600160a01b03163b5f0361013557604051631933b43b60e21b81526001600160a01b03821660048201526024015b60405180910390fd5b807fa3f0ad74e5423aebfd80d3ef4346578335a9a72aeaee59ff6cb3582b35133d5080546001600160a01b0319166001600160a01b0392831617905560408051635c60da1b60e01b815290515f92841691635c60da1b9160048083019260209291908290030181865afa1580156101ae573d5f5f3e3d5ffd5b505050506040513d601f19601f820116820180604052508101906101d29190610415565b9050806001600160a01b03163b5f036100f757604051634c9c8ce360e01b81526001600160a01b038216600482015260240161012c565b60605f5f846001600160a01b031684604051610225919061042e565b5f60405180830381855af49150503d805f811461025d576040519150601f19603f3d011682016040523d82523d5f602084013e610262565b606091505b50909250905061027385838361029d565b95945050505050565b341561029b5760405163b398979f60e01b815260040160405180910390fd5b565b6060826102b2576102ad826102fc565b6102f5565b81511580156102c957506001600160a01b0384163b155b156102f257604051639996b31560e01b81526001600160a01b038516600482015260240161012c565b50805b9392505050565b80511561030b57805160208201fd5b60405163d6bda27560e01b815260040160405180910390fd5b80516001600160a01b038116811461033a575f5ffd5b919050565b634e487b7160e01b5f52604160045260245ffd5b5f5f60408385031215610364575f5ffd5b61036d83610324565b60208401519092506001600160401b03811115610388575f5ffd5b8301601f81018513610398575f5ffd5b80516001600160401b038111156103b1576103b161033f565b604051601f8201601f19908116603f011681016001600160401b03811182821017156103df576103df61033f565b6040528181528282016020018710156103f6575f5ffd5b8160208401602083015e5f602083830101528093505050509250929050565b5f60208284031215610425575f5ffd5b6102f582610324565b5f82518060208501845e5f920191825250919050565b60805161011b61045b5f395f601d015261011b5ff3fe6080604052600a600c565b005b60186014601a565b609d565b565b5f7f00000000000000000000000000000000000000000000000000000000000000006001600160a01b0316635c60da1b6040518163ffffffff1660e01b8152600401602060405180830381865afa1580156076573d5f5f3e3d5ffd5b505050506040513d601f19601f820116820180604052508101906098919060ba565b905090565b365f5f375f5f365f845af43d5f5f3e80801560b6573d5ff35b3d5ffd5b5f6020828403121560c9575f5ffd5b81516001600160a01b038116811460de575f5ffd5b939250505056fea26469706673582212204c4b34d787f43c1abf7956b9d978769ebcde7a1a31b9da1b3115f26ddce407e464736f6c634300081c0033a26469706673582212204bf652edb3aa489072155a3b85bb0fd21a3d95cdd9ddcfba6ec14d520c6e1ec064736f6c634300081c0033608060405234801561000f575f5ffd5b5060405161042138038061042183398101604081905261002e9161015f565b806001600160a01b03811661005d57604051631e4fbdf760e01b81525f60048201526024015b60405180910390fd5b61006681610077565b50610070826100c6565b5050610190565b5f80546001600160a01b038381166001600160a01b0319831681178455604051919092169283917f8be0079c531659141344cd1fd0a4f28419497f9722a3daafe3b4186f6b6457e09190a35050565b806001600160a01b03163b5f036100fb5760405163211eb15960e21b81526001600160a01b0382166004820152602401610054565b600180546001600160a01b0319166001600160a01b0383169081179091556040517fbc7cd75a20ee27fd9adebab32041f755214dbc6bffa90cc0225b39da2e5c2d3b905f90a250565b80516001600160a01b038116811461015a575f5ffd5b919050565b5f5f60408385031215610170575f5ffd5b61017983610144565b915061018760208401610144565b90509250929050565b6102848061019d5f395ff3fe608060405234801561000f575f5ffd5b5060043610610055575f3560e01c80633659cfe6146100595780635c60da1b1461006e578063715018a6146100975780638da5cb5b1461009f578063f2fde38b146100af575b5f5ffd5b61006c610067366004610221565b6100c2565b005b6001546001600160a01b03165b6040516001600160a01b03909116815260200160405180910390f35b61006c6100d6565b5f546001600160a01b031661007b565b61006c6100bd366004610221565b6100e9565b6100ca610128565b6100d381610154565b50565b6100de610128565b6100e75f6101d2565b565b6100f1610128565b6001600160a01b03811661011f57604051631e4fbdf760e01b81525f60048201526024015b60405180910390fd5b6100d3816101d2565b5f546001600160a01b031633146100e75760405163118cdaa760e01b8152336004820152602401610116565b806001600160a01b03163b5f036101895760405163211eb15960e21b81526001600160a01b0382166004820152602401610116565b600180546001600160a01b0319166001600160a01b0383169081179091556040517fbc7cd75a20ee27fd9adebab32041f755214dbc6bffa90cc0225b39da2e5c2d3b905f90a250565b5f80546001600160a01b038381166001600160a01b0319831681178455604051919092169283917f8be0079c531659141344cd1fd0a4f28419497f9722a3daafe3b4186f6b6457e09190a35050565b5f60208284031215610231575f5ffd5b81356001600160a01b0381168114610247575f5ffd5b939250505056fea2646970667358221220dffbc12f0cee319820906e11fba561da61f9cf2a1a2c5ab48207b8e86dbb168764736f6c634300081c0033",
  "linkReferences": {},
  "deployedLinkReferences": {},
  "immutableReferences": {
    "1380": [
      {
        "length": 32,
        "start": 360
      },
      {
        "length": 32,
        "start": 2022
      },
      {
        "length": 32,
        "start": 2642
      },
      {
        "length": 32,
        "start": 3503
      }
    ]
  },
  "inputSourceName": "project/contracts/EntityRegistry.sol",
  "buildInfoId": "solc-0_8_28-27683076e7744f6ab011cd5aec9e9be2e33881de"
}