{
  "_format": "hh3-artifact-1",
  "contractName": "Strategy",
  "sourceName": "contracts/Strategy.sol",
  "abi": [
    {
      "inputs": [
        {
          "internalType": "address",
          "name": "_warehouse",
          "type": "address"
        },
        {
          "internalType": "address",
          "name": "_reverseRegistrar",
          "type": "address"
        }
      ],
      "stateMutability": "nonpayable",
      "type": "constructor"
    },
    {
      "inputs": [],
      "name": "InvalidInitialization",
      "type": "error"
    },
    {
      "inputs": [],
      "name": "NoAllocationsSet",
      "type": "error"
    },
    {
      "inputs": [],
      "name": "NoBalanceToDistribute",
      "type": "error"
    },
    {
      "inputs": [],
      "name": "NotInitializing",
      "type": "error"
    },
    {
      "inputs": [
        {
          "internalType": "address",
          "name": "owner",
          "type": "address"
        }
      ],
      "name": "OwnableInvalidOwner",
      "type": "error"
    },
    {
      "inputs": [
        {
          "internalType": "address",
          "name": "account",
          "type": "address"
        }
      ],
      "name": "OwnableUnauthorizedAccount",
      "type": "error"
    },
    {
      "inputs": [],
      "name": "ReentrancyGuardReentrantCall",
      "type": "error"
    },
    {
      "inputs": [
        {
          "internalType": "address",
          "name": "token",
          "type": "address"
        }
      ],
      "name": "SafeERC20FailedOperation",
      "type": "error"
    },
    {
      "inputs": [],
      "name": "TooManyAllocations",
      "type": "error"
    },
    {
      "inputs": [],
      "name": "WeightOverflow",
      "type": "error"
    },
    {
      "inputs": [],
      "name": "ZeroAddressRecipient",
      "type": "error"
    },
    {
      "inputs": [],
      "name": "ZeroWarehouseAddress",
      "type": "error"
    },
    {
      "inputs": [],
      "name": "ZeroWeight",
      "type": "error"
    },
    {
      "anonymous": false,
      "inputs": [
        {
          "indexed": true,
          "internalType": "address",
          "name": "token",
          "type": "address"
        },
        {
          "indexed": false,
          "internalType": "uint256",
          "name": "totalAmount",
          "type": "uint256"
        },
        {
          "components": [
            {
              "internalType": "address",
              "name": "recipient",
              "type": "address"
            },
            {
              "internalType": "uint96",
              "name": "weight",
              "type": "uint96"
            },
            {
              "internalType": "string",
              "name": "label",
              "type": "string"
            }
          ],
          "indexed": false,
          "internalType": "struct Strategy.Allocation[]",
          "name": "allocations",
          "type": "tuple[]"
        }
      ],
      "name": "Distributed",
      "type": "event"
    },
    {
      "anonymous": false,
      "inputs": [
        {
          "indexed": true,
          "internalType": "address",
          "name": "token",
          "type": "address"
        },
        {
          "indexed": true,
          "internalType": "address",
          "name": "from",
          "type": "address"
        },
        {
          "indexed": false,
          "internalType": "uint256",
          "name": "amount",
          "type": "uint256"
        }
      ],
      "name": "Funded",
      "type": "event"
    },
    {
      "anonymous": false,
      "inputs": [
        {
          "indexed": false,
          "internalType": "uint64",
          "name": "version",
          "type": "uint64"
        }
      ],
      "name": "Initialized",
      "type": "event"
    },
    {
      "anonymous": false,
      "inputs": [
        {
          "indexed": true,
          "internalType": "address",
          "name": "previousOwner",
          "type": "address"
        },
        {
          "indexed": true,
          "internalType": "address",
          "name": "newOwner",
          "type": "address"
        }
      ],
      "name": "OwnershipTransferred",
      "type": "event"
    },
    {
      "anonymous": false,
      "inputs": [
        {
          "indexed": true,
          "internalType": "address",
          "name": "recipient",
          "type": "address"
        },
        {
          "indexed": true,
          "internalType": "address",
          "name": "token",
          "type": "address"
        },
        {
          "indexed": false,
          "internalType": "uint256",
          "name": "amount",
          "type": "uint256"
        }
      ],
      "name": "Payout",
      "type": "event"
    },
    {
      "anonymous": false,
      "inputs": [
        {
          "components": [
            {
              "internalType": "address",
              "name": "recipient",
              "type": "address"
            },
            {
              "internalType": "uint96",
              "name": "weight",
              "type": "uint96"
            },
            {
              "internalType": "string",
              "name": "label",
              "type": "string"
            }
          ],
          "indexed": false,
          "internalType": "struct Strategy.Allocation[]",
          "name": "allocations",
          "type": "tuple[]"
        },
        {
          "indexed": false,
          "internalType": "string",
          "name": "metadataURI",
          "type": "string"
        }
      ],
      "name": "Rebalanced",
      "type": "event"
    },
    {
      "stateMutability": "payable",
      "type": "fallback"
    },
    {
      "inputs": [],
      "name": "MAX_ALLOCATIONS",
      "outputs": [
        {
          "internalType": "uint256",
          "name": "",
          "type": "uint256"
        }
      ],
      "stateMutability": "view",
      "type": "function"
    },
    {
      "inputs": [],
      "name": "NATIVE_TOKEN",
      "outputs": [
        {
          "internalType": "address",
          "name": "",
          "type": "address"
        }
      ],
      "stateMutability": "view",
      "type": "function"
    },
    {
      "inputs": [
        {
          "internalType": "uint256",
          "name": "",
          "type": "uint256"
        }
      ],
      "name": "allocations",
      "outputs": [
        {
          "internalType": "address",
          "name": "recipient",
          "type": "address"
        },
        {
          "internalType": "uint96",
          "name": "weight",
          "type": "uint96"
        },
        {
          "internalType": "string",
          "name": "label",
          "type": "string"
        }
      ],
      "stateMutability": "view",
      "type": "function"
    },
    {
      "inputs": [
        {
          "internalType": "address",
          "name": "token",
          "type": "address"
        }
      ],
      "name": "balanceOf",
      "outputs": [
        {
          "internalType": "uint256",
          "name": "",
          "type": "uint256"
        }
      ],
      "stateMutability": "view",
      "type": "function"
    },
    {
      "inputs": [
        {
          "internalType": "address",
          "name": "token",
          "type": "address"
        }
      ],
      "name": "distribute",
      "outputs": [],
      "stateMutability": "nonpayable",
      "type": "function"
    },
    {
      "inputs": [],
      "name": "factory",
      "outputs": [
        {
          "internalType": "address",
          "name": "",
          "type": "address"
        }
      ],
      "stateMutability": "view",
      "type": "function"
    },
    {
      "inputs": [],
      "name": "getAllocations",
      "outputs": [
        {
          "components": [
            {
              "internalType": "address",
              "name": "recipient",
              "type": "address"
            },
            {
              "internalType": "uint96",
              "name": "weight",
              "type": "uint96"
            },
            {
              "internalType": "string",
              "name": "label",
              "type": "string"
            }
          ],
          "internalType": "struct Strategy.Allocation[]",
          "name": "",
          "type": "tuple[]"
        }
      ],
      "stateMutability": "view",
      "type": "function"
    },
    {
      "inputs": [],
      "name": "getAllocationsCount",
      "outputs": [
        {
          "internalType": "uint256",
          "name": "",
          "type": "uint256"
        }
      ],
      "stateMutability": "view",
      "type": "function"
    },
    {
      "inputs": [
        {
          "components": [
            {
              "internalType": "address",
              "name": "owner",
              "type": "address"
            },
            {
              "internalType": "address",
              "name": "sourceStrategy",
              "type": "address"
            },
            {
              "components": [
                {
                  "internalType": "address",
                  "name": "recipient",
                  "type": "address"
                },
                {
                  "internalType": "uint96",
                  "name": "weight",
                  "type": "uint96"
                },
                {
                  "internalType": "string",
                  "name": "label",
                  "type": "string"
                }
              ],
              "internalType": "struct Strategy.Allocation[]",
              "name": "allocations",
              "type": "tuple[]"
            },
            {
              "internalType": "string",
              "name": "metadataURI",
              "type": "string"
            }
          ],
          "internalType": "struct Strategy.Config",
          "name": "config",
          "type": "tuple"
        },
        {
          "internalType": "string",
          "name": "ensName",
          "type": "string"
        }
      ],
      "name": "initialize",
      "outputs": [],
      "stateMutability": "nonpayable",
      "type": "function"
    },
    {
      "inputs": [],
      "name": "metadataURI",
      "outputs": [
        {
          "internalType": "string",
          "name": "",
          "type": "string"
        }
      ],
      "stateMutability": "view",
      "type": "function"
    },
    {
      "inputs": [
        {
          "internalType": "address",
          "name": "",
          "type": "address"
        },
        {
          "internalType": "address",
          "name": "",
          "type": "address"
        },
        {
          "internalType": "uint256[]",
          "name": "",
          "type": "uint256[]"
        },
        {
          "internalType": "uint256[]",
          "name": "",
          "type": "uint256[]"
        },
        {
          "internalType": "bytes",
          "name": "",
          "type": "bytes"
        }
      ],
      "name": "onERC1155BatchReceived",
      "outputs": [
        {
          "internalType": "bytes4",
          "name": "",
          "type": "bytes4"
        }
      ],
      "stateMutability": "pure",
      "type": "function"
    },
    {
      "inputs": [
        {
          "internalType": "address",
          "name": "",
          "type": "address"
        },
        {
          "internalType": "address",
          "name": "",
          "type": "address"
        },
        {
          "internalType": "uint256",
          "name": "",
          "type": "uint256"
        },
        {
          "internalType": "uint256",
          "name": "",
          "type": "uint256"
        },
        {
          "internalType": "bytes",
          "name": "",
          "type": "bytes"
        }
      ],
      "name": "onERC1155Received",
      "outputs": [
        {
          "internalType": "bytes4",
          "name": "",
          "type": "bytes4"
        }
      ],
      "stateMutability": "pure",
      "type": "function"
    },
    {
      "inputs": [],
      "name": "owner",
      "outputs": [
        {
          "internalType": "address",
          "name": "",
          "type": "address"
        }
      ],
      "stateMutability": "view",
      "type": "function"
    },
    {
      "inputs": [
        {
          "components": [
            {
              "internalType": "address",
              "name": "recipient",
              "type": "address"
            },
            {
              "internalType": "uint96",
              "name": "weight",
              "type": "uint96"
            },
            {
              "internalType": "string",
              "name": "label",
              "type": "string"
            }
          ],
          "internalType": "struct Strategy.Allocation[]",
          "name": "_allocations",
          "type": "tuple[]"
        },
        {
          "internalType": "string",
          "name": "_metadataURI",
          "type": "string"
        }
      ],
      "name": "rebalance",
      "outputs": [],
      "stateMutability": "nonpayable",
      "type": "function"
    },
    {
      "inputs": [],
      "name": "renounceOwnership",
      "outputs": [],
      "stateMutability": "nonpayable",
      "type": "function"
    },
    {
      "inputs": [],
      "name": "reverseRegistrar",
      "outputs": [
        {
          "internalType": "contract IReverseRegistrar",
          "name": "",
          "type": "address"
        }
      ],
      "stateMutability": "view",
      "type": "function"
    },
    {
      "inputs": [
        {
          "internalType": "string",
          "name": "ensName",
          "type": "string"
        }
      ],
      "name": "setName",
      "outputs": [],
      "stateMutability": "nonpayable",
      "type": "function"
    },
    {
      "inputs": [],
      "name": "sourceStrategy",
      "outputs": [
        {
          "internalType": "address",
          "name": "",
          "type": "address"
        }
      ],
      "stateMutability": "view",
      "type": "function"
    },
    {
      "inputs": [
        {
          "internalType": "bytes4",
          "name": "interfaceId",
          "type": "bytes4"
        }
      ],
      "name": "supportsInterface",
      "outputs": [
        {
          "internalType": "bool",
          "name": "",
          "type": "bool"
        }
      ],
      "stateMutability": "pure",
      "type": "function"
    },
    {
      "inputs": [],
      "name": "totalWeight",
      "outputs": [
        {
          "internalType": "uint256",
          "name": "",
          "type": "uint256"
        }
      ],
      "stateMutability": "view",
      "type": "function"
    },
    {
      "inputs": [
        {
          "internalType": "address",
          "name": "token",
          "type": "address"
        },
        {
          "internalType": "address",
          "name": "recipient",
          "type": "address"
        },
        {
          "internalType": "uint256",
          "name": "tokenId",
          "type": "uint256"
        },
        {
          "internalType": "uint256",
          "name": "amount",
          "type": "uint256"
        }
      ],
      "name": "transferERC1155",
      "outputs": [],
      "stateMutability": "nonpayable",
      "type": "function"
    },
    {
      "inputs": [
        {
          "internalType": "address",
          "name": "newOwner",
          "type": "address"
        }
      ],
      "name": "transferOwnership",
      "outputs": [],
      "stateMutability": "nonpayable",
      "type": "function"
    },
    {
      "inputs": [],
      "name": "warehouse",
      "outputs": [
        {
          "internalType": "contract ISplitsWarehouse",
          "name": "",
          "type": "address"
        }
      ],
      "stateMutability": "view",
      "type": "function"
    },
    {
      "stateMutability": "payable",
      "type": "receive"
    }
  ],
  "bytecode": "0x60c060405234801561000f575f5ffd5b5060405161242738038061242783398101604081905261002e91610144565b6001600160a01b03821661005557604051636f20b27360e11b815260040160405180910390fd5b6001600160a01b03808316608052811660a052610070610077565b5050610175565b7ff0c57e16840df040f15088dc2f81fe391c3923bec73e23a9662efc9c229c6a00805468010000000000000000900460ff16156100c75760405163f92ee8a960e01b815260040160405180910390fd5b80546001600160401b03908116146101265780546001600160401b0319166001600160401b0390811782556040519081527fc7f505b2f371ae2175ee4913f4499e1f2633a7b5936321eed1cdaeb6115181d29060200160405180910390a15b50565b80516001600160a01b038116811461013f575f5ffd5b919050565b5f5f60408385031215610155575f5ffd5b61015e83610129565b915061016c60208401610129565b90509250929050565b60805160a05161226e6101b95f395f818161037c01528181611034015261118801525f81816103d801528181610a4a01528181610ac70152610b03015261226e5ff3fe608060405260043610610143575f3560e01c80638da5cb5b116100b5578063afc47ead1161006e578063afc47ead14610457578063bc197c811461046a578063c45a0155146104b1578063c47f0027146104d0578063f23a6e61146104ef578063f2fde38b1461051b57610195565b80638da5cb5b1461039e57806396c82e57146103b25780639b622769146103c75780639c225a86146103fa578063a2962d0f14610419578063a60bd4071461043857610195565b806331f7d9641161010757806331f7d964146102b957806363453ae1146102f857806365ed6e231461031757806370a0823114610338578063715018a614610357578063808698531461036b57610195565b806301ffc9a7146101e257806303ee438c146102275780630a2642bf146102485780630a7e880c146102765780632f62acbd1461029757610195565b3661019557604051348152339073eeeeeeeeeeeeeeeeeeeeeeeeeeeeeeeeeeeeeeee907f3b5083eec1a1116c56de5d6841cff8efc6a0aec9850e836ec509d6ce024ea5619060200160405180910390a3005b60405162461bcd60e51b815260206004820152601e60248201527f5573652072656365697665282920666f7220455448206465706f73697473000060448201526064015b60405180910390fd5b3480156101ed575f5ffd5b506102126101fc366004611768565b6001600160e01b031916630271189760e51b1490565b60405190151581526020015b60405180910390f35b348015610232575f5ffd5b5061023b61053a565b60405161021e91906117c4565b348015610253575f5ffd5b506102676102623660046117d6565b6105c6565b60405161021e939291906117ed565b348015610281575f5ffd5b5061029561029036600461183c565b610694565b005b3480156102a2575f5ffd5b506102ab603281565b60405190815260200161021e565b3480156102c4575f5ffd5b506102e073eeeeeeeeeeeeeeeeeeeeeeeeeeeeeeeeeeeeeeee81565b6040516001600160a01b03909116815260200161021e565b348015610303575f5ffd5b5061029561031236600461187f565b610768565b348015610322575f5ffd5b5061032b610c92565b60405161021e919061189a565b348015610343575f5ffd5b506102ab61035236600461187f565b610daa565b348015610362575f5ffd5b50610295610e43565b348015610376575f5ffd5b506102e07f000000000000000000000000000000000000000000000000000000000000000081565b3480156103a9575f5ffd5b506102e0610e56565b3480156103bd575f5ffd5b506102ab60015481565b3480156103d2575f5ffd5b506102e07f000000000000000000000000000000000000000000000000000000000000000081565b348015610405575f5ffd5b506102956104143660046119b4565b610e84565b348015610424575f5ffd5b506002546102e0906001600160a01b031681565b348015610443575f5ffd5b50610295610452366004611a1e565b610ee7565b348015610462575f5ffd5b505f546102ab565b348015610475575f5ffd5b50610498610484366004611a89565b63bc197c8160e01b98975050505050505050565b6040516001600160e01b0319909116815260200161021e565b3480156104bc575f5ffd5b506004546102e0906001600160a01b031681565b3480156104db575f5ffd5b506102956104ea366004611b49565b6110fc565b3480156104fa575f5ffd5b50610498610509366004611b87565b63f23a6e6160e01b9695505050505050565b348015610526575f5ffd5b5061029561053536600461187f565b611204565b6003805461054790611bfd565b80601f016020809104026020016040519081016040528092919081815260200182805461057390611bfd565b80156105be5780601f10610595576101008083540402835291602001916105be565b820191905f5260205f20905b8154815290600101906020018083116105a157829003601f168201915b505050505081565b5f81815481106105d4575f80fd5b5f918252602090912060029091020180546001820180546001600160a01b0383169450600160a01b9092046001600160601b0316929161061390611bfd565b80601f016020809104026020016040519081016040528092919081815260200182805461063f90611bfd565b801561068a5780601f106106615761010080835404028352916020019161068a565b820191905f5260205f20905b81548152906001019060200180831161066d57829003601f168201915b5050505050905083565b61069c61123e565b6001600160a01b0383166106eb5760405162461bcd60e51b815260206004820152601660248201527516995c9bc81859191c995cdcc81c9958da5c1a595b9d60521b60448201526064016101d9565b604051637921219560e11b81523060048201526001600160a01b038481166024830152604482018490526064820183905260a060848301525f60a483015285169063f242432a9060c4015f604051808303815f87803b15801561074c575f5ffd5b505af115801561075e573d5f5f3e3d5ffd5b5050505050505050565b610770611270565b6001545f0361079257604051634dfaf9c960e11b815260040160405180910390fd5b5f6001600160a01b03821673eeeeeeeeeeeeeeeeeeeeeeeeeeeeeeeeeeeeeeee14610822576040516370a0823160e01b81523060048201526001600160a01b038316906370a0823190602401602060405180830381865afa1580156107f9573d5f5f3e3d5ffd5b505050506040513d601f19601f8201168201806040525081019061081d9190611c35565b610824565b475b9050805f03610846576040516301afcf9d60e31b815260040160405180910390fd5b5f805490816001600160401b0381111561086257610862611c4c565b60405190808252806020026020018201604052801561088b578160200160208202803683370190505b5090505f826001600160401b038111156108a7576108a7611c4c565b6040519080825280602002602001820160405280156108d0578160200160208202803683370190505b5090505f805b84811015610a0d575f81815481106108f0576108f0611c60565b5f91825260209091206002909102015484516001600160a01b039091169085908390811061092057610920611c60565b6001600160a01b0390921660209283029190910190910152610943600186611c88565b8103610976576109538287611c88565b83828151811061096557610965611c60565b602002602001018181525050610a05565b6001545f828154811061098b5761098b611c60565b5f9182526020909120600290910201546109b590600160a01b90046001600160601b031688611c9b565b6109bf9190611cb2565b8382815181106109d1576109d1611c60565b6020026020010181815250508281815181106109ef576109ef611c60565b602002602001015182610a029190611cd1565b91505b6001016108d6565b5073eeeeeeeeeeeeeeeeeeeeeeeeeeeeeeeeeeeeeeed196001600160a01b03871601610ab85760405163676ae78f60e01b81526001600160a01b037f0000000000000000000000000000000000000000000000000000000000000000169063676ae78f908790610a859087908b908890600401611ce4565b5f604051808303818588803b158015610a9c575f5ffd5b505af1158015610aae573d5f5f3e3d5ffd5b5050505050610b6a565b610aec6001600160a01b0387167f0000000000000000000000000000000000000000000000000000000000000000876112ba565b60405163676ae78f60e01b81526001600160a01b037f0000000000000000000000000000000000000000000000000000000000000000169063676ae78f90610b3c9086908a908790600401611ce4565b5f604051808303815f87803b158015610b53575f5ffd5b505af1158015610b65573d5f5f3e3d5ffd5b505050505b856001600160a01b03167fee8bc5b3cc2f23f99c36b55d0950af077e97037366160fe8a05ccddcc9f557a6865f604051610ba5929190611d7d565b60405180910390a25f5b84811015610c60575f838281518110610bca57610bca611c60565b60200260200101511115610c5857866001600160a01b0316848281518110610bf457610bf4611c60565b60200260200101516001600160a01b03167febe7adb4feddf2afa5de463169fdc706254a55c9cf2b930ac84bb49e28cfe6bb858481518110610c3857610c38611c60565b6020026020010151604051610c4f91815260200190565b60405180910390a35b600101610baf565b505050505050610c8f60017f9b779b17422d0df92223018b32b4d1fa46e071723d6817e2486d003becc55f0055565b50565b60605f805480602002602001604051908101604052809291908181526020015f905b82821015610da1575f848152602090819020604080516060810182526002860290920180546001600160a01b0381168452600160a01b90046001600160601b03169383019390935260018301805492939291840191610d1290611bfd565b80601f0160208091040260200160405190810160405280929190818152602001828054610d3e90611bfd565b8015610d895780601f10610d6057610100808354040283529160200191610d89565b820191905f5260205f20905b815481529060010190602001808311610d6c57829003601f168201915b50505050508152505081526020019060010190610cb4565b50505050905090565b5f73eeeeeeeeeeeeeeeeeeeeeeeeeeeeeeeeeeeeeeed196001600160a01b03831601610dd7575047919050565b6040516370a0823160e01b81523060048201526001600160a01b038316906370a0823190602401602060405180830381865afa158015610e19573d5f5f3e3d5ffd5b505050506040513d601f19601f82011682018060405250810190610e3d9190611c35565b92915050565b610e4b61123e565b610e545f611399565b565b7f9016d09d72d40fdae2fd8ceac6b6234c7706214fd39c1cd1e609a0528c199300546001600160a01b031690565b610e8c61123e565b610e968484611409565b6003610ea3828483611ecb565b507f9be5e05623f8d25b6948f9f5473f8fae61b484ba986f26fc76722b7aaf4ba0fc84848484604051610ed99493929190611fc0565b60405180910390a150505050565b5f610ef0611596565b805490915060ff600160401b82041615906001600160401b03165f81158015610f165750825b90505f826001600160401b03166001148015610f315750303b155b905081158015610f3f575080155b15610f5d5760405163f92ee8a960e01b815260040160405180910390fd5b845467ffffffffffffffff191660011785558315610f8757845460ff60401b1916600160401b1785555b610f9c610f9760208a018a61187f565b6115be565b610fa46115cf565b600480546001600160a01b03191633179055610fc66040890160208a0161187f565b600280546001600160a01b0319166001600160a01b0392909216919091179055610ff360608901896120c7565b600391611001919083611ecb565b5061101761101260408a018a612109565b611409565b85156110ad5760405163c47f002760e01b81526001600160a01b037f0000000000000000000000000000000000000000000000000000000000000000169063c47f00279061106b908a908a9060040161214e565b6020604051808303815f875af1158015611087573d5f5f3e3d5ffd5b505050506040513d601f19601f820116820180604052508101906110ab9190611c35565b505b831561075e57845460ff60401b19168555604051600181527fc7f505b2f371ae2175ee4913f4499e1f2633a7b5936321eed1cdaeb6115181d29060200160405180910390a15050505050505050565b611104610e56565b6001600160a01b0316336001600160a01b0316148061112d57506004546001600160a01b031633145b6111715760405162461bcd60e51b81526020600482015260156024820152744f6e6c79206f776e6572206f7220666163746f727960581b60448201526064016101d9565b60405163c47f002760e01b81526001600160a01b037f0000000000000000000000000000000000000000000000000000000000000000169063c47f0027906111bf908590859060040161214e565b6020604051808303815f875af11580156111db573d5f5f3e3d5ffd5b505050506040513d601f19601f820116820180604052508101906111ff9190611c35565b505050565b61120c61123e565b6001600160a01b03811661123557604051631e4fbdf760e01b81525f60048201526024016101d9565b610c8f81611399565b33611247610e56565b6001600160a01b031614610e545760405163118cdaa760e01b81523360048201526024016101d9565b7f9b779b17422d0df92223018b32b4d1fa46e071723d6817e2486d003becc55f008054600119016112b457604051633ee5aeb560e01b815260040160405180910390fd5b60029055565b604080516001600160a01b038416602482015260448082018490528251808303909101815260649091019091526020810180516001600160e01b031663095ea7b360e01b17905261130b84826115df565b61136d57604080516001600160a01b03851660248201525f6044808301919091528251808303909101815260649091019091526020810180516001600160e01b031663095ea7b360e01b179052611363908590611628565b61136d8482611628565b50505050565b60017f9b779b17422d0df92223018b32b4d1fa46e071723d6817e2486d003becc55f0055565b7f9016d09d72d40fdae2fd8ceac6b6234c7706214fd39c1cd1e609a0528c19930080546001600160a01b031981166001600160a01b03848116918217845560405192169182907f8be0079c531659141344cd1fd0a4f28419497f9722a3daafe3b4186f6b6457e0905f90a3505050565b603281111561142b57604051633891a55f60e01b815260040160405180910390fd5b6114355f806116e2565b5f805b8281101561158e575f84848381811061145357611453611c60565b90506020028101906114659190612169565b61147390602081019061187f565b90505f85858481811061148857611488611c60565b905060200281019061149a9190612169565b6114ab906040810190602001612187565b90506001600160a01b0382166114d4576040516308c9926560e31b815260040160405180910390fd5b806001600160601b03165f036114fd576040516319a2a9bd60e01b815260040160405180910390fd5b5f6115116001600160601b03831686611cd1565b90508481101561153457604051633643f37960e21b815260040160405180910390fd5b8094505f87878681811061154a5761154a611c60565b905060200281019061155c9190612169565b81546001810183555f928352602090922090916002020161157d82826121a2565b505060019093019250611438915050565b506001555050565b5f807ff0c57e16840df040f15088dc2f81fe391c3923bec73e23a9662efc9c229c6a00610e3d565b6115c6611694565b610c8f816116b9565b6115d7611694565b610e546116c1565b5f5f5f5f60205f8651602088015f8a5af192503d91505f51905082801561161e57508115611610578060011461161e565b5f866001600160a01b03163b115b9695505050505050565b5f5f60205f8451602086015f885af180611647576040513d5f823e3d81fd5b50505f513d9150811561165e57806001141561166b565b6001600160a01b0384163b155b1561136d57604051635274afe760e01b81526001600160a01b03851660048201526024016101d9565b61169c6116c9565b610e5457604051631afcd79f60e31b815260040160405180910390fd5b61120c611694565b611373611694565b5f6116d2611596565b54600160401b900460ff16919050565b5080545f8255600202905f5260205f2090810190610c8f91905b8082111561171e575f8082556117156001830182611722565b506002016116fc565b5090565b50805461172e90611bfd565b5f825580601f1061173d575050565b601f0160209004905f5260205f2090810190610c8f91905b8082111561171e575f8155600101611755565b5f60208284031215611778575f5ffd5b81356001600160e01b03198116811461178f575f5ffd5b9392505050565b5f81518084528060208401602086015e5f602082860101526020601f19601f83011685010191505092915050565b602081525f61178f6020830184611796565b5f602082840312156117e6575f5ffd5b5035919050565b6001600160a01b03841681526001600160601b03831660208201526060604082018190525f9061181f90830184611796565b95945050505050565b6001600160a01b0381168114610c8f575f5ffd5b5f5f5f5f6080858703121561184f575f5ffd5b843561185a81611828565b9350602085013561186a81611828565b93969395505050506040820135916060013590565b5f6020828403121561188f575f5ffd5b813561178f81611828565b5f602082016020835280845180835260408501915060408160051b8601019250602086015f5b8281101561192457868503603f19018452815180516001600160a01b031686526020808201516001600160601b03169087015260409081015160609187018290529061190e90870182611796565b95505060209384019391909101906001016118c0565b50929695505050505050565b5f5f83601f840112611940575f5ffd5b5081356001600160401b03811115611956575f5ffd5b6020830191508360208260051b8501011115611970575f5ffd5b9250929050565b5f5f83601f840112611987575f5ffd5b5081356001600160401b0381111561199d575f5ffd5b602083019150836020828501011115611970575f5ffd5b5f5f5f5f604085870312156119c7575f5ffd5b84356001600160401b038111156119dc575f5ffd5b6119e887828801611930565b90955093505060208501356001600160401b03811115611a06575f5ffd5b611a1287828801611977565b95989497509550505050565b5f5f5f60408486031215611a30575f5ffd5b83356001600160401b03811115611a45575f5ffd5b840160808187031215611a56575f5ffd5b925060208401356001600160401b03811115611a70575f5ffd5b611a7c86828701611977565b9497909650939450505050565b5f5f5f5f5f5f5f5f60a0898b031215611aa0575f5ffd5b8835611aab81611828565b97506020890135611abb81611828565b965060408901356001600160401b03811115611ad5575f5ffd5b611ae18b828c01611930565b90975095505060608901356001600160401b03811115611aff575f5ffd5b611b0b8b828c01611930565b90955093505060808901356001600160401b03811115611b29575f5ffd5b611b358b828c01611977565b999c989b5096995094979396929594505050565b5f5f60208385031215611b5a575f5ffd5b82356001600160401b03811115611b6f575f5ffd5b611b7b85828601611977565b90969095509350505050565b5f5f5f5f5f5f60a08789031215611b9c575f5ffd5b8635611ba781611828565b95506020870135611bb781611828565b9450604087013593506060870135925060808701356001600160401b03811115611bdf575f5ffd5b611beb89828a01611977565b979a9699509497509295939492505050565b600181811c90821680611c1157607f821691505b602082108103611c2f57634e487b7160e01b5f52602260045260245ffd5b50919050565b5f60208284031215611c45575f5ffd5b5051919050565b634e487b7160e01b5f52604160045260245ffd5b634e487b7160e01b5f52603260045260245ffd5b634e487b7160e01b5f52601160045260245ffd5b81810381811115610e3d57610e3d611c74565b8082028115828204841417610e3d57610e3d611c74565b5f82611ccc57634e487b7160e01b5f52601260045260245ffd5b500490565b80820180821115610e3d57610e3d611c74565b606080825284519082018190525f9060208601906080840190835b81811015611d265783516001600160a01b0316835260209384019390920191600101611cff565b50506001600160a01b0386166020858101919091528482036040860152855180835291810192508501905f5b81811015611d70578251845260209384019390920191600101611d52565b5091979650505050505050565b5f604082018483526040602084015280845480835260608501915060608160051b8601019250855f5260205f205f5b82811015611e7357868503605f1901845281546001600160a01b038116865260a01c6020860152606060408601526001820180545f90611deb81611bfd565b8060608a0152600182165f8114611e095760018114611e2557611e56565b60ff19831660808b0152608082151560051b8b01019350611e56565b845f5260205f205f5b83811015611e4d5781548c820160800152600190910190602001611e2e565b8b016080019450505b509197505050602094909401935060029190910190600101611dac565b5092979650505050505050565b601f8211156111ff57805f5260205f20601f840160051c81016020851015611ea55750805b601f840160051c820191505b81811015611ec4575f8155600101611eb1565b5050505050565b6001600160401b03831115611ee257611ee2611c4c565b611ef683611ef08354611bfd565b83611e80565b5f601f841160018114611f27575f8515611f105750838201355b5f19600387901b1c1916600186901b178355611ec4565b5f83815260208120601f198716915b82811015611f565786850135825560209485019460019092019101611f36565b5086821015611f72575f1960f88860031b161c19848701351681555b505060018560011b0183555050505050565b6001600160601b0381168114610c8f575f5ffd5b81835281816020850137505f828201602090810191909152601f909101601f19169091010190565b604080825281018490525f6060600586901b830181019083018783605e1936839003015b898210156120a557868503605f190184528235818112612002575f5ffd5b8b01803561200f81611828565b6001600160a01b03168652602081013561202881611f84565b6001600160601b03166020870152604081013536829003601e1901811261204d575f5ffd5b016020810190356001600160401b03811115612067575f5ffd5b803603821315612075575f5ffd5b6060604088015261208a606088018284611f98565b96505050602083019250602084019350600182019150611fe4565b5050505082810360208401526120bc818587611f98565b979650505050505050565b5f5f8335601e198436030181126120dc575f5ffd5b8301803591506001600160401b038211156120f5575f5ffd5b602001915036819003821315611970575f5ffd5b5f5f8335601e1984360301811261211e575f5ffd5b8301803591506001600160401b03821115612137575f5ffd5b6020019150600581901b3603821315611970575f5ffd5b602081525f612161602083018486611f98565b949350505050565b5f8235605e1983360301811261217d575f5ffd5b9190910192915050565b5f60208284031215612197575f5ffd5b813561178f81611f84565b81356121ad81611828565b81546001600160a01b0319166001600160a01b0391909116908117825560208301356121d881611f84565b60a01b6001600160a01b031916178155604082013536839003601e190181126121ff575f5ffd5b820180356001600160401b03811115612216575f5ffd5b60208201915080360382131561222a575f5ffd5b61136d818360018601611ecb56fea26469706673582212203253b6559d1c4cf205391f4671ce165b9ea745e08c4ad27e5a33da5d546aee8e64736f6c634300081c0033",
  "linkReferences": {},
  "deployedLinkReferences": {},
  "immutableReferences": {
    "1453": [
      {
        "length": 32,
        "start": 984
      },
      {
        "length": 32,
        "start": 2634
      },
      {
        "length": 32,
        "start": 2759
      },
      {
        "length": 32,
        "start": 2819
      }
    ],
    "1457": [
      {
        "length": 32,
        "start": 892
      },
      {
        "length": 32,
        "start": 4148
      },
      {
        "length": 32,
        "start": 4488
      }
    ]
  },
  "inputSourceName": "project/contracts/Strategy.sol",
  "buildInfoId": "solc-0_8_28-7d8b3ae04557a55e5c4a906a3b2c992eafaa5f5d"
}