{
  "_format": "hh3-artifact-1",
  "contractName": "ClaimableEscrow",
  "sourceName": "contracts/ClaimableEscrow.sol",
  "abi": [
    {
      "inputs": [
        {
          "internalType": "address",
          "name": "warehouse_",
          "type": "address"
        }
      ],
      "stateMutability": "nonpayable",
      "type": "constructor"
    },
    {
      "inputs": [],
      "name": "InvalidInitialization",
      "type": "error"
    },
    {
      "inputs": [],
      "name": "NotInitializing",
      "type": "error"
    },
    {
      "inputs": [
        {
          "internalType": "address",
          "name": "token",
          "type": "address"
        }
      ],
      "name": "SafeERC20FailedOperation",
      "type": "error"
    },
    {
      "anonymous": false,
      "inputs": [
        {
          "indexed": false,
          "internalType": "uint64",
          "name": "version",
          "type": "uint64"
        }
      ],
      "name": "Initialized",
      "type": "event"
    },
    {
      "anonymous": false,
      "inputs": [
        {
          "indexed": true,
          "internalType": "address",
          "name": "token",
          "type": "address"
        },
        {
          "indexed": true,
          "internalType": "address",
          "name": "to",
          "type": "address"
        },
        {
          "indexed": false,
          "internalType": "uint256",
          "name": "amount",
          "type": "uint256"
        }
      ],
      "name": "Withdrawn",
      "type": "event"
    },
    {
      "inputs": [],
      "name": "id",
      "outputs": [
        {
          "internalType": "bytes32",
          "name": "",
          "type": "bytes32"
        }
      ],
      "stateMutability": "view",
      "type": "function"
    },
    {
      "inputs": [
        {
          "internalType": "address",
          "name": "registry_",
          "type": "address"
        },
        {
          "internalType": "bytes32",
          "name": "id_",
          "type": "bytes32"
        }
      ],
      "name": "initialize",
      "outputs": [],
      "stateMutability": "nonpayable",
      "type": "function"
    },
    {
      "inputs": [],
      "name": "registry",
      "outputs": [
        {
          "internalType": "contract ICanonicalRegistry",
          "name": "",
          "type": "address"
        }
      ],
      "stateMutability": "view",
      "type": "function"
    },
    {
      "inputs": [],
      "name": "warehouse",
      "outputs": [
        {
          "internalType": "contract IWarehouse",
          "name": "",
          "type": "address"
        }
      ],
      "stateMutability": "view",
      "type": "function"
    },
    {
      "inputs": [
        {
          "internalType": "address",
          "name": "token",
          "type": "address"
        }
      ],
      "name": "withdrawTo",
      "outputs": [],
      "stateMutability": "nonpayable",
      "type": "function"
    }
  ],
  "bytecode": "0x60a060405234801561000f575f5ffd5b5060405161080d38038061080d83398101604081905261002e916100fb565b6001600160a01b038116608052610043610049565b50610128565b7ff0c57e16840df040f15088dc2f81fe391c3923bec73e23a9662efc9c229c6a00805468010000000000000000900460ff16156100995760405163f92ee8a960e01b815260040160405180910390fd5b80546001600160401b03908116146100f85780546001600160401b0319166001600160401b0390811782556040519081527fc7f505b2f371ae2175ee4913f4499e1f2633a7b5936321eed1cdaeb6115181d29060200160405180910390a15b50565b5f6020828403121561010b575f5ffd5b81516001600160a01b0381168114610121575f5ffd5b9392505050565b6080516106c061014d5f395f818160a2015281816101e5015261028301526106c05ff3fe608060405234801561000f575f5ffd5b5060043610610055575f3560e01c806372b0d90c146100595780637b1039991461006e5780639b6227691461009d578063af640d0f146100c4578063be13f47c146100db575b5f5ffd5b61006c61006736600461060c565b6100ee565b005b5f54610080906001600160a01b031681565b6040516001600160a01b0390911681526020015b60405180910390f35b6100807f000000000000000000000000000000000000000000000000000000000000000081565b6100cd60015481565b604051908152602001610094565b61006c6100e936600461062e565b610407565b5f8054600154604051637dd5641160e01b81526001600160a01b0390921691637dd56411916101239160040190815260200190565b602060405180830381865afa15801561013e573d5f5f3e3d5ffd5b505050506040513d601f19601f820116820180604052508101906101629190610658565b90506001600160a01b0381166101bf5760405162461bcd60e51b815260206004820181905260248201527f436c61696d61626c65457363726f773a206e6f742079657420636c61696d656460448201526064015b60405180910390fd5b604051627eeac760e11b81523060048201526001600160a01b0383811660248301525f917f00000000000000000000000000000000000000000000000000000000000000009091169062fdd58e90604401602060405180830381865afa15801561022b573d5f5f3e3d5ffd5b505050506040513d601f19601f8201168201806040525081019061024f9190610673565b905080156102db57604051636ce5768960e11b81523060048201526001600160a01b038481166024830152604482018390527f0000000000000000000000000000000000000000000000000000000000000000169063d9caed12906064015f604051808303815f87803b1580156102c4575f5ffd5b505af11580156102d6573d5f5f3e3d5ffd5b505050505b6040516370a0823160e01b81523060048201525f906001600160a01b038516906370a0823190602401602060405180830381865afa15801561031f573d5f5f3e3d5ffd5b505050506040513d601f19601f820116820180604052508101906103439190610673565b90505f81116103a05760405162461bcd60e51b8152602060048201526024808201527f436c61696d61626c65457363726f773a206e6f7468696e6720746f20776974686044820152636472617760e01b60648201526084016101b6565b6103b46001600160a01b038516848361052c565b826001600160a01b0316846001600160a01b03167fd1c19fbcd4551a5edfb66d43d2e337c04837afda3482b42bdf569a8fccdae5fb836040516103f991815260200190565b60405180910390a350505050565b7ff0c57e16840df040f15088dc2f81fe391c3923bec73e23a9662efc9c229c6a008054600160401b810460ff16159067ffffffffffffffff165f8115801561044c5750825b90505f8267ffffffffffffffff1660011480156104685750303b155b905081158015610476575080155b156104945760405163f92ee8a960e01b815260040160405180910390fd5b845467ffffffffffffffff1916600117855583156104be57845460ff60401b1916600160401b1785555b5f80546001600160a01b0319166001600160a01b0389161790556001869055831561052357845460ff60401b19168555604051600181527fc7f505b2f371ae2175ee4913f4499e1f2633a7b5936321eed1cdaeb6115181d29060200160405180910390a15b50505050505050565b604080516001600160a01b038416602482015260448082018490528251808303909101815260649091019091526020810180516001600160e01b031663a9059cbb60e01b17905261057e908490610583565b505050565b5f5f60205f8451602086015f885af1806105a2576040513d5f823e3d81fd5b50505f513d915081156105b95780600114156105c6565b6001600160a01b0384163b155b156105ef57604051635274afe760e01b81526001600160a01b03851660048201526024016101b6565b50505050565b6001600160a01b0381168114610609575f5ffd5b50565b5f6020828403121561061c575f5ffd5b8135610627816105f5565b9392505050565b5f5f6040838503121561063f575f5ffd5b823561064a816105f5565b946020939093013593505050565b5f60208284031215610668575f5ffd5b8151610627816105f5565b5f60208284031215610683575f5ffd5b505191905056fea2646970667358221220279d93618e6688be0787402fc59c7a6c92949e4293d3ffd4733a46113da5bde364736f6c634300081c0033",
  "linkReferences": {},
  "deployedLinkReferences": {},
  "immutableReferences": {
    "934": [
      {
        "length": 32,
        "start": 162
      },
      {
        "length": 32,
        "start": 485
      },
      {
        "length": 32,
        "start": 643
      }
    ]
  },
  "inputSourceName": "project/contracts/ClaimableEscrow.sol",
  "buildInfoId": "solc-0_8_28-a5bf173a77b6e750ee5923126a7bb1a87991b698"
}