{
  "_format": "hh3-artifact-1",
  "contractName": "ForeverSubnameRegistrar",
  "sourceName": "contracts/ens/ForeverSubnameRegistrar.sol",
  "abi": [
    {
      "inputs": [
        {
          "internalType": "address",
          "name": "_nameWrapper",
          "type": "address"
        },
        {
          "internalType": "bytes32",
          "name": "_parentNode",
          "type": "bytes32"
        },
        {
          "internalType": "address",
          "name": "_resolver",
          "type": "address"
        }
      ],
      "stateMutability": "nonpayable",
      "type": "constructor"
    },
    {
      "anonymous": false,
      "inputs": [
        {
          "indexed": false,
          "internalType": "string",
          "name": "label",
          "type": "string"
        },
        {
          "indexed": false,
          "internalType": "address",
          "name": "owner",
          "type": "address"
        },
        {
          "indexed": false,
          "internalType": "bytes32",
          "name": "node",
          "type": "bytes32"
        }
      ],
      "name": "NameRegistered",
      "type": "event"
    },
    {
      "inputs": [
        {
          "internalType": "string",
          "name": "label",
          "type": "string"
        }
      ],
      "name": "available",
      "outputs": [
        {
          "internalType": "bool",
          "name": "",
          "type": "bool"
        }
      ],
      "stateMutability": "view",
      "type": "function"
    },
    {
      "inputs": [],
      "name": "nameWrapper",
      "outputs": [
        {
          "internalType": "contract INameWrapper",
          "name": "",
          "type": "address"
        }
      ],
      "stateMutability": "view",
      "type": "function"
    },
    {
      "inputs": [],
      "name": "parentNode",
      "outputs": [
        {
          "internalType": "bytes32",
          "name": "",
          "type": "bytes32"
        }
      ],
      "stateMutability": "view",
      "type": "function"
    },
    {
      "inputs": [
        {
          "internalType": "string",
          "name": "label",
          "type": "string"
        },
        {
          "internalType": "address",
          "name": "owner",
          "type": "address"
        }
      ],
      "name": "register",
      "outputs": [],
      "stateMutability": "nonpayable",
      "type": "function"
    },
    {
      "inputs": [],
      "name": "resolver",
      "outputs": [
        {
          "internalType": "address",
          "name": "",
          "type": "address"
        }
      ],
      "stateMutability": "view",
      "type": "function"
    }
  ],
  "bytecode": "0x60e060405234801561000f575f5ffd5b5060405161082438038061082483398101604081905261002e91610066565b6001600160a01b0392831660805260a0919091521660c05261009f565b80516001600160a01b0381168114610061575f5ffd5b919050565b5f5f5f60608486031215610078575f5ffd5b6100818461004b565b9250602084015191506100966040850161004b565b90509250925092565b60805160a05160c0516107256100ff5f395f8181605e015261026f01525f81816101010152818161014001528181610247015281816102e4015261039401525f818160b70152818161016a0152818161021a015261041001526107255ff3fe608060405234801561000f575f5ffd5b5060043610610055575f3560e01c806304f3bcec146100595780631e59c5291461009d578063a8e5fbc0146100b2578063aeb8ce9b146100d9578063f3068a00146100fc575b5f5ffd5b6100807f000000000000000000000000000000000000000000000000000000000000000081565b6040516001600160a01b0390911681526020015b60405180910390f35b6100b06100ab3660046104ff565b610131565b005b6100807f000000000000000000000000000000000000000000000000000000000000000081565b6100ec6100e7366004610552565b610390565b6040519015158152602001610094565b6101237f000000000000000000000000000000000000000000000000000000000000000081565b604051908152602001610094565b604051630178fe3f60e01b81527f000000000000000000000000000000000000000000000000000000000000000060048201525f9081907f00000000000000000000000000000000000000000000000000000000000000006001600160a01b031690630178fe3f90602401606060405180830381865afa1580156101b7573d5f5f3e3d5ffd5b505050506040513d601f19601f820116820180604052508101906101db9190610591565b90935091508190506201ffff1962020000841601610203576102006276a700836105e4565b90505b6040516309306bd160e21b81526001600160a01b037f000000000000000000000000000000000000000000000000000000000000000016906324c1af44906102a0907f0000000000000000000000000000000000000000000000000000000000000000908a908a908a907f0000000000000000000000000000000000000000000000000000000000000000905f9062050000908b90600401610638565b6020604051808303815f875af11580156102bc573d5f5f3e3d5ffd5b505050506040513d601f19601f820116820180604052508101906102e0919061069a565b505f7f000000000000000000000000000000000000000000000000000000000000000087876040516103139291906106b1565b6040519081900381206103329291602001918252602082015260400190565b6040516020818303038152906040528051906020012090507f249c39bd9a3c753a35f50f88b2c123ad4b0cb4aeaede0661d47ff1c484d45c148787878460405161037f94939291906106c0565b60405180910390a150505050505050565b5f5f7f000000000000000000000000000000000000000000000000000000000000000084846040516103c39291906106b1565b6040519081900381206103e29291602001918252602082015260400190565b60408051808303601f19018152908290528051602090910120630178fe3f60e01b82526004820181905291507f00000000000000000000000000000000000000000000000000000000000000006001600160a01b031690630178fe3f90602401606060405180830381865afa92505050801561047b575060408051601f3d908101601f1916820190925261047891810190610591565b60015b61048957600191505061049d565b428167ffffffffffffffff16109450505050505b92915050565b5f5f83601f8401126104b3575f5ffd5b50813567ffffffffffffffff8111156104ca575f5ffd5b6020830191508360208285010111156104e1575f5ffd5b9250929050565b6001600160a01b03811681146104fc575f5ffd5b50565b5f5f5f60408486031215610511575f5ffd5b833567ffffffffffffffff811115610527575f5ffd5b610533868287016104a3565b9094509250506020840135610547816104e8565b809150509250925092565b5f5f60208385031215610563575f5ffd5b823567ffffffffffffffff811115610579575f5ffd5b610585858286016104a3565b90969095509350505050565b5f5f5f606084860312156105a3575f5ffd5b83516105ae816104e8565b602085015190935063ffffffff811681146105c7575f5ffd5b604085015190925067ffffffffffffffff81168114610547575f5ffd5b67ffffffffffffffff828116828216039081111561049d57634e487b7160e01b5f52601160045260245ffd5b81835281816020850137505f828201602090810191909152601f909101601f19169091010190565b88815260e060208201525f61065160e08301898b610610565b6001600160a01b03978816604084015295909616606082015267ffffffffffffffff938416608082015263ffffffff9290921660a083015290911660c090910152949350505050565b5f602082840312156106aa575f5ffd5b5051919050565b818382375f9101908152919050565b606081525f6106d3606083018688610610565b6001600160a01b0394909416602083015250604001529291505056fea2646970667358221220c96f8f1bfa5da81a944288b3d5eda801ab3878f6dcb72d199bd551eee42aca7864736f6c634300081c0033",
  "linkReferences": {},
  "deployedLinkReferences": {},
  "immutableReferences": {
    "262": [
      {
        "length": 32,
        "start": 183
      },
      {
        "length": 32,
        "start": 362
      },
      {
        "length": 32,
        "start": 538
      },
      {
        "length": 32,
        "start": 1040
      }
    ],
    "264": [
      {
        "length": 32,
        "start": 257
      },
      {
        "length": 32,
        "start": 320
      },
      {
        "length": 32,
        "start": 583
      },
      {
        "length": 32,
        "start": 740
      },
      {
        "length": 32,
        "start": 916
      }
    ],
    "266": [
      {
        "length": 32,
        "start": 94
      },
      {
        "length": 32,
        "start": 623
      }
    ]
  },
  "inputSourceName": "project/contracts/ens/ForeverSubnameRegistrar.sol",
  "buildInfoId": "solc-0_8_28-eaca10adb6413187d811979820b86b47851ea82d"
}