{
  "_format": "hh3-artifact-1",
  "contractName": "UniversalResolver",
  "sourceName": "contracts/ens/universalResolver/UniversalResolver.sol",
  "abi": [
    {
      "inputs": [
        {
          "internalType": "contract ENS",
          "name": "_registry",
          "type": "address"
        }
      ],
      "stateMutability": "nonpayable",
      "type": "constructor"
    },
    {
      "inputs": [],
      "name": "ResolverNotFound",
      "type": "error"
    },
    {
      "inputs": [
        {
          "internalType": "string",
          "name": "name",
          "type": "string"
        },
        {
          "internalType": "address",
          "name": "expected",
          "type": "address"
        },
        {
          "internalType": "address",
          "name": "actual",
          "type": "address"
        }
      ],
      "name": "ReverseAddressMismatch",
      "type": "error"
    },
    {
      "inputs": [],
      "name": "registry",
      "outputs": [
        {
          "internalType": "contract ENS",
          "name": "",
          "type": "address"
        }
      ],
      "stateMutability": "view",
      "type": "function"
    },
    {
      "inputs": [
        {
          "internalType": "bytes",
          "name": "name",
          "type": "bytes"
        },
        {
          "internalType": "bytes",
          "name": "data",
          "type": "bytes"
        }
      ],
      "name": "resolve",
      "outputs": [
        {
          "internalType": "bytes",
          "name": "result",
          "type": "bytes"
        },
        {
          "internalType": "address",
          "name": "resolver",
          "type": "address"
        }
      ],
      "stateMutability": "view",
      "type": "function"
    },
    {
      "inputs": [
        {
          "internalType": "bytes",
          "name": "lookupAddress",
          "type": "bytes"
        },
        {
          "internalType": "uint256",
          "name": "coinType",
          "type": "uint256"
        }
      ],
      "name": "reverse",
      "outputs": [
        {
          "internalType": "string",
          "name": "name",
          "type": "string"
        },
        {
          "internalType": "address",
          "name": "resolver",
          "type": "address"
        },
        {
          "internalType": "address",
          "name": "reverseResolver",
          "type": "address"
        }
      ],
      "stateMutability": "view",
      "type": "function"
    },
    {
      "inputs": [
        {
          "internalType": "bytes",
          "name": "lookupAddress",
          "type": "bytes"
        },
        {
          "internalType": "uint256",
          "name": "coinType",
          "type": "uint256"
        },
        {
          "internalType": "string[]",
          "name": "",
          "type": "string[]"
        }
      ],
      "name": "reverseWithGateways",
      "outputs": [
        {
          "internalType": "string",
          "name": "name",
          "type": "string"
        },
        {
          "internalType": "address",
          "name": "resolver",
          "type": "address"
        },
        {
          "internalType": "address",
          "name": "reverseResolver",
          "type": "address"
        }
      ],
      "stateMutability": "view",
      "type": "function"
    }
  ],
  "bytecode": "0x60a060405234801561000f575f5ffd5b50604051610ea5380380610ea583398101604081905261002e9161003f565b6001600160a01b031660805261006c565b5f6020828403121561004f575f5ffd5b81516001600160a01b0381168114610065575f5ffd5b9392505050565b608051610e0d6100985f395f8181607e015281816101320152818161036501526104cf0152610e0d5ff3fe608060405234801561000f575f5ffd5b506004361061004a575f3560e01c80635d78a2171461004e5780637b103999146100795780639061b923146100b8578063b7d6ca64146100d9575b5f5ffd5b61006161005c366004610987565b6100ec565b604051610070939291906109fd565b60405180910390f35b6100a07f000000000000000000000000000000000000000000000000000000000000000081565b6040516001600160a01b039091168152602001610070565b6100cb6100c6366004610a2f565b61010b565b604051610070929190610a9b565b6100616100e7366004610b30565b610280565b60605f5f6100fb86868661029f565b9250925092505b93509350939050565b60605f5f6101198787610607565b604051630178b8bf60e01b8152600481018290529091507f00000000000000000000000000000000000000000000000000000000000000006001600160a01b031690630178b8bf90602401602060405180830381865afa15801561017f573d5f5f3e3d5ffd5b505050506040513d601f19601f820116820180604052508101906101a39190610c8e565b91506001600160a01b0382166101cc57604051637199966d60e01b815260040160405180910390fd5b5f5f836001600160a01b031687876040516101e8929190610cb0565b5f60405180830381855afa9150503d805f8114610220576040519150601f19603f3d011682016040523d82523d5f602084013e610225565b606091505b5091509150816102735760405162461bcd60e51b815260206004820152601460248201527314995cdbdb1d995c8818d85b1b0819985a5b195960621b60448201526064015b60405180910390fd5b9350505094509492505050565b60605f5f61028f87878761029f565b9250925092509450945094915050565b60605f5f83603c14806102b0575083155b6102f45760405162461bcd60e51b8152602060048201526015602482015274556e737570706f7274656420636f696e207479706560581b604482015260640161026a565b6014851461033d5760405162461bcd60e51b8152602060048201526016602482015275092dcecc2d8d2c840c2c8c8e4cae6e640d8cadccee8d60531b604482015260640161026a565b853560601c5f61034c826106e0565b604051630178b8bf60e01b8152600481018290529091507f00000000000000000000000000000000000000000000000000000000000000006001600160a01b031690630178b8bf90602401602060405180830381865afa1580156103b2573d5f5f3e3d5ffd5b505050506040513d601f19601f820116820180604052508101906103d69190610c8e565b92506001600160a01b03831661040457505060408051602081019091525f8082529093509150819050610102565b60405163691f343160e01b8152600481018290526001600160a01b0384169063691f3431906024015f60405180830381865afa92505050801561046857506040513d5f823e601f3d908101601f191682016040526104659190810190610cbf565b60015b61048757505060408051602081019091525f8082529093509150610102565b945084515f036104ac57505060408051602081019091525f8082529093509150610102565b5f6104b68661073a565b604051630178b8bf60e01b8152600481018290529091507f00000000000000000000000000000000000000000000000000000000000000006001600160a01b031690630178b8bf90602401602060405180830381865afa15801561051c573d5f5f3e3d5ffd5b505050506040513d601f19601f820116820180604052508101906105409190610c8e565b94506001600160a01b03851661055c57505f9350610102915050565b604051631d9dabef60e11b8152600481018290526001600160a01b03861690633b3b57de90602401602060405180830381865afa9250505080156105bd575060408051601f3d908101601f191682019092526105ba91810190610c8e565b60015b156105fb57836001600160a01b0316816001600160a01b0316146105f957505060408051602081019091525f8082529095509350610102915050565b505b50505093509350939050565b5f805b828110156106d8575f84848381811061062557610625610d34565b919091013560f81c9150505f81900361063e57506106d8565b5f858561064c856001610d5c565b9060ff851661065c876001610d5c565b6106669190610d5c565b9261067393929190610d6f565b604051610681929190610cb0565b604080519182900382206020830187905290820181905291506060016040516020818303038152906040528051906020012093508160016106c29190610d96565b6106cf9060ff1684610d5c565b9250505061060a565b505b92915050565b5f7f91d1777781884d03a6757a803996e38de2a42967fb37eeaca72729271025a9e261070b8361081a565b604080516020810193909352820152606001604051602081830303815290604052805190602001209050919050565b80515f9081908390820361074f575092915050565b8051805b81156107da578161076381610daf565b92505082828151811061077857610778610d34565b01602001516001600160f81b031916601760f91b036107d557836107a7846107a1856001610d5c565b8461087c565b6040805160208101939093528201526060016040516020818303038152906040528051906020012093508190505b610753565b836107e6845f8461087c565b60408051602081019390935282015260600160408051601f1981840301815291905280516020909101209695505050505050565b5f60285b8015610871575f19016f181899199a1a9b1b9c1cb0b131b232b360811b600f84161a81536010909204915f19016f181899199a1a9b1b9c1cb0b131b232b360811b600f84161a815360108304925061081e565b505060285f20919050565b5f806108888484610dc4565b67ffffffffffffffff8111156108a0576108a0610ac4565b6040519080825280601f01601f1916602001820160405280156108ca576020820181803683370190505b509050835b83811015610931578581815181106108e9576108e9610d34565b01602001516001600160f81b031916826109038784610dc4565b8151811061091357610913610d34565b60200101906001600160f81b03191690815f1a9053506001016108cf565b508051602090910120949350505050565b5f5f83601f840112610952575f5ffd5b50813567ffffffffffffffff811115610969575f5ffd5b602083019150836020828501011115610980575f5ffd5b9250929050565b5f5f5f60408486031215610999575f5ffd5b833567ffffffffffffffff8111156109af575f5ffd5b6109bb86828701610942565b909790965060209590950135949350505050565b5f81518084528060208401602086015e5f602082860101526020601f19601f83011685010191505092915050565b606081525f610a0f60608301866109cf565b6001600160a01b0394851660208401529290931660409091015292915050565b5f5f5f5f60408587031215610a42575f5ffd5b843567ffffffffffffffff811115610a58575f5ffd5b610a6487828801610942565b909550935050602085013567ffffffffffffffff811115610a83575f5ffd5b610a8f87828801610942565b95989497509550505050565b604081525f610aad60408301856109cf565b905060018060a01b03831660208301529392505050565b634e487b7160e01b5f52604160045260245ffd5b604051601f8201601f1916810167ffffffffffffffff81118282101715610b0157610b01610ac4565b604052919050565b5f67ffffffffffffffff821115610b2257610b22610ac4565b50601f01601f191660200190565b5f5f5f5f60608587031215610b43575f5ffd5b843567ffffffffffffffff811115610b59575f5ffd5b610b6587828801610942565b90955093505060208501359150604085013567ffffffffffffffff811115610b8b575f5ffd5b8501601f81018713610b9b575f5ffd5b803567ffffffffffffffff811115610bb557610bb5610ac4565b8060051b610bc560208201610ad8565b9182526020818401810192908101908a841115610be0575f5ffd5b6020850192505b83831015610c6857823567ffffffffffffffff811115610c05575f5ffd5b8501603f81018c13610c15575f5ffd5b6020810135610c2b610c2682610b09565b610ad8565b8181526040838301018e1015610c3f575f5ffd5b816040840160208301375f60208383010152808552505050602082019150602083019250610be7565b979a9699509497505050505050565b6001600160a01b0381168114610c8b575f5ffd5b50565b5f60208284031215610c9e575f5ffd5b8151610ca981610c77565b9392505050565b818382375f9101908152919050565b5f60208284031215610ccf575f5ffd5b815167ffffffffffffffff811115610ce5575f5ffd5b8201601f81018413610cf5575f5ffd5b8051610d03610c2682610b09565b818152856020838501011115610d17575f5ffd5b8160208401602083015e5f91810160200191909152949350505050565b634e487b7160e01b5f52603260045260245ffd5b634e487b7160e01b5f52601160045260245ffd5b808201808211156106da576106da610d48565b5f5f85851115610d7d575f5ffd5b83861115610d89575f5ffd5b5050820193919092039150565b60ff81811683821601908111156106da576106da610d48565b5f81610dbd57610dbd610d48565b505f190190565b818103818111156106da576106da610d4856fea2646970667358221220d834d134323545ff6da6051590130efd12307eb5b3671e022655b3e6c45e99b464736f6c634300081c0033",
  "linkReferences": {},
  "deployedLinkReferences": {},
  "immutableReferences": {
    "180": [
      {
        "length": 32,
        "start": 126
      },
      {
        "length": 32,
        "start": 306
      },
      {
        "length": 32,
        "start": 869
      },
      {
        "length": 32,
        "start": 1231
      }
    ]
  },
  "inputSourceName": "project/contracts/ens/universalResolver/UniversalResolver.sol",
  "buildInfoId": "solc-0_8_28-e466a9cf24481b3dd3744044c76d28ab389a3c99"
}