{
  "_format": "hh3-artifact-1",
  "contractName": "BaseRegistrarImplementation",
  "sourceName": "contracts/ens/ethregistrar/BaseRegistrarImplementation.sol",
  "abi": [
    {
      "inputs": [
        {
          "internalType": "contract ENS",
          "name": "_ens",
          "type": "address"
        },
        {
          "internalType": "bytes32",
          "name": "_baseNode",
          "type": "bytes32"
        }
      ],
      "stateMutability": "nonpayable",
      "type": "constructor"
    },
    {
      "inputs": [
        {
          "internalType": "address",
          "name": "sender",
          "type": "address"
        },
        {
          "internalType": "uint256",
          "name": "tokenId",
          "type": "uint256"
        },
        {
          "internalType": "address",
          "name": "owner",
          "type": "address"
        }
      ],
      "name": "ERC721IncorrectOwner",
      "type": "error"
    },
    {
      "inputs": [
        {
          "internalType": "address",
          "name": "operator",
          "type": "address"
        },
        {
          "internalType": "uint256",
          "name": "tokenId",
          "type": "uint256"
        }
      ],
      "name": "ERC721InsufficientApproval",
      "type": "error"
    },
    {
      "inputs": [
        {
          "internalType": "address",
          "name": "approver",
          "type": "address"
        }
      ],
      "name": "ERC721InvalidApprover",
      "type": "error"
    },
    {
      "inputs": [
        {
          "internalType": "address",
          "name": "operator",
          "type": "address"
        }
      ],
      "name": "ERC721InvalidOperator",
      "type": "error"
    },
    {
      "inputs": [
        {
          "internalType": "address",
          "name": "owner",
          "type": "address"
        }
      ],
      "name": "ERC721InvalidOwner",
      "type": "error"
    },
    {
      "inputs": [
        {
          "internalType": "address",
          "name": "receiver",
          "type": "address"
        }
      ],
      "name": "ERC721InvalidReceiver",
      "type": "error"
    },
    {
      "inputs": [
        {
          "internalType": "address",
          "name": "sender",
          "type": "address"
        }
      ],
      "name": "ERC721InvalidSender",
      "type": "error"
    },
    {
      "inputs": [
        {
          "internalType": "uint256",
          "name": "tokenId",
          "type": "uint256"
        }
      ],
      "name": "ERC721NonexistentToken",
      "type": "error"
    },
    {
      "inputs": [
        {
          "internalType": "address",
          "name": "owner",
          "type": "address"
        }
      ],
      "name": "OwnableInvalidOwner",
      "type": "error"
    },
    {
      "inputs": [
        {
          "internalType": "address",
          "name": "account",
          "type": "address"
        }
      ],
      "name": "OwnableUnauthorizedAccount",
      "type": "error"
    },
    {
      "anonymous": false,
      "inputs": [
        {
          "indexed": true,
          "internalType": "address",
          "name": "owner",
          "type": "address"
        },
        {
          "indexed": true,
          "internalType": "address",
          "name": "approved",
          "type": "address"
        },
        {
          "indexed": true,
          "internalType": "uint256",
          "name": "tokenId",
          "type": "uint256"
        }
      ],
      "name": "Approval",
      "type": "event"
    },
    {
      "anonymous": false,
      "inputs": [
        {
          "indexed": true,
          "internalType": "address",
          "name": "owner",
          "type": "address"
        },
        {
          "indexed": true,
          "internalType": "address",
          "name": "operator",
          "type": "address"
        },
        {
          "indexed": false,
          "internalType": "bool",
          "name": "approved",
          "type": "bool"
        }
      ],
      "name": "ApprovalForAll",
      "type": "event"
    },
    {
      "anonymous": false,
      "inputs": [
        {
          "indexed": true,
          "internalType": "address",
          "name": "controller",
          "type": "address"
        }
      ],
      "name": "ControllerAdded",
      "type": "event"
    },
    {
      "anonymous": false,
      "inputs": [
        {
          "indexed": true,
          "internalType": "address",
          "name": "controller",
          "type": "address"
        }
      ],
      "name": "ControllerRemoved",
      "type": "event"
    },
    {
      "anonymous": false,
      "inputs": [
        {
          "indexed": true,
          "internalType": "uint256",
          "name": "id",
          "type": "uint256"
        },
        {
          "indexed": true,
          "internalType": "address",
          "name": "owner",
          "type": "address"
        },
        {
          "indexed": false,
          "internalType": "uint256",
          "name": "expires",
          "type": "uint256"
        }
      ],
      "name": "NameMigrated",
      "type": "event"
    },
    {
      "anonymous": false,
      "inputs": [
        {
          "indexed": true,
          "internalType": "uint256",
          "name": "id",
          "type": "uint256"
        },
        {
          "indexed": true,
          "internalType": "address",
          "name": "owner",
          "type": "address"
        },
        {
          "indexed": false,
          "internalType": "uint256",
          "name": "expires",
          "type": "uint256"
        }
      ],
      "name": "NameRegistered",
      "type": "event"
    },
    {
      "anonymous": false,
      "inputs": [
        {
          "indexed": true,
          "internalType": "uint256",
          "name": "id",
          "type": "uint256"
        },
        {
          "indexed": false,
          "internalType": "uint256",
          "name": "expires",
          "type": "uint256"
        }
      ],
      "name": "NameRenewed",
      "type": "event"
    },
    {
      "anonymous": false,
      "inputs": [
        {
          "indexed": true,
          "internalType": "address",
          "name": "previousOwner",
          "type": "address"
        },
        {
          "indexed": true,
          "internalType": "address",
          "name": "newOwner",
          "type": "address"
        }
      ],
      "name": "OwnershipTransferred",
      "type": "event"
    },
    {
      "anonymous": false,
      "inputs": [
        {
          "indexed": true,
          "internalType": "address",
          "name": "from",
          "type": "address"
        },
        {
          "indexed": true,
          "internalType": "address",
          "name": "to",
          "type": "address"
        },
        {
          "indexed": true,
          "internalType": "uint256",
          "name": "tokenId",
          "type": "uint256"
        }
      ],
      "name": "Transfer",
      "type": "event"
    },
    {
      "inputs": [],
      "name": "GRACE_PERIOD",
      "outputs": [
        {
          "internalType": "uint256",
          "name": "",
          "type": "uint256"
        }
      ],
      "stateMutability": "view",
      "type": "function"
    },
    {
      "inputs": [
        {
          "internalType": "address",
          "name": "controller",
          "type": "address"
        }
      ],
      "name": "addController",
      "outputs": [],
      "stateMutability": "nonpayable",
      "type": "function"
    },
    {
      "inputs": [
        {
          "internalType": "address",
          "name": "to",
          "type": "address"
        },
        {
          "internalType": "uint256",
          "name": "tokenId",
          "type": "uint256"
        }
      ],
      "name": "approve",
      "outputs": [],
      "stateMutability": "nonpayable",
      "type": "function"
    },
    {
      "inputs": [
        {
          "internalType": "uint256",
          "name": "id",
          "type": "uint256"
        }
      ],
      "name": "available",
      "outputs": [
        {
          "internalType": "bool",
          "name": "",
          "type": "bool"
        }
      ],
      "stateMutability": "view",
      "type": "function"
    },
    {
      "inputs": [
        {
          "internalType": "address",
          "name": "owner",
          "type": "address"
        }
      ],
      "name": "balanceOf",
      "outputs": [
        {
          "internalType": "uint256",
          "name": "",
          "type": "uint256"
        }
      ],
      "stateMutability": "view",
      "type": "function"
    },
    {
      "inputs": [],
      "name": "baseNode",
      "outputs": [
        {
          "internalType": "bytes32",
          "name": "",
          "type": "bytes32"
        }
      ],
      "stateMutability": "view",
      "type": "function"
    },
    {
      "inputs": [
        {
          "internalType": "address",
          "name": "",
          "type": "address"
        }
      ],
      "name": "controllers",
      "outputs": [
        {
          "internalType": "bool",
          "name": "",
          "type": "bool"
        }
      ],
      "stateMutability": "view",
      "type": "function"
    },
    {
      "inputs": [],
      "name": "ens",
      "outputs": [
        {
          "internalType": "contract ENS",
          "name": "",
          "type": "address"
        }
      ],
      "stateMutability": "view",
      "type": "function"
    },
    {
      "inputs": [
        {
          "internalType": "uint256",
          "name": "tokenId",
          "type": "uint256"
        }
      ],
      "name": "getApproved",
      "outputs": [
        {
          "internalType": "address",
          "name": "",
          "type": "address"
        }
      ],
      "stateMutability": "view",
      "type": "function"
    },
    {
      "inputs": [
        {
          "internalType": "address",
          "name": "owner",
          "type": "address"
        },
        {
          "internalType": "address",
          "name": "operator",
          "type": "address"
        }
      ],
      "name": "isApprovedForAll",
      "outputs": [
        {
          "internalType": "bool",
          "name": "",
          "type": "bool"
        }
      ],
      "stateMutability": "view",
      "type": "function"
    },
    {
      "inputs": [],
      "name": "name",
      "outputs": [
        {
          "internalType": "string",
          "name": "",
          "type": "string"
        }
      ],
      "stateMutability": "view",
      "type": "function"
    },
    {
      "inputs": [
        {
          "internalType": "uint256",
          "name": "id",
          "type": "uint256"
        }
      ],
      "name": "nameExpires",
      "outputs": [
        {
          "internalType": "uint256",
          "name": "",
          "type": "uint256"
        }
      ],
      "stateMutability": "view",
      "type": "function"
    },
    {
      "inputs": [],
      "name": "owner",
      "outputs": [
        {
          "internalType": "address",
          "name": "",
          "type": "address"
        }
      ],
      "stateMutability": "view",
      "type": "function"
    },
    {
      "inputs": [
        {
          "internalType": "uint256",
          "name": "tokenId",
          "type": "uint256"
        }
      ],
      "name": "ownerOf",
      "outputs": [
        {
          "internalType": "address",
          "name": "",
          "type": "address"
        }
      ],
      "stateMutability": "view",
      "type": "function"
    },
    {
      "inputs": [
        {
          "internalType": "uint256",
          "name": "id",
          "type": "uint256"
        },
        {
          "internalType": "address",
          "name": "owner",
          "type": "address"
        }
      ],
      "name": "reclaim",
      "outputs": [],
      "stateMutability": "nonpayable",
      "type": "function"
    },
    {
      "inputs": [
        {
          "internalType": "uint256",
          "name": "id",
          "type": "uint256"
        },
        {
          "internalType": "address",
          "name": "owner",
          "type": "address"
        },
        {
          "internalType": "uint256",
          "name": "duration",
          "type": "uint256"
        }
      ],
      "name": "register",
      "outputs": [
        {
          "internalType": "uint256",
          "name": "",
          "type": "uint256"
        }
      ],
      "stateMutability": "nonpayable",
      "type": "function"
    },
    {
      "inputs": [
        {
          "internalType": "uint256",
          "name": "id",
          "type": "uint256"
        },
        {
          "internalType": "address",
          "name": "owner",
          "type": "address"
        },
        {
          "internalType": "uint256",
          "name": "duration",
          "type": "uint256"
        }
      ],
      "name": "registerOnly",
      "outputs": [
        {
          "internalType": "uint256",
          "name": "",
          "type": "uint256"
        }
      ],
      "stateMutability": "nonpayable",
      "type": "function"
    },
    {
      "inputs": [
        {
          "internalType": "address",
          "name": "controller",
          "type": "address"
        }
      ],
      "name": "removeController",
      "outputs": [],
      "stateMutability": "nonpayable",
      "type": "function"
    },
    {
      "inputs": [
        {
          "internalType": "uint256",
          "name": "id",
          "type": "uint256"
        },
        {
          "internalType": "uint256",
          "name": "duration",
          "type": "uint256"
        }
      ],
      "name": "renew",
      "outputs": [
        {
          "internalType": "uint256",
          "name": "",
          "type": "uint256"
        }
      ],
      "stateMutability": "nonpayable",
      "type": "function"
    },
    {
      "inputs": [],
      "name": "renounceOwnership",
      "outputs": [],
      "stateMutability": "nonpayable",
      "type": "function"
    },
    {
      "inputs": [
        {
          "internalType": "address",
          "name": "from",
          "type": "address"
        },
        {
          "internalType": "address",
          "name": "to",
          "type": "address"
        },
        {
          "internalType": "uint256",
          "name": "tokenId",
          "type": "uint256"
        }
      ],
      "name": "safeTransferFrom",
      "outputs": [],
      "stateMutability": "nonpayable",
      "type": "function"
    },
    {
      "inputs": [
        {
          "internalType": "address",
          "name": "from",
          "type": "address"
        },
        {
          "internalType": "address",
          "name": "to",
          "type": "address"
        },
        {
          "internalType": "uint256",
          "name": "tokenId",
          "type": "uint256"
        },
        {
          "internalType": "bytes",
          "name": "data",
          "type": "bytes"
        }
      ],
      "name": "safeTransferFrom",
      "outputs": [],
      "stateMutability": "nonpayable",
      "type": "function"
    },
    {
      "inputs": [
        {
          "internalType": "address",
          "name": "operator",
          "type": "address"
        },
        {
          "internalType": "bool",
          "name": "approved",
          "type": "bool"
        }
      ],
      "name": "setApprovalForAll",
      "outputs": [],
      "stateMutability": "nonpayable",
      "type": "function"
    },
    {
      "inputs": [
        {
          "internalType": "address",
          "name": "resolver",
          "type": "address"
        }
      ],
      "name": "setResolver",
      "outputs": [],
      "stateMutability": "nonpayable",
      "type": "function"
    },
    {
      "inputs": [
        {
          "internalType": "bytes4",
          "name": "interfaceID",
          "type": "bytes4"
        }
      ],
      "name": "supportsInterface",
      "outputs": [
        {
          "internalType": "bool",
          "name": "",
          "type": "bool"
        }
      ],
      "stateMutability": "view",
      "type": "function"
    },
    {
      "inputs": [],
      "name": "symbol",
      "outputs": [
        {
          "internalType": "string",
          "name": "",
          "type": "string"
        }
      ],
      "stateMutability": "view",
      "type": "function"
    },
    {
      "inputs": [
        {
          "internalType": "uint256",
          "name": "tokenId",
          "type": "uint256"
        }
      ],
      "name": "tokenURI",
      "outputs": [
        {
          "internalType": "string",
          "name": "",
          "type": "string"
        }
      ],
      "stateMutability": "view",
      "type": "function"
    },
    {
      "inputs": [
        {
          "internalType": "address",
          "name": "from",
          "type": "address"
        },
        {
          "internalType": "address",
          "name": "to",
          "type": "address"
        },
        {
          "internalType": "uint256",
          "name": "tokenId",
          "type": "uint256"
        }
      ],
      "name": "transferFrom",
      "outputs": [],
      "stateMutability": "nonpayable",
      "type": "function"
    },
    {
      "inputs": [
        {
          "internalType": "address",
          "name": "newOwner",
          "type": "address"
        }
      ],
      "name": "transferOwnership",
      "outputs": [],
      "stateMutability": "nonpayable",
      "type": "function"
    }
  ],
  "bytecode": "0x608060405234801561000f575f5ffd5b50604051611bce380380611bce83398101604081905261002e91610115565b60408051602080820183525f8083528351918201909352828152339261005483826101e4565b50600161006182826101e4565b5050506001600160a01b03811661009157604051631e4fbdf760e01b81525f600482015260240160405180910390fd5b61009a816100c4565b50600880546001600160a01b0319166001600160a01b03939093169290921790915560095561029e565b600680546001600160a01b038381166001600160a01b0319831681179093556040519116919082907f8be0079c531659141344cd1fd0a4f28419497f9722a3daafe3b4186f6b6457e0905f90a35050565b5f5f60408385031215610126575f5ffd5b82516001600160a01b038116811461013c575f5ffd5b6020939093015192949293505050565b634e487b7160e01b5f52604160045260245ffd5b600181811c9082168061017457607f821691505b60208210810361019257634e487b7160e01b5f52602260045260245ffd5b50919050565b601f8211156101df57805f5260205f20601f840160051c810160208510156101bd5750805b601f840160051c820191505b818110156101dc575f81556001016101c9565b50505b505050565b81516001600160401b038111156101fd576101fd61014c565b6102118161020b8454610160565b84610198565b6020601f821160018114610243575f831561022c5750848201515b5f19600385901b1c1916600184901b1784556101dc565b5f84815260208120601f198516915b828110156102725787850151825560209485019460019092019101610252565b508482101561028f57868401515f19600387901b60f8161c191681555b50505050600190811b01905550565b611923806102ab5f395ff3fe608060405234801561000f575f5ffd5b50600436106101c6575f3560e01c806395d89b41116100fe578063c87b56dd1161009e578063e985e9c51161006e578063e985e9c5146103d4578063f2fde38b146103e7578063f6a74ed7146103fa578063fca247ac1461040d575f5ffd5b8063c87b56dd14610377578063d6e4fa861461038a578063da8c229e146103a9578063ddf7fcb0146103cb575f5ffd5b8063a7fc7a07116100d9578063a7fc7a0714610334578063b88d4fde14610347578063c1a287e21461035a578063c475abff14610364575f5ffd5b806395d89b411461030657806396e494e81461030e578063a22cb46514610321575f5ffd5b80633f15457f116101695780636352211e116101445780636352211e146102c757806370a08231146102da578063715018a6146102ed5780638da5cb5b146102f5575f5ffd5b80633f15457f1461028e57806342842e0e146102a15780634e543b26146102b4575f5ffd5b8063095ea7b3116101a4578063095ea7b3146102325780630e297b451461024757806323b872dd1461026857806328ed4f6c1461027b575f5ffd5b806301ffc9a7146101ca57806306fdde03146101f2578063081812fc14610207575b5f5ffd5b6101dd6101d8366004611516565b610420565b60405190151581526020015b60405180910390f35b6101fa610471565b6040516101e9919061155f565b61021a610215366004611571565b610500565b6040516001600160a01b0390911681526020016101e9565b61024561024036600461159c565b610527565b005b61025a6102553660046115c6565b610536565b6040519081526020016101e9565b6102456102763660046115fb565b61054b565b610245610289366004611628565b6105d9565b60085461021a906001600160a01b031681565b6102456102af3660046115fb565b6106f0565b6102456102c2366004611656565b61070a565b61021a6102d5366004611571565b61077a565b61025a6102e8366004611656565b61079b565b6102456107e0565b6006546001600160a01b031661021a565b6101fa6107f3565b6101dd61031c366004611571565b610802565b61024561032f366004611671565b610827565b610245610342366004611656565b610832565b6102456103553660046116b5565b610885565b61025a6276a70081565b61025a610372366004611796565b61089d565b6101fa610385366004611571565b610a21565b61025a610398366004611571565b5f9081526007602052604090205490565b6101dd6103b7366004611656565b600a6020525f908152604090205460ff1681565b61025a60095481565b6101dd6103e23660046117b6565b610a92565b6102456103f5366004611656565b610abf565b610245610408366004611656565b610afc565b61025a61041b3660046115c6565b610b4c565b5f6001600160e01b031982166301ffc9a760e01b148061045057506001600160e01b031982166380ac58cd60e01b145b8061046b57506001600160e01b03198216630a3b53db60e21b145b92915050565b60605f805461047f906117e2565b80601f01602080910402602001604051908101604052809291908181526020018280546104ab906117e2565b80156104f65780601f106104cd576101008083540402835291602001916104f6565b820191905f5260205f20905b8154815290600101906020018083116104d957829003601f168201915b5050505050905090565b5f61050a82610b5a565b505f828152600460205260409020546001600160a01b031661046b565b610532828233610b92565b5050565b5f6105438484845f610b9f565b949350505050565b6001600160a01b03821661057957604051633250574960e11b81525f60048201526024015b60405180910390fd5b5f610585838333610da3565b9050836001600160a01b0316816001600160a01b0316146105d3576040516364283d7b60e01b81526001600160a01b0380861660048301526024820184905282166044820152606401610570565b50505050565b6008546009546040516302571be360e01b8152600481019190915230916001600160a01b0316906302571be390602401602060405180830381865afa158015610624573d5f5f3e3d5ffd5b505050506040513d601f19601f82011682018060405250810190610648919061181a565b6001600160a01b03161461065a575f5ffd5b6106643383610e95565b61066c575f5ffd5b6008546009546040516306ab592360e01b81526004810191909152602481018490526001600160a01b038381166044830152909116906306ab5923906064016020604051808303815f875af11580156106c7573d5f5f3e3d5ffd5b505050506040513d601f19601f820116820180604052508101906106eb9190611835565b505050565b6106eb83838360405180602001604052805f815250610885565b610712610eeb565b600854600954604051630c4b7b8560e11b815260048101919091526001600160a01b03838116602483015290911690631896f70a906044015f604051808303815f87803b158015610761575f5ffd5b505af1158015610773573d5f5f3e3d5ffd5b5050505050565b5f818152600760205260408120544210610792575f5ffd5b61046b82610f18565b5f6001600160a01b0382166107c5576040516322718ad960e21b81525f6004820152602401610570565b506001600160a01b03165f9081526003602052604090205490565b6107e8610eeb565b6107f15f610f22565b565b60606001805461047f906117e2565b5f818152600760205260408120544290610820906276a7009061184c565b1092915050565b610532338383610f73565b61083a610eeb565b6001600160a01b0381165f818152600a6020526040808220805460ff19166001179055517f0a8bb31534c0ed46f380cb867bd5c803a189ced9a764e30b3a4991a9901d74749190a250565b61089084848461054b565b6105d33385858585611011565b6008546009546040516302571be360e01b815260048101919091525f9130916001600160a01b03909116906302571be390602401602060405180830381865afa1580156108ec573d5f5f3e3d5ffd5b505050506040513d601f19601f82011682018060405250810190610910919061181a565b6001600160a01b031614610922575f5ffd5b335f908152600a602052604090205460ff1661093c575f5ffd5b5f83815260076020526040902054429061095a906276a7009061184c565b1015610964575f5ffd5b6109716276a7008361184c565b5f848152600760205260409020546276a7009061098f90859061184c565b610999919061184c565b116109a2575f5ffd5b5f83815260076020526040812080548492906109bf90849061184c565b90915550505f838152600760205260409081902054905184917f9b87a00e30f1ac65d898f070f8a3488fe60517182d0a2098e1b4b93a54aa9bd691610a0691815260200190565b60405180910390a250505f9081526007602052604090205490565b6060610a2c82610b5a565b505f610a4260408051602081019091525f815290565b90505f815111610a605760405180602001604052805f815250610a8b565b80610a6a84611138565b604051602001610a7b929190611882565b6040516020818303038152906040525b9392505050565b6001600160a01b039182165f90815260056020908152604080832093909416825291909152205460ff1690565b610ac7610eeb565b6001600160a01b038116610af057604051631e4fbdf760e01b81525f6004820152602401610570565b610af981610f22565b50565b610b04610eeb565b6001600160a01b0381165f818152600a6020526040808220805460ff19169055517f33d83959be2573f5453b12eb9d43b3499bc57d96bd2f067ba44803c859e811139190a250565b5f6105438484846001610b9f565b5f818152600260205260408120546001600160a01b03168061046b57604051637e27328960e01b815260048101849052602401610570565b6106eb83838360016111c8565b6008546009546040516302571be360e01b815260048101919091525f9130916001600160a01b03909116906302571be390602401602060405180830381865afa158015610bee573d5f5f3e3d5ffd5b505050506040513d601f19601f82011682018060405250810190610c12919061181a565b6001600160a01b031614610c24575f5ffd5b335f908152600a602052604090205460ff16610c3e575f5ffd5b610c4785610802565b610c4f575f5ffd5b610c5c6276a7004261184c565b6276a700610c6a854261184c565b610c74919061184c565b11610c7d575f5ffd5b610c87834261184c565b5f868152600760209081526040808320939093556002905220546001600160a01b031615610cb857610cb8856112cc565b610cc28486611304565b8115610d49576008546009546040516306ab592360e01b81526004810191909152602481018790526001600160a01b038681166044830152909116906306ab5923906064016020604051808303815f875af1158015610d23573d5f5f3e3d5ffd5b505050506040513d601f19601f82011682018060405250810190610d479190611835565b505b6001600160a01b038416857fb3d987963d01b2f68493b4bdb130988f157ea43070d4ad840fee0466ed9370d9610d7f864261184c565b60405190815260200160405180910390a3610d9a834261184c565b95945050505050565b5f828152600260205260408120546001600160a01b0390811690831615610dcf57610dcf818486611365565b6001600160a01b03811615610e0957610dea5f855f5f6111c8565b6001600160a01b0381165f90815260036020526040902080545f190190555b6001600160a01b03851615610e37576001600160a01b0385165f908152600360205260409020805460010190555b5f8481526002602052604080822080546001600160a01b0319166001600160a01b0389811691821790925591518793918516917fddf252ad1be2c89b69c2b068fc378daa952ba7f163c4a11628f55a4df523b3ef91a4949350505050565b5f5f610ea08361077a565b9050806001600160a01b0316846001600160a01b03161480610edb5750836001600160a01b0316610ed084610500565b6001600160a01b0316145b8061054357506105438185610a92565b6006546001600160a01b031633146107f15760405163118cdaa760e01b8152336004820152602401610570565b5f61046b82610b5a565b600680546001600160a01b038381166001600160a01b0319831681179093556040519116919082907f8be0079c531659141344cd1fd0a4f28419497f9722a3daafe3b4186f6b6457e0905f90a35050565b6001600160a01b038216610fa557604051630b61174360e31b81526001600160a01b0383166004820152602401610570565b6001600160a01b038381165f81815260056020908152604080832094871680845294825291829020805460ff191686151590811790915591519182527f17307eab39ab6107e8899845ad3d59bd9653f200f220920489ca2b5937696c31910160405180910390a3505050565b6001600160a01b0383163b1561077357604051630a85bd0160e11b81526001600160a01b0384169063150b7a0290611053908890889087908790600401611896565b6020604051808303815f875af192505050801561108d575060408051601f3d908101601f1916820190925261108a918101906118d2565b60015b6110f4573d8080156110ba576040519150601f19603f3d011682016040523d82523d5f602084013e6110bf565b606091505b5080515f036110ec57604051633250574960e11b81526001600160a01b0385166004820152602401610570565b805160208201fd5b6001600160e01b03198116630a85bd0160e11b1461113057604051633250574960e11b81526001600160a01b0385166004820152602401610570565b505050505050565b60605f611144836113c9565b60010190505f8167ffffffffffffffff811115611163576111636116a1565b6040519080825280601f01601f19166020018201604052801561118d576020820181803683370190505b5090508181016020015b5f19016f181899199a1a9b1b9c1cb0b131b232b360811b600a86061a8153600a850494508461119757509392505050565b80806111dc57506001600160a01b03821615155b1561129d575f6111eb84610b5a565b90506001600160a01b038316158015906112175750826001600160a01b0316816001600160a01b031614155b801561122a57506112288184610a92565b155b156112535760405163a9fbf51f60e01b81526001600160a01b0384166004820152602401610570565b811561129b5783856001600160a01b0316826001600160a01b03167f8c5be1e5ebec7d5bd14f71427d1e84f3dd0314c0f7b2291e5b200ac8c7c3b92560405160405180910390a45b505b50505f90815260046020526040902080546001600160a01b0319166001600160a01b0392909216919091179055565b5f6112d85f835f610da3565b90506001600160a01b03811661053257604051637e27328960e01b815260048101839052602401610570565b6001600160a01b03821661132d57604051633250574960e11b81525f6004820152602401610570565b5f61133983835f610da3565b90506001600160a01b038116156106eb576040516339e3563760e11b81525f6004820152602401610570565b6113708383836114a0565b6106eb576001600160a01b03831661139e57604051637e27328960e01b815260048101829052602401610570565b60405163177e802f60e01b81526001600160a01b038316600482015260248101829052604401610570565b5f8072184f03e93ff9f4daa797ed6e38ed64bf6a1f0160401b83106114075772184f03e93ff9f4daa797ed6e38ed64bf6a1f0160401b830492506040015b6d04ee2d6d415b85acef81000000008310611433576d04ee2d6d415b85acef8100000000830492506020015b662386f26fc10000831061145157662386f26fc10000830492506010015b6305f5e1008310611469576305f5e100830492506008015b612710831061147d57612710830492506004015b6064831061148f576064830492506002015b600a831061046b5760010192915050565b5f6001600160a01b038316158015906105435750826001600160a01b0316846001600160a01b031614806114d957506114d98484610a92565b806105435750505f908152600460205260409020546001600160a01b03908116911614919050565b6001600160e01b031981168114610af9575f5ffd5b5f60208284031215611526575f5ffd5b8135610a8b81611501565b5f81518084528060208401602086015e5f602082860101526020601f19601f83011685010191505092915050565b602081525f610a8b6020830184611531565b5f60208284031215611581575f5ffd5b5035919050565b6001600160a01b0381168114610af9575f5ffd5b5f5f604083850312156115ad575f5ffd5b82356115b881611588565b946020939093013593505050565b5f5f5f606084860312156115d8575f5ffd5b8335925060208401356115ea81611588565b929592945050506040919091013590565b5f5f5f6060848603121561160d575f5ffd5b833561161881611588565b925060208401356115ea81611588565b5f5f60408385031215611639575f5ffd5b82359150602083013561164b81611588565b809150509250929050565b5f60208284031215611666575f5ffd5b8135610a8b81611588565b5f5f60408385031215611682575f5ffd5b823561168d81611588565b91506020830135801515811461164b575f5ffd5b634e487b7160e01b5f52604160045260245ffd5b5f5f5f5f608085870312156116c8575f5ffd5b84356116d381611588565b935060208501356116e381611588565b925060408501359150606085013567ffffffffffffffff811115611705575f5ffd5b8501601f81018713611715575f5ffd5b803567ffffffffffffffff81111561172f5761172f6116a1565b604051601f8201601f19908116603f0116810167ffffffffffffffff8111828210171561175e5761175e6116a1565b604052818152828201602001891015611775575f5ffd5b816020840160208301375f6020838301015280935050505092959194509250565b5f5f604083850312156117a7575f5ffd5b50508035926020909101359150565b5f5f604083850312156117c7575f5ffd5b82356117d281611588565b9150602083013561164b81611588565b600181811c908216806117f657607f821691505b60208210810361181457634e487b7160e01b5f52602260045260245ffd5b50919050565b5f6020828403121561182a575f5ffd5b8151610a8b81611588565b5f60208284031215611845575f5ffd5b5051919050565b8082018082111561046b57634e487b7160e01b5f52601160045260245ffd5b5f81518060208401855e5f93019283525090919050565b5f610543611890838661186b565b8461186b565b6001600160a01b03858116825284166020820152604081018390526080606082018190525f906118c890830184611531565b9695505050505050565b5f602082840312156118e2575f5ffd5b8151610a8b8161150156fea26469706673582212208a7121d34a741e0a1d804d36a89baba500690296919c2ac4552fe5bee9ea132164736f6c634300081c0033",
  "linkReferences": {},
  "deployedLinkReferences": {},
  "immutableReferences": {},
  "inputSourceName": "project/contracts/ens/ethregistrar/BaseRegistrarImplementation.sol",
  "buildInfoId": "solc-0_8_28-bfe7c1b27ea0ed86af59c5cba76eff75101c2099"
}