{
  "_format": "hh3-artifact-1",
  "contractName": "YieldRedirector4626",
  "sourceName": "contracts/YieldRedirector4626.sol",
  "abi": [
    {
      "inputs": [],
      "stateMutability": "nonpayable",
      "type": "constructor"
    },
    {
      "inputs": [
        {
          "internalType": "address",
          "name": "spender",
          "type": "address"
        },
        {
          "internalType": "uint256",
          "name": "allowance",
          "type": "uint256"
        },
        {
          "internalType": "uint256",
          "name": "needed",
          "type": "uint256"
        }
      ],
      "name": "ERC20InsufficientAllowance",
      "type": "error"
    },
    {
      "inputs": [
        {
          "internalType": "address",
          "name": "sender",
          "type": "address"
        },
        {
          "internalType": "uint256",
          "name": "balance",
          "type": "uint256"
        },
        {
          "internalType": "uint256",
          "name": "needed",
          "type": "uint256"
        }
      ],
      "name": "ERC20InsufficientBalance",
      "type": "error"
    },
    {
      "inputs": [
        {
          "internalType": "address",
          "name": "approver",
          "type": "address"
        }
      ],
      "name": "ERC20InvalidApprover",
      "type": "error"
    },
    {
      "inputs": [
        {
          "internalType": "address",
          "name": "receiver",
          "type": "address"
        }
      ],
      "name": "ERC20InvalidReceiver",
      "type": "error"
    },
    {
      "inputs": [
        {
          "internalType": "address",
          "name": "sender",
          "type": "address"
        }
      ],
      "name": "ERC20InvalidSender",
      "type": "error"
    },
    {
      "inputs": [
        {
          "internalType": "address",
          "name": "spender",
          "type": "address"
        }
      ],
      "name": "ERC20InvalidSpender",
      "type": "error"
    },
    {
      "inputs": [
        {
          "internalType": "address",
          "name": "receiver",
          "type": "address"
        },
        {
          "internalType": "uint256",
          "name": "assets",
          "type": "uint256"
        },
        {
          "internalType": "uint256",
          "name": "max",
          "type": "uint256"
        }
      ],
      "name": "ERC4626ExceededMaxDeposit",
      "type": "error"
    },
    {
      "inputs": [
        {
          "internalType": "address",
          "name": "receiver",
          "type": "address"
        },
        {
          "internalType": "uint256",
          "name": "shares",
          "type": "uint256"
        },
        {
          "internalType": "uint256",
          "name": "max",
          "type": "uint256"
        }
      ],
      "name": "ERC4626ExceededMaxMint",
      "type": "error"
    },
    {
      "inputs": [
        {
          "internalType": "address",
          "name": "owner",
          "type": "address"
        },
        {
          "internalType": "uint256",
          "name": "shares",
          "type": "uint256"
        },
        {
          "internalType": "uint256",
          "name": "max",
          "type": "uint256"
        }
      ],
      "name": "ERC4626ExceededMaxRedeem",
      "type": "error"
    },
    {
      "inputs": [
        {
          "internalType": "address",
          "name": "owner",
          "type": "address"
        },
        {
          "internalType": "uint256",
          "name": "assets",
          "type": "uint256"
        },
        {
          "internalType": "uint256",
          "name": "max",
          "type": "uint256"
        }
      ],
      "name": "ERC4626ExceededMaxWithdraw",
      "type": "error"
    },
    {
      "inputs": [],
      "name": "InsufficientPrincipal",
      "type": "error"
    },
    {
      "inputs": [],
      "name": "InvalidInitialization",
      "type": "error"
    },
    {
      "inputs": [],
      "name": "NoYieldAvailable",
      "type": "error"
    },
    {
      "inputs": [],
      "name": "NotInitializing",
      "type": "error"
    },
    {
      "inputs": [
        {
          "internalType": "address",
          "name": "owner",
          "type": "address"
        }
      ],
      "name": "OwnableInvalidOwner",
      "type": "error"
    },
    {
      "inputs": [
        {
          "internalType": "address",
          "name": "account",
          "type": "address"
        }
      ],
      "name": "OwnableUnauthorizedAccount",
      "type": "error"
    },
    {
      "inputs": [],
      "name": "ReentrancyGuardReentrantCall",
      "type": "error"
    },
    {
      "inputs": [
        {
          "internalType": "address",
          "name": "token",
          "type": "address"
        }
      ],
      "name": "SafeERC20FailedOperation",
      "type": "error"
    },
    {
      "inputs": [],
      "name": "ZeroAddress",
      "type": "error"
    },
    {
      "anonymous": false,
      "inputs": [
        {
          "indexed": true,
          "internalType": "address",
          "name": "owner",
          "type": "address"
        },
        {
          "indexed": true,
          "internalType": "address",
          "name": "spender",
          "type": "address"
        },
        {
          "indexed": false,
          "internalType": "uint256",
          "name": "value",
          "type": "uint256"
        }
      ],
      "name": "Approval",
      "type": "event"
    },
    {
      "anonymous": false,
      "inputs": [
        {
          "indexed": true,
          "internalType": "address",
          "name": "sender",
          "type": "address"
        },
        {
          "indexed": true,
          "internalType": "address",
          "name": "owner",
          "type": "address"
        },
        {
          "indexed": false,
          "internalType": "uint256",
          "name": "assets",
          "type": "uint256"
        },
        {
          "indexed": false,
          "internalType": "uint256",
          "name": "shares",
          "type": "uint256"
        }
      ],
      "name": "Deposit",
      "type": "event"
    },
    {
      "anonymous": false,
      "inputs": [
        {
          "indexed": false,
          "internalType": "uint256",
          "name": "amount",
          "type": "uint256"
        },
        {
          "indexed": true,
          "internalType": "address",
          "name": "recipient",
          "type": "address"
        }
      ],
      "name": "Harvest",
      "type": "event"
    },
    {
      "anonymous": false,
      "inputs": [
        {
          "indexed": false,
          "internalType": "uint64",
          "name": "version",
          "type": "uint64"
        }
      ],
      "name": "Initialized",
      "type": "event"
    },
    {
      "anonymous": false,
      "inputs": [
        {
          "indexed": true,
          "internalType": "address",
          "name": "previousOwner",
          "type": "address"
        },
        {
          "indexed": true,
          "internalType": "address",
          "name": "newOwner",
          "type": "address"
        }
      ],
      "name": "OwnershipTransferred",
      "type": "event"
    },
    {
      "anonymous": false,
      "inputs": [
        {
          "indexed": true,
          "internalType": "address",
          "name": "from",
          "type": "address"
        },
        {
          "indexed": true,
          "internalType": "address",
          "name": "to",
          "type": "address"
        },
        {
          "indexed": false,
          "internalType": "uint256",
          "name": "value",
          "type": "uint256"
        }
      ],
      "name": "Transfer",
      "type": "event"
    },
    {
      "anonymous": false,
      "inputs": [
        {
          "indexed": true,
          "internalType": "address",
          "name": "sender",
          "type": "address"
        },
        {
          "indexed": true,
          "internalType": "address",
          "name": "receiver",
          "type": "address"
        },
        {
          "indexed": true,
          "internalType": "address",
          "name": "owner",
          "type": "address"
        },
        {
          "indexed": false,
          "internalType": "uint256",
          "name": "assets",
          "type": "uint256"
        },
        {
          "indexed": false,
          "internalType": "uint256",
          "name": "shares",
          "type": "uint256"
        }
      ],
      "name": "Withdraw",
      "type": "event"
    },
    {
      "anonymous": false,
      "inputs": [
        {
          "indexed": true,
          "internalType": "address",
          "name": "oldRecipient",
          "type": "address"
        },
        {
          "indexed": true,
          "internalType": "address",
          "name": "newRecipient",
          "type": "address"
        }
      ],
      "name": "YieldRecipientUpdated",
      "type": "event"
    },
    {
      "inputs": [
        {
          "internalType": "address",
          "name": "owner",
          "type": "address"
        },
        {
          "internalType": "address",
          "name": "spender",
          "type": "address"
        }
      ],
      "name": "allowance",
      "outputs": [
        {
          "internalType": "uint256",
          "name": "",
          "type": "uint256"
        }
      ],
      "stateMutability": "view",
      "type": "function"
    },
    {
      "inputs": [
        {
          "internalType": "address",
          "name": "spender",
          "type": "address"
        },
        {
          "internalType": "uint256",
          "name": "value",
          "type": "uint256"
        }
      ],
      "name": "approve",
      "outputs": [
        {
          "internalType": "bool",
          "name": "",
          "type": "bool"
        }
      ],
      "stateMutability": "nonpayable",
      "type": "function"
    },
    {
      "inputs": [],
      "name": "asset",
      "outputs": [
        {
          "internalType": "address",
          "name": "",
          "type": "address"
        }
      ],
      "stateMutability": "view",
      "type": "function"
    },
    {
      "inputs": [
        {
          "internalType": "address",
          "name": "account",
          "type": "address"
        }
      ],
      "name": "balanceOf",
      "outputs": [
        {
          "internalType": "uint256",
          "name": "",
          "type": "uint256"
        }
      ],
      "stateMutability": "view",
      "type": "function"
    },
    {
      "inputs": [
        {
          "internalType": "uint256",
          "name": "shares",
          "type": "uint256"
        }
      ],
      "name": "convertToAssets",
      "outputs": [
        {
          "internalType": "uint256",
          "name": "",
          "type": "uint256"
        }
      ],
      "stateMutability": "view",
      "type": "function"
    },
    {
      "inputs": [
        {
          "internalType": "uint256",
          "name": "assets",
          "type": "uint256"
        }
      ],
      "name": "convertToShares",
      "outputs": [
        {
          "internalType": "uint256",
          "name": "",
          "type": "uint256"
        }
      ],
      "stateMutability": "view",
      "type": "function"
    },
    {
      "inputs": [],
      "name": "decimals",
      "outputs": [
        {
          "internalType": "uint8",
          "name": "",
          "type": "uint8"
        }
      ],
      "stateMutability": "view",
      "type": "function"
    },
    {
      "inputs": [
        {
          "internalType": "uint256",
          "name": "assets",
          "type": "uint256"
        },
        {
          "internalType": "address",
          "name": "receiver",
          "type": "address"
        }
      ],
      "name": "deposit",
      "outputs": [
        {
          "internalType": "uint256",
          "name": "",
          "type": "uint256"
        }
      ],
      "stateMutability": "nonpayable",
      "type": "function"
    },
    {
      "inputs": [],
      "name": "harvest",
      "outputs": [],
      "stateMutability": "nonpayable",
      "type": "function"
    },
    {
      "inputs": [
        {
          "internalType": "contract IERC4626",
          "name": "sourceVault_",
          "type": "address"
        },
        {
          "internalType": "address",
          "name": "yieldRecipient_",
          "type": "address"
        },
        {
          "internalType": "address",
          "name": "initialOwner_",
          "type": "address"
        }
      ],
      "name": "initialize",
      "outputs": [],
      "stateMutability": "nonpayable",
      "type": "function"
    },
    {
      "inputs": [
        {
          "internalType": "address",
          "name": "",
          "type": "address"
        }
      ],
      "name": "maxDeposit",
      "outputs": [
        {
          "internalType": "uint256",
          "name": "",
          "type": "uint256"
        }
      ],
      "stateMutability": "view",
      "type": "function"
    },
    {
      "inputs": [
        {
          "internalType": "address",
          "name": "",
          "type": "address"
        }
      ],
      "name": "maxMint",
      "outputs": [
        {
          "internalType": "uint256",
          "name": "",
          "type": "uint256"
        }
      ],
      "stateMutability": "view",
      "type": "function"
    },
    {
      "inputs": [
        {
          "internalType": "address",
          "name": "owner",
          "type": "address"
        }
      ],
      "name": "maxRedeem",
      "outputs": [
        {
          "internalType": "uint256",
          "name": "",
          "type": "uint256"
        }
      ],
      "stateMutability": "view",
      "type": "function"
    },
    {
      "inputs": [
        {
          "internalType": "address",
          "name": "owner",
          "type": "address"
        }
      ],
      "name": "maxWithdraw",
      "outputs": [
        {
          "internalType": "uint256",
          "name": "",
          "type": "uint256"
        }
      ],
      "stateMutability": "view",
      "type": "function"
    },
    {
      "inputs": [
        {
          "internalType": "uint256",
          "name": "shares",
          "type": "uint256"
        },
        {
          "internalType": "address",
          "name": "receiver",
          "type": "address"
        }
      ],
      "name": "mint",
      "outputs": [
        {
          "internalType": "uint256",
          "name": "",
          "type": "uint256"
        }
      ],
      "stateMutability": "nonpayable",
      "type": "function"
    },
    {
      "inputs": [],
      "name": "name",
      "outputs": [
        {
          "internalType": "string",
          "name": "",
          "type": "string"
        }
      ],
      "stateMutability": "view",
      "type": "function"
    },
    {
      "inputs": [],
      "name": "owner",
      "outputs": [
        {
          "internalType": "address",
          "name": "",
          "type": "address"
        }
      ],
      "stateMutability": "view",
      "type": "function"
    },
    {
      "inputs": [
        {
          "internalType": "uint256",
          "name": "assets",
          "type": "uint256"
        }
      ],
      "name": "previewDeposit",
      "outputs": [
        {
          "internalType": "uint256",
          "name": "",
          "type": "uint256"
        }
      ],
      "stateMutability": "view",
      "type": "function"
    },
    {
      "inputs": [
        {
          "internalType": "uint256",
          "name": "shares",
          "type": "uint256"
        }
      ],
      "name": "previewMint",
      "outputs": [
        {
          "internalType": "uint256",
          "name": "",
          "type": "uint256"
        }
      ],
      "stateMutability": "view",
      "type": "function"
    },
    {
      "inputs": [
        {
          "internalType": "uint256",
          "name": "shares",
          "type": "uint256"
        }
      ],
      "name": "previewRedeem",
      "outputs": [
        {
          "internalType": "uint256",
          "name": "",
          "type": "uint256"
        }
      ],
      "stateMutability": "view",
      "type": "function"
    },
    {
      "inputs": [
        {
          "internalType": "uint256",
          "name": "assets",
          "type": "uint256"
        }
      ],
      "name": "previewWithdraw",
      "outputs": [
        {
          "internalType": "uint256",
          "name": "",
          "type": "uint256"
        }
      ],
      "stateMutability": "view",
      "type": "function"
    },
    {
      "inputs": [],
      "name": "principal",
      "outputs": [
        {
          "internalType": "uint256",
          "name": "",
          "type": "uint256"
        }
      ],
      "stateMutability": "view",
      "type": "function"
    },
    {
      "inputs": [
        {
          "internalType": "uint256",
          "name": "shares",
          "type": "uint256"
        },
        {
          "internalType": "address",
          "name": "receiver",
          "type": "address"
        },
        {
          "internalType": "address",
          "name": "owner",
          "type": "address"
        }
      ],
      "name": "redeem",
      "outputs": [
        {
          "internalType": "uint256",
          "name": "",
          "type": "uint256"
        }
      ],
      "stateMutability": "nonpayable",
      "type": "function"
    },
    {
      "inputs": [],
      "name": "renounceOwnership",
      "outputs": [],
      "stateMutability": "nonpayable",
      "type": "function"
    },
    {
      "inputs": [
        {
          "internalType": "address",
          "name": "newRecipient",
          "type": "address"
        }
      ],
      "name": "setYieldRecipient",
      "outputs": [],
      "stateMutability": "nonpayable",
      "type": "function"
    },
    {
      "inputs": [],
      "name": "sourceVault",
      "outputs": [
        {
          "internalType": "contract IERC4626",
          "name": "",
          "type": "address"
        }
      ],
      "stateMutability": "view",
      "type": "function"
    },
    {
      "inputs": [],
      "name": "sourceVaultValue",
      "outputs": [
        {
          "internalType": "uint256",
          "name": "",
          "type": "uint256"
        }
      ],
      "stateMutability": "view",
      "type": "function"
    },
    {
      "inputs": [],
      "name": "surplus",
      "outputs": [
        {
          "internalType": "uint256",
          "name": "",
          "type": "uint256"
        }
      ],
      "stateMutability": "view",
      "type": "function"
    },
    {
      "inputs": [],
      "name": "symbol",
      "outputs": [
        {
          "internalType": "string",
          "name": "",
          "type": "string"
        }
      ],
      "stateMutability": "view",
      "type": "function"
    },
    {
      "inputs": [],
      "name": "totalAssets",
      "outputs": [
        {
          "internalType": "uint256",
          "name": "",
          "type": "uint256"
        }
      ],
      "stateMutability": "view",
      "type": "function"
    },
    {
      "inputs": [],
      "name": "totalSupply",
      "outputs": [
        {
          "internalType": "uint256",
          "name": "",
          "type": "uint256"
        }
      ],
      "stateMutability": "view",
      "type": "function"
    },
    {
      "inputs": [
        {
          "internalType": "address",
          "name": "to",
          "type": "address"
        },
        {
          "internalType": "uint256",
          "name": "value",
          "type": "uint256"
        }
      ],
      "name": "transfer",
      "outputs": [
        {
          "internalType": "bool",
          "name": "",
          "type": "bool"
        }
      ],
      "stateMutability": "nonpayable",
      "type": "function"
    },
    {
      "inputs": [
        {
          "internalType": "address",
          "name": "from",
          "type": "address"
        },
        {
          "internalType": "address",
          "name": "to",
          "type": "address"
        },
        {
          "internalType": "uint256",
          "name": "value",
          "type": "uint256"
        }
      ],
      "name": "transferFrom",
      "outputs": [
        {
          "internalType": "bool",
          "name": "",
          "type": "bool"
        }
      ],
      "stateMutability": "nonpayable",
      "type": "function"
    },
    {
      "inputs": [
        {
          "internalType": "address",
          "name": "newOwner",
          "type": "address"
        }
      ],
      "name": "transferOwnership",
      "outputs": [],
      "stateMutability": "nonpayable",
      "type": "function"
    },
    {
      "inputs": [
        {
          "internalType": "uint256",
          "name": "assets",
          "type": "uint256"
        },
        {
          "internalType": "address",
          "name": "receiver",
          "type": "address"
        },
        {
          "internalType": "address",
          "name": "owner",
          "type": "address"
        }
      ],
      "name": "withdraw",
      "outputs": [
        {
          "internalType": "uint256",
          "name": "",
          "type": "uint256"
        }
      ],
      "stateMutability": "nonpayable",
      "type": "function"
    },
    {
      "inputs": [],
      "name": "yieldRecipient",
      "outputs": [
        {
          "internalType": "address",
          "name": "",
          "type": "address"
        }
      ],
      "stateMutability": "view",
      "type": "function"
    }
  ],
  "bytecode": "0x6080604052348015600e575f5ffd5b5060156019565b60c9565b7ff0c57e16840df040f15088dc2f81fe391c3923bec73e23a9662efc9c229c6a00805468010000000000000000900460ff161560685760405163f92ee8a960e01b815260040160405180910390fd5b80546001600160401b039081161460c65780546001600160401b0319166001600160401b0390811782556040519081527fc7f505b2f371ae2175ee4913f4499e1f2633a7b5936321eed1cdaeb6115181d29060200160405180910390a15b50565b6122a6806100d65f395ff3fe608060405234801561000f575f5ffd5b5060043610610213575f3560e01c80638da5cb5b1161011f578063c63d75b6116100a9578063ce97063011610079578063ce97063014610433578063d905777e14610445578063dd62ed3e14610458578063ef8b30f7146103fa578063f2fde38b1461046b575f5ffd5b8063c63d75b614610308578063c6e6f592146103fa578063cc4c5b641461040d578063ce96cb7714610420575f5ffd5b8063b3d7f6b9116100ef578063b3d7f6b9146103a5578063b460af94146103b8578063ba087652146103cb578063ba5d3078146103de578063c0c53b8b146103e7575f5ffd5b80638da5cb5b1461036f57806394bf804d1461037757806395d89b411461038a578063a9059cbb14610392575f5ffd5b806338d52e0f116101a05780634cdad506116101705780634cdad5061461024357806358ada1b3146103395780636e553f651461034157806370a0823114610354578063715018a614610367575f5ffd5b806338d52e0f146102e8578063402d267d1461030857806345cf012d1461031c5780634641257d14610331575f5ffd5b80630a28a477116101e65780630a28a47714610279578063138885651461028c57806318160ddd1461029457806323b872dd146102bb578063313ce567146102ce575f5ffd5b806301e1d1141461021757806306fdde031461022e57806307a2d13a14610243578063095ea7b314610256575b5f5ffd5b6002545b6040519081526020015b60405180910390f35b61023661047e565b6040516102259190611c40565b61021b610251366004611c75565b61053e565b610269610264366004611ca0565b61054f565b6040519015158152602001610225565b61021b610287366004611c75565b610566565b61021b610572565b7f52c63247e1f47db19d5ce0460030c497f067ca4cebf71ba98eeadabe20bace025461021b565b6102696102c9366004611cca565b610665565b6102d661068a565b60405160ff9091168152602001610225565b6102f06106c6565b6040516001600160a01b039091168152602001610225565b61021b610316366004611d08565b505f1990565b61032f61032a366004611d08565b6106fa565b005b61032f61077a565b61021b6108f1565b61021b61034f366004611d23565b6109c5565b61021b610362366004611d08565b6109f6565b61032f610a1c565b6102f0610a2d565b61021b610385366004611d23565b610a55565b610236610a70565b6102696103a0366004611ca0565b610aae565b61021b6103b3366004611c75565b610abb565b61021b6103c6366004611d51565b610ac7565b61021b6103d9366004611d51565b610b1d565b61021b60025481565b61032f6103f5366004611d90565b610b6a565b61021b610408366004611c75565b610e9d565b6001546102f0906001600160a01b031681565b61021b61042e366004611d08565b610ea8565b5f546102f0906001600160a01b031681565b61021b610453366004611d08565b610ebb565b61021b610466366004611dbd565b610ec5565b61032f610479366004611d08565b610f0e565b7f52c63247e1f47db19d5ce0460030c497f067ca4cebf71ba98eeadabe20bace0380546060915f5160206122315f395f51905f52916104bc90611de9565b80601f01602080910402602001604051908101604052809291908181526020018280546104e890611de9565b80156105335780601f1061050a57610100808354040283529160200191610533565b820191905f5260205f20905b81548152906001019060200180831161051657829003601f168201915b505050505091505090565b5f610549825f610f4b565b92915050565b5f3361055c818585610fa3565b5060019392505050565b5f610549826001610fb5565b5f80546040516370a0823160e01b815230600482015282916001600160a01b0316906307a2d13a9082906370a0823190602401602060405180830381865afa1580156105c0573d5f5f3e3d5ffd5b505050506040513d601f19601f820116820180604052508101906105e49190611e21565b6040518263ffffffff1660e01b815260040161060291815260200190565b602060405180830381865afa15801561061d573d5f5f3e3d5ffd5b505050506040513d601f19601f820116820180604052508101906106419190611e21565b90506002548111610652575f61065f565b60025461065f9082611e4c565b91505090565b5f33610672858285610ffe565b61067d85858561104f565b60019150505b9392505050565b5f807f0773e532dfede91f04b12a73d3d2acd361424f41f76b4fb79f090161e36b4e0090505f815461065f9190600160a01b900460ff16611e5f565b5f807f0773e532dfede91f04b12a73d3d2acd361424f41f76b4fb79f090161e36b4e005b546001600160a01b031692915050565b6107026110ac565b6001600160a01b0381166107295760405163d92e233d60e01b815260040160405180910390fd5b600180546001600160a01b038381166001600160a01b0319831681179093556040519116919082907f4bb17fe2dc9d899005b41ebb7f60be89ff300ea06663bccc49986dcb2066f7a9905f90a35050565b6107826110de565b5f61078b610572565b9050805f036107ad57604051633dfa692b60e11b815260040160405180910390fd5b5f54600154604051632d182be560e21b8152600481018490526001600160a01b03918216602482015230604482015291169063b460af94906064016020604051808303815f875af1158015610804573d5f5f3e3d5ffd5b505050506040513d601f19601f820116820180604052508101906108289190611e21565b506001546001600160a01b03166363453ae16108426106c6565b6040516001600160e01b031960e084901b1681526001600160a01b0390911660048201526024015f604051808303815f87803b158015610880575f5ffd5b505af1158015610892573d5f5f3e3d5ffd5b50506001546040518481526001600160a01b0390911692507f5ecb395fc35457dd837c7b6d8b82f53844c0acb2898d6c8f4261c5bc4dbd0350915060200160405180910390a2506108ef60015f5160206122515f395f51905f5255565b565b5f80546040516370a0823160e01b81523060048201526001600160a01b03909116906307a2d13a9082906370a0823190602401602060405180830381865afa15801561093f573d5f5f3e3d5ffd5b505050506040513d601f19601f820116820180604052508101906109639190611e21565b6040518263ffffffff1660e01b815260040161098191815260200190565b602060405180830381865afa15801561099c573d5f5f3e3d5ffd5b505050506040513d601f19601f820116820180604052508101906109c09190611e21565b905090565b5f5f196109d6565b60405180910390fd5b5f6109e085610e9d565b90506109ee33858784611128565b949350505050565b6001600160a01b03165f9081525f5160206122315f395f51905f52602052604090205490565b610a246110ac565b6108ef5f61124e565b5f807f9016d09d72d40fdae2fd8ceac6b6234c7706214fd39c1cd1e609a0528c1993006106ea565b5f5f195f610a6285610abb565b90506109ee33858388611128565b7f52c63247e1f47db19d5ce0460030c497f067ca4cebf71ba98eeadabe20bace0480546060915f5160206122315f395f51905f52916104bc90611de9565b5f3361055c81858561104f565b5f610549826001610f4b565b5f5f610ad283610ea8565b905080851115610afb57828582604051633fa733bb60e21b81526004016109cd93929190611e78565b5f610b0586610566565b9050610b1433868689856112be565b95945050505050565b5f5f610b2883610ebb565b905080851115610b5157828582604051632e52afbb60e21b81526004016109cd93929190611e78565b5f610b5b8661053e565b9050610b14338686848a6112be565b5f610b73611441565b805490915060ff600160401b820416159067ffffffffffffffff165f81158015610b9a5750825b90505f8267ffffffffffffffff166001148015610bb65750303b155b905081158015610bc4575080155b15610be25760405163f92ee8a960e01b815260040160405180910390fd5b845467ffffffffffffffff191660011785558315610c0c57845460ff60401b1916600160401b1785555b6001600160a01b038816610c335760405163d92e233d60e01b815260040160405180910390fd5b6001600160a01b038716610c5a5760405163d92e233d60e01b815260040160405180910390fd5b6001600160a01b038616610c815760405163d92e233d60e01b815260040160405180910390fd5b5f80546001600160a01b03808b166001600160a01b0319928316811790935560018054918b1691909216179055604080516338d52e0f60e01b81529051610d1492916338d52e0f9160048083019260209291908290030181865afa158015610ceb573d5f5f3e3d5ffd5b505050506040513d601f19601f82011682018060405250810190610d0f9190611e99565b611469565b610e1e886001600160a01b03166306fdde036040518163ffffffff1660e01b81526004015f60405180830381865afa158015610d52573d5f5f3e3d5ffd5b505050506040513d5f823e601f3d908101601f19168201604052610d799190810190611ec8565b604051602001610d899190611f92565b604051602081830303815290604052896001600160a01b03166395d89b416040518163ffffffff1660e01b81526004015f60405180830381865afa158015610dd3573d5f5f3e3d5ffd5b505050506040513d5f823e601f3d908101601f19168201604052610dfa9190810190611ec8565b604051602001610e0a9190611fb6565b60405160208183030381529060405261147a565b610e2786611490565b610e2f6114a1565b610e4d885f19610e3d6106c6565b6001600160a01b031691906114b1565b8315610e9357845460ff60401b19168555604051600181527fc7f505b2f371ae2175ee4913f4499e1f2633a7b5936321eed1cdaeb6115181d29060200160405180910390a15b5050505050505050565b5f610549825f610fb5565b5f610549610eb5836109f6565b5f610f4b565b5f610549826109f6565b6001600160a01b039182165f9081527f52c63247e1f47db19d5ce0460030c497f067ca4cebf71ba98eeadabe20bace016020908152604080832093909416825291909152205490565b610f166110ac565b6001600160a01b038116610f3f57604051631e4fbdf760e01b81525f60048201526024016109cd565b610f488161124e565b50565b5f610683610f5860025490565b610f63906001611fcd565b610f6e5f600a6120c3565b7f52c63247e1f47db19d5ce0460030c497f067ca4cebf71ba98eeadabe20bace0254610f9a9190611fcd565b8591908561156e565b610fb083838360016115b0565b505050565b5f610683610fc482600a6120c3565b7f52c63247e1f47db19d5ce0460030c497f067ca4cebf71ba98eeadabe20bace0254610ff09190611fcd565b600254610f9a906001611fcd565b5f6110098484610ec5565b90505f19811015611049578181101561103b57828183604051637dc7a0d960e11b81526004016109cd93929190611e78565b61104984848484035f6115b0565b50505050565b6001600160a01b03831661107857604051634b637e8f60e11b81525f60048201526024016109cd565b6001600160a01b0382166110a15760405163ec442f0560e01b81525f60048201526024016109cd565b610fb0838383611693565b336110b5610a2d565b6001600160a01b0316146108ef5760405163118cdaa760e01b81523360048201526024016109cd565b5f5160206122515f395f51905f5280546001190161110f57604051633ee5aeb560e01b815260040160405180910390fd5b60029055565b60015f5160206122515f395f51905f5255565b6111306110de565b61114f84308461113e6106c6565b6001600160a01b03169291906117b9565b5f54604051636e553f6560e01b8152600481018490523060248201526001600160a01b0390911690636e553f65906044016020604051808303815f875af115801561119c573d5f5f3e3d5ffd5b505050506040513d601f19601f820116820180604052508101906111c09190611e21565b508160025f8282546111d29190611fcd565b909155506111e2905083826117f2565b826001600160a01b0316846001600160a01b03167fdcbc1c05240f31ff3ad067ef1ee35ce4997762752e3a095284754544f4c709d78484604051611230929190918252602082015260400190565b60405180910390a361104960015f5160206122515f395f51905f5255565b7f9016d09d72d40fdae2fd8ceac6b6234c7706214fd39c1cd1e609a0528c19930080546001600160a01b031981166001600160a01b03848116918217845560405192169182907f8be0079c531659141344cd1fd0a4f28419497f9722a3daafe3b4186f6b6457e0905f90a3505050565b6112c66110de565b826001600160a01b0316856001600160a01b0316146112ea576112ea838683610ffe565b60025482111561130d5760405163d24a69a560e01b815260040160405180910390fd5b8160025f82825461131e9190611e4c565b9091555061132e90508382611826565b5f54604051632d182be560e21b815260048101849052306024820181905260448201526001600160a01b039091169063b460af94906064016020604051808303815f875af1158015611382573d5f5f3e3d5ffd5b505050506040513d601f19601f820116820180604052508101906113a69190611e21565b506113c484836113b46106c6565b6001600160a01b0316919061185a565b826001600160a01b0316846001600160a01b0316866001600160a01b03167ffbde797d201c681b91056529119e0b02407c7bb96a4a2c75c01fc9667232c8db858560405161141c929190918252602082015260400190565b60405180910390a461143a60015f5160206122515f395f51905f5255565b5050505050565b5f807ff0c57e16840df040f15088dc2f81fe391c3923bec73e23a9662efc9c229c6a00610549565b61147161188b565b610f48816118b0565b61148261188b565b61148c8282611933565b5050565b61149861188b565b610f4881611983565b6114a961188b565b6108ef61198b565b604080516001600160a01b038416602482015260448082018490528251808303909101815260649091019091526020810180516001600160e01b031663095ea7b360e01b1790526115028482611993565b611049576040516001600160a01b0384811660248301525f604483015261156491869182169063095ea7b3906064015b604051602081830303815290604052915060e01b6020820180516001600160e01b0383818316178352505050506119dc565b61104984826119dc565b5f61159b61157b83611a48565b801561159657505f8480611591576115916120d1565b868809115b151590565b6115a6868686611a74565b610b149190611fcd565b5f5160206122315f395f51905f526001600160a01b0385166115e75760405163e602df0560e01b81525f60048201526024016109cd565b6001600160a01b03841661161057604051634a1406b160e11b81525f60048201526024016109cd565b6001600160a01b038086165f9081526001830160209081526040808320938816835292905220839055811561143a57836001600160a01b0316856001600160a01b03167f8c5be1e5ebec7d5bd14f71427d1e84f3dd0314c0f7b2291e5b200ac8c7c3b9258560405161168491815260200190565b60405180910390a35050505050565b5f5160206122315f395f51905f526001600160a01b0384166116cd5781816002015f8282546116c29190611fcd565b9091555061172a9050565b6001600160a01b0384165f908152602082905260409020548281101561170c5784818460405163391434e360e21b81526004016109cd93929190611e78565b6001600160a01b0385165f9081526020839052604090209083900390555b6001600160a01b038316611748576002810180548390039055611766565b6001600160a01b0383165f9081526020829052604090208054830190555b826001600160a01b0316846001600160a01b03167fddf252ad1be2c89b69c2b068fc378daa952ba7f163c4a11628f55a4df523b3ef846040516117ab91815260200190565b60405180910390a350505050565b6040516001600160a01b0384811660248301528381166044830152606482018390526110499186918216906323b872dd90608401611532565b6001600160a01b03821661181b5760405163ec442f0560e01b81525f60048201526024016109cd565b61148c5f8383611693565b6001600160a01b03821661184f57604051634b637e8f60e11b81525f60048201526024016109cd565b61148c825f83611693565b6040516001600160a01b03838116602483015260448201839052610fb091859182169063a9059cbb90606401611532565b611893611b24565b6108ef57604051631afcd79f60e31b815260040160405180910390fd5b6118b861188b565b7f0773e532dfede91f04b12a73d3d2acd361424f41f76b4fb79f090161e36b4e005f806118e484611b3d565b91509150816118f45760126118f6565b805b83546001600160a81b031916600160a01b60ff92909216919091026001600160a01b031916176001600160a01b0394909416939093179091555050565b61193b61188b565b5f5160206122315f395f51905f527f52c63247e1f47db19d5ce0460030c497f067ca4cebf71ba98eeadabe20bace036119748482612129565b50600481016110498382612129565b610f1661188b565b61111561188b565b5f5f5f5f60205f8651602088015f8a5af192503d91505f5190508280156119d2575081156119c457806001146119d2565b5f866001600160a01b03163b115b9695505050505050565b5f5f60205f8451602086015f885af1806119fb576040513d5f823e3d81fd5b50505f513d91508115611a12578060011415611a1f565b6001600160a01b0384163b155b1561104957604051635274afe760e01b81526001600160a01b03851660048201526024016109cd565b5f6002826003811115611a5d57611a5d6121e4565b611a6791906121f8565b60ff166001149050919050565b5f5f5f611a818686611c13565b91509150815f03611aa557838181611a9b57611a9b6120d1565b0492505050610683565b818411611abc57611abc6003851502601118611c2f565b5f848688095f868103871696879004966002600389028118808a02820302808a02820302808a02820302808a02820302808a02820302808a02909103029181900381900460010185841190960395909502919093039390930492909217029150509392505050565b5f611b2d611441565b54600160401b900460ff16919050565b60408051600481526024810182526020810180516001600160e01b031663313ce56760e01b17905290515f918291829182916001600160a01b03871691611b8391612225565b5f60405180830381855afa9150503d805f8114611bbb576040519150601f19603f3d011682016040523d82523d5f602084013e611bc0565b606091505b5091509150818015611bd457506020815110155b15611c07575f81806020019051810190611bee9190611e21565b905060ff8111611c05576001969095509350505050565b505b505f9485945092505050565b5f805f1983850993909202808410938190039390930393915050565b634e487b715f52806020526024601cfd5b602081525f82518060208401528060208501604085015e5f604082850101526040601f19601f83011684010191505092915050565b5f60208284031215611c85575f5ffd5b5035919050565b6001600160a01b0381168114610f48575f5ffd5b5f5f60408385031215611cb1575f5ffd5b8235611cbc81611c8c565b946020939093013593505050565b5f5f5f60608486031215611cdc575f5ffd5b8335611ce781611c8c565b92506020840135611cf781611c8c565b929592945050506040919091013590565b5f60208284031215611d18575f5ffd5b813561068381611c8c565b5f5f60408385031215611d34575f5ffd5b823591506020830135611d4681611c8c565b809150509250929050565b5f5f5f60608486031215611d63575f5ffd5b833592506020840135611d7581611c8c565b91506040840135611d8581611c8c565b809150509250925092565b5f5f5f60608486031215611da2575f5ffd5b8335611dad81611c8c565b92506020840135611d7581611c8c565b5f5f60408385031215611dce575f5ffd5b8235611dd981611c8c565b91506020830135611d4681611c8c565b600181811c90821680611dfd57607f821691505b602082108103611e1b57634e487b7160e01b5f52602260045260245ffd5b50919050565b5f60208284031215611e31575f5ffd5b5051919050565b634e487b7160e01b5f52601160045260245ffd5b8181038181111561054957610549611e38565b60ff818116838216019081111561054957610549611e38565b6001600160a01b039390931683526020830191909152604082015260600190565b5f60208284031215611ea9575f5ffd5b815161068381611c8c565b634e487b7160e01b5f52604160045260245ffd5b5f60208284031215611ed8575f5ffd5b815167ffffffffffffffff811115611eee575f5ffd5b8201601f81018413611efe575f5ffd5b805167ffffffffffffffff811115611f1857611f18611eb4565b604051601f8201601f19908116603f0116810167ffffffffffffffff81118282101715611f4757611f47611eb4565b604052818152828201602001861015611f5e575f5ffd5b8160208401602083015e5f91810160200191909152949350505050565b5f81518060208401855e5f93019283525090919050565b6f02cb4b2b6322932b234b932b1ba37b9160851b81525f6106836010830184611f7b565b6279522d60e81b81525f6106836003830184611f7b565b8082018082111561054957610549611e38565b6001815b600184111561201b57808504811115611fff57611fff611e38565b600184161561200d57908102905b60019390931c928002611fe4565b935093915050565b5f8261203157506001610549565b8161203d57505f610549565b8160018114612053576002811461205d57612079565b6001915050610549565b60ff84111561206e5761206e611e38565b50506001821b610549565b5060208310610133831016604e8410600b841016171561209c575081810a610549565b6120a85f198484611fe0565b805f19048211156120bb576120bb611e38565b029392505050565b5f61068360ff841683612023565b634e487b7160e01b5f52601260045260245ffd5b601f821115610fb057805f5260205f20601f840160051c8101602085101561210a5750805b601f840160051c820191505b8181101561143a575f8155600101612116565b815167ffffffffffffffff81111561214357612143611eb4565b612157816121518454611de9565b846120e5565b6020601f821160018114612189575f83156121725750848201515b5f19600385901b1c1916600184901b17845561143a565b5f84815260208120601f198516915b828110156121b85787850151825560209485019460019092019101612198565b50848210156121d557868401515f19600387901b60f8161c191681555b50505050600190811b01905550565b634e487b7160e01b5f52602160045260245ffd5b5f60ff83168061221657634e487b7160e01b5f52601260045260245ffd5b8060ff84160691505092915050565b5f6106838284611f7b56fe52c63247e1f47db19d5ce0460030c497f067ca4cebf71ba98eeadabe20bace009b779b17422d0df92223018b32b4d1fa46e071723d6817e2486d003becc55f00a264697066735822122045b0ace91a5eb6d9904267e7dc35bd78dd55275f81a36f85e7b8c6740cda6b8464736f6c634300081c0033",
  "linkReferences": {},
  "deployedLinkReferences": {},
  "immutableReferences": {},
  "inputSourceName": "project/contracts/YieldRedirector4626.sol",
  "buildInfoId": "solc-0_8_28-c723289fdf2a88ef248e79b5d851891f6df07bc0"
}