{
  "_format": "hh3-artifact-1",
  "contractName": "StrategyFactory",
  "sourceName": "contracts/StrategyFactory.sol",
  "abi": [
    {
      "inputs": [
        {
          "internalType": "address",
          "name": "_warehouse",
          "type": "address"
        }
      ],
      "stateMutability": "nonpayable",
      "type": "constructor"
    },
    {
      "inputs": [],
      "name": "FailedDeployment",
      "type": "error"
    },
    {
      "inputs": [
        {
          "internalType": "uint256",
          "name": "balance",
          "type": "uint256"
        },
        {
          "internalType": "uint256",
          "name": "needed",
          "type": "uint256"
        }
      ],
      "name": "InsufficientBalance",
      "type": "error"
    },
    {
      "anonymous": false,
      "inputs": [
        {
          "indexed": true,
          "internalType": "address",
          "name": "strategy",
          "type": "address"
        },
        {
          "components": [
            {
              "internalType": "address",
              "name": "owner",
              "type": "address"
            },
            {
              "internalType": "address",
              "name": "sourceStrategy",
              "type": "address"
            },
            {
              "components": [
                {
                  "internalType": "address",
                  "name": "recipient",
                  "type": "address"
                },
                {
                  "internalType": "uint96",
                  "name": "weight",
                  "type": "uint96"
                },
                {
                  "internalType": "string",
                  "name": "label",
                  "type": "string"
                }
              ],
              "internalType": "struct Strategy.Allocation[]",
              "name": "allocations",
              "type": "tuple[]"
            },
            {
              "internalType": "string",
              "name": "metadataURI",
              "type": "string"
            }
          ],
          "indexed": false,
          "internalType": "struct Strategy.Config",
          "name": "config",
          "type": "tuple"
        }
      ],
      "name": "StrategyCreated",
      "type": "event"
    },
    {
      "inputs": [
        {
          "components": [
            {
              "internalType": "address",
              "name": "owner",
              "type": "address"
            },
            {
              "internalType": "address",
              "name": "sourceStrategy",
              "type": "address"
            },
            {
              "components": [
                {
                  "internalType": "address",
                  "name": "recipient",
                  "type": "address"
                },
                {
                  "internalType": "uint96",
                  "name": "weight",
                  "type": "uint96"
                },
                {
                  "internalType": "string",
                  "name": "label",
                  "type": "string"
                }
              ],
              "internalType": "struct Strategy.Allocation[]",
              "name": "allocations",
              "type": "tuple[]"
            },
            {
              "internalType": "string",
              "name": "metadataURI",
              "type": "string"
            }
          ],
          "internalType": "struct Strategy.Config",
          "name": "config",
          "type": "tuple"
        }
      ],
      "name": "create",
      "outputs": [
        {
          "internalType": "address payable",
          "name": "strategy",
          "type": "address"
        }
      ],
      "stateMutability": "nonpayable",
      "type": "function"
    },
    {
      "inputs": [
        {
          "components": [
            {
              "internalType": "address",
              "name": "owner",
              "type": "address"
            },
            {
              "internalType": "address",
              "name": "sourceStrategy",
              "type": "address"
            },
            {
              "components": [
                {
                  "internalType": "address",
                  "name": "recipient",
                  "type": "address"
                },
                {
                  "internalType": "uint96",
                  "name": "weight",
                  "type": "uint96"
                },
                {
                  "internalType": "string",
                  "name": "label",
                  "type": "string"
                }
              ],
              "internalType": "struct Strategy.Allocation[]",
              "name": "allocations",
              "type": "tuple[]"
            },
            {
              "internalType": "string",
              "name": "metadataURI",
              "type": "string"
            }
          ],
          "internalType": "struct Strategy.Config",
          "name": "config",
          "type": "tuple"
        },
        {
          "internalType": "bytes32",
          "name": "salt",
          "type": "bytes32"
        }
      ],
      "name": "createDeterministic",
      "outputs": [
        {
          "internalType": "address payable",
          "name": "strategy",
          "type": "address"
        }
      ],
      "stateMutability": "nonpayable",
      "type": "function"
    },
    {
      "inputs": [],
      "name": "implementation",
      "outputs": [
        {
          "internalType": "address",
          "name": "",
          "type": "address"
        }
      ],
      "stateMutability": "view",
      "type": "function"
    },
    {
      "inputs": [
        {
          "internalType": "bytes32",
          "name": "salt",
          "type": "bytes32"
        }
      ],
      "name": "predictDeterministicAddress",
      "outputs": [
        {
          "internalType": "address",
          "name": "",
          "type": "address"
        }
      ],
      "stateMutability": "view",
      "type": "function"
    }
  ],
  "bytecode": "0x60a060405234801561000f575f5ffd5b5060405161259938038061259983398101604081905261002e916100ee565b6001600160a01b0381166100985760405162461bcd60e51b815260206004820152602760248201527f5374726174656779466163746f72793a207a65726f2077617265686f757365206044820152666164647265737360c81b606482015260840160405180910390fd5b806040516100a5906100e1565b6001600160a01b039091168152602001604051809103905ff0801580156100ce573d5f5f3e3d5ffd5b506001600160a01b03166080525061011b565b611d0b8061088e83390190565b5f602082840312156100fe575f5ffd5b81516001600160a01b0381168114610114575f5ffd5b9392505050565b6080516107486101465f395f818160950152818160d0015281816101ad01526101e701526107485ff3fe608060405234801561000f575f5ffd5b506004361061004a575f3560e01c80630d5c9b5b1461004e5780635414dff01461007d5780635c60da1b14610090578063c5432b2b146100b7575b5f5ffd5b61006161005c366004610476565b6100ca565b6040516001600160a01b03909116815260200160405180910390f35b61006161008b3660046104b0565b61019f565b6100617f000000000000000000000000000000000000000000000000000000000000000081565b6100616100c53660046104c7565b6101d9565b5f6100fd7f00000000000000000000000000000000000000000000000000000000000000006001600160a01b03166102b0565b6040516373cf9a6960e01b81529091506001600160a01b038216906373cf9a699061012c908590600401610654565b5f604051808303815f87803b158015610143575f5ffd5b505af1158015610155573d5f5f3e3d5ffd5b50505050806001600160a01b03167f8bc817ed0b2155719015e939101e85adc3636885694167df56849962523a1953836040516101929190610654565b60405180910390a2919050565b5f6101d36001600160a01b037f000000000000000000000000000000000000000000000000000000000000000016836102bb565b92915050565b5f61020d6001600160a01b037f00000000000000000000000000000000000000000000000000000000000000001683610326565b6040516373cf9a6960e01b81529091506001600160a01b038216906373cf9a699061023c908690600401610654565b5f604051808303815f87803b158015610253575f5ffd5b505af1158015610265573d5f5f3e3d5ffd5b50505050806001600160a01b03167f8bc817ed0b2155719015e939101e85adc3636885694167df56849962523a1953846040516102a29190610654565b60405180910390a292915050565b5f6101d3825f610332565b6040513060388201526f5af43d82803e903d91602b57fd5bf3ff602482015260148101839052733d602d80600a3d3981f3363d3d373d3d3d363d738152605881018290526037600c820120607882015260556043909101205f906001600160a01b03165b9392505050565b5f61031f83835f6103cb565b5f814710156103625760405163cf47918160e01b8152476004820152602481018390526044015b60405180910390fd5b763d602d80600a3d3981f3363d3d373d3d3d363d730000008360601b60e81c175f526e5af43d82803e903d91602b57fd5bf38360781b176020526037600983f090506001600160a01b0381166101d35760405163b06ebf3d60e01b815260040160405180910390fd5b5f814710156103f65760405163cf47918160e01b815247600482015260248101839052604401610359565b763d602d80600a3d3981f3363d3d373d3d3d363d730000008460601b60e81c175f526e5af43d82803e903d91602b57fd5bf38460781b17602052826037600984f590506001600160a01b03811661031f5760405163b06ebf3d60e01b815260040160405180910390fd5b5f60808284031215610470575f5ffd5b50919050565b5f60208284031215610486575f5ffd5b813567ffffffffffffffff81111561049c575f5ffd5b6104a884828501610460565b949350505050565b5f602082840312156104c0575f5ffd5b5035919050565b5f5f604083850312156104d8575f5ffd5b823567ffffffffffffffff8111156104ee575f5ffd5b6104fa85828601610460565b95602094909401359450505050565b80356001600160a01b038116811461051f575f5ffd5b919050565b5f5f8335601e19843603018112610539575f5ffd5b830160208101925035905067ffffffffffffffff811115610558575f5ffd5b803603821315610566575f5ffd5b9250929050565b81835281816020850137505f828201602090810191909152601f909101601f19169091010190565b5f8383855260208501945060208460051b820101835f5b8681101561064857838303601f19018852813536879003605e190181126105d1575f5ffd5b86016001600160a01b036105e482610509565b16845260208101356bffffffffffffffffffffffff8116808214610606575f5ffd5b6020860152506106196040820182610524565b91506060604086015261063060608601838361056d565b60209a8b019a909550939093019250506001016105ac565b50909695505050505050565b602081526001600160a01b0361066983610509565b16602082015260018060a01b0361068260208401610509565b1660408201525f6040830135601e1984360301811261069f575f5ffd5b830160208101903567ffffffffffffffff8111156106bb575f5ffd5b8060051b36038213156106cc575f5ffd5b608060608501526106e160a085018284610595565b9150506106f16060850185610524565b848303601f1901608086015261070883828461056d565b969550505050505056fea264697066735822122099fb3f04245c4815b8e6506d5f0ac8febfc134f8878c7301a37d416d0354471364736f6c634300081c003360a060405234801561000f575f5ffd5b50604051611d0b380380611d0b83398101604081905261002e91610155565b6001600160a01b0381166100885760405162461bcd60e51b815260206004820181905260248201527f53747261746567793a207a65726f2077617265686f7573652061646472657373604482015260640160405180910390fd5b6001600160a01b03811660805261009d6100a3565b50610182565b7ff0c57e16840df040f15088dc2f81fe391c3923bec73e23a9662efc9c229c6a00805468010000000000000000900460ff16156100f35760405163f92ee8a960e01b815260040160405180910390fd5b80546001600160401b03908116146101525780546001600160401b0319166001600160401b0390811782556040519081527fc7f505b2f371ae2175ee4913f4499e1f2633a7b5936321eed1cdaeb6115181d29060200160405180910390a15b50565b5f60208284031215610165575f5ffd5b81516001600160a01b038116811461017b575f5ffd5b9392505050565b608051611b5c6101af5f395f8181610340015281816108fb0152818161097801526109b40152611b5c5ff3fe6080604052600436106100f6575f3560e01c806373cf9a6911610089578063a2962d0f11610058578063a2962d0f14610362578063afc47ead14610381578063f2fde38b14610394578063f4c166cc146103b357610149565b806373cf9a69146102bf5780638da5cb5b146102de57806396c82e571461031a5780639b6227691461032f57610149565b806363453ae1116100c557806363453ae11461024a57806365ed6e231461026b57806370a082311461028c578063715018a6146102ab57610149565b806303ee438c146101915780630a2642bf146101bb5780632f62acbd146101e957806331f7d9641461020b57610149565b3661014957604051348152339073eeeeeeeeeeeeeeeeeeeeeeeeeeeeeeeeeeeeeeee907f3b5083eec1a1116c56de5d6841cff8efc6a0aec9850e836ec509d6ce024ea561906020015b60405180910390a3005b604051348152339073eeeeeeeeeeeeeeeeeeeeeeeeeeeeeeeeeeeeeeee907f3b5083eec1a1116c56de5d6841cff8efc6a0aec9850e836ec509d6ce024ea5619060200161013f565b34801561019c575f5ffd5b506101a56103d2565b6040516101b29190611359565b60405180910390f35b3480156101c6575f5ffd5b506101da6101d5366004611372565b61045e565b6040516101b293929190611389565b3480156101f4575f5ffd5b506101fd603281565b6040519081526020016101b2565b348015610216575f5ffd5b5061023273eeeeeeeeeeeeeeeeeeeeeeeeeeeeeeeeeeeeeeee81565b6040516001600160a01b0390911681526020016101b2565b348015610255575f5ffd5b506102696102643660046113d8565b61052c565b005b348015610276575f5ffd5b5061027f610a22565b6040516101b291906113f3565b348015610297575f5ffd5b506101fd6102a63660046113d8565b610b3a565b3480156102b6575f5ffd5b50610269610bd3565b3480156102ca575f5ffd5b506102696102d9366004611489565b610be6565b3480156102e9575f5ffd5b507f9016d09d72d40fdae2fd8ceac6b6234c7706214fd39c1cd1e609a0528c199300546001600160a01b0316610232565b348015610325575f5ffd5b506101fd60015481565b34801561033a575f5ffd5b506102327f000000000000000000000000000000000000000000000000000000000000000081565b34801561036d575f5ffd5b50600254610232906001600160a01b031681565b34801561038c575f5ffd5b505f546101fd565b34801561039f575f5ffd5b506102696103ae3660046113d8565b610d4c565b3480156103be575f5ffd5b506102696103cd3660046114c0565b610d89565b600380546103df90611531565b80601f016020809104026020016040519081016040528092919081815260200182805461040b90611531565b80156104565780601f1061042d57610100808354040283529160200191610456565b820191905f5260205f20905b81548152906001019060200180831161043957829003601f168201915b505050505081565b5f818154811061046c575f80fd5b5f918252602090912060029091020180546001820180546001600160a01b0383169450600160a01b9092046001600160601b031692916104ab90611531565b80601f01602080910402602001604051908101604052809291908181526020018280546104d790611531565b80156105225780601f106104f957610100808354040283529160200191610522565b820191905f5260205f20905b81548152906001019060200180831161050557829003601f168201915b5050505050905083565b5f600154116105825760405162461bcd60e51b815260206004820152601c60248201527f53747261746567793a206e6f20616c6c6f636174696f6e73207365740000000060448201526064015b60405180910390fd5b5f6001600160a01b03821673eeeeeeeeeeeeeeeeeeeeeeeeeeeeeeeeeeeeeeee14610612576040516370a0823160e01b81523060048201526001600160a01b038316906370a0823190602401602060405180830381865afa1580156105e9573d5f5f3e3d5ffd5b505050506040513d601f19601f8201168201806040525081019061060d9190611569565b610614565b475b90505f81116106705760405162461bcd60e51b815260206004820152602260248201527f53747261746567793a206e6f2062616c616e636520746f206469737472696275604482015261746560f01b6064820152608401610579565b816001600160a01b03167fee8bc5b3cc2f23f99c36b55d0950af077e97037366160fe8a05ccddcc9f557a6825f6040516106ab929190611580565b60405180910390a25f8054908167ffffffffffffffff8111156106d0576106d0611683565b6040519080825280602002602001820160405280156106f9578160200160208202803683370190505b5090505f8267ffffffffffffffff81111561071657610716611683565b60405190808252806020026020018201604052801561073f578160200160208202803683370190505b5090505f5b838110156108be575f818154811061075e5761075e611697565b5f91825260209091206002909102015483516001600160a01b039091169084908390811061078e5761078e611697565b60200260200101906001600160a01b031690816001600160a01b0316815250506001545f82815481106107c3576107c3611697565b5f9182526020909120600290910201546107ed90600160a01b90046001600160601b0316876116bf565b6107f791906116d6565b82828151811061080957610809611697565b6020026020010181815250505f82828151811061082857610828611697565b602002602001015111156108b657856001600160a01b031683828151811061085257610852611697565b60200260200101516001600160a01b03167febe7adb4feddf2afa5de463169fdc706254a55c9cf2b930ac84bb49e28cfe6bb84848151811061089657610896611697565b60200260200101516040516108ad91815260200190565b60405180910390a35b600101610744565b5073eeeeeeeeeeeeeeeeeeeeeeeeeeeeeeeeeeeeeeed196001600160a01b038616016109695760405163676ae78f60e01b81526001600160a01b037f0000000000000000000000000000000000000000000000000000000000000000169063676ae78f9086906109369086908a9087906004016116f5565b5f604051808303818588803b15801561094d575f5ffd5b505af115801561095f573d5f5f3e3d5ffd5b5050505050610a1b565b61099d6001600160a01b0386167f000000000000000000000000000000000000000000000000000000000000000086610dd8565b60405163676ae78f60e01b81526001600160a01b037f0000000000000000000000000000000000000000000000000000000000000000169063676ae78f906109ed908590899086906004016116f5565b5f604051808303815f87803b158015610a04575f5ffd5b505af1158015610a16573d5f5f3e3d5ffd5b505050505b5050505050565b60605f805480602002602001604051908101604052809291908181526020015f905b82821015610b31575f848152602090819020604080516060810182526002860290920180546001600160a01b0381168452600160a01b90046001600160601b03169383019390935260018301805492939291840191610aa290611531565b80601f0160208091040260200160405190810160405280929190818152602001828054610ace90611531565b8015610b195780601f10610af057610100808354040283529160200191610b19565b820191905f5260205f20905b815481529060010190602001808311610afc57829003601f168201915b50505050508152505081526020019060010190610a44565b50505050905090565b5f73eeeeeeeeeeeeeeeeeeeeeeeeeeeeeeeeeeeeeeed196001600160a01b03831601610b67575047919050565b6040516370a0823160e01b81523060048201526001600160a01b038316906370a0823190602401602060405180830381865afa158015610ba9573d5f5f3e3d5ffd5b505050506040513d601f19601f82011682018060405250810190610bcd9190611569565b92915050565b610bdb610e91565b610be45f610eec565b565b5f610bef610f5c565b805490915060ff600160401b820416159067ffffffffffffffff165f81158015610c165750825b90505f8267ffffffffffffffff166001148015610c325750303b155b905081158015610c40575080155b15610c5e5760405163f92ee8a960e01b815260040160405180910390fd5b845467ffffffffffffffff191660011785558315610c8857845460ff60401b1916600160401b1785555b610c9d610c9860208801886113d8565b610f84565b610cad60408701602088016113d8565b600280546001600160a01b0319166001600160a01b0392909216919091179055610cda606087018761178e565b600391610ce8919083611821565b50610cfe610cf960408801886118db565b610f95565b8315610d4457845460ff60401b19168555604051600181527fc7f505b2f371ae2175ee4913f4499e1f2633a7b5936321eed1cdaeb6115181d29060200160405180910390a15b505050505050565b610d54610e91565b6001600160a01b038116610d7d57604051631e4fbdf760e01b81525f6004820152602401610579565b610d8681610eec565b50565b610d91610e91565b610d9b8282610f95565b7fb00539e100a90c090f1daa39c280f5819879d04d46af57b16a5bcb17a7b120e78282604051610dcc92919061195d565b60405180910390a15050565b604080516001600160a01b038416602482015260448082018490528251808303909101815260649091019091526020810180516001600160e01b031663095ea7b360e01b179052610e2984826111aa565b610e8b57604080516001600160a01b03851660248201525f6044808301919091528251808303909101815260649091019091526020810180516001600160e01b031663095ea7b360e01b179052610e819085906111f3565b610e8b84826111f3565b50505050565b33610ec37f9016d09d72d40fdae2fd8ceac6b6234c7706214fd39c1cd1e609a0528c199300546001600160a01b031690565b6001600160a01b031614610be45760405163118cdaa760e01b8152336004820152602401610579565b7f9016d09d72d40fdae2fd8ceac6b6234c7706214fd39c1cd1e609a0528c19930080546001600160a01b031981166001600160a01b03848116918217845560405192169182907f8be0079c531659141344cd1fd0a4f28419497f9722a3daafe3b4186f6b6457e0905f90a3505050565b5f807ff0c57e16840df040f15088dc2f81fe391c3923bec73e23a9662efc9c229c6a00610bcd565b610f8c61125f565b610d8681611284565b6032811115610fe65760405162461bcd60e51b815260206004820152601e60248201527f53747261746567793a20746f6f206d616e7920616c6c6f636174696f6e7300006044820152606401610579565b610ff05f806112a5565b5f805b828110156111a2575f84848381811061100e5761100e611697565b90506020028101906110209190611a43565b61102e9060208101906113d8565b6001600160a01b0316036110845760405162461bcd60e51b815260206004820181905260248201527f53747261746567793a207a65726f206164647265737320726563697069656e746044820152606401610579565b5f84848381811061109757611097611697565b90506020028101906110a99190611a43565b6110ba906040810190602001611a61565b6001600160601b0316116111085760405162461bcd60e51b815260206004820152601560248201527414dd1c985d1959de4e881e995c9bc81dd95a59da1d605a1b6044820152606401610579565b5f84848381811061111b5761111b611697565b905060200281019061112d9190611a43565b81546001810183555f928352602090922090916002020161114e8282611a7c565b505083838281811061116257611162611697565b90506020028101906111749190611a43565b611185906040810190602001611a61565b611198906001600160601b031683611b13565b9150600101610ff3565b506001555050565b5f5f5f5f60205f8651602088015f8a5af192503d91505f5190508280156111e9575081156111db57806001146111e9565b5f866001600160a01b03163b115b9695505050505050565b5f5f60205f8451602086015f885af180611212576040513d5f823e3d81fd5b50505f513d91508115611229578060011415611236565b6001600160a01b0384163b155b15610e8b57604051635274afe760e01b81526001600160a01b0385166004820152602401610579565b61126761128c565b610be457604051631afcd79f60e31b815260040160405180910390fd5b610d5461125f565b5f611295610f5c565b54600160401b900460ff16919050565b5080545f8255600202905f5260205f2090810190610d8691905b808211156112e1575f8082556112d860018301826112e5565b506002016112bf565b5090565b5080546112f190611531565b5f825580601f10611300575050565b601f0160209004905f5260205f2090810190610d8691905b808211156112e1575f8155600101611318565b5f81518084528060208401602086015e5f602082860101526020601f19601f83011685010191505092915050565b602081525f61136b602083018461132b565b9392505050565b5f60208284031215611382575f5ffd5b5035919050565b6001600160a01b03841681526001600160601b03831660208201526060604082018190525f906113bb9083018461132b565b95945050505050565b6001600160a01b0381168114610d86575f5ffd5b5f602082840312156113e8575f5ffd5b813561136b816113c4565b5f602082016020835280845180835260408501915060408160051b8601019250602086015f5b8281101561147d57868503603f19018452815180516001600160a01b031686526020808201516001600160601b0316908701526040908101516060918701829052906114679087018261132b565b9550506020938401939190910190600101611419565b50929695505050505050565b5f60208284031215611499575f5ffd5b813567ffffffffffffffff8111156114af575f5ffd5b82016080818503121561136b575f5ffd5b5f5f602083850312156114d1575f5ffd5b823567ffffffffffffffff8111156114e7575f5ffd5b8301601f810185136114f7575f5ffd5b803567ffffffffffffffff81111561150d575f5ffd5b8560208260051b8401011115611521575f5ffd5b6020919091019590945092505050565b600181811c9082168061154557607f821691505b60208210810361156357634e487b7160e01b5f52602260045260245ffd5b50919050565b5f60208284031215611579575f5ffd5b5051919050565b5f604082018483526040602084015280845480835260608501915060608160051b8601019250855f5260205f205f5b8281101561167657868503605f1901845281546001600160a01b038116865260a01c6020860152606060408601526001820180545f906115ee81611531565b8060608a0152600182165f811461160c576001811461162857611659565b60ff19831660808b0152608082151560051b8b01019350611659565b845f5260205f205f5b838110156116505781548c820160800152600190910190602001611631565b8b016080019450505b5091975050506020949094019350600291909101906001016115af565b5092979650505050505050565b634e487b7160e01b5f52604160045260245ffd5b634e487b7160e01b5f52603260045260245ffd5b634e487b7160e01b5f52601160045260245ffd5b8082028115828204841417610bcd57610bcd6116ab565b5f826116f057634e487b7160e01b5f52601260045260245ffd5b500490565b606080825284519082018190525f9060208601906080840190835b818110156117375783516001600160a01b0316835260209384019390920191600101611710565b50506001600160a01b0386166020858101919091528482036040860152855180835291810192508501905f5b81811015611781578251845260209384019390920191600101611763565b5091979650505050505050565b5f5f8335601e198436030181126117a3575f5ffd5b83018035915067ffffffffffffffff8211156117bd575f5ffd5b6020019150368190038213156117d1575f5ffd5b9250929050565b601f82111561181c57805f5260205f20601f840160051c810160208510156117fd5750805b601f840160051c820191505b81811015610a1b575f8155600101611809565b505050565b67ffffffffffffffff83111561183957611839611683565b61184d836118478354611531565b836117d8565b5f601f84116001811461187e575f85156118675750838201355b5f19600387901b1c1916600186901b178355610a1b565b5f83815260208120601f198716915b828110156118ad578685013582556020948501946001909201910161188d565b50868210156118c9575f1960f88860031b161c19848701351681555b505060018560011b0183555050505050565b5f5f8335601e198436030181126118f0575f5ffd5b83018035915067ffffffffffffffff82111561190a575f5ffd5b6020019150600581901b36038213156117d1575f5ffd5b6001600160601b0381168114610d86575f5ffd5b81835281816020850137505f828201602090810191909152601f909101601f19169091010190565b602080825281018290525f6040600584901b830181019083018583605e1936839003015b8782101561167657868503603f19018452823581811261199f575f5ffd5b890180356119ac816113c4565b6001600160a01b0316865260208101356119c581611921565b6001600160601b03166020870152604081013536829003601e190181126119ea575f5ffd5b0160208101903567ffffffffffffffff811115611a05575f5ffd5b803603821315611a13575f5ffd5b60606040880152611a28606088018284611935565b96505050602083019250602084019350600182019150611981565b5f8235605e19833603018112611a57575f5ffd5b9190910192915050565b5f60208284031215611a71575f5ffd5b813561136b81611921565b8135611a87816113c4565b81546001600160a01b0319166001600160a01b039190911690811782556020830135611ab281611921565b60a01b6001600160a01b031916178155604082013536839003601e19018112611ad9575f5ffd5b8201803567ffffffffffffffff811115611af1575f5ffd5b602082019150803603821315611b05575f5ffd5b610e8b818360018601611821565b80820180821115610bcd57610bcd6116ab56fea26469706673582212207a57992321fde699804c38565442a3c59c69ed287967f454ff1e088feebc3a3464736f6c634300081c0033",
  "linkReferences": {},
  "deployedLinkReferences": {},
  "immutableReferences": {
    "2264": [
      {
        "length": 32,
        "start": 149
      },
      {
        "length": 32,
        "start": 208
      },
      {
        "length": 32,
        "start": 429
      },
      {
        "length": 32,
        "start": 487
      }
    ]
  },
  "inputSourceName": "project/contracts/StrategyFactory.sol",
  "buildInfoId": "solc-0_8_28-f85807d2f9575b422ee538c0b769101fb5844594"
}