{
  "_format": "hh3-artifact-1",
  "contractName": "SplitsWarehouse",
  "sourceName": "contracts/splits/SplitsWarehouse.sol",
  "abi": [
    {
      "inputs": [
        {
          "internalType": "string",
          "name": "_native_token_name",
          "type": "string"
        },
        {
          "internalType": "string",
          "name": "_native_token_symbol",
          "type": "string"
        }
      ],
      "stateMutability": "nonpayable",
      "type": "constructor"
    },
    {
      "inputs": [
        {
          "internalType": "uint48",
          "name": "deadline",
          "type": "uint48"
        }
      ],
      "name": "ExpiredSignature",
      "type": "error"
    },
    {
      "inputs": [],
      "name": "FailedCall",
      "type": "error"
    },
    {
      "inputs": [
        {
          "internalType": "uint256",
          "name": "balance",
          "type": "uint256"
        },
        {
          "internalType": "uint256",
          "name": "needed",
          "type": "uint256"
        }
      ],
      "name": "InsufficientBalance",
      "type": "error"
    },
    {
      "inputs": [],
      "name": "InvalidAck",
      "type": "error"
    },
    {
      "inputs": [],
      "name": "InvalidAmount",
      "type": "error"
    },
    {
      "inputs": [],
      "name": "InvalidNonce",
      "type": "error"
    },
    {
      "inputs": [],
      "name": "InvalidPermitParams",
      "type": "error"
    },
    {
      "inputs": [],
      "name": "InvalidShortString",
      "type": "error"
    },
    {
      "inputs": [],
      "name": "InvalidSigner",
      "type": "error"
    },
    {
      "inputs": [],
      "name": "LengthMismatch",
      "type": "error"
    },
    {
      "inputs": [],
      "name": "Overflow",
      "type": "error"
    },
    {
      "inputs": [
        {
          "internalType": "address",
          "name": "token",
          "type": "address"
        }
      ],
      "name": "SafeERC20FailedOperation",
      "type": "error"
    },
    {
      "inputs": [
        {
          "internalType": "string",
          "name": "str",
          "type": "string"
        }
      ],
      "name": "StringTooLong",
      "type": "error"
    },
    {
      "inputs": [
        {
          "internalType": "address",
          "name": "owner",
          "type": "address"
        }
      ],
      "name": "WithdrawalPaused",
      "type": "error"
    },
    {
      "anonymous": false,
      "inputs": [
        {
          "indexed": true,
          "internalType": "address",
          "name": "owner",
          "type": "address"
        },
        {
          "indexed": true,
          "internalType": "address",
          "name": "spender",
          "type": "address"
        },
        {
          "indexed": true,
          "internalType": "uint256",
          "name": "id",
          "type": "uint256"
        },
        {
          "indexed": false,
          "internalType": "uint256",
          "name": "amount",
          "type": "uint256"
        }
      ],
      "name": "Approval",
      "type": "event"
    },
    {
      "anonymous": false,
      "inputs": [],
      "name": "EIP712DomainChanged",
      "type": "event"
    },
    {
      "anonymous": false,
      "inputs": [
        {
          "indexed": true,
          "internalType": "address",
          "name": "owner",
          "type": "address"
        },
        {
          "indexed": true,
          "internalType": "uint256",
          "name": "nonce",
          "type": "uint256"
        }
      ],
      "name": "NonceInvalidation",
      "type": "event"
    },
    {
      "anonymous": false,
      "inputs": [
        {
          "indexed": true,
          "internalType": "address",
          "name": "owner",
          "type": "address"
        },
        {
          "indexed": true,
          "internalType": "address",
          "name": "spender",
          "type": "address"
        },
        {
          "indexed": false,
          "internalType": "bool",
          "name": "approved",
          "type": "bool"
        }
      ],
      "name": "OperatorSet",
      "type": "event"
    },
    {
      "anonymous": false,
      "inputs": [
        {
          "indexed": false,
          "internalType": "address",
          "name": "caller",
          "type": "address"
        },
        {
          "indexed": true,
          "internalType": "address",
          "name": "sender",
          "type": "address"
        },
        {
          "indexed": true,
          "internalType": "address",
          "name": "receiver",
          "type": "address"
        },
        {
          "indexed": true,
          "internalType": "uint256",
          "name": "id",
          "type": "uint256"
        },
        {
          "indexed": false,
          "internalType": "uint256",
          "name": "amount",
          "type": "uint256"
        }
      ],
      "name": "Transfer",
      "type": "event"
    },
    {
      "anonymous": false,
      "inputs": [
        {
          "indexed": true,
          "internalType": "address",
          "name": "owner",
          "type": "address"
        },
        {
          "indexed": true,
          "internalType": "address",
          "name": "token",
          "type": "address"
        },
        {
          "indexed": true,
          "internalType": "address",
          "name": "withdrawer",
          "type": "address"
        },
        {
          "indexed": false,
          "internalType": "uint256",
          "name": "amount",
          "type": "uint256"
        },
        {
          "indexed": false,
          "internalType": "uint256",
          "name": "reward",
          "type": "uint256"
        }
      ],
      "name": "Withdraw",
      "type": "event"
    },
    {
      "anonymous": false,
      "inputs": [
        {
          "indexed": true,
          "internalType": "address",
          "name": "owner",
          "type": "address"
        },
        {
          "components": [
            {
              "internalType": "uint16",
              "name": "incentive",
              "type": "uint16"
            },
            {
              "internalType": "bool",
              "name": "paused",
              "type": "bool"
            }
          ],
          "indexed": false,
          "internalType": "struct SplitsWarehouse.WithdrawConfig",
          "name": "config",
          "type": "tuple"
        }
      ],
      "name": "WithdrawConfigUpdated",
      "type": "event"
    },
    {
      "inputs": [],
      "name": "APPROVE_AND_CALL_TYPE_HASH",
      "outputs": [
        {
          "internalType": "bytes32",
          "name": "",
          "type": "bytes32"
        }
      ],
      "stateMutability": "view",
      "type": "function"
    },
    {
      "inputs": [],
      "name": "DOMAIN_SEPARATOR",
      "outputs": [
        {
          "internalType": "bytes32",
          "name": "",
          "type": "bytes32"
        }
      ],
      "stateMutability": "view",
      "type": "function"
    },
    {
      "inputs": [],
      "name": "NATIVE_TOKEN",
      "outputs": [
        {
          "internalType": "address",
          "name": "",
          "type": "address"
        }
      ],
      "stateMutability": "view",
      "type": "function"
    },
    {
      "inputs": [],
      "name": "NATIVE_TOKEN_ID",
      "outputs": [
        {
          "internalType": "uint256",
          "name": "",
          "type": "uint256"
        }
      ],
      "stateMutability": "view",
      "type": "function"
    },
    {
      "inputs": [],
      "name": "PERCENTAGE_SCALE",
      "outputs": [
        {
          "internalType": "uint256",
          "name": "",
          "type": "uint256"
        }
      ],
      "stateMutability": "view",
      "type": "function"
    },
    {
      "inputs": [
        {
          "internalType": "address",
          "name": "owner",
          "type": "address"
        },
        {
          "internalType": "address",
          "name": "spender",
          "type": "address"
        },
        {
          "internalType": "uint256",
          "name": "tokenId",
          "type": "uint256"
        }
      ],
      "name": "allowance",
      "outputs": [
        {
          "internalType": "uint256",
          "name": "amount",
          "type": "uint256"
        }
      ],
      "stateMutability": "view",
      "type": "function"
    },
    {
      "inputs": [
        {
          "internalType": "address",
          "name": "_spender",
          "type": "address"
        },
        {
          "internalType": "uint256",
          "name": "_id",
          "type": "uint256"
        },
        {
          "internalType": "uint256",
          "name": "_amount",
          "type": "uint256"
        }
      ],
      "name": "approve",
      "outputs": [
        {
          "internalType": "bool",
          "name": "",
          "type": "bool"
        }
      ],
      "stateMutability": "nonpayable",
      "type": "function"
    },
    {
      "inputs": [
        {
          "internalType": "address",
          "name": "_owner",
          "type": "address"
        },
        {
          "internalType": "address",
          "name": "_spender",
          "type": "address"
        },
        {
          "internalType": "bool",
          "name": "_operator",
          "type": "bool"
        },
        {
          "internalType": "uint256",
          "name": "_id",
          "type": "uint256"
        },
        {
          "internalType": "uint256",
          "name": "_amount",
          "type": "uint256"
        },
        {
          "internalType": "uint256",
          "name": "_nonce",
          "type": "uint256"
        },
        {
          "internalType": "uint48",
          "name": "_deadline",
          "type": "uint48"
        },
        {
          "internalType": "bytes",
          "name": "_signature",
          "type": "bytes"
        }
      ],
      "name": "approveBySig",
      "outputs": [
        {
          "internalType": "bool",
          "name": "",
          "type": "bool"
        }
      ],
      "stateMutability": "nonpayable",
      "type": "function"
    },
    {
      "inputs": [
        {
          "internalType": "address",
          "name": "owner",
          "type": "address"
        },
        {
          "internalType": "uint256",
          "name": "id",
          "type": "uint256"
        }
      ],
      "name": "balanceOf",
      "outputs": [
        {
          "internalType": "uint256",
          "name": "amount",
          "type": "uint256"
        }
      ],
      "stateMutability": "view",
      "type": "function"
    },
    {
      "inputs": [
        {
          "internalType": "address[]",
          "name": "_receivers",
          "type": "address[]"
        },
        {
          "internalType": "address",
          "name": "_token",
          "type": "address"
        },
        {
          "internalType": "uint256[]",
          "name": "_amounts",
          "type": "uint256[]"
        }
      ],
      "name": "batchDeposit",
      "outputs": [],
      "stateMutability": "payable",
      "type": "function"
    },
    {
      "inputs": [
        {
          "internalType": "address[]",
          "name": "_receivers",
          "type": "address[]"
        },
        {
          "internalType": "address",
          "name": "_token",
          "type": "address"
        },
        {
          "internalType": "uint256[]",
          "name": "_amounts",
          "type": "uint256[]"
        }
      ],
      "name": "batchTransfer",
      "outputs": [],
      "stateMutability": "nonpayable",
      "type": "function"
    },
    {
      "inputs": [
        {
          "internalType": "uint256",
          "name": "id",
          "type": "uint256"
        }
      ],
      "name": "decimals",
      "outputs": [
        {
          "internalType": "uint8",
          "name": "",
          "type": "uint8"
        }
      ],
      "stateMutability": "view",
      "type": "function"
    },
    {
      "inputs": [
        {
          "internalType": "address",
          "name": "_receiver",
          "type": "address"
        },
        {
          "internalType": "address",
          "name": "_token",
          "type": "address"
        },
        {
          "internalType": "uint256",
          "name": "_amount",
          "type": "uint256"
        }
      ],
      "name": "deposit",
      "outputs": [],
      "stateMutability": "payable",
      "type": "function"
    },
    {
      "inputs": [],
      "name": "eip712Domain",
      "outputs": [
        {
          "internalType": "bytes1",
          "name": "fields",
          "type": "bytes1"
        },
        {
          "internalType": "string",
          "name": "name",
          "type": "string"
        },
        {
          "internalType": "string",
          "name": "version",
          "type": "string"
        },
        {
          "internalType": "uint256",
          "name": "chainId",
          "type": "uint256"
        },
        {
          "internalType": "address",
          "name": "verifyingContract",
          "type": "address"
        },
        {
          "internalType": "bytes32",
          "name": "salt",
          "type": "bytes32"
        },
        {
          "internalType": "uint256[]",
          "name": "extensions",
          "type": "uint256[]"
        }
      ],
      "stateMutability": "view",
      "type": "function"
    },
    {
      "inputs": [
        {
          "internalType": "uint256",
          "name": "_nonce",
          "type": "uint256"
        }
      ],
      "name": "invalidateNonce",
      "outputs": [],
      "stateMutability": "nonpayable",
      "type": "function"
    },
    {
      "inputs": [
        {
          "internalType": "address",
          "name": "owner",
          "type": "address"
        },
        {
          "internalType": "address",
          "name": "operator",
          "type": "address"
        }
      ],
      "name": "isOperator",
      "outputs": [
        {
          "internalType": "bool",
          "name": "approved",
          "type": "bool"
        }
      ],
      "stateMutability": "view",
      "type": "function"
    },
    {
      "inputs": [
        {
          "internalType": "address",
          "name": "_from",
          "type": "address"
        },
        {
          "internalType": "uint256",
          "name": "_nonce",
          "type": "uint256"
        }
      ],
      "name": "isValidNonce",
      "outputs": [
        {
          "internalType": "bool",
          "name": "",
          "type": "bool"
        }
      ],
      "stateMutability": "view",
      "type": "function"
    },
    {
      "inputs": [
        {
          "internalType": "uint256",
          "name": "id",
          "type": "uint256"
        }
      ],
      "name": "name",
      "outputs": [
        {
          "internalType": "string",
          "name": "",
          "type": "string"
        }
      ],
      "stateMutability": "view",
      "type": "function"
    },
    {
      "inputs": [
        {
          "internalType": "address",
          "name": "account",
          "type": "address"
        },
        {
          "internalType": "uint256",
          "name": "word",
          "type": "uint256"
        }
      ],
      "name": "nonceBitMap",
      "outputs": [
        {
          "internalType": "uint256",
          "name": "bitMap",
          "type": "uint256"
        }
      ],
      "stateMutability": "view",
      "type": "function"
    },
    {
      "inputs": [
        {
          "internalType": "address",
          "name": "_operator",
          "type": "address"
        },
        {
          "internalType": "bool",
          "name": "_approved",
          "type": "bool"
        }
      ],
      "name": "setOperator",
      "outputs": [
        {
          "internalType": "bool",
          "name": "",
          "type": "bool"
        }
      ],
      "stateMutability": "nonpayable",
      "type": "function"
    },
    {
      "inputs": [
        {
          "components": [
            {
              "internalType": "uint16",
              "name": "incentive",
              "type": "uint16"
            },
            {
              "internalType": "bool",
              "name": "paused",
              "type": "bool"
            }
          ],
          "internalType": "struct SplitsWarehouse.WithdrawConfig",
          "name": "_config",
          "type": "tuple"
        }
      ],
      "name": "setWithdrawConfig",
      "outputs": [],
      "stateMutability": "nonpayable",
      "type": "function"
    },
    {
      "inputs": [
        {
          "internalType": "bytes4",
          "name": "_interfaceId",
          "type": "bytes4"
        }
      ],
      "name": "supportsInterface",
      "outputs": [
        {
          "internalType": "bool",
          "name": "supported",
          "type": "bool"
        }
      ],
      "stateMutability": "view",
      "type": "function"
    },
    {
      "inputs": [
        {
          "internalType": "uint256",
          "name": "id",
          "type": "uint256"
        }
      ],
      "name": "symbol",
      "outputs": [
        {
          "internalType": "string",
          "name": "",
          "type": "string"
        }
      ],
      "stateMutability": "view",
      "type": "function"
    },
    {
      "inputs": [
        {
          "internalType": "address",
          "name": "_spender",
          "type": "address"
        },
        {
          "internalType": "bool",
          "name": "_operator",
          "type": "bool"
        },
        {
          "internalType": "uint256",
          "name": "_id",
          "type": "uint256"
        },
        {
          "internalType": "uint256",
          "name": "_amount",
          "type": "uint256"
        },
        {
          "internalType": "address",
          "name": "_target",
          "type": "address"
        },
        {
          "internalType": "bytes",
          "name": "_data",
          "type": "bytes"
        }
      ],
      "name": "temporaryApproveAndCall",
      "outputs": [
        {
          "internalType": "bool",
          "name": "",
          "type": "bool"
        }
      ],
      "stateMutability": "nonpayable",
      "type": "function"
    },
    {
      "inputs": [
        {
          "internalType": "address",
          "name": "_owner",
          "type": "address"
        },
        {
          "internalType": "address",
          "name": "_spender",
          "type": "address"
        },
        {
          "internalType": "bool",
          "name": "_operator",
          "type": "bool"
        },
        {
          "internalType": "uint256",
          "name": "_id",
          "type": "uint256"
        },
        {
          "internalType": "uint256",
          "name": "_amount",
          "type": "uint256"
        },
        {
          "internalType": "address",
          "name": "_target",
          "type": "address"
        },
        {
          "internalType": "bytes",
          "name": "_data",
          "type": "bytes"
        },
        {
          "internalType": "uint256",
          "name": "_nonce",
          "type": "uint256"
        },
        {
          "internalType": "uint48",
          "name": "_deadline",
          "type": "uint48"
        },
        {
          "internalType": "bytes",
          "name": "_signature",
          "type": "bytes"
        }
      ],
      "name": "temporaryApproveAndCallBySig",
      "outputs": [
        {
          "internalType": "bool",
          "name": "",
          "type": "bool"
        }
      ],
      "stateMutability": "nonpayable",
      "type": "function"
    },
    {
      "inputs": [
        {
          "internalType": "address",
          "name": "_receiver",
          "type": "address"
        },
        {
          "internalType": "uint256",
          "name": "_id",
          "type": "uint256"
        },
        {
          "internalType": "uint256",
          "name": "_amount",
          "type": "uint256"
        }
      ],
      "name": "transfer",
      "outputs": [
        {
          "internalType": "bool",
          "name": "",
          "type": "bool"
        }
      ],
      "stateMutability": "nonpayable",
      "type": "function"
    },
    {
      "inputs": [
        {
          "internalType": "address",
          "name": "_sender",
          "type": "address"
        },
        {
          "internalType": "address",
          "name": "_receiver",
          "type": "address"
        },
        {
          "internalType": "uint256",
          "name": "_id",
          "type": "uint256"
        },
        {
          "internalType": "uint256",
          "name": "_amount",
          "type": "uint256"
        }
      ],
      "name": "transferFrom",
      "outputs": [
        {
          "internalType": "bool",
          "name": "",
          "type": "bool"
        }
      ],
      "stateMutability": "nonpayable",
      "type": "function"
    },
    {
      "inputs": [
        {
          "internalType": "address",
          "name": "_owner",
          "type": "address"
        },
        {
          "internalType": "address[]",
          "name": "_tokens",
          "type": "address[]"
        },
        {
          "internalType": "uint256[]",
          "name": "_amounts",
          "type": "uint256[]"
        },
        {
          "internalType": "address",
          "name": "_withdrawer",
          "type": "address"
        }
      ],
      "name": "withdraw",
      "outputs": [],
      "stateMutability": "nonpayable",
      "type": "function"
    },
    {
      "inputs": [
        {
          "internalType": "address",
          "name": "_owner",
          "type": "address"
        },
        {
          "internalType": "address",
          "name": "_token",
          "type": "address"
        }
      ],
      "name": "withdraw",
      "outputs": [],
      "stateMutability": "nonpayable",
      "type": "function"
    },
    {
      "inputs": [
        {
          "internalType": "address",
          "name": "owner",
          "type": "address"
        }
      ],
      "name": "withdrawConfig",
      "outputs": [
        {
          "internalType": "uint16",
          "name": "incentive",
          "type": "uint16"
        },
        {
          "internalType": "bool",
          "name": "paused",
          "type": "bool"
        }
      ],
      "stateMutability": "view",
      "type": "function"
    }
  ],
  "bytecode": "0x6101a0604052348015610010575f5ffd5b50604051612d59380380612d5983398101604081905261002f9161025a565b604080518082018252600f81526e53706c69747357617265686f75736560881b60208083019190915282518084019093526002835261763160f01b9083015290818161007c826003610145565b6101205261008b816004610145565b61014052815160208084019190912060e052815190820120610100524660a05261011760e05161010051604080517f8b73c3c69bb8fe3d512ecc4cf759cc79239f7b179b0ffacaa9a75d522b39400f60208201529081019290925260608201524660808201523060a08201525f9060c00160405160208183030381529060405280519060200120905090565b60805250503060c0525061012c905082610177565b6101605261013981610177565b61018052506104559050565b5f6020835110156101605761015983610177565b9050610171565b8161016b8482610343565b5060ff90505b92915050565b5f5f829050601f815111156101aa578260405163305a27a960e01b81526004016101a191906103fd565b60405180910390fd5b80516101b582610432565b179392505050565b634e487b7160e01b5f52604160045260245ffd5b5f82601f8301126101e0575f5ffd5b81516001600160401b038111156101f9576101f96101bd565b604051601f8201601f19908116603f011681016001600160401b0381118282101715610227576102276101bd565b60405281815283820160200185101561023e575f5ffd5b8160208501602083015e5f918101602001919091529392505050565b5f5f6040838503121561026b575f5ffd5b82516001600160401b03811115610280575f5ffd5b61028c858286016101d1565b602085015190935090506001600160401b038111156102a9575f5ffd5b6102b5858286016101d1565b9150509250929050565b600181811c908216806102d357607f821691505b6020821081036102f157634e487b7160e01b5f52602260045260245ffd5b50919050565b601f82111561033e57805f5260205f20601f840160051c8101602085101561031c5750805b601f840160051c820191505b8181101561033b575f8155600101610328565b50505b505050565b81516001600160401b0381111561035c5761035c6101bd565b6103708161036a84546102bf565b846102f7565b6020601f8211600181146103a2575f831561038b5750848201515b5f19600385901b1c1916600184901b17845561033b565b5f84815260208120601f198516915b828110156103d157878501518255602094850194600190920191016103b1565b50848210156103ee57868401515f19600387901b60f8161c191681555b50505050600190811b01905550565b602081525f82518060208401528060208501604085015e5f604082850101526040601f19601f83011684010191505092915050565b805160208083015191908110156102f1575f1960209190910360031b1b16919050565b60805160a05160c05160e051610100516101205161014051610160516101805161289f6104ba5f395f610ab801525f6106b701525f6116e901525f6116bc01525f6114ae01525f61148601525f6113e101525f61140b01525f611435015261289f5ff3fe6080604052600436106101c3575f3560e01c80634e41a1fb116100f2578063b6363cf211610092578063e088902911610062578063e088902914610604578063f46d86e214610623578063f940e38514610656578063fe99049a14610675575f5ffd5b8063b6363cf214610571578063b70e36f0146105a7578063d23c0724146105c6578063dc393b6b146105e5575f5ffd5b8063676ae78f116100cd578063676ae78f14610505578063829ab5c1146105185780638340f5491461053757806384b0196e1461054a575f5ffd5b80634e41a1fb1461048b578063558a7297146104aa578063598af9e7146104c9575f5ffd5b80632e72102f116101685780633f47e662116101385780633f47e662146103de5780633fcbd4d11461040f578063426a84931461044557806348eebe4514610464575f5ffd5b80632e72102f1461035457806331f7d964146103755780633644e515146103b45780633f26479e146103c8575f5ffd5b80630647ee20116101a35780630647ee201461026f578063095bcdb6146102c257806310c07f2f146102e157806314925cad14610335575f5ffd5b8062ad800c146101c7578062fdd58e146101fc57806301ffc9a714610240575b5f5ffd5b3480156101d2575f5ffd5b506101e66101e1366004611ecd565b610694565b6040516101f39190611f12565b60405180910390f35b348015610207575f5ffd5b50610232610216366004611f3f565b600160209081525f928352604080842090915290825290205481565b6040519081526020016101f3565b34801561024b575f5ffd5b5061025f61025a366004611f7c565b61079a565b60405190151581526020016101f3565b34801561027a575f5ffd5b5061025f610289366004611f3f565b6001600160a01b03919091165f908152600560209081526040808320600885901c8452909152902054600160ff9092169190911b161590565b3480156102cd575f5ffd5b5061025f6102dc366004611f97565b6107c4565b3480156102ec575f5ffd5b5061031b6102fb366004611fc7565b60066020525f908152604090205461ffff81169062010000900460ff1682565b6040805161ffff90931683529015156020830152016101f3565b348015610340575f5ffd5b5061025f61034f3660046120cb565b61086a565b34801561035f575f5ffd5b5061037361036e3660046121e6565b6108a9565b005b348015610380575f5ffd5b5061039c73eeeeeeeeeeeeeeeeeeeeeeeeeeeeeeeeeeeeeeee81565b6040516001600160a01b0390911681526020016101f3565b3480156103bf575f5ffd5b506102326109e5565b3480156103d3575f5ffd5b50610232620f424081565b3480156103e9575f5ffd5b506103fd6103f8366004611ecd565b6109f3565b60405160ff90911681526020016101f3565b34801561041a575f5ffd5b50610232610429366004611f3f565b600560209081525f928352604080842090915290825290205481565b348015610450575f5ffd5b5061025f61045f366004611f97565b610a80565b34801561046f575f5ffd5b5061023273eeeeeeeeeeeeeeeeeeeeeeeeeeeeeeeeeeeeeeee81565b348015610496575f5ffd5b506101e66104a5366004611ecd565b610a95565b3480156104b5575f5ffd5b5061025f6104c4366004612267565b610b3e565b3480156104d4575f5ffd5b506102326104e336600461229c565b600260209081525f938452604080852082529284528284209052825290205481565b6103736105133660046121e6565b610b4a565b348015610523575f5ffd5b5061025f6105323660046122d6565b610c51565b61037361054536600461229c565b610c6e565b348015610555575f5ffd5b5061055e610ce6565b6040516101f39796959493929190612354565b34801561057c575f5ffd5b5061025f61058b3660046123ea565b5f60208181529281526040808220909352908152205460ff1681565b3480156105b2575f5ffd5b506103736105c1366004611ecd565b610d28565b3480156105d1575f5ffd5b506103736105e036600461241b565b610d86565b3480156105f0575f5ffd5b5061025f6105ff366004612434565b610ddf565b34801561060f575f5ffd5b5061037361061e3660046124cd565b610e18565b34801561062e575f5ffd5b506102327f01eb7e05a16709b6f764150593b828b1110ce9fbd8830ba01c079956b1c9cd7f81565b348015610661575f5ffd5b506103736106703660046123ea565b610f4b565b348015610680575f5ffd5b5061025f61068f36600461255c565b610ffd565b606073eeeeeeeeeeeeeeeeeeeeeeeeeeeeeeeeeeeeeeed1982016106e1576106db7f000000000000000000000000000000000000000000000000000000000000000061115a565b92915050565b6040518060400160405280600f81526020016e029b83634ba39902bb930b83832b21608d1b81525061071283611197565b6001600160a01b03166306fdde036040518163ffffffff1660e01b81526004015f60405180830381865afa15801561074c573d5f5f3e3d5ffd5b505050506040513d5f823e601f3d908101601f19168201604052610773919081019061259b565b604051602001610784929190612627565b6040516020818303038152906040529050919050565b5f6107a4826111a1565b806106db57506001600160e01b03198216634a31d20760e01b1492915050565b335f9081526001602090815260408083208584529091528120805483919083906107ef90849061264f565b90915550506001600160a01b0384165f90815260016020908152604080832086845290915281208054849290610826908490612662565b909155505060408051338082526020820185905285926001600160a01b038816925f51602061284a5f395f51905f52910160405180910390a45060015b9392505050565b5f6108758b856111d6565b61088960018c8c8c8c8c8c8c8c8c8c61126c565b6108988b8b8b8b8b8b8b6112ea565b5060019a9950505050505050505050565b8381146108cc576040516001621398b960e31b0319815260040160405180910390fd5b5f80806001600160a01b03861687825b818110156109aa578a8a828181106108f6576108f6612675565b905060200201602081019061090b9190611fc7565b935087878281811061091f5761091f612675565b6001600160a01b0387165f9081526001602090815260408083208984528252822080549390910294909401359850889392509061095d908490612662565b909155505060408051338082526020820188905285926001600160a01b038816925f51602061284a5f395f51905f52910160405180910390a46109a08587612662565b95506001016108dc565b50335f908152600160209081526040808320858452909152812080548792906109d490849061264f565b909155505050505050505050505050565b5f6109ee6113d5565b905090565b5f73eeeeeeeeeeeeeeeeeeeeeeeeeeeeeeeeeeeeeeed198201610a1857506012919050565b610a2182611197565b6001600160a01b031663313ce5676040518163ffffffff1660e01b8152600401602060405180830381865afa158015610a5c573d5f5f3e3d5ffd5b505050506040513d601f19601f820116820180604052508101906106db9190612689565b5f610a8d338585856114fe565b949350505050565b606073eeeeeeeeeeeeeeeeeeeeeeeeeeeeeeeeeeeeeeed198201610adc576106db7f000000000000000000000000000000000000000000000000000000000000000061115a565b6040518060400160405280600681526020016573706c69747360d01b815250610b0483611197565b6001600160a01b03166395d89b416040518163ffffffff1660e01b81526004015f60405180830381865afa15801561074c573d5f5f3e3d5ffd5b5f610863338484611564565b838114610b6d576040516001621398b960e31b0319815260040160405180910390fd5b5f806001600160a01b03851686825b81811015610be657868682818110610b9657610b96612675565b9050602002013593508385610bab9190612662565b9450610bde8a8a83818110610bc257610bc2612675565b9050602002016020810190610bd79190611fc7565b84866115d6565b600101610b7c565b5073eeeeeeeeeeeeeeeeeeeeeeeeeeeeeeeeeeeeeeed196001600160a01b03881601610c3157348414610c2c5760405163162908e360e11b815260040160405180910390fd5b610c46565b610c466001600160a01b038816333087611648565b505050505050505050565b5f610c61338888888888886112ea565b5060019695505050505050565b73eeeeeeeeeeeeeeeeeeeeeeeeeeeeeeeeeeeeeeed196001600160a01b03831601610cb857348114610cb35760405163162908e360e11b815260040160405180910390fd5b610ccd565b610ccd6001600160a01b038316333084611648565b610ce1836001600160a01b038416836115d6565b505050565b5f6060805f5f5f6060610cf76116b5565b610cff6116e2565b604080515f80825260208201909252600f60f81b9b939a50919850469750309650945092509050565b335f818152600560209081526040808320600886901c80855292528083208054600160ff88161b90811790915590519193909285927f239b0d63832ec06e8082928dc583392b57a30d16e4bb425b49d82c7808e308b09190a3505050565b335f9081526006602052604090208190610da082826126b8565b505060405133907fbc150027ce95c264ad6d257eb2f738f76ce357f3b4a68aaf2d1681ce903cb21c90610dd4908490612701565b60405180910390a250565b5f610dea89856111d6565b610e0b5f8a8a8a8a8a5f60405180602001604052805f8152508c8c8c61126c565b610898898989898961170f565b838214610e3b576040516001621398b960e31b0319815260040160405180910390fd5b6001600160a01b0386165f9081526006602090815260409182902082518084019093525461ffff8116835262010000900460ff1615801591830191909152610ea6576040516363fb9b1760e11b81526001600160a01b03881660048201526024015b60405180910390fd5b5f85815b81811015610f3f578351620f42409061ffff16888884818110610ecf57610ecf612675565b90506020020135610ee09190612733565b610eea919061274a565b9250610f378a8a8a84818110610f0257610f02612675565b9050602002016020810190610f179190611fc7565b898985818110610f2957610f29612675565b9050602002013588876117c2565b600101610eaa565b50505050505050505050565b336001600160a01b03831614801590610f6d5750326001600160a01b03831614155b15610fbc576001600160a01b0382165f9081526006602052604090205462010000900460ff1615610fbc576040516363fb9b1760e11b81526001600160a01b0383166004820152602401610e9d565b6001600160a01b038281165f9081526001602081815260408084209486168452939052918120549091610fee9161264f565b9050610ce1838383335f6117c2565b5f336001600160a01b0386161480159061103857506001600160a01b0385165f9081526020818152604080832033845290915290205460ff16155b156110a8576001600160a01b0385165f90815260026020908152604080832033845282528083208684529091529020545f1981146110a65761107a838261264f565b6001600160a01b0387165f90815260026020908152604080832033845282528083208884529091529020555b505b6001600160a01b0385165f908152600160209081526040808320868452909152812080548492906110da90849061264f565b90915550506001600160a01b0384165f90815260016020908152604080832086845290915281208054849290611111908490612662565b9091555050604080513381526020810184905284916001600160a01b0380881692908916915f51602061284a5f395f51905f5291015b60405180910390a4506001949350505050565b60605f611166836118cf565b6040805160208082528183019092529192505f91906020820181803683375050509182525060208101929092525090565b5f6106db826118f6565b5f6001600160e01b03198216630f632fb360e01b14806106db57506001600160e01b031982166301ffc9a760e01b1492915050565b6001600160a01b0382165f908152600560209081526040808320600885901c808552925282208054600160ff86161b908118918290559192818316900361123057604051633ab3447f60e11b815260040160405180910390fd5b60405184906001600160a01b038716907f239b0d63832ec06e8082928dc583392b57a30d16e4bb425b49d82c7808e308b0905f90a35050505050565b8165ffffffffffff1642111561129f57604051633aae542960e01b815265ffffffffffff83166004820152602401610e9d565b5f6112b28c8c8c8c8c8c8c8c8c8c61191e565b90506112bf8b82846119e3565b6112dc57604051632057875960e21b815260040160405180910390fd5b505050505050505050505050565b5f5f6112f9898989898961170f565b915091505f846001600160a01b031663b74de3da8b8a8a8a896040518663ffffffff1660e01b8152600401611332959493929190612769565b6020604051808303815f875af115801561134e573d5f5f3e3d5ffd5b505050506040513d601f19601f8201168201806040525081019061137291906127a8565b90506001600160e01b03198116635ba6f1ed60e11b146113a557604051632bc5818360e11b815260040160405180910390fd5b87156113bc576113b68a8a85611564565b50610f3f565b6113c88a8a89856114fe565b5050505050505050505050565b5f306001600160a01b037f00000000000000000000000000000000000000000000000000000000000000001614801561142d57507f000000000000000000000000000000000000000000000000000000000000000046145b1561145757507f000000000000000000000000000000000000000000000000000000000000000090565b6109ee604080517f8b73c3c69bb8fe3d512ecc4cf759cc79239f7b179b0ffacaa9a75d522b39400f60208201527f0000000000000000000000000000000000000000000000000000000000000000918101919091527f000000000000000000000000000000000000000000000000000000000000000060608201524660808201523060a08201525f9060c00160405160208183030381529060405280519060200120905090565b6001600160a01b038481165f81815260026020908152604080832094881680845294825280832087845282528083208690555185815291938693909290917fb3fd5071835887567a0671151121894ddccc2842f1d10bedad13e0d17cace9a79101611147565b6001600160a01b038381165f81815260208181526040808320948716808452948252808320805460ff19168715159081179091559051908152919392917fceb576d9f15e4e200fdb5096d64d5dfd667e16def20c1eefd14256d8e3faa267910160405180910390a35060019392505050565b6001600160a01b0383165f90815260016020908152604080832085845290915281208054839290611608908490612662565b9091555050604080513381526020810183905283916001600160a01b038616915f915f51602061284a5f395f51905f5291015b60405180910390a4505050565b6040516001600160a01b0384811660248301528381166044830152606482018390526116af9186918216906323b872dd906084015b604051602081830303815290604052915060e01b6020820180516001600160e01b038381831617835250505050611a53565b50505050565b60606109ee7f00000000000000000000000000000000000000000000000000000000000000006003611abf565b60606109ee7f00000000000000000000000000000000000000000000000000000000000000006004611abf565b5f5f841561177c578315158061172457508215155b156117425760405163637e1dc560e11b815260040160405180910390fd5b6001600160a01b038088165f90815260208181526040808320938a168352929052205460ff16915061177687876001611564565b506117b8565b506001600160a01b038087165f9081526002602090815260408083209389168352928152828220868352905220546117b6878786866114fe565b505b9550959350505050565b6117d6856001600160a01b03861685611b68565b5f6117e1828561264f565b905073eeeeeeeeeeeeeeeeeeeeeeeeeeeeeeeeeeeeeeed196001600160a01b038616016118395761181b6001600160a01b03871682611bd1565b8115611834576118346001600160a01b03841683611bd1565b611867565b61184d6001600160a01b0386168783611c5d565b8115611867576118676001600160a01b0386168484611c5d565b826001600160a01b0316856001600160a01b0316876001600160a01b03167ffbde797d201c681b91056529119e0b02407c7bb96a4a2c75c01fc9667232c8db84866040516118bf929190918252602082015260400190565b60405180910390a4505050505050565b5f60ff8216601f8111156106db57604051632cd44ac360e21b815260040160405180910390fd5b5f60a082901c1561191a57604051631a93c68960e11b815260040160405180910390fd5b5090565b8251602080850191909120604080517f01eb7e05a16709b6f764150593b828b1110ce9fbd8830ba01c079956b1c9cd7f938101939093528c1515908301526001600160a01b03808c166060840152808b16608084015289151560a084015260c0830189905260e083018890528616610100830152610120820152610140810183905265ffffffffffff82166101608201525f906119d4906101800160405160208183030381529060405280519060200120611c8e565b9b9a5050505050505050505050565b5f836001600160a01b03163b5f03611a41575f5f611a018585611cba565b5090925090505f816003811115611a1a57611a1a6127c3565b148015611a385750856001600160a01b0316826001600160a01b0316145b92505050610863565b611a4c848484611d03565b9050610863565b5f5f60205f8451602086015f885af180611a72576040513d5f823e3d81fd5b50505f513d91508115611a89578060011415611a96565b6001600160a01b0384163b155b156116af57604051635274afe760e01b81526001600160a01b0385166004820152602401610e9d565b606060ff8314611ad957611ad28361115a565b90506106db565b818054611ae5906127d7565b80601f0160208091040260200160405190810160405280929190818152602001828054611b11906127d7565b8015611b5c5780601f10611b3357610100808354040283529160200191611b5c565b820191905f5260205f20905b815481529060010190602001808311611b3f57829003601f168201915b505050505090506106db565b6001600160a01b0383165f90815260016020908152604080832085845290915281208054839290611b9a90849061264f565b9091555050604080513381526020810183905283915f916001600160a01b038716915f51602061284a5f395f51905f52910161163b565b80471015611bfb5760405163cf47918160e01b815247600482015260248101829052604401610e9d565b5f5f836001600160a01b0316836040515f6040518083038185875af1925050503d805f8114611c45576040519150601f19603f3d011682016040523d82523d5f602084013e611c4a565b606091505b5091509150816116af576116af81611dda565b6040516001600160a01b03838116602483015260448201839052610ce191859182169063a9059cbb9060640161167d565b5f6106db611c9a6113d5565b8360405161190160f01b8152600281019290925260228201526042902090565b5f5f5f8351604103611cf1576020840151604085015160608601515f1a611ce388828585611e05565b955095509550505050611cfc565b505081515f91506002905b9250925092565b5f5f5f856001600160a01b03168585604051602401611d2392919061280f565b60408051601f198184030181529181526020820180516001600160e01b0316630b135d3f60e11b17905251611d589190612827565b5f60405180830381855afa9150503d805f8114611d90576040519150601f19603f3d011682016040523d82523d5f602084013e611d95565b606091505b5091509150818015611da957506020815110155b8015611dd057508051630b135d3f60e11b90611dce9083016020908101908401612832565b145b9695505050505050565b805115611de957805160208201fd5b60405163d6bda27560e01b815260040160405180910390fd5b50565b5f80807f7fffffffffffffffffffffffffffffff5d576e7357a4501ddfe92f46681b20a0841115611e3e57505f91506003905082611ec3565b604080515f808252602082018084528a905260ff891692820192909252606081018790526080810186905260019060a0016020604051602081039080840390855afa158015611e8f573d5f5f3e3d5ffd5b5050604051601f1901519150506001600160a01b038116611eba57505f925060019150829050611ec3565b92505f91508190505b9450945094915050565b5f60208284031215611edd575f5ffd5b5035919050565b5f81518084528060208401602086015e5f602082860101526020601f19601f83011685010191505092915050565b602081525f6108636020830184611ee4565b80356001600160a01b0381168114611f3a575f5ffd5b919050565b5f5f60408385031215611f50575f5ffd5b611f5983611f24565b946020939093013593505050565b6001600160e01b031981168114611e02575f5ffd5b5f60208284031215611f8c575f5ffd5b813561086381611f67565b5f5f5f60608486031215611fa9575f5ffd5b611fb284611f24565b95602085013595506040909401359392505050565b5f60208284031215611fd7575f5ffd5b61086382611f24565b8015158114611e02575f5ffd5b8035611f3a81611fe0565b634e487b7160e01b5f52604160045260245ffd5b604051601f8201601f1916810167ffffffffffffffff8111828210171561203557612035611ff8565b604052919050565b5f67ffffffffffffffff82111561205657612056611ff8565b50601f01601f191660200190565b5f82601f830112612073575f5ffd5b81356120866120818261203d565b61200c565b81815284602083860101111561209a575f5ffd5b816020850160208301375f918101602001919091529392505050565b803565ffffffffffff81168114611f3a575f5ffd5b5f5f5f5f5f5f5f5f5f5f6101408b8d0312156120e5575f5ffd5b6120ee8b611f24565b99506120fc60208c01611f24565b985061210a60408c01611fed565b975060608b0135965060808b0135955061212660a08c01611f24565b945060c08b013567ffffffffffffffff811115612141575f5ffd5b61214d8d828e01612064565b94505060e08b013592506121646101008c016120b6565b91506101208b013567ffffffffffffffff811115612180575f5ffd5b61218c8d828e01612064565b9150509295989b9194979a5092959850565b5f5f83601f8401126121ae575f5ffd5b50813567ffffffffffffffff8111156121c5575f5ffd5b6020830191508360208260051b85010111156121df575f5ffd5b9250929050565b5f5f5f5f5f606086880312156121fa575f5ffd5b853567ffffffffffffffff811115612210575f5ffd5b61221c8882890161219e565b909650945061222f905060208701611f24565b9250604086013567ffffffffffffffff81111561224a575f5ffd5b6122568882890161219e565b969995985093965092949392505050565b5f5f60408385031215612278575f5ffd5b61228183611f24565b9150602083013561229181611fe0565b809150509250929050565b5f5f5f606084860312156122ae575f5ffd5b6122b784611f24565b92506122c560208501611f24565b929592945050506040919091013590565b5f5f5f5f5f5f60c087890312156122eb575f5ffd5b6122f487611f24565b9550602087013561230481611fe0565b9450604087013593506060870135925061232060808801611f24565b915060a087013567ffffffffffffffff81111561233b575f5ffd5b61234789828a01612064565b9150509295509295509295565b60ff60f81b8816815260e060208201525f61237260e0830189611ee4565b82810360408401526123848189611ee4565b606084018890526001600160a01b038716608085015260a0840186905283810360c0850152845180825260208087019350909101905f5b818110156123d95783518352602093840193909201916001016123bb565b50909b9a5050505050505050505050565b5f5f604083850312156123fb575f5ffd5b61240483611f24565b915061241260208401611f24565b90509250929050565b5f604082840312801561242c575f5ffd5b509092915050565b5f5f5f5f5f5f5f5f610100898b03121561244c575f5ffd5b61245589611f24565b975061246360208a01611f24565b9650604089013561247381611fe0565b9550606089013594506080890135935060a0890135925061249660c08a016120b6565b915060e089013567ffffffffffffffff8111156124b1575f5ffd5b6124bd8b828c01612064565b9150509295985092959890939650565b5f5f5f5f5f5f608087890312156124e2575f5ffd5b6124eb87611f24565b9550602087013567ffffffffffffffff811115612506575f5ffd5b61251289828a0161219e565b909650945050604087013567ffffffffffffffff811115612531575f5ffd5b61253d89828a0161219e565b9094509250612550905060608801611f24565b90509295509295509295565b5f5f5f5f6080858703121561256f575f5ffd5b61257885611f24565b935061258660208601611f24565b93969395505050506040820135916060013590565b5f602082840312156125ab575f5ffd5b815167ffffffffffffffff8111156125c1575f5ffd5b8201601f810184136125d1575f5ffd5b80516125df6120818261203d565b8181528560208385010111156125f3575f5ffd5b8160208401602083015e5f91810160200191909152949350505050565b5f81518060208401855e5f93019283525090919050565b5f610a8d6126358386612610565b84612610565b634e487b7160e01b5f52601160045260245ffd5b818103818111156106db576106db61263b565b808201808211156106db576106db61263b565b634e487b7160e01b5f52603260045260245ffd5b5f60208284031215612699575f5ffd5b815160ff81168114610863575f5ffd5b61ffff81168114611e02575f5ffd5b81356126c3816126a9565b61ffff8116905081548161ffff19821617835560208401356126e481611fe0565b62ffffff199190911690911790151560101b62ff00001617905550565b604081018235612710816126a9565b61ffff168252602083013561272481611fe0565b80151560208401525092915050565b80820281158282048414176106db576106db61263b565b5f8261276457634e487b7160e01b5f52601260045260245ffd5b500490565b60018060a01b0386168152841515602082015283604082015282606082015260a060808201525f61279d60a0830184611ee4565b979650505050505050565b5f602082840312156127b8575f5ffd5b815161086381611f67565b634e487b7160e01b5f52602160045260245ffd5b600181811c908216806127eb57607f821691505b60208210810361280957634e487b7160e01b5f52602260045260245ffd5b50919050565b828152604060208201525f610a8d6040830184611ee4565b5f6108638284612610565b5f60208284031215612842575f5ffd5b505191905056fe1b3d7edb2e9c0b0e7c525b20aaaef0f5940d2ed71663c7d39266ecafac728859a264697066735822122062d0e017796939bc07bd40c498c4d8154c2e2a9e495799adae516cc54dca999a64736f6c634300081c0033",
  "linkReferences": {},
  "deployedLinkReferences": {},
  "immutableReferences": {
    "3389": [
      {
        "length": 32,
        "start": 5173
      }
    ],
    "3391": [
      {
        "length": 32,
        "start": 5131
      }
    ],
    "3393": [
      {
        "length": 32,
        "start": 5089
      }
    ],
    "3395": [
      {
        "length": 32,
        "start": 5254
      }
    ],
    "3397": [
      {
        "length": 32,
        "start": 5294
      }
    ],
    "3400": [
      {
        "length": 32,
        "start": 5820
      }
    ],
    "3403": [
      {
        "length": 32,
        "start": 5865
      }
    ],
    "7624": [
      {
        "length": 32,
        "start": 1719
      }
    ],
    "7628": [
      {
        "length": 32,
        "start": 2744
      }
    ]
  },
  "inputSourceName": "project/contracts/splits/SplitsWarehouse.sol",
  "buildInfoId": "solc-0_8_28-1e5da342ef3031f73ae939d533244c56d062ea72"
}