{
  "_format": "hh3-artifact-1",
  "contractName": "PublicResolver",
  "sourceName": "contracts/ens/resolvers/PublicResolver.sol",
  "abi": [
    {
      "inputs": [
        {
          "internalType": "contract ENS",
          "name": "_ens",
          "type": "address"
        },
        {
          "internalType": "contract INameWrapper",
          "name": "wrapperAddress",
          "type": "address"
        },
        {
          "internalType": "address",
          "name": "_trustedETHController",
          "type": "address"
        },
        {
          "internalType": "address",
          "name": "_trustedReverseRegistrar",
          "type": "address"
        }
      ],
      "stateMutability": "nonpayable",
      "type": "constructor"
    },
    {
      "inputs": [
        {
          "internalType": "bytes",
          "name": "addressBytes",
          "type": "bytes"
        }
      ],
      "name": "InvalidEVMAddress",
      "type": "error"
    },
    {
      "anonymous": false,
      "inputs": [
        {
          "indexed": true,
          "internalType": "bytes32",
          "name": "node",
          "type": "bytes32"
        },
        {
          "indexed": true,
          "internalType": "uint256",
          "name": "contentType",
          "type": "uint256"
        }
      ],
      "name": "ABIChanged",
      "type": "event"
    },
    {
      "anonymous": false,
      "inputs": [
        {
          "indexed": true,
          "internalType": "bytes32",
          "name": "node",
          "type": "bytes32"
        },
        {
          "indexed": false,
          "internalType": "address",
          "name": "a",
          "type": "address"
        }
      ],
      "name": "AddrChanged",
      "type": "event"
    },
    {
      "anonymous": false,
      "inputs": [
        {
          "indexed": true,
          "internalType": "bytes32",
          "name": "node",
          "type": "bytes32"
        },
        {
          "indexed": false,
          "internalType": "uint256",
          "name": "coinType",
          "type": "uint256"
        },
        {
          "indexed": false,
          "internalType": "bytes",
          "name": "newAddress",
          "type": "bytes"
        }
      ],
      "name": "AddressChanged",
      "type": "event"
    },
    {
      "anonymous": false,
      "inputs": [
        {
          "indexed": true,
          "internalType": "address",
          "name": "owner",
          "type": "address"
        },
        {
          "indexed": true,
          "internalType": "address",
          "name": "operator",
          "type": "address"
        },
        {
          "indexed": false,
          "internalType": "bool",
          "name": "approved",
          "type": "bool"
        }
      ],
      "name": "ApprovalForAll",
      "type": "event"
    },
    {
      "anonymous": false,
      "inputs": [
        {
          "indexed": false,
          "internalType": "address",
          "name": "owner",
          "type": "address"
        },
        {
          "indexed": true,
          "internalType": "bytes32",
          "name": "node",
          "type": "bytes32"
        },
        {
          "indexed": true,
          "internalType": "address",
          "name": "delegate",
          "type": "address"
        },
        {
          "indexed": true,
          "internalType": "bool",
          "name": "approved",
          "type": "bool"
        }
      ],
      "name": "Approved",
      "type": "event"
    },
    {
      "anonymous": false,
      "inputs": [
        {
          "indexed": true,
          "internalType": "bytes32",
          "name": "node",
          "type": "bytes32"
        },
        {
          "indexed": false,
          "internalType": "bytes",
          "name": "hash",
          "type": "bytes"
        }
      ],
      "name": "ContenthashChanged",
      "type": "event"
    },
    {
      "anonymous": false,
      "inputs": [
        {
          "indexed": true,
          "internalType": "bytes32",
          "name": "node",
          "type": "bytes32"
        },
        {
          "indexed": true,
          "internalType": "bytes4",
          "name": "interfaceID",
          "type": "bytes4"
        },
        {
          "indexed": false,
          "internalType": "address",
          "name": "implementer",
          "type": "address"
        }
      ],
      "name": "InterfaceChanged",
      "type": "event"
    },
    {
      "anonymous": false,
      "inputs": [
        {
          "indexed": true,
          "internalType": "bytes32",
          "name": "node",
          "type": "bytes32"
        },
        {
          "indexed": false,
          "internalType": "string",
          "name": "name",
          "type": "string"
        }
      ],
      "name": "NameChanged",
      "type": "event"
    },
    {
      "anonymous": false,
      "inputs": [
        {
          "indexed": true,
          "internalType": "bytes32",
          "name": "node",
          "type": "bytes32"
        },
        {
          "indexed": false,
          "internalType": "bytes32",
          "name": "x",
          "type": "bytes32"
        },
        {
          "indexed": false,
          "internalType": "bytes32",
          "name": "y",
          "type": "bytes32"
        }
      ],
      "name": "PubkeyChanged",
      "type": "event"
    },
    {
      "anonymous": false,
      "inputs": [
        {
          "indexed": true,
          "internalType": "bytes32",
          "name": "node",
          "type": "bytes32"
        },
        {
          "indexed": true,
          "internalType": "string",
          "name": "indexedKey",
          "type": "string"
        },
        {
          "indexed": false,
          "internalType": "string",
          "name": "key",
          "type": "string"
        },
        {
          "indexed": false,
          "internalType": "string",
          "name": "value",
          "type": "string"
        }
      ],
      "name": "TextChanged",
      "type": "event"
    },
    {
      "anonymous": false,
      "inputs": [
        {
          "indexed": true,
          "internalType": "bytes32",
          "name": "node",
          "type": "bytes32"
        },
        {
          "indexed": false,
          "internalType": "uint64",
          "name": "newVersion",
          "type": "uint64"
        }
      ],
      "name": "VersionChanged",
      "type": "event"
    },
    {
      "inputs": [
        {
          "internalType": "bytes32",
          "name": "node",
          "type": "bytes32"
        },
        {
          "internalType": "uint256",
          "name": "contentTypes",
          "type": "uint256"
        }
      ],
      "name": "ABI",
      "outputs": [
        {
          "internalType": "uint256",
          "name": "",
          "type": "uint256"
        },
        {
          "internalType": "bytes",
          "name": "",
          "type": "bytes"
        }
      ],
      "stateMutability": "view",
      "type": "function"
    },
    {
      "inputs": [
        {
          "internalType": "bytes32",
          "name": "node",
          "type": "bytes32"
        }
      ],
      "name": "addr",
      "outputs": [
        {
          "internalType": "address payable",
          "name": "",
          "type": "address"
        }
      ],
      "stateMutability": "view",
      "type": "function"
    },
    {
      "inputs": [
        {
          "internalType": "bytes32",
          "name": "node",
          "type": "bytes32"
        },
        {
          "internalType": "uint256",
          "name": "coinType",
          "type": "uint256"
        }
      ],
      "name": "addr",
      "outputs": [
        {
          "internalType": "bytes",
          "name": "addressBytes",
          "type": "bytes"
        }
      ],
      "stateMutability": "view",
      "type": "function"
    },
    {
      "inputs": [
        {
          "internalType": "bytes32",
          "name": "node",
          "type": "bytes32"
        },
        {
          "internalType": "address",
          "name": "delegate",
          "type": "address"
        },
        {
          "internalType": "bool",
          "name": "approved",
          "type": "bool"
        }
      ],
      "name": "approve",
      "outputs": [],
      "stateMutability": "nonpayable",
      "type": "function"
    },
    {
      "inputs": [
        {
          "internalType": "bytes32",
          "name": "node",
          "type": "bytes32"
        }
      ],
      "name": "clearRecords",
      "outputs": [],
      "stateMutability": "nonpayable",
      "type": "function"
    },
    {
      "inputs": [
        {
          "internalType": "bytes32",
          "name": "node",
          "type": "bytes32"
        }
      ],
      "name": "contenthash",
      "outputs": [
        {
          "internalType": "bytes",
          "name": "",
          "type": "bytes"
        }
      ],
      "stateMutability": "view",
      "type": "function"
    },
    {
      "inputs": [
        {
          "internalType": "bytes32",
          "name": "node",
          "type": "bytes32"
        },
        {
          "internalType": "uint256",
          "name": "coinType",
          "type": "uint256"
        }
      ],
      "name": "hasAddr",
      "outputs": [
        {
          "internalType": "bool",
          "name": "",
          "type": "bool"
        }
      ],
      "stateMutability": "view",
      "type": "function"
    },
    {
      "inputs": [
        {
          "internalType": "bytes32",
          "name": "node",
          "type": "bytes32"
        },
        {
          "internalType": "bytes4",
          "name": "interfaceID",
          "type": "bytes4"
        }
      ],
      "name": "interfaceImplementer",
      "outputs": [
        {
          "internalType": "address",
          "name": "",
          "type": "address"
        }
      ],
      "stateMutability": "view",
      "type": "function"
    },
    {
      "inputs": [
        {
          "internalType": "address",
          "name": "owner",
          "type": "address"
        },
        {
          "internalType": "bytes32",
          "name": "node",
          "type": "bytes32"
        },
        {
          "internalType": "address",
          "name": "delegate",
          "type": "address"
        }
      ],
      "name": "isApprovedFor",
      "outputs": [
        {
          "internalType": "bool",
          "name": "",
          "type": "bool"
        }
      ],
      "stateMutability": "view",
      "type": "function"
    },
    {
      "inputs": [
        {
          "internalType": "address",
          "name": "account",
          "type": "address"
        },
        {
          "internalType": "address",
          "name": "operator",
          "type": "address"
        }
      ],
      "name": "isApprovedForAll",
      "outputs": [
        {
          "internalType": "bool",
          "name": "",
          "type": "bool"
        }
      ],
      "stateMutability": "view",
      "type": "function"
    },
    {
      "inputs": [
        {
          "internalType": "bytes[]",
          "name": "data",
          "type": "bytes[]"
        }
      ],
      "name": "multicall",
      "outputs": [
        {
          "internalType": "bytes[]",
          "name": "results",
          "type": "bytes[]"
        }
      ],
      "stateMutability": "nonpayable",
      "type": "function"
    },
    {
      "inputs": [
        {
          "internalType": "bytes32",
          "name": "nodehash",
          "type": "bytes32"
        },
        {
          "internalType": "bytes[]",
          "name": "data",
          "type": "bytes[]"
        }
      ],
      "name": "multicallWithNodeCheck",
      "outputs": [
        {
          "internalType": "bytes[]",
          "name": "results",
          "type": "bytes[]"
        }
      ],
      "stateMutability": "nonpayable",
      "type": "function"
    },
    {
      "inputs": [
        {
          "internalType": "bytes32",
          "name": "node",
          "type": "bytes32"
        }
      ],
      "name": "name",
      "outputs": [
        {
          "internalType": "string",
          "name": "",
          "type": "string"
        }
      ],
      "stateMutability": "view",
      "type": "function"
    },
    {
      "inputs": [
        {
          "internalType": "bytes32",
          "name": "node",
          "type": "bytes32"
        }
      ],
      "name": "pubkey",
      "outputs": [
        {
          "internalType": "bytes32",
          "name": "x",
          "type": "bytes32"
        },
        {
          "internalType": "bytes32",
          "name": "y",
          "type": "bytes32"
        }
      ],
      "stateMutability": "view",
      "type": "function"
    },
    {
      "inputs": [
        {
          "internalType": "bytes32",
          "name": "",
          "type": "bytes32"
        }
      ],
      "name": "recordVersions",
      "outputs": [
        {
          "internalType": "uint64",
          "name": "",
          "type": "uint64"
        }
      ],
      "stateMutability": "view",
      "type": "function"
    },
    {
      "inputs": [
        {
          "internalType": "bytes32",
          "name": "node",
          "type": "bytes32"
        },
        {
          "internalType": "uint256",
          "name": "contentType",
          "type": "uint256"
        },
        {
          "internalType": "bytes",
          "name": "data",
          "type": "bytes"
        }
      ],
      "name": "setABI",
      "outputs": [],
      "stateMutability": "nonpayable",
      "type": "function"
    },
    {
      "inputs": [
        {
          "internalType": "bytes32",
          "name": "node",
          "type": "bytes32"
        },
        {
          "internalType": "uint256",
          "name": "coinType",
          "type": "uint256"
        },
        {
          "internalType": "bytes",
          "name": "addressBytes",
          "type": "bytes"
        }
      ],
      "name": "setAddr",
      "outputs": [],
      "stateMutability": "nonpayable",
      "type": "function"
    },
    {
      "inputs": [
        {
          "internalType": "bytes32",
          "name": "node",
          "type": "bytes32"
        },
        {
          "internalType": "address",
          "name": "_addr",
          "type": "address"
        }
      ],
      "name": "setAddr",
      "outputs": [],
      "stateMutability": "nonpayable",
      "type": "function"
    },
    {
      "inputs": [
        {
          "internalType": "address",
          "name": "operator",
          "type": "address"
        },
        {
          "internalType": "bool",
          "name": "approved",
          "type": "bool"
        }
      ],
      "name": "setApprovalForAll",
      "outputs": [],
      "stateMutability": "nonpayable",
      "type": "function"
    },
    {
      "inputs": [
        {
          "internalType": "bytes32",
          "name": "node",
          "type": "bytes32"
        },
        {
          "internalType": "bytes",
          "name": "hash",
          "type": "bytes"
        }
      ],
      "name": "setContenthash",
      "outputs": [],
      "stateMutability": "nonpayable",
      "type": "function"
    },
    {
      "inputs": [
        {
          "internalType": "bytes32",
          "name": "node",
          "type": "bytes32"
        },
        {
          "internalType": "bytes4",
          "name": "interfaceID",
          "type": "bytes4"
        },
        {
          "internalType": "address",
          "name": "implementer",
          "type": "address"
        }
      ],
      "name": "setInterface",
      "outputs": [],
      "stateMutability": "nonpayable",
      "type": "function"
    },
    {
      "inputs": [
        {
          "internalType": "bytes32",
          "name": "node",
          "type": "bytes32"
        },
        {
          "internalType": "string",
          "name": "newName",
          "type": "string"
        }
      ],
      "name": "setName",
      "outputs": [],
      "stateMutability": "nonpayable",
      "type": "function"
    },
    {
      "inputs": [
        {
          "internalType": "bytes32",
          "name": "node",
          "type": "bytes32"
        },
        {
          "internalType": "bytes32",
          "name": "x",
          "type": "bytes32"
        },
        {
          "internalType": "bytes32",
          "name": "y",
          "type": "bytes32"
        }
      ],
      "name": "setPubkey",
      "outputs": [],
      "stateMutability": "nonpayable",
      "type": "function"
    },
    {
      "inputs": [
        {
          "internalType": "bytes32",
          "name": "node",
          "type": "bytes32"
        },
        {
          "internalType": "string",
          "name": "key",
          "type": "string"
        },
        {
          "internalType": "string",
          "name": "value",
          "type": "string"
        }
      ],
      "name": "setText",
      "outputs": [],
      "stateMutability": "nonpayable",
      "type": "function"
    },
    {
      "inputs": [
        {
          "internalType": "bytes4",
          "name": "interfaceID",
          "type": "bytes4"
        }
      ],
      "name": "supportsInterface",
      "outputs": [
        {
          "internalType": "bool",
          "name": "",
          "type": "bool"
        }
      ],
      "stateMutability": "view",
      "type": "function"
    },
    {
      "inputs": [
        {
          "internalType": "bytes32",
          "name": "node",
          "type": "bytes32"
        },
        {
          "internalType": "string",
          "name": "key",
          "type": "string"
        }
      ],
      "name": "text",
      "outputs": [
        {
          "internalType": "string",
          "name": "",
          "type": "string"
        }
      ],
      "stateMutability": "view",
      "type": "function"
    }
  ],
  "bytecode": "0x610100604052348015610010575f5ffd5b506040516123a83803806123a883398101604081905261002f91610068565b6001600160a01b0393841660805291831660a052821660c0521660e0526100c4565b6001600160a01b0381168114610065575f5ffd5b50565b5f5f5f5f6080858703121561007b575f5ffd5b845161008681610051565b602086015190945061009781610051565b60408601519093506100a881610051565b60608601519092506100b981610051565b939692955090935050565b60805160a05160c05160e0516122aa6100fe5f395f6113b601525f61138401525f818161147201526114bf01525f6113fd01526122aa5ff3fe608060405234801561000f575f5ffd5b5060043610610187575f3560e01c80638b95dd71116100d9578063c869023311610093578063e32954eb1161006e578063e32954eb14610425578063e59d895d14610438578063e985e9c51461044b578063f1cb7e0614610486575f5ffd5b8063c86902331461037b578063d5fa2b00146103d2578063d700ff33146103e5575f5ffd5b80638b95dd71146102cc578063a22cb465146102df578063a4b91a01146102f2578063a9784b3e14610305578063ac9650d814610348578063bc1c58d114610368575f5ffd5b806332f111d71161014457806359d1d43c1161011f57806359d1d43c14610273578063623195b014610293578063691f3431146102a657806377372213146102b9575f5ffd5b806332f111d71461023a5780633603d7581461024d5780633b3b57de14610260575f5ffd5b806301ffc9a71461018b57806310f13a8c146101b3578063124a319c146101c85780632203ab56146101f357806329cd62ea14610214578063304e6ade14610227575b5f5ffd5b61019e610199366004611910565b610499565b60405190151581526020015b60405180910390f35b6101c66101c1366004611966565b6104a9565b005b6101db6101d63660046119dd565b610573565b6040516001600160a01b0390911681526020016101aa565b610206610201366004611a07565b6107b8565b6040516101aa929190611a55565b6101c6610222366004611a6d565b6108f3565b6101c6610235366004611a96565b61098b565b61019e610248366004611a07565b610a04565b6101c661025b366004611add565b610a4e565b6101db61026e366004611add565b610aec565b610286610281366004611a96565b610b0a565b6040516101aa9190611af4565b6101c66102a1366004611b06565b610be6565b6102866102b4366004611add565b610c7e565b6101c66102c7366004611a96565b610d39565b6101c66102da366004611b68565b610db2565b6101c66102ed366004611c50565b610ed5565b6101c6610300366004611c7a565b610faa565b61019e610313366004611cb5565b6001600160a01b039283165f908152600960209081526040808320948352938152838220929094168152925290205460ff1690565b61035b610356366004611d34565b611076565b6040516101aa9190611d72565b610286610376366004611add565b61108a565b6103bd610389366004611add565b5f81815260208181526040808320546001600160401b03168352600682528083209383529290522080546001909101549091565b604080519283526020830191909152016101aa565b6101c66103e0366004611dd5565b6110c2565b61040d6103f3366004611add565b5f602081905290815260409020546001600160401b031681565b6040516001600160401b0390911681526020016101aa565b61035b610433366004611e03565b611115565b6101c6610446366004611e3d565b61112a565b61019e610459366004611e6f565b6001600160a01b039182165f90815260086020908152604080832093909416825291909152205460ff1690565b610286610494366004611a07565b6111ce565b5f6104a382611354565b92915050565b846104b381611378565b6104bb575f5ffd5b5f86815260208181526040808320546001600160401b0316835260078252808320898452909152908190209051849184916104f99089908990611e9b565b90815260200160405180910390209182610514929190611f26565b508484604051610525929190611e9b565b6040518091039020867f448bc014f1536726cf8d54ff3d6481ed3cbc683c2591ca204274009afa09b1a1878787876040516105639493929190612007565b60405180910390a3505050505050565b5f82815260208181526040808320546001600160401b031683526004825280832085845282528083206001600160e01b0319851684529091528120546001600160a01b031680156105c55790506104a3565b5f6105cf85610aec565b90506001600160a01b0381166105e9575f925050506104a3565b6040516301ffc9a760e01b60248201525f9081906001600160a01b0384169060440160408051601f198184030181529181526020820180516001600160e01b03166301ffc9a760e01b179052516106409190612038565b5f60405180830381855afa9150503d805f8114610678576040519150601f19603f3d011682016040523d82523d5f602084013e61067d565b606091505b5091509150811580610690575060208151105b806106ba575080601f815181106106a9576106a961204e565b01602001516001600160f81b031916155b156106cb575f9450505050506104a3565b6040516001600160e01b0319871660248201526001600160a01b0384169060440160408051601f198184030181529181526020820180516001600160e01b03166301ffc9a760e01b179052516107219190612038565b5f60405180830381855afa9150503d805f8114610759576040519150601f19603f3d011682016040523d82523d5f602084013e61075e565b606091505b509092509050811580610772575060208151105b8061079c575080601f8151811061078b5761078b61204e565b01602001516001600160f81b031916155b156107ad575f9450505050506104a3565b509095945050505050565b5f82815260208181526040808320546001600160401b03168352600180835281842086855290925282206060915b5f811180156107f55750848111155b156108d5578085161580159061082257505f818152602083905260408120805461081e90611eaa565b9050115b156108cd5780825f8381526020019081526020015f2080805461084490611eaa565b80601f016020809104026020016040519081016040528092919081815260200182805461087090611eaa565b80156108bb5780601f10610892576101008083540402835291602001916108bb565b820191905f5260205f20905b81548152906001019060200180831161089e57829003601f168201915b505050505090509350935050506108ec565b60011b6107e6565b505f60405180602001604052805f81525092509250505b9250929050565b826108fd81611378565b610905575f5ffd5b60408051808201825284815260208082018581525f888152808352848120546001600160401b031681526006835284812089825283528490209251835551600190920191909155815185815290810184905285917f1d6f5e03d3f63eb58751986629a5439baee5079ff04f345becb66e23eb154e4691015b60405180910390a250505050565b8261099581611378565b61099d575f5ffd5b5f84815260208181526040808320546001600160401b031683526003825280832087845290915290206109d1838583611f26565b50837fe379c1624ed7e714cc0937528a32359d69d5281337765313dba4e081b72d7578848460405161097d929190612062565b5f82815260208181526040808320546001600160401b0316835260028252808320858452825280832084845290915281208054829190610a4390611eaa565b905011905092915050565b80610a5881611378565b610a60575f5ffd5b5f82815260208190526040812080546001600160401b031691610a8283612089565b82546101009290920a6001600160401b038181021990931691831602179091555f84815260208181526040918290205491519190921681528492507fc6621ccb8f3f5a04bb6502154b2caf6adf5983fe76dfef1cfc9c42e3579db444910160405180910390a25050565b5f610af882603c6111ce565b610b01906120b3565b60601c92915050565b5f83815260208181526040808320546001600160401b031683526007825280832086845290915290819020905160609190610b489085908590611e9b565b90815260200160405180910390208054610b6190611eaa565b80601f0160208091040260200160405190810160405280929190818152602001828054610b8d90611eaa565b8015610bd85780601f10610baf57610100808354040283529160200191610bd8565b820191905f5260205f20905b815481529060010190602001808311610bbb57829003601f168201915b505050505090509392505050565b83610bf081611378565b610bf8575f5ffd5b83610c04600182612106565b1615610c0e575f5ffd5b5f85815260208181526040808320546001600160401b031683526001825280832088845282528083208784529091529020610c4a838583611f26565b50604051849086907faa121bbeef5f32f5961a2a28966e769023910fc9479059ee3495d4c1a696efe3905f90a35050505050565b5f81815260208181526040808320546001600160401b03168352600582528083208484529091529020805460609190610cb690611eaa565b80601f0160208091040260200160405190810160405280929190818152602001828054610ce290611eaa565b8015610d2d5780601f10610d0457610100808354040283529160200191610d2d565b820191905f5260205f20905b815481529060010190602001808311610d1057829003601f168201915b50505050509050919050565b82610d4381611378565b610d4b575f5ffd5b5f84815260208181526040808320546001600160401b03168352600582528083208784529091529020610d7f838583611f26565b50837fb7d29e911041e8d9b843369e890bcb72c9388692ba48b65ac54e7214c4c348f7848460405161097d929190612062565b82610dbc81611378565b610dc4575f5ffd5b815115801590610dd657508151601414155b8015610de65750610de6836115a5565b15610e0f578160405163046b337b60e51b8152600401610e069190611af4565b60405180910390fd5b837f65412581168e88a1e60c6459d7f44ae83ad0832e670826c05a4e2476b57af7528484604051610e41929190611a55565b60405180910390a2603c8303610e9357837f52d7d861f09ab3d26239d492e8968629f95e9e318cf0b73bfddc441522a15fd2610e7c846120b3565b60405160609190911c815260200160405180910390a25b5f84815260208181526040808320546001600160401b031683526002825280832087845282528083208684529091529020610ece8382612119565b5050505050565b6001600160a01b0382163303610f3f5760405162461bcd60e51b815260206004820152602960248201527f455243313135353a2073657474696e6720617070726f76616c20737461747573604482015268103337b91039b2b63360b91b6064820152608401610e06565b335f8181526008602090815260408083206001600160a01b03871680855290835292819020805460ff191686151590811790915590519081529192917f17307eab39ab6107e8899845ad3d59bd9653f200f220920489ca2b5937696c31910160405180910390a35050565b6001600160a01b03821633036110025760405162461bcd60e51b815260206004820181905260248201527f53657474696e672064656c65676174652073746174757320666f722073656c666044820152606401610e06565b335f81815260096020908152604080832087845282528083206001600160a01b03871680855290835292819020805460ff191686151590811790915590519384529286917ff0ddb3b04746704017f9aa8bd728fcc2c1d11675041205350018915f5e4750a0910160405180910390a4505050565b60606110835f84846115ca565b9392505050565b5f81815260208181526040808320546001600160401b03168352600382528083208484529091529020805460609190610cb690611eaa565b816110cc81611378565b6110d4575f5ffd5b6040516bffffffffffffffffffffffff19606084901b166020820152611110908490603c90603401604051602081830303815290604052610db2565b505050565b60606111228484846115ca565b949350505050565b8261113481611378565b61113c575f5ffd5b5f84815260208181526040808320546001600160401b031683526004825280832087845282528083206001600160e01b031987168085529083529281902080546001600160a01b0319166001600160a01b038716908117909155905190815286917f7c69f06bea0bdef565b709e93a147836b0063ba2dd89f02d0b7e8d931e6a6daa910160405180910390a350505050565b5f82815260208181526040808320546001600160401b03168352600282528083208584528252808320848452918290529091208054606092919061121190611eaa565b80601f016020809104026020016040519081016040528092919081815260200182805461123d90611eaa565b80156112885780601f1061125f57610100808354040283529160200191611288565b820191905f5260205f20905b81548152906001019060200180831161126b57829003601f168201915b5050505050915081515f1480156112ac57505f6112a484611787565b63ffffffff16115b1561134d5763800000005f90815260208290526040902080546112ce90611eaa565b80601f01602080910402602001604051908101604052809291908181526020018280546112fa90611eaa565b80156113455780601f1061131c57610100808354040283529160200191611345565b820191905f5260205f20905b81548152906001019060200180831161132857829003601f168201915b505050505091505b5092915050565b5f6001600160e01b03198216631674750f60e21b14806104a357506104a3826117b1565b5f336001600160a01b037f00000000000000000000000000000000000000000000000000000000000000001614806113d85750336001600160a01b037f000000000000000000000000000000000000000000000000000000000000000016145b156113e557506001919050565b6040516302571be360e01b8152600481018390525f907f00000000000000000000000000000000000000000000000000000000000000006001600160a01b0316906302571be390602401602060405180830381865afa15801561144a573d5f5f3e3d5ffd5b505050506040513d601f19601f8201168201806040525081019061146e91906121d3565b90507f00000000000000000000000000000000000000000000000000000000000000006001600160a01b0316816001600160a01b031603611533576040516331a9108f60e11b8152600481018490527f00000000000000000000000000000000000000000000000000000000000000006001600160a01b031690636352211e90602401602060405180830381865afa15801561150c573d5f5f3e3d5ffd5b505050506040513d601f19601f8201168201806040525081019061153091906121d3565b90505b6001600160a01b03811633148061156c57506001600160a01b0381165f90815260086020908152604080832033845290915290205460ff165b8061108357506001600160a01b0381165f908152600960209081526040808320868452825280832033845290915290205460ff16611083565b5f63800000008214806104a357505f6115bd83611787565b63ffffffff161192915050565b6060816001600160401b038111156115e4576115e4611b54565b60405190808252806020026020018201604052801561161757816020015b60608152602001906001900390816116025790505b5090505f5b8281101561177f5784156116d7575f84848381811061163d5761163d61204e565b905060200281019061164f91906121ee565b61165e91602491600491612230565b61166791612257565b90508581146116d55760405162461bcd60e51b815260206004820152603460248201527f6d756c746963616c6c3a20416c6c207265636f726473206d7573742068617665604482015273040c240dac2e8c6d0d2dcce40dcc2dacad0c2e6d60631b6064820152608401610e06565b505b5f80308686858181106116ec576116ec61204e565b90506020028101906116fe91906121ee565b60405161170c929190611e9b565b5f60405180830381855af49150503d805f8114611744576040519150601f19603f3d011682016040523d82523d5f602084013e611749565b606091505b509150915081611757575f5ffd5b8084848151811061176a5761176a61204e565b6020908102919091010152505060010161161c565b509392505050565b5f603c820361179857506001919050565b63800000009182189182106117ad575f6104a3565b5090565b5f6001600160e01b0319821663c869023360e01b14806104a357506104a3825f6001600160e01b0319821663691f343160e01b14806104a357506104a3825f6001600160e01b031982166304928c6760e21b14806104a357506104a3825f6001600160e01b0319821663bc1c58d160e01b14806104a357506104a3825f631d9dabef60e11b6001600160e01b03198316148061185d57506378e5bf0360e11b6001600160e01b03198316145b8061187857506332f111d760e01b6001600160e01b03198316145b806104a357506104a3825f6001600160e01b03198216631101d5ab60e11b14806104a357506104a3825f6001600160e01b0319821663d700ff3360e01b14806104a357506104a3825f6001600160e01b03198216634fbf043360e01b14806104a357506301ffc9a760e01b6001600160e01b03198316146104a3565b80356001600160e01b03198116811461190b575f5ffd5b919050565b5f60208284031215611920575f5ffd5b611083826118f4565b5f5f83601f840112611939575f5ffd5b5081356001600160401b0381111561194f575f5ffd5b6020830191508360208285010111156108ec575f5ffd5b5f5f5f5f5f6060868803121561197a575f5ffd5b8535945060208601356001600160401b03811115611996575f5ffd5b6119a288828901611929565b90955093505060408601356001600160401b038111156119c0575f5ffd5b6119cc88828901611929565b969995985093965092949392505050565b5f5f604083850312156119ee575f5ffd5b823591506119fe602084016118f4565b90509250929050565b5f5f60408385031215611a18575f5ffd5b50508035926020909101359150565b5f81518084528060208401602086015e5f602082860101526020601f19601f83011685010191505092915050565b828152604060208201525f6111226040830184611a27565b5f5f5f60608486031215611a7f575f5ffd5b505081359360208301359350604090920135919050565b5f5f5f60408486031215611aa8575f5ffd5b8335925060208401356001600160401b03811115611ac4575f5ffd5b611ad086828701611929565b9497909650939450505050565b5f60208284031215611aed575f5ffd5b5035919050565b602081525f6110836020830184611a27565b5f5f5f5f60608587031215611b19575f5ffd5b843593506020850135925060408501356001600160401b03811115611b3c575f5ffd5b611b4887828801611929565b95989497509550505050565b634e487b7160e01b5f52604160045260245ffd5b5f5f5f60608486031215611b7a575f5ffd5b833592506020840135915060408401356001600160401b03811115611b9d575f5ffd5b8401601f81018613611bad575f5ffd5b80356001600160401b03811115611bc657611bc6611b54565b604051601f8201601f19908116603f011681016001600160401b0381118282101715611bf457611bf4611b54565b604052818152828201602001881015611c0b575f5ffd5b816020840160208301375f602083830101528093505050509250925092565b6001600160a01b0381168114611c3e575f5ffd5b50565b8035801515811461190b575f5ffd5b5f5f60408385031215611c61575f5ffd5b8235611c6c81611c2a565b91506119fe60208401611c41565b5f5f5f60608486031215611c8c575f5ffd5b833592506020840135611c9e81611c2a565b9150611cac60408501611c41565b90509250925092565b5f5f5f60608486031215611cc7575f5ffd5b8335611cd281611c2a565b9250602084013591506040840135611ce981611c2a565b809150509250925092565b5f5f83601f840112611d04575f5ffd5b5081356001600160401b03811115611d1a575f5ffd5b6020830191508360208260051b85010111156108ec575f5ffd5b5f5f60208385031215611d45575f5ffd5b82356001600160401b03811115611d5a575f5ffd5b611d6685828601611cf4565b90969095509350505050565b5f602082016020835280845180835260408501915060408160051b8601019250602086015f5b82811015611dc957603f19878603018452611db4858351611a27565b94506020938401939190910190600101611d98565b50929695505050505050565b5f5f60408385031215611de6575f5ffd5b823591506020830135611df881611c2a565b809150509250929050565b5f5f5f60408486031215611e15575f5ffd5b8335925060208401356001600160401b03811115611e31575f5ffd5b611ad086828701611cf4565b5f5f5f60608486031215611e4f575f5ffd5b83359250611e5f602085016118f4565b91506040840135611ce981611c2a565b5f5f60408385031215611e80575f5ffd5b8235611e8b81611c2a565b91506020830135611df881611c2a565b818382375f9101908152919050565b600181811c90821680611ebe57607f821691505b602082108103611edc57634e487b7160e01b5f52602260045260245ffd5b50919050565b601f82111561111057805f5260205f20601f840160051c81016020851015611f075750805b601f840160051c820191505b81811015610ece575f8155600101611f13565b6001600160401b03831115611f3d57611f3d611b54565b611f5183611f4b8354611eaa565b83611ee2565b5f601f841160018114611f82575f8515611f6b5750838201355b5f19600387901b1c1916600186901b178355610ece565b5f83815260208120601f198716915b82811015611fb15786850135825560209485019460019092019101611f91565b5086821015611fcd575f1960f88860031b161c19848701351681555b505060018560011b0183555050505050565b81835281816020850137505f828201602090810191909152601f909101601f19169091010190565b604081525f61201a604083018688611fdf565b828103602084015261202d818587611fdf565b979650505050505050565b5f82518060208501845e5f920191825250919050565b634e487b7160e01b5f52603260045260245ffd5b602081525f611122602083018486611fdf565b634e487b7160e01b5f52601160045260245ffd5b5f6001600160401b0382166001600160401b0381036120aa576120aa612075565b60010192915050565b805160208201516bffffffffffffffffffffffff198116919060148210156120ff576bffffffffffffffffffffffff196bffffffffffffffffffffffff198360140360031b1b82161692505b5050919050565b818103818111156104a3576104a3612075565b81516001600160401b0381111561213257612132611b54565b612146816121408454611eaa565b84611ee2565b6020601f821160018114612178575f83156121615750848201515b5f19600385901b1c1916600184901b178455610ece565b5f84815260208120601f198516915b828110156121a75787850151825560209485019460019092019101612187565b50848210156121c457868401515f19600387901b60f8161c191681555b50505050600190811b01905550565b5f602082840312156121e3575f5ffd5b815161108381611c2a565b5f5f8335601e19843603018112612203575f5ffd5b8301803591506001600160401b0382111561221c575f5ffd5b6020019150368190038213156108ec575f5ffd5b5f5f8585111561223e575f5ffd5b8386111561224a575f5ffd5b5050820193919092039150565b803560208310156104a3575f19602084900360031b1b169291505056fea26469706673582212204abb80417c4e14e518e8912d66ee383433131e7c76530b8c6feffd5124d86aff64736f6c634300081c0033",
  "linkReferences": {},
  "deployedLinkReferences": {},
  "immutableReferences": {
    "716": [
      {
        "length": 32,
        "start": 5117
      }
    ],
    "719": [
      {
        "length": 32,
        "start": 5234
      },
      {
        "length": 32,
        "start": 5311
      }
    ],
    "721": [
      {
        "length": 32,
        "start": 4996
      }
    ],
    "723": [
      {
        "length": 32,
        "start": 5046
      }
    ]
  },
  "inputSourceName": "project/contracts/ens/resolvers/PublicResolver.sol",
  "buildInfoId": "solc-0_8_28-aeb323846744fb8977d48603dc2c46e305e625db"
}