{
  "_format": "hh3-artifact-1",
  "contractName": "NameWrapper",
  "sourceName": "contracts/ens/wrapper/NameWrapper.sol",
  "abi": [
    {
      "inputs": [
        {
          "internalType": "contract ENS",
          "name": "_ens",
          "type": "address"
        },
        {
          "internalType": "contract IBaseRegistrar",
          "name": "_registrar",
          "type": "address"
        },
        {
          "internalType": "contract IMetadataService",
          "name": "_metadataService",
          "type": "address"
        }
      ],
      "stateMutability": "nonpayable",
      "type": "constructor"
    },
    {
      "inputs": [],
      "name": "CannotUpgrade",
      "type": "error"
    },
    {
      "inputs": [],
      "name": "IncompatibleParent",
      "type": "error"
    },
    {
      "inputs": [
        {
          "internalType": "address",
          "name": "owner",
          "type": "address"
        }
      ],
      "name": "IncorrectTargetOwner",
      "type": "error"
    },
    {
      "inputs": [],
      "name": "IncorrectTokenType",
      "type": "error"
    },
    {
      "inputs": [
        {
          "internalType": "bytes32",
          "name": "labelHash",
          "type": "bytes32"
        },
        {
          "internalType": "bytes32",
          "name": "expectedLabelhash",
          "type": "bytes32"
        }
      ],
      "name": "LabelMismatch",
      "type": "error"
    },
    {
      "inputs": [
        {
          "internalType": "string",
          "name": "label",
          "type": "string"
        }
      ],
      "name": "LabelTooLong",
      "type": "error"
    },
    {
      "inputs": [],
      "name": "LabelTooShort",
      "type": "error"
    },
    {
      "inputs": [],
      "name": "NameIsNotWrapped",
      "type": "error"
    },
    {
      "inputs": [
        {
          "internalType": "bytes32",
          "name": "node",
          "type": "bytes32"
        }
      ],
      "name": "OperationProhibited",
      "type": "error"
    },
    {
      "inputs": [
        {
          "internalType": "address",
          "name": "owner",
          "type": "address"
        }
      ],
      "name": "OwnableInvalidOwner",
      "type": "error"
    },
    {
      "inputs": [
        {
          "internalType": "address",
          "name": "account",
          "type": "address"
        }
      ],
      "name": "OwnableUnauthorizedAccount",
      "type": "error"
    },
    {
      "inputs": [
        {
          "internalType": "bytes32",
          "name": "node",
          "type": "bytes32"
        },
        {
          "internalType": "address",
          "name": "addr",
          "type": "address"
        }
      ],
      "name": "Unauthorised",
      "type": "error"
    },
    {
      "anonymous": false,
      "inputs": [
        {
          "indexed": true,
          "internalType": "address",
          "name": "owner",
          "type": "address"
        },
        {
          "indexed": true,
          "internalType": "address",
          "name": "approved",
          "type": "address"
        },
        {
          "indexed": true,
          "internalType": "uint256",
          "name": "tokenId",
          "type": "uint256"
        }
      ],
      "name": "Approval",
      "type": "event"
    },
    {
      "anonymous": false,
      "inputs": [
        {
          "indexed": true,
          "internalType": "address",
          "name": "account",
          "type": "address"
        },
        {
          "indexed": true,
          "internalType": "address",
          "name": "operator",
          "type": "address"
        },
        {
          "indexed": false,
          "internalType": "bool",
          "name": "approved",
          "type": "bool"
        }
      ],
      "name": "ApprovalForAll",
      "type": "event"
    },
    {
      "anonymous": false,
      "inputs": [
        {
          "indexed": true,
          "internalType": "address",
          "name": "controller",
          "type": "address"
        },
        {
          "indexed": false,
          "internalType": "bool",
          "name": "active",
          "type": "bool"
        }
      ],
      "name": "ControllerChanged",
      "type": "event"
    },
    {
      "anonymous": false,
      "inputs": [
        {
          "indexed": true,
          "internalType": "bytes32",
          "name": "node",
          "type": "bytes32"
        },
        {
          "indexed": false,
          "internalType": "uint64",
          "name": "expiry",
          "type": "uint64"
        }
      ],
      "name": "ExpiryExtended",
      "type": "event"
    },
    {
      "anonymous": false,
      "inputs": [
        {
          "indexed": true,
          "internalType": "bytes32",
          "name": "node",
          "type": "bytes32"
        },
        {
          "indexed": false,
          "internalType": "uint32",
          "name": "fuses",
          "type": "uint32"
        }
      ],
      "name": "FusesSet",
      "type": "event"
    },
    {
      "anonymous": false,
      "inputs": [
        {
          "indexed": true,
          "internalType": "bytes32",
          "name": "node",
          "type": "bytes32"
        },
        {
          "indexed": false,
          "internalType": "address",
          "name": "owner",
          "type": "address"
        }
      ],
      "name": "NameUnwrapped",
      "type": "event"
    },
    {
      "anonymous": false,
      "inputs": [
        {
          "indexed": true,
          "internalType": "bytes32",
          "name": "node",
          "type": "bytes32"
        },
        {
          "indexed": false,
          "internalType": "bytes",
          "name": "name",
          "type": "bytes"
        },
        {
          "indexed": false,
          "internalType": "address",
          "name": "owner",
          "type": "address"
        },
        {
          "indexed": false,
          "internalType": "uint32",
          "name": "fuses",
          "type": "uint32"
        },
        {
          "indexed": false,
          "internalType": "uint64",
          "name": "expiry",
          "type": "uint64"
        }
      ],
      "name": "NameWrapped",
      "type": "event"
    },
    {
      "anonymous": false,
      "inputs": [
        {
          "indexed": true,
          "internalType": "address",
          "name": "previousOwner",
          "type": "address"
        },
        {
          "indexed": true,
          "internalType": "address",
          "name": "newOwner",
          "type": "address"
        }
      ],
      "name": "OwnershipTransferred",
      "type": "event"
    },
    {
      "anonymous": false,
      "inputs": [
        {
          "indexed": true,
          "internalType": "address",
          "name": "operator",
          "type": "address"
        },
        {
          "indexed": true,
          "internalType": "address",
          "name": "from",
          "type": "address"
        },
        {
          "indexed": true,
          "internalType": "address",
          "name": "to",
          "type": "address"
        },
        {
          "indexed": false,
          "internalType": "uint256[]",
          "name": "ids",
          "type": "uint256[]"
        },
        {
          "indexed": false,
          "internalType": "uint256[]",
          "name": "values",
          "type": "uint256[]"
        }
      ],
      "name": "TransferBatch",
      "type": "event"
    },
    {
      "anonymous": false,
      "inputs": [
        {
          "indexed": true,
          "internalType": "address",
          "name": "operator",
          "type": "address"
        },
        {
          "indexed": true,
          "internalType": "address",
          "name": "from",
          "type": "address"
        },
        {
          "indexed": true,
          "internalType": "address",
          "name": "to",
          "type": "address"
        },
        {
          "indexed": false,
          "internalType": "uint256",
          "name": "id",
          "type": "uint256"
        },
        {
          "indexed": false,
          "internalType": "uint256",
          "name": "value",
          "type": "uint256"
        }
      ],
      "name": "TransferSingle",
      "type": "event"
    },
    {
      "anonymous": false,
      "inputs": [
        {
          "indexed": false,
          "internalType": "string",
          "name": "value",
          "type": "string"
        },
        {
          "indexed": true,
          "internalType": "uint256",
          "name": "id",
          "type": "uint256"
        }
      ],
      "name": "URI",
      "type": "event"
    },
    {
      "inputs": [
        {
          "internalType": "uint256",
          "name": "",
          "type": "uint256"
        }
      ],
      "name": "_tokens",
      "outputs": [
        {
          "internalType": "uint256",
          "name": "",
          "type": "uint256"
        }
      ],
      "stateMutability": "view",
      "type": "function"
    },
    {
      "inputs": [
        {
          "internalType": "bytes32",
          "name": "node",
          "type": "bytes32"
        },
        {
          "internalType": "uint32",
          "name": "fuseMask",
          "type": "uint32"
        }
      ],
      "name": "allFusesBurned",
      "outputs": [
        {
          "internalType": "bool",
          "name": "",
          "type": "bool"
        }
      ],
      "stateMutability": "view",
      "type": "function"
    },
    {
      "inputs": [
        {
          "internalType": "address",
          "name": "to",
          "type": "address"
        },
        {
          "internalType": "uint256",
          "name": "tokenId",
          "type": "uint256"
        }
      ],
      "name": "approve",
      "outputs": [],
      "stateMutability": "nonpayable",
      "type": "function"
    },
    {
      "inputs": [
        {
          "internalType": "address",
          "name": "account",
          "type": "address"
        },
        {
          "internalType": "uint256",
          "name": "id",
          "type": "uint256"
        }
      ],
      "name": "balanceOf",
      "outputs": [
        {
          "internalType": "uint256",
          "name": "",
          "type": "uint256"
        }
      ],
      "stateMutability": "view",
      "type": "function"
    },
    {
      "inputs": [
        {
          "internalType": "address[]",
          "name": "accounts",
          "type": "address[]"
        },
        {
          "internalType": "uint256[]",
          "name": "ids",
          "type": "uint256[]"
        }
      ],
      "name": "balanceOfBatch",
      "outputs": [
        {
          "internalType": "uint256[]",
          "name": "",
          "type": "uint256[]"
        }
      ],
      "stateMutability": "view",
      "type": "function"
    },
    {
      "inputs": [
        {
          "internalType": "bytes32",
          "name": "node",
          "type": "bytes32"
        },
        {
          "internalType": "address",
          "name": "addr",
          "type": "address"
        }
      ],
      "name": "canExtendSubnames",
      "outputs": [
        {
          "internalType": "bool",
          "name": "",
          "type": "bool"
        }
      ],
      "stateMutability": "view",
      "type": "function"
    },
    {
      "inputs": [
        {
          "internalType": "bytes32",
          "name": "node",
          "type": "bytes32"
        },
        {
          "internalType": "address",
          "name": "addr",
          "type": "address"
        }
      ],
      "name": "canModifyName",
      "outputs": [
        {
          "internalType": "bool",
          "name": "",
          "type": "bool"
        }
      ],
      "stateMutability": "view",
      "type": "function"
    },
    {
      "inputs": [
        {
          "internalType": "address",
          "name": "",
          "type": "address"
        }
      ],
      "name": "controllers",
      "outputs": [
        {
          "internalType": "bool",
          "name": "",
          "type": "bool"
        }
      ],
      "stateMutability": "view",
      "type": "function"
    },
    {
      "inputs": [],
      "name": "ens",
      "outputs": [
        {
          "internalType": "contract ENS",
          "name": "",
          "type": "address"
        }
      ],
      "stateMutability": "view",
      "type": "function"
    },
    {
      "inputs": [
        {
          "internalType": "bytes32",
          "name": "parentNode",
          "type": "bytes32"
        },
        {
          "internalType": "bytes32",
          "name": "labelhash",
          "type": "bytes32"
        },
        {
          "internalType": "uint64",
          "name": "expiry",
          "type": "uint64"
        }
      ],
      "name": "extendExpiry",
      "outputs": [
        {
          "internalType": "uint64",
          "name": "",
          "type": "uint64"
        }
      ],
      "stateMutability": "nonpayable",
      "type": "function"
    },
    {
      "inputs": [
        {
          "internalType": "uint256",
          "name": "id",
          "type": "uint256"
        }
      ],
      "name": "getApproved",
      "outputs": [
        {
          "internalType": "address",
          "name": "operator",
          "type": "address"
        }
      ],
      "stateMutability": "view",
      "type": "function"
    },
    {
      "inputs": [
        {
          "internalType": "uint256",
          "name": "id",
          "type": "uint256"
        }
      ],
      "name": "getData",
      "outputs": [
        {
          "internalType": "address",
          "name": "owner",
          "type": "address"
        },
        {
          "internalType": "uint32",
          "name": "fuses",
          "type": "uint32"
        },
        {
          "internalType": "uint64",
          "name": "expiry",
          "type": "uint64"
        }
      ],
      "stateMutability": "view",
      "type": "function"
    },
    {
      "inputs": [
        {
          "internalType": "address",
          "name": "account",
          "type": "address"
        },
        {
          "internalType": "address",
          "name": "operator",
          "type": "address"
        }
      ],
      "name": "isApprovedForAll",
      "outputs": [
        {
          "internalType": "bool",
          "name": "",
          "type": "bool"
        }
      ],
      "stateMutability": "view",
      "type": "function"
    },
    {
      "inputs": [
        {
          "internalType": "bytes32",
          "name": "parentNode",
          "type": "bytes32"
        },
        {
          "internalType": "bytes32",
          "name": "labelhash",
          "type": "bytes32"
        }
      ],
      "name": "isWrapped",
      "outputs": [
        {
          "internalType": "bool",
          "name": "",
          "type": "bool"
        }
      ],
      "stateMutability": "view",
      "type": "function"
    },
    {
      "inputs": [
        {
          "internalType": "bytes32",
          "name": "node",
          "type": "bytes32"
        }
      ],
      "name": "isWrapped",
      "outputs": [
        {
          "internalType": "bool",
          "name": "",
          "type": "bool"
        }
      ],
      "stateMutability": "view",
      "type": "function"
    },
    {
      "inputs": [],
      "name": "metadataService",
      "outputs": [
        {
          "internalType": "contract IMetadataService",
          "name": "",
          "type": "address"
        }
      ],
      "stateMutability": "view",
      "type": "function"
    },
    {
      "inputs": [],
      "name": "name",
      "outputs": [
        {
          "internalType": "string",
          "name": "",
          "type": "string"
        }
      ],
      "stateMutability": "view",
      "type": "function"
    },
    {
      "inputs": [
        {
          "internalType": "bytes32",
          "name": "",
          "type": "bytes32"
        }
      ],
      "name": "names",
      "outputs": [
        {
          "internalType": "bytes",
          "name": "",
          "type": "bytes"
        }
      ],
      "stateMutability": "view",
      "type": "function"
    },
    {
      "inputs": [
        {
          "internalType": "address",
          "name": "to",
          "type": "address"
        },
        {
          "internalType": "address",
          "name": "",
          "type": "address"
        },
        {
          "internalType": "uint256",
          "name": "tokenId",
          "type": "uint256"
        },
        {
          "internalType": "bytes",
          "name": "data",
          "type": "bytes"
        }
      ],
      "name": "onERC721Received",
      "outputs": [
        {
          "internalType": "bytes4",
          "name": "",
          "type": "bytes4"
        }
      ],
      "stateMutability": "nonpayable",
      "type": "function"
    },
    {
      "inputs": [],
      "name": "owner",
      "outputs": [
        {
          "internalType": "address",
          "name": "",
          "type": "address"
        }
      ],
      "stateMutability": "view",
      "type": "function"
    },
    {
      "inputs": [
        {
          "internalType": "uint256",
          "name": "id",
          "type": "uint256"
        }
      ],
      "name": "ownerOf",
      "outputs": [
        {
          "internalType": "address",
          "name": "owner",
          "type": "address"
        }
      ],
      "stateMutability": "view",
      "type": "function"
    },
    {
      "inputs": [
        {
          "internalType": "address",
          "name": "_token",
          "type": "address"
        },
        {
          "internalType": "address",
          "name": "_to",
          "type": "address"
        },
        {
          "internalType": "uint256",
          "name": "_amount",
          "type": "uint256"
        }
      ],
      "name": "recoverFunds",
      "outputs": [],
      "stateMutability": "nonpayable",
      "type": "function"
    },
    {
      "inputs": [
        {
          "internalType": "string",
          "name": "label",
          "type": "string"
        },
        {
          "internalType": "address",
          "name": "wrappedOwner",
          "type": "address"
        },
        {
          "internalType": "uint256",
          "name": "duration",
          "type": "uint256"
        },
        {
          "internalType": "address",
          "name": "resolver",
          "type": "address"
        },
        {
          "internalType": "uint16",
          "name": "ownerControlledFuses",
          "type": "uint16"
        }
      ],
      "name": "registerAndWrapETH2LD",
      "outputs": [
        {
          "internalType": "uint256",
          "name": "registrarExpiry",
          "type": "uint256"
        }
      ],
      "stateMutability": "nonpayable",
      "type": "function"
    },
    {
      "inputs": [],
      "name": "registrar",
      "outputs": [
        {
          "internalType": "contract IBaseRegistrar",
          "name": "",
          "type": "address"
        }
      ],
      "stateMutability": "view",
      "type": "function"
    },
    {
      "inputs": [
        {
          "internalType": "uint256",
          "name": "tokenId",
          "type": "uint256"
        },
        {
          "internalType": "uint256",
          "name": "duration",
          "type": "uint256"
        }
      ],
      "name": "renew",
      "outputs": [
        {
          "internalType": "uint256",
          "name": "expires",
          "type": "uint256"
        }
      ],
      "stateMutability": "nonpayable",
      "type": "function"
    },
    {
      "inputs": [],
      "name": "renounceOwnership",
      "outputs": [],
      "stateMutability": "nonpayable",
      "type": "function"
    },
    {
      "inputs": [
        {
          "internalType": "address",
          "name": "from",
          "type": "address"
        },
        {
          "internalType": "address",
          "name": "to",
          "type": "address"
        },
        {
          "internalType": "uint256[]",
          "name": "ids",
          "type": "uint256[]"
        },
        {
          "internalType": "uint256[]",
          "name": "amounts",
          "type": "uint256[]"
        },
        {
          "internalType": "bytes",
          "name": "data",
          "type": "bytes"
        }
      ],
      "name": "safeBatchTransferFrom",
      "outputs": [],
      "stateMutability": "nonpayable",
      "type": "function"
    },
    {
      "inputs": [
        {
          "internalType": "address",
          "name": "from",
          "type": "address"
        },
        {
          "internalType": "address",
          "name": "to",
          "type": "address"
        },
        {
          "internalType": "uint256",
          "name": "id",
          "type": "uint256"
        },
        {
          "internalType": "uint256",
          "name": "amount",
          "type": "uint256"
        },
        {
          "internalType": "bytes",
          "name": "data",
          "type": "bytes"
        }
      ],
      "name": "safeTransferFrom",
      "outputs": [],
      "stateMutability": "nonpayable",
      "type": "function"
    },
    {
      "inputs": [
        {
          "internalType": "address",
          "name": "operator",
          "type": "address"
        },
        {
          "internalType": "bool",
          "name": "approved",
          "type": "bool"
        }
      ],
      "name": "setApprovalForAll",
      "outputs": [],
      "stateMutability": "nonpayable",
      "type": "function"
    },
    {
      "inputs": [
        {
          "internalType": "bytes32",
          "name": "parentNode",
          "type": "bytes32"
        },
        {
          "internalType": "bytes32",
          "name": "labelhash",
          "type": "bytes32"
        },
        {
          "internalType": "uint32",
          "name": "fuses",
          "type": "uint32"
        },
        {
          "internalType": "uint64",
          "name": "expiry",
          "type": "uint64"
        }
      ],
      "name": "setChildFuses",
      "outputs": [],
      "stateMutability": "nonpayable",
      "type": "function"
    },
    {
      "inputs": [
        {
          "internalType": "address",
          "name": "controller",
          "type": "address"
        },
        {
          "internalType": "bool",
          "name": "active",
          "type": "bool"
        }
      ],
      "name": "setController",
      "outputs": [],
      "stateMutability": "nonpayable",
      "type": "function"
    },
    {
      "inputs": [
        {
          "internalType": "bytes32",
          "name": "node",
          "type": "bytes32"
        },
        {
          "internalType": "uint16",
          "name": "ownerControlledFuses",
          "type": "uint16"
        }
      ],
      "name": "setFuses",
      "outputs": [
        {
          "internalType": "uint32",
          "name": "",
          "type": "uint32"
        }
      ],
      "stateMutability": "nonpayable",
      "type": "function"
    },
    {
      "inputs": [
        {
          "internalType": "contract IMetadataService",
          "name": "_metadataService",
          "type": "address"
        }
      ],
      "name": "setMetadataService",
      "outputs": [],
      "stateMutability": "nonpayable",
      "type": "function"
    },
    {
      "inputs": [
        {
          "internalType": "bytes32",
          "name": "node",
          "type": "bytes32"
        },
        {
          "internalType": "address",
          "name": "owner",
          "type": "address"
        },
        {
          "internalType": "address",
          "name": "resolver",
          "type": "address"
        },
        {
          "internalType": "uint64",
          "name": "ttl",
          "type": "uint64"
        }
      ],
      "name": "setRecord",
      "outputs": [],
      "stateMutability": "nonpayable",
      "type": "function"
    },
    {
      "inputs": [
        {
          "internalType": "bytes32",
          "name": "node",
          "type": "bytes32"
        },
        {
          "internalType": "address",
          "name": "resolver",
          "type": "address"
        }
      ],
      "name": "setResolver",
      "outputs": [],
      "stateMutability": "nonpayable",
      "type": "function"
    },
    {
      "inputs": [
        {
          "internalType": "bytes32",
          "name": "parentNode",
          "type": "bytes32"
        },
        {
          "internalType": "string",
          "name": "label",
          "type": "string"
        },
        {
          "internalType": "address",
          "name": "owner",
          "type": "address"
        },
        {
          "internalType": "uint32",
          "name": "fuses",
          "type": "uint32"
        },
        {
          "internalType": "uint64",
          "name": "expiry",
          "type": "uint64"
        }
      ],
      "name": "setSubnodeOwner",
      "outputs": [
        {
          "internalType": "bytes32",
          "name": "node",
          "type": "bytes32"
        }
      ],
      "stateMutability": "nonpayable",
      "type": "function"
    },
    {
      "inputs": [
        {
          "internalType": "bytes32",
          "name": "parentNode",
          "type": "bytes32"
        },
        {
          "internalType": "string",
          "name": "label",
          "type": "string"
        },
        {
          "internalType": "address",
          "name": "owner",
          "type": "address"
        },
        {
          "internalType": "address",
          "name": "resolver",
          "type": "address"
        },
        {
          "internalType": "uint64",
          "name": "ttl",
          "type": "uint64"
        },
        {
          "internalType": "uint32",
          "name": "fuses",
          "type": "uint32"
        },
        {
          "internalType": "uint64",
          "name": "expiry",
          "type": "uint64"
        }
      ],
      "name": "setSubnodeRecord",
      "outputs": [
        {
          "internalType": "bytes32",
          "name": "node",
          "type": "bytes32"
        }
      ],
      "stateMutability": "nonpayable",
      "type": "function"
    },
    {
      "inputs": [
        {
          "internalType": "bytes32",
          "name": "node",
          "type": "bytes32"
        },
        {
          "internalType": "uint64",
          "name": "ttl",
          "type": "uint64"
        }
      ],
      "name": "setTTL",
      "outputs": [],
      "stateMutability": "nonpayable",
      "type": "function"
    },
    {
      "inputs": [
        {
          "internalType": "contract INameWrapperUpgrade",
          "name": "_upgradeAddress",
          "type": "address"
        }
      ],
      "name": "setUpgradeContract",
      "outputs": [],
      "stateMutability": "nonpayable",
      "type": "function"
    },
    {
      "inputs": [
        {
          "internalType": "bytes4",
          "name": "interfaceId",
          "type": "bytes4"
        }
      ],
      "name": "supportsInterface",
      "outputs": [
        {
          "internalType": "bool",
          "name": "",
          "type": "bool"
        }
      ],
      "stateMutability": "view",
      "type": "function"
    },
    {
      "inputs": [
        {
          "internalType": "address",
          "name": "newOwner",
          "type": "address"
        }
      ],
      "name": "transferOwnership",
      "outputs": [],
      "stateMutability": "nonpayable",
      "type": "function"
    },
    {
      "inputs": [
        {
          "internalType": "bytes32",
          "name": "parentNode",
          "type": "bytes32"
        },
        {
          "internalType": "bytes32",
          "name": "labelhash",
          "type": "bytes32"
        },
        {
          "internalType": "address",
          "name": "controller",
          "type": "address"
        }
      ],
      "name": "unwrap",
      "outputs": [],
      "stateMutability": "nonpayable",
      "type": "function"
    },
    {
      "inputs": [
        {
          "internalType": "bytes32",
          "name": "labelhash",
          "type": "bytes32"
        },
        {
          "internalType": "address",
          "name": "registrant",
          "type": "address"
        },
        {
          "internalType": "address",
          "name": "controller",
          "type": "address"
        }
      ],
      "name": "unwrapETH2LD",
      "outputs": [],
      "stateMutability": "nonpayable",
      "type": "function"
    },
    {
      "inputs": [
        {
          "internalType": "bytes",
          "name": "name",
          "type": "bytes"
        },
        {
          "internalType": "bytes",
          "name": "extraData",
          "type": "bytes"
        }
      ],
      "name": "upgrade",
      "outputs": [],
      "stateMutability": "nonpayable",
      "type": "function"
    },
    {
      "inputs": [],
      "name": "upgradeContract",
      "outputs": [
        {
          "internalType": "contract INameWrapperUpgrade",
          "name": "",
          "type": "address"
        }
      ],
      "stateMutability": "view",
      "type": "function"
    },
    {
      "inputs": [
        {
          "internalType": "uint256",
          "name": "tokenId",
          "type": "uint256"
        }
      ],
      "name": "uri",
      "outputs": [
        {
          "internalType": "string",
          "name": "",
          "type": "string"
        }
      ],
      "stateMutability": "view",
      "type": "function"
    },
    {
      "inputs": [
        {
          "internalType": "bytes",
          "name": "name",
          "type": "bytes"
        },
        {
          "internalType": "address",
          "name": "wrappedOwner",
          "type": "address"
        },
        {
          "internalType": "address",
          "name": "resolver",
          "type": "address"
        }
      ],
      "name": "wrap",
      "outputs": [],
      "stateMutability": "nonpayable",
      "type": "function"
    },
    {
      "inputs": [
        {
          "internalType": "string",
          "name": "label",
          "type": "string"
        },
        {
          "internalType": "address",
          "name": "wrappedOwner",
          "type": "address"
        },
        {
          "internalType": "uint16",
          "name": "ownerControlledFuses",
          "type": "uint16"
        },
        {
          "internalType": "address",
          "name": "resolver",
          "type": "address"
        }
      ],
      "name": "wrapETH2LD",
      "outputs": [
        {
          "internalType": "uint64",
          "name": "expiry",
          "type": "uint64"
        }
      ],
      "stateMutability": "nonpayable",
      "type": "function"
    }
  ],
  "bytecode": "0x60c060405234801561000f575f5ffd5b5060405161597b38038061597b83398101604081905261002e91610205565b338061005357604051631e4fbdf760e01b81525f600482015260240160405180910390fd5b61005c8161019f565b506001600160a01b0383811660805282811660a052600580546001600160a01b031916918316919091179055600163fffeffff60a01b03197fafa26c20e8b3d9a2853d642cfe1021dae26242ffedfac91c97aab212c1a4b93b8190557fa6eef7e35abe7026729641147f7915573c7e97b47efa546f5f6e3230263bcb495560408051808201909152600181525f6020808301829052908052600690527f54cdd369e4e8a8515e52ca72ec816c2101831ad1f18bf44102ed171459c9b4f89061012490826102e7565b506040805180820190915260058152626cae8d60e31b6020808301919091527f93cdeb708b7545dc668eb9280176169d1c33cfd8ed6f04690a0bcc88a93fc4ae5f52600690527ffb9e8e321b8a5ec48f12a7b41f22c6e595d761285c9eb19d8dda7c99edf1b54f9061019690826102e7565b505050506103a1565b5f80546001600160a01b038381166001600160a01b0319831681178455604051919092169283917f8be0079c531659141344cd1fd0a4f28419497f9722a3daafe3b4186f6b6457e09190a35050565b6001600160a01b0381168114610202575f5ffd5b50565b5f5f5f60608486031215610217575f5ffd5b8351610222816101ee565b6020850151909350610233816101ee565b6040850151909250610244816101ee565b809150509250925092565b634e487b7160e01b5f52604160045260245ffd5b600181811c9082168061027757607f821691505b60208210810361029557634e487b7160e01b5f52602260045260245ffd5b50919050565b601f8211156102e257805f5260205f20601f840160051c810160208510156102c05750805b601f840160051c820191505b818110156102df575f81556001016102cc565b50505b505050565b81516001600160401b038111156103005761030061024f565b6103148161030e8454610263565b8461029b565b6020601f821160018114610346575f831561032f5750848201515b5f19600385901b1c1916600184901b1784556102df565b5f84815260208120601f198516915b828110156103755787850151825560209485019460019092019101610355565b508482101561039257868401515f19600387901b60f8161c191681555b50505050600190811b01905550565b60805160a0516154d26104a95f395f818161046901528181610acc01528181610b6e01528181610bf701528181611863015281816118f20152818161199e01528181611a6d01528181611ad901528181611b5901528181611d6701528181611e9d01528181611fc40152818161210e0152818161219101526128aa01525f81816104b601528181610a5801528181610d3e01528181610ec901528181610f750152818161127501528181611f1c015281816120440152818161223c015281816123e6015281816126a701528181612ad801528181612b8401528181612c3701528181612cb30152818161316b01528181613289015281816134e40152613a7b01526154d25ff3fe608060405234801561000f575f5ffd5b5060043610610296575f3560e01c80636352211e11610161578063c93ab3fd116100ca578063e985e9c511610084578063e985e9c5146106c8578063eb8ae530146106db578063ed70554d146106ee578063f242432a1461070d578063f2fde38b14610720578063fd0cd0d914610733575f5ffd5b8063c93ab3fd14610647578063cf4088231461065a578063d8c9921a1461066d578063d9a50c1214610680578063da8c229e14610693578063e0dba60f146106b5575f5ffd5b8063a22cb4651161011b578063a22cb465146105d5578063a4014982146105e8578063adf4960a146105fb578063b6bcad261461060e578063c475abff14610621578063c658e08614610634575f5ffd5b80636352211e146105595780636e5d6ad21461056c578063715018a6146105975780638b4dfa751461059f5780638cf8b41e146105b25780638da5cb5b146105c5575f5ffd5b80631f4e1504116102035780633f15457f116101bd5780633f15457f146104b1578063402906fc146104d857806341415eab146105005780634e1273f41461051357806353095467146105335780635d3590d514610546575f5ffd5b80631f4e15041461042b57806320c38e2b1461043e57806324c1af44146104515780632b20e397146104645780632eb2c2d61461048b57806333c69ea91461049e575f5ffd5b80630e4cd725116102545780630e4cd725146103a05780630e89341c146103b357806314ab9038146103c6578063150b7a02146103d95780631534e177146104055780631896f70a14610418575f5ffd5b8062fdd58e1461029a5780630178fe3f146102c057806301ffc9a71461030657806306fdde0314610329578063081812fc14610360578063095ea7b31461038b575b5f5ffd5b6102ad6102a83660046142ad565b610746565b6040519081526020015b60405180910390f35b6102d36102ce3660046142d7565b6107f0565b604080516001600160a01b03909416845263ffffffff90921660208401526001600160401b0316908201526060016102b7565b610319610314366004614303565b61081f565b60405190151581526020016102b7565b6103536040518060400160405280600b81526020016a2730b6b2abb930b83832b960a91b81525081565b6040516102b7919061434c565b61037361036e3660046142d7565b61085e565b6040516001600160a01b0390911681526020016102b7565b61039e6103993660046142ad565b6108a0565b005b6103196103ae36600461435e565b6108e5565b6103536103c13660046142d7565b61095e565b61039e6103d43660046143a7565b6109cc565b6103ec6103e7366004614415565b610ac0565b6040516001600160e01b031990911681526020016102b7565b61039e610413366004614482565b610c96565b61039e61042636600461435e565b610cc0565b600754610373906001600160a01b031681565b61035361044c3660046142d7565b610d75565b6102ad61045f366004614573565b610e0c565b6103737f000000000000000000000000000000000000000000000000000000000000000081565b61039e61049936600461469d565b610fe7565b61039e6104ac36600461474d565b61121a565b6103737f000000000000000000000000000000000000000000000000000000000000000081565b6104eb6104e63660046147a1565b6113e6565b60405163ffffffff90911681526020016102b7565b61031961050e36600461435e565b611480565b6105266105213660046147c2565b6114b8565b6040516102b791906148c1565b600554610373906001600160a01b031681565b61039e6105543660046148d3565b6115d7565b6103736105673660046142d7565b611655565b61057f61057a366004614911565b61165f565b6040516001600160401b0390911681526020016102b7565b61039e61178e565b61039e6105ad366004614943565b6117a1565b61057f6105c0366004614982565b6118c0565b5f546001600160a01b0316610373565b61039e6105e3366004614a04565b611c28565b6102ad6105f6366004614a30565b611cfd565b610319610609366004614aab565b611e38565b61039e61061c366004614482565b611e5c565b6102ad61062f366004614acc565b61209e565b6102ad610642366004614aec565b6122fd565b61039e610655366004614b59565b6124bd565b61039e610668366004614bc3565b612605565b61039e61067b366004614bf8565b612794565b61031961068e366004614acc565b61285d565b6103196106a1366004614482565b60046020525f908152604090205460ff1681565b61039e6106c3366004614a04565b612938565b6103196106d6366004614c23565b61299f565b61039e6106e9366004614c4f565b6129cc565b6102ad6106fc3660046142d7565b60016020525f908152604090205481565b61039e61071b366004614cb2565b612d59565b61039e61072e366004614482565b612e06565b6103196107413660046142d7565b612e40565b5f6001600160a01b0383166107b65760405162461bcd60e51b815260206004820152602b60248201527f455243313135353a2062616c616e636520717565727920666f7220746865207a60448201526a65726f206164647265737360a81b60648201526084015b60405180910390fd5b5f6107c083611655565b9050836001600160a01b0316816001600160a01b0316036107e55760019150506107ea565b5f9150505b92915050565b5f8181526001602052604090205460a081901c60c082901c610813838383612f11565b90959094509092509050565b5f6001600160e01b03198216631b05885b60e31b148061084f57506001600160e01b03198216630a85bd0160e11b145b806107ea57506107ea82612f44565b5f5f61086983611655565b90506001600160a01b03811661088157505f92915050565b5f838152600360205260409020546001600160a01b03165b9392505050565b5f6108aa826107f0565b50915050603f1960408216016108d65760405163a2a7201360e01b8152600481018390526024016107ad565b6108e08383612f93565b505050565b5f8080806108f2866107f0565b925092509250846001600160a01b0316836001600160a01b0316148061091d575061091d838661299f565b8061094157506001600160a01b0385166109368761085e565b6001600160a01b0316145b8015610954575061095282826130a2565b155b9695505050505050565b6005546040516303a24d0760e21b8152600481018390526060916001600160a01b031690630e89341c906024015f60405180830381865afa1580156109a5573d5f5f3e3d5ffd5b505050506040513d5f823e601f3d908101601f191682016040526107ea9190810190614d09565b816109d78133611480565b6109f857803360405163168ab55d60e31b81526004016107ad929190614d88565b8260105f610a05836107f0565b5091505063ffffffff8282161615610a335760405163a2a7201360e01b8152600481018490526024016107ad565b604051630295720760e31b8152600481018790526001600160401b03861660248201527f00000000000000000000000000000000000000000000000000000000000000006001600160a01b0316906314ab9038906044015b5f604051808303815f87803b158015610aa2575f5ffd5b505af1158015610ab4573d5f5f3e3d5ffd5b50505050505050505050565b5f336001600160a01b037f00000000000000000000000000000000000000000000000000000000000000001614610b0a5760405163032634a760e31b815260040160405180910390fd5b5f808080610b1a86880188614d9f565b83516020850120939750919550935091508890808214610b57576040516331970f3360e21b815260048101829052602481018390526044016107ad565b604051630a3b53db60e21b81526001600160a01b037f000000000000000000000000000000000000000000000000000000000000000016906328ed4f6c90610ba59085903090600401614d88565b5f604051808303815f87803b158015610bbc575f5ffd5b505af1158015610bce573d5f5f3e3d5ffd5b5050604051636b727d4360e11b8152600481018d90525f92506276a70091506001600160a01b037f0000000000000000000000000000000000000000000000000000000000000000169063d6e4fa8690602401602060405180830381865afa158015610c3c573d5f5f3e3d5ffd5b505050506040513d601f19601f82011682018060405250810190610c609190614e02565b610c6a9190614e2d565b9050610c7d87878761ffff1684886130d1565b50630a85bd0160e11b9c9b505050505050505050505050565b610c9e6131d9565b600580546001600160a01b0319166001600160a01b0392909216919091179055565b81610ccb8133611480565b610cec57803360405163168ab55d60e31b81526004016107ad929190614d88565b8260085f610cf9836107f0565b5091505063ffffffff8282161615610d275760405163a2a7201360e01b8152600481018490526024016107ad565b604051630c4b7b8560e11b81526001600160a01b037f00000000000000000000000000000000000000000000000000000000000000001690631896f70a90610a8b9089908990600401614d88565b60066020525f908152604090208054610d8d90614e4c565b80601f0160208091040260200160405190810160405280929190818152602001828054610db990614e4c565b8015610e045780601f10610ddb57610100808354040283529160200191610e04565b820191905f5260205f20905b815481529060010190602001808311610de757829003601f168201915b505050505081565b5f87610e188133611480565b610e3957803360405163168ab55d60e31b81526004016107ad929190614d88565b87516020890120610e4a8a82613205565b9250610e568a84613231565b610e60838661336a565b610e6b8a848b61339d565b50610e788a848787613464565b9350610e83836134a7565b610f33576040516305ef2c7f60e41b8152600481018b9052602481018290523060448201526001600160a01b0388811660648301526001600160401b03881660848301527f00000000000000000000000000000000000000000000000000000000000000001690635ef2c7f09060a4015f604051808303815f87803b158015610f0a575f5ffd5b505af1158015610f1c573d5f5f3e3d5ffd5b50505050610f2e8a848b8b898961355d565b610fda565b6040516305ef2c7f60e41b8152600481018b9052602481018290523060448201526001600160a01b0388811660648301526001600160401b03881660848301527f00000000000000000000000000000000000000000000000000000000000000001690635ef2c7f09060a4015f604051808303815f87803b158015610fb6575f5ffd5b505af1158015610fc8573d5f5f3e3d5ffd5b50505050610fda8a848b8b8989613593565b5050979650505050505050565b81518351146110495760405162461bcd60e51b815260206004820152602860248201527f455243313135353a2069647320616e6420616d6f756e7473206c656e677468206044820152670dad2e6dac2e8c6d60c31b60648201526084016107ad565b6001600160a01b03841661106f5760405162461bcd60e51b81526004016107ad90614e84565b6001600160a01b03851633148061108b575061108b853361299f565b6110f25760405162461bcd60e51b815260206004820152603260248201527f455243313135353a207472616e736665722063616c6c6572206973206e6f74206044820152711bdddb995c881b9bdc88185c1c1c9bdd995960721b60648201526084016107ad565b5f5b83518110156111ad575f84828151811061111057611110614ec9565b602002602001015190505f84838151811061112d5761112d614ec9565b602002602001015190505f5f5f611143856107f0565b92509250925061115485838361364d565b83600114801561117557508a6001600160a01b0316836001600160a01b0316145b6111915760405162461bcd60e51b81526004016107ad90614edd565b61119d858b84846136f4565b50505050508060010190506110f4565b50836001600160a01b0316856001600160a01b0316336001600160a01b03167f4a39dc06d4c0dbc64b70af90fd698a233a518aa5d07e595d983b8c0526c8f7fb86866040516111fd929190614f27565b60405180910390a4611213338686868686613734565b5050505050565b5f6112258585613205565b9050611231818461336a565b5f808061123d846107f0565b919450925090506001600160a01b03831615806112ea57506040516302571be360e01b81526004810185905230906001600160a01b037f000000000000000000000000000000000000000000000000000000000000000016906302571be390602401602060405180830381865afa1580156112ba573d5f5f3e3d5ffd5b505050506040513d601f19601f820116820180604052508101906112de9190614f54565b6001600160a01b031614155b1561130857604051635374b59960e01b815260040160405180910390fd5b5f806113138a6107f0565b90935091508a905061134f576113298633611480565b61134a57853360405163168ab55d60e31b81526004016107ad929190614d88565b61137a565b6113598a33611480565b61137a57893360405163168ab55d60e31b81526004016107ad929190614d88565b61138586898461388e565b6113908784836138c9565b9650620100008416158015906113b457508363ffffffff1688851763ffffffff1614155b156113d55760405163a2a7201360e01b8152600481018790526024016107ad565b96831796610ab486868a868b61390e565b5f826113f28133611480565b61141357803360405163168ab55d60e31b81526004016107ad929190614d88565b8360025f611420836107f0565b5091505063ffffffff828216161561144e5760405163a2a7201360e01b8152600481018490526024016107ad565b5f808061145a8a6107f0565b9250925092506114738a84848c61ffff1617848561390e565b5098975050505050505050565b5f80808061148d866107f0565b925092509250846001600160a01b0316836001600160a01b031614806109415750610941838661299f565b6060815183511461151d5760405162461bcd60e51b815260206004820152602960248201527f455243313135353a206163636f756e747320616e6420696473206c656e677468604482015268040dad2e6dac2e8c6d60bb1b60648201526084016107ad565b5f83516001600160401b038111156115375761153761449d565b604051908082528060200260200182016040528015611560578160200160208202803683370190505b5090505f5b84518110156115cf576115aa85828151811061158357611583614ec9565b602002602001015185838151811061159d5761159d614ec9565b6020026020010151610746565b8282815181106115bc576115bc614ec9565b6020908102919091010152600101611565565b509392505050565b6115df6131d9565b60405163a9059cbb60e01b81526001600160a01b0383811660048301526024820183905284169063a9059cbb906044016020604051808303815f875af115801561162b573d5f5f3e3d5ffd5b505050506040513d601f19601f8201168201806040525081019061164f9190614f6f565b50505050565b5f6107ea826139b5565b5f5f61166b8585613205565b9050611676816134a7565b61169357604051635374b59960e01b815260040160405180910390fd5b5f61169e86336108e5565b9050801580156116b557506116b38233611480565b155b156116d757813360405163168ab55d60e31b81526004016107ad929190614d88565b5f80806116e3856107f0565b925092509250831580156116fa5750620400008216155b1561171b5760405163a2a7201360e01b8152600481018690526024016107ad565b5f6117258a6107f0565b925050506117348883836138c9565b97506117428685858b6139ca565b6040516001600160401b038916815286907ff675815a0817338f93a7da433f6bd5f5542f1029b11b455191ac96c7f6a9b1329060200160405180910390a2509598975050505050505050565b6117966131d9565b61179f5f6139e0565b565b6117b85f51602061547d5f395f51905f5284613205565b6117c28133611480565b6117e357803360405163168ab55d60e31b81526004016107ad929190614d88565b306001600160a01b0384160361181757604051632ca49b0d60e11b81526001600160a01b03841660048201526024016107ad565b6118376118315f51602061547d5f395f51905f5286613205565b83613a2f565b604051632142170760e11b81523060048201526001600160a01b038481166024830152604482018690527f000000000000000000000000000000000000000000000000000000000000000016906342842e0e906064015f604051808303815f87803b1580156118a4575f5ffd5b505af11580156118b6573d5f5f3e3d5ffd5b5050505050505050565b5f5f86866040516118d2929190614f8a565b6040519081900381206331a9108f60e11b82526004820181905291505f907f00000000000000000000000000000000000000000000000000000000000000006001600160a01b031690636352211e90602401602060405180830381865afa15801561193f573d5f5f3e3d5ffd5b505050506040513d601f19601f820116820180604052508101906119639190614f54565b90506001600160a01b0381163314801590611a09575060405163e985e9c560e01b81526001600160a01b0382811660048301523360248301527f0000000000000000000000000000000000000000000000000000000000000000169063e985e9c590604401602060405180830381865afa1580156119e3573d5f5f3e3d5ffd5b505050506040513d601f19601f82011682018060405250810190611a079190614f6f565b155b15611a4157611a255f51602061547d5f395f51905f5283613205565b3360405163168ab55d60e31b81526004016107ad929190614d88565b6040516323b872dd60e01b81526001600160a01b038281166004830152306024830152604482018490527f000000000000000000000000000000000000000000000000000000000000000016906323b872dd906064015f604051808303815f87803b158015611aae575f5ffd5b505af1158015611ac0573d5f5f3e3d5ffd5b5050604051630a3b53db60e21b81526001600160a01b037f00000000000000000000000000000000000000000000000000000000000000001692506328ed4f6c9150611b129085903090600401614d88565b5f604051808303815f87803b158015611b29575f5ffd5b505af1158015611b3b573d5f5f3e3d5ffd5b5050604051636b727d4360e11b8152600481018590526276a70092507f00000000000000000000000000000000000000000000000000000000000000006001600160a01b0316915063d6e4fa8690602401602060405180830381865afa158015611ba7573d5f5f3e3d5ffd5b505050506040513d601f19601f82011682018060405250810190611bcb9190614e02565b611bd59190614e2d565b9250611c1d88888080601f0160208091040260200160405190810160405280939291908181526020018383808284375f920191909152508a9250505061ffff881686886130d1565b505095945050505050565b6001600160a01b0382163303611c925760405162461bcd60e51b815260206004820152602960248201527f455243313135353a2073657474696e6720617070726f76616c20737461747573604482015268103337b91039b2b63360b91b60648201526084016107ad565b335f8181526002602090815260408083206001600160a01b03871680855290835292819020805460ff191686151590811790915590519081529192917f17307eab39ab6107e8899845ad3d59bd9653f200f220920489ca2b5937696c31910160405180910390a35050565b335f9081526004602052604081205460ff16611d2b5760405162461bcd60e51b81526004016107ad90614f99565b5f8787604051611d3c929190614f8a565b604051908190038120633f2891eb60e21b8252600482018190523060248301526044820187905291507f00000000000000000000000000000000000000000000000000000000000000006001600160a01b03169063fca247ac906064016020604051808303815f875af1158015611db5573d5f5f3e3d5ffd5b505050506040513d601f19601f82011682018060405250810190611dd99190614e02565b9150611e2d88888080601f0160208091040260200160405190810160405280939291908181526020018383808284375f920191909152508a9250505061ffff8616611e276276a70087614e2d565b886130d1565b509695505050505050565b5f80611e43846107f0565b50841663ffffffff908116908516149250505092915050565b611e646131d9565b6007546001600160a01b031615611f785760075460405163a22cb46560e01b81526001600160a01b0391821660048201525f60248201527f00000000000000000000000000000000000000000000000000000000000000009091169063a22cb465906044015f604051808303815f87803b158015611ee0575f5ffd5b505af1158015611ef2573d5f5f3e3d5ffd5b505060075460405163a22cb46560e01b81526001600160a01b0391821660048201525f60248201527f0000000000000000000000000000000000000000000000000000000000000000909116925063a22cb46591506044015f604051808303815f87803b158015611f61575f5ffd5b505af1158015611f73573d5f5f3e3d5ffd5b505050505b600780546001600160a01b0319166001600160a01b0383169081179091551561209b5760075460405163a22cb46560e01b81526001600160a01b039182166004820152600160248201527f00000000000000000000000000000000000000000000000000000000000000009091169063a22cb465906044015f604051808303815f87803b158015612007575f5ffd5b505af1158015612019573d5f5f3e3d5ffd5b505060075460405163a22cb46560e01b81526001600160a01b039182166004820152600160248201527f0000000000000000000000000000000000000000000000000000000000000000909116925063a22cb46591506044015f604051808303815f87803b158015612089575f5ffd5b505af1158015611213573d5f5f3e3d5ffd5b50565b335f9081526004602052604081205460ff166120cc5760405162461bcd60e51b81526004016107ad90614f99565b5f6120e45f51602061547d5f395f51905f5285613205565b60405163c475abff60e01b815260048101869052602481018590529091505f906001600160a01b037f0000000000000000000000000000000000000000000000000000000000000000169063c475abff906044016020604051808303815f875af1158015612154573d5f5f3e3d5ffd5b505050506040513d601f19601f820116820180604052508101906121789190614e02565b6040516331a9108f60e11b8152600481018790529091507f00000000000000000000000000000000000000000000000000000000000000006001600160a01b031690636352211e90602401602060405180830381865afa9250505080156121fc575060408051601f3d908101601f191682019092526121f991810190614f54565b60015b6122095791506107ea9050565b6001600160a01b038116301415806122b157506040516302571be360e01b81526004810184905230906001600160a01b037f000000000000000000000000000000000000000000000000000000000000000016906302571be390602401602060405180830381865afa158015612281573d5f5f3e3d5ffd5b505050506040513d601f19601f820116820180604052508101906122a59190614f54565b6001600160a01b031614155b156122c0575091506107ea9050565b505f6122cf6276a70083614e2d565b5f8481526001602052604090205490915060a081901c6122f1858383866139ca565b50919695505050505050565b5f866123098133611480565b61232a57803360405163168ab55d60e31b81526004016107ad929190614d88565b5f878760405161233b929190614f8a565b6040518091039020905061234f8982613205565b925061235b8984613231565b612365838661336a565b5f6123a68a858b8b8080601f0160208091040260200160405190810160405280939291908181526020018383808284375f9201919091525061339d92505050565b90506123b48a858888613464565b94506123bf846134a7565b61246b576040516306ab592360e01b8152600481018b9052602481018390523060448201527f00000000000000000000000000000000000000000000000000000000000000006001600160a01b0316906306ab5923906064016020604051808303815f875af1158015612434573d5f5f3e3d5ffd5b505050506040513d601f19601f820116820180604052508101906124589190614e02565b506124668482898989613b1a565b6124b0565b6124b08a858b8b8080601f0160208091040260200160405190810160405280939291908181526020018383808284375f920191909152508d92508c91508b9050613593565b5050509695505050505050565b5f6125005f86868080601f0160208091040260200160405190810160405280939291908181526020018383808284375f920191909152509293925050613b5c9050565b6007549091506001600160a01b031661252c5760405163093075b560e21b815260040160405180910390fd5b6125368133611480565b61255757803360405163168ab55d60e31b81526004016107ad929190614d88565b5f8080612563846107f0565b919450925090505f6125748561085e565b905061257f85613c18565b60075f9054906101000a90046001600160a01b03166001600160a01b0316639198c2768a8a878787878e8e6040518963ffffffff1660e01b81526004016125cd989796959493929190615009565b5f604051808303815f87803b1580156125e4575f5ffd5b505af11580156125f6573d5f5f3e3d5ffd5b50505050505050505050505050565b836126108133611480565b61263157803360405163168ab55d60e31b81526004016107ad929190614d88565b84601c5f61263e836107f0565b5091505063ffffffff828216161561266c5760405163a2a7201360e01b8152600481018490526024016107ad565b60405163cf40882360e01b8152600481018990523060248201526001600160a01b0387811660448301526001600160401b03871660648301527f0000000000000000000000000000000000000000000000000000000000000000169063cf408823906084015f604051808303815f87803b1580156126e8575f5ffd5b505af11580156126fa573d5f5f3e3d5ffd5b5050506001600160a01b038816905061275f575f612717896107f0565b509150506201ffff196202000082160161274f57604051632ca49b0d60e11b81526001600160a01b03891660048201526024016107ad565b612759895f613a2f565b506118b6565b5f61276989611655565b905061278981898b5f1c600160405180602001604052805f815250613cb5565b505050505050505050565b61279e8383613205565b6127a88133611480565b6127c957803360405163168ab55d60e31b81526004016107ad929190614d88565b7f6c32148f748aba23997146d7fe89e962e3cc30271290fb96f5f4337756c03b5284016128095760405163615a470360e01b815260040160405180910390fd5b6001600160a01b038216158061282757506001600160a01b03821630145b1561285057604051632ca49b0d60e11b81526001600160a01b03831660048201526024016107ad565b61164f6118318585613205565b5f5f6128698484613205565b90505f612875826134a7565b90505f51602061547d5f395f51905f5285146128945791506107ea9050565b6040516331a9108f60e11b8152600481018590527f00000000000000000000000000000000000000000000000000000000000000006001600160a01b031690636352211e90602401602060405180830381865afa925050508015612915575060408051601f3d908101601f1916820190925261291291810190614f54565b60015b612923575f925050506107ea565b6001600160a01b0316301492506107ea915050565b6129406131d9565b6001600160a01b0382165f81815260046020908152604091829020805460ff191685151590811790915591519182527f4c97694570a07277810af7e5669ffd5f6a2d6b74b6e9a274b8b870fd5114cf8791015b60405180910390a25050565b6001600160a01b039182165f90815260026020908152604080832093909416825291909152205460ff1690565b5f5f612a105f87878080601f0160208091040260200160405190810160405280939291908181526020018383808284375f920191909152509293925050613d959050565b915091505f612a578288888080601f0160208091040260200160405190810160405280939291908181526020018383808284375f920191909152509293925050613b5c9050565b90505f612a648285613205565b5f818152600660205260409020909150612a7f888a836150b4565b507f6c32148f748aba23997146d7fe89e962e3cc30271290fb96f5f4337756c03b528201612ac05760405163615a470360e01b815260040160405180910390fd5b6040516302571be360e01b8152600481018290525f907f00000000000000000000000000000000000000000000000000000000000000006001600160a01b0316906302571be390602401602060405180830381865afa158015612b25573d5f5f3e3d5ffd5b505050506040513d601f19601f82011682018060405250810190612b499190614f54565b90506001600160a01b0381163314801590612bef575060405163e985e9c560e01b81526001600160a01b0382811660048301523360248301527f0000000000000000000000000000000000000000000000000000000000000000169063e985e9c590604401602060405180830381865afa158015612bc9573d5f5f3e3d5ffd5b505050506040513d601f19601f82011682018060405250810190612bed9190614f6f565b155b15612c1157813360405163168ab55d60e31b81526004016107ad929190614d88565b6001600160a01b03861615612c9c57604051630c4b7b8560e11b81526001600160a01b037f00000000000000000000000000000000000000000000000000000000000000001690631896f70a90612c6e9085908a90600401614d88565b5f604051808303815f87803b158015612c85575f5ffd5b505af1158015612c97573d5f5f3e3d5ffd5b505050505b604051635b0fc9c360e01b81526001600160a01b037f00000000000000000000000000000000000000000000000000000000000000001690635b0fc9c390612cea9085903090600401614d88565b5f604051808303815f87803b158015612d01575f5ffd5b505af1158015612d13573d5f5f3e3d5ffd5b50505050612789828a8a8080601f0160208091040260200160405190810160405280939291908181526020018383808284375f9201829052508d93509150819050613b1a565b6001600160a01b038416612d7f5760405162461bcd60e51b81526004016107ad90614e84565b6001600160a01b038516331480612d9b5750612d9b853361299f565b612df95760405162461bcd60e51b815260206004820152602960248201527f455243313135353a2063616c6c6572206973206e6f74206f776e6572206e6f7260448201526808185c1c1c9bdd995960ba1b60648201526084016107ad565b6112138585858585613cb5565b612e0e6131d9565b6001600160a01b038116612e3757604051631e4fbdf760e01b81525f60048201526024016107ad565b61209b816139e0565b5f8181526006602052604081208054829190612e5b90614e4c565b80601f0160208091040260200160405190810160405280929190818152602001828054612e8790614e4c565b8015612ed25780601f10612ea957610100808354040283529160200191612ed2565b820191905f5260205f20905b815481529060010190602001808311612eb557829003601f168201915b5050505050905080515f03612ee957505f92915050565b5f80612ef58382613d95565b90925090505f612f058483613b5c565b9050610954818461285d565b5f5f42836001600160401b03161015612f3b5761ffff1962010000851601612f37575f94505b5f93505b50929391925050565b5f6001600160e01b03198216636cdb3d1360e11b1480612f7457506001600160e01b031982166303a24d0760e21b145b806107ea57506301ffc9a760e01b6001600160e01b03198316146107ea565b5f612f9d82611655565b9050806001600160a01b0316836001600160a01b03160361300a5760405162461bcd60e51b815260206004820152602160248201527f4552433732313a20617070726f76616c20746f2063757272656e74206f776e656044820152603960f91b60648201526084016107ad565b336001600160a01b03821614806130265750613026813361299f565b6130985760405162461bcd60e51b815260206004820152603d60248201527f4552433732313a20617070726f76652063616c6c6572206973206e6f7420746f60448201527f6b656e206f776e6572206f7220617070726f76656420666f7220616c6c00000060648201526084016107ad565b6108e08383613e49565b5f620200008381161480156108995750426130c06276a7008461516d565b6001600160401b0316109392505050565b845160208601205f6130f05f51602061547d5f395f51905f5283613205565b90505f61311888604051806040016040528060058152602001626cae8d60e31b815250613eb6565b5f838152600660205260409020909150613132828261518c565b50613145828289620300008a1789613b1a565b6001600160a01b038416156118b657604051630c4b7b8560e11b81526001600160a01b037f00000000000000000000000000000000000000000000000000000000000000001690631896f70a906131a29085908890600401614d88565b5f604051808303815f87803b1580156131b9575f5ffd5b505af11580156131cb573d5f5f3e3d5ffd5b505050505050505050505050565b5f546001600160a01b0316331461179f5760405163118cdaa760e01b81523360048201526024016107ad565b604080516020808201949094528082019290925280518083038201815260609092019052805191012090565b5f808061323d846107f0565b91945092509050426001600160401b038216108080156132fd57506001600160a01b03841615806132fd57506040516302571be360e01b8152600481018690525f906001600160a01b037f000000000000000000000000000000000000000000000000000000000000000016906302571be390602401602060405180830381865afa1580156132ce573d5f5f3e3d5ffd5b505050506040513d601f19601f820116820180604052508101906132f29190614f54565b6001600160a01b0316145b1561333b575f61330c876107f0565b5091505060208116156133355760405163a2a7201360e01b8152600481018790526024016107ad565b50613362565b620100008316156133625760405163a2a7201360e01b8152600481018690526024016107ad565b505050505050565b63fffdffff81811763ffffffff16146133995760405163a2a7201360e01b8152600481018390526024016107ad565b5050565b60605f6134418360065f8881526020019081526020015f2080546133c090614e4c565b80601f01602080910402602001604051908101604052809291908181526020018280546133ec90614e4c565b80156134375780601f1061340e57610100808354040283529160200191613437565b820191905f5260205f20905b81548152906001019060200180831161341a57829003601f168201915b5050505050613eb6565b5f85815260066020526040902090915061345b828261518c565b50949350505050565b5f8061346f856107f0565b925050505f5f613480885f1c6107f0565b925092505061349087878461388e565b61349b8584836138c9565b98975050505050505050565b5f806134b283611655565b6001600160a01b0316141580156107ea57506040516302571be360e01b81526004810183905230906001600160a01b037f000000000000000000000000000000000000000000000000000000000000000016906302571be390602401602060405180830381865afa158015613529573d5f5f3e3d5ffd5b505050506040513d601f19601f8201168201806040525081019061354d9190614f54565b6001600160a01b03161492915050565b5f868152600660205260408120805461357b9187916133c090614e4c565b905061358a8682868686613b1a565b50505050505050565b5f808061359f886107f0565b9250925092505f6135c68860065f8d81526020019081526020015f2080546133c090614e4c565b5f8a81526006602052604090208054919250906135e290614e4c565b90505f03613603575f898152600660205260409020613601828261518c565b505b6136128985888617858961390e565b6001600160a01b03871661362f5761362a895f613a2f565b610ab4565b610ab484888b5f1c600160405180602001604052805f815250613cb5565b6201ffff196202000083160161366d5761366a6276a7008261516d565b90505b42816001600160401b031610156136a657620100008216156136a15760405162461bcd60e51b81526004016107ad90614edd565b6136cb565b60048216156136cb5760405163a2a7201360e01b8152600481018490526024016107ad565b604082165f036108e05750505f90815260036020526040902080546001600160a01b0319169055565b60c0816001600160401b0316901b60a08363ffffffff16901b846001600160a01b0316171760015f8681526020019081526020015f208190555050505050565b6001600160a01b0384163b156133625760405163bc197c8160e01b81526001600160a01b0385169063bc197c81906137789089908990889088908890600401615246565b6020604051808303815f875af19250505080156137b2575060408051601f3d908101601f191682019092526137af91810190615297565b60015b61385e576137be6152b2565b806308c379a0036137f757506137d26152cb565b806137dd57506137f9565b8060405162461bcd60e51b81526004016107ad919061434c565b505b60405162461bcd60e51b815260206004820152603460248201527f455243313135353a207472616e7366657220746f206e6f6e20455243313135356044820152732932b1b2b4bb32b91034b6b83632b6b2b73a32b960611b60648201526084016107ad565b6001600160e01b0319811663bc197c8160e01b1461358a5760405162461bcd60e51b81526004016107ad90615345565b63ffff000082161580159060018316159082906138a85750805b156112135760405163a2a7201360e01b8152600481018690526024016107ad565b5f816001600160401b0316846001600160401b031611156138e8578193505b826001600160401b0316846001600160401b03161015613906578293505b509192915050565b61391a858585846139ca565b60405163ffffffff8416815285907f39873f00c80f4f94b7bd1594aebcf650f003545b74824d57ddf4939e3ff3a34b9060200160405180910390a2816001600160401b0316816001600160401b03161115611213576040516001600160401b038216815285907ff675815a0817338f93a7da433f6bd5f5542f1029b11b455191ac96c7f6a9b132906020015b60405180910390a25050505050565b5f5f6139c0836107f0565b5090949350505050565b6139d48483613f2d565b61164f848484846136f4565b5f80546001600160a01b038381166001600160a01b0319831681178455604051919092169283917f8be0079c531659141344cd1fd0a4f28419497f9722a3daafe3b4186f6b6457e09190a35050565b613a3a826001611e38565b15613a5b5760405163a2a7201360e01b8152600481018390526024016107ad565b613a6482613c18565b604051635b0fc9c360e01b81526001600160a01b037f00000000000000000000000000000000000000000000000000000000000000001690635b0fc9c390613ab29085908590600401614d88565b5f604051808303815f87803b158015613ac9575f5ffd5b505af1158015613adb573d5f5f3e3d5ffd5b50506040516001600160a01b03841681528492507fee2ba1195c65bcf218a83d874335c6bf9d9067b4c672f3c3bf16cf40de7586c49150602001612993565b613b2685848484613f66565b847f8ce7013e8abebc55c3890a68f5a27c67c3f7efa64e584de5fb22363c606fd340858585856040516139a6949392919061538d565b5f5f5f613b698585613d95565b909250905081613bda5760018551613b8191906153d3565b8414613bcf5760405162461bcd60e51b815260206004820152601d60248201527f6e616d65686173683a204a756e6b20617420656e64206f66206e616d6500000060448201526064016107ad565b505f91506107ea9050565b613be48582613b5c565b6040805160208101929092528101839052606001604051602081830303815290604052805190602001209250505092915050565b5f8181526001602052604090205460a081901c60c082901c613c3b838383612f11565b5f86815260036020526040812080546001600160a01b0319169055909350613c679150859084846136f4565b60408051858152600160208201525f916001600160a01b0386169133917fc3d58168c5ae7397731d063d5bbf3d657854427343f4c083240f7aacaa2d0f62910160405180910390a450505050565b5f5f5f613cc1866107f0565b925092509250613cd286838361364d565b846001148015613cf35750876001600160a01b0316836001600160a01b0316145b613d0f5760405162461bcd60e51b81526004016107ad90614edd565b866001600160a01b0316836001600160a01b031603613d3057505050611213565b613d3c868884846136f4565b60408051878152602081018790526001600160a01b03808a1692908b169133917fc3d58168c5ae7397731d063d5bbf3d657854427343f4c083240f7aacaa2d0f62910160405180910390a46118b6338989898989613fd8565b5f5f83518310613de75760405162461bcd60e51b815260206004820152601e60248201527f726561644c6162656c3a20496e646578206f7574206f6620626f756e6473000060448201526064016107ad565b5f848481518110613dfa57613dfa614ec9565b016020015160f81c90508015613e2657613e1f85613e198660016153e6565b83614092565b9250613e2a565b5f92505b613e3481856153e6565b613e3f9060016153e6565b9150509250929050565b5f81815260036020526040902080546001600160a01b0319166001600160a01b0384169081179091558190613e7d82611655565b6001600160a01b03167f8c5be1e5ebec7d5bd14f71427d1e84f3dd0314c0f7b2291e5b200ac8c7c3b92560405160405180910390a45050565b6060600183511015613edb57604051631406d65b60e11b815260040160405180910390fd5b60ff83511115613f00578260405163e3ba295f60e01b81526004016107ad919061434c565b82518383604051602001613f1693929190615410565b604051602081830303815290604052905092915050565b61ffff811615801590613f4557506201000181811614155b156133995760405163a2a7201360e01b8152600481018390526024016107ad565b613f708483613f2d565b5f848152600160205260409020546001600160a01b03811615613fcc57613f9685613c18565b6040515f815285907fee2ba1195c65bcf218a83d874335c6bf9d9067b4c672f3c3bf16cf40de7586c49060200160405180910390a25b611213858585856140b4565b6001600160a01b0384163b156133625760405163f23a6e6160e01b81526001600160a01b0385169063f23a6e619061401c9089908990889088908890600401615438565b6020604051808303815f875af1925050508015614056575060408051601f3d908101601f1916820190925261405391810190615297565b60015b614062576137be6152b2565b6001600160e01b0319811663f23a6e6160e01b1461358a5760405162461bcd60e51b81526004016107ad90615345565b82515f906140a083856153e6565b11156140aa575f5ffd5b5091016020012090565b835f80806140c1846107f0565b9194509250905063ffff000082166001600160401b0380871690831611156140e7578195505b42826001600160401b0316106140fc57958617955b6001600160a01b038416156141535760405162461bcd60e51b815260206004820152601f60248201527f455243313135353a206d696e74206f66206578697374696e6720746f6b656e0060448201526064016107ad565b6001600160a01b0388166141b35760405162461bcd60e51b815260206004820152602160248201527f455243313135353a206d696e7420746f20746865207a65726f206164647265736044820152607360f81b60648201526084016107ad565b306001600160a01b038916036142285760405162461bcd60e51b815260206004820152603460248201527f455243313135353a206e65774f776e65722063616e6e6f74206265207468652060448201527313985b5955dc985c1c195c8818dbdb9d1c9858dd60621b60648201526084016107ad565b614234858989896136f4565b60408051868152600160208201526001600160a01b038a16915f9133917fc3d58168c5ae7397731d063d5bbf3d657854427343f4c083240f7aacaa2d0f62910160405180910390a4612789335f8a88600160405180602001604052805f815250613fd8565b6001600160a01b038116811461209b575f5ffd5b5f5f604083850312156142be575f5ffd5b82356142c981614299565b946020939093013593505050565b5f602082840312156142e7575f5ffd5b5035919050565b6001600160e01b03198116811461209b575f5ffd5b5f60208284031215614313575f5ffd5b8135610899816142ee565b5f81518084528060208401602086015e5f602082860101526020601f19601f83011685010191505092915050565b602081525f610899602083018461431e565b5f5f6040838503121561436f575f5ffd5b82359150602083013561438181614299565b809150509250929050565b80356001600160401b03811681146143a2575f5ffd5b919050565b5f5f604083850312156143b8575f5ffd5b823591506143c86020840161438c565b90509250929050565b5f5f83601f8401126143e1575f5ffd5b5081356001600160401b038111156143f7575f5ffd5b60208301915083602082850101111561440e575f5ffd5b9250929050565b5f5f5f5f5f60808688031215614429575f5ffd5b853561443481614299565b9450602086013561444481614299565b93506040860135925060608601356001600160401b03811115614465575f5ffd5b614471888289016143d1565b969995985093965092949392505050565b5f60208284031215614492575f5ffd5b813561089981614299565b634e487b7160e01b5f52604160045260245ffd5b601f8201601f191681016001600160401b03811182821017156144d6576144d661449d565b6040525050565b5f6001600160401b038211156144f5576144f561449d565b50601f01601f191660200190565b5f82601f830112614512575f5ffd5b8135602083015f614522836144dd565b60405161452f82826144b1565b809250848152878585011115614543575f5ffd5b848460208301375f60208683010152809550505050505092915050565b803563ffffffff811681146143a2575f5ffd5b5f5f5f5f5f5f5f60e0888a031215614589575f5ffd5b8735965060208801356001600160401b038111156145a5575f5ffd5b6145b18a828b01614503565b96505060408801356145c281614299565b945060608801356145d281614299565b93506145e06080890161438c565b92506145ee60a08901614560565b91506145fc60c0890161438c565b905092959891949750929550565b5f6001600160401b038211156146225761462261449d565b5060051b60200190565b5f82601f83011261463b575f5ffd5b81356146468161460a565b60405161465382826144b1565b80915082815260208101915060208360051b860101925085831115614676575f5ffd5b602085015b8381101561469357803583526020928301920161467b565b5095945050505050565b5f5f5f5f5f60a086880312156146b1575f5ffd5b85356146bc81614299565b945060208601356146cc81614299565b935060408601356001600160401b038111156146e6575f5ffd5b6146f28882890161462c565b93505060608601356001600160401b0381111561470d575f5ffd5b6147198882890161462c565b92505060808601356001600160401b03811115614734575f5ffd5b61474088828901614503565b9150509295509295909350565b5f5f5f5f60808587031215614760575f5ffd5b843593506020850135925061477760408601614560565b91506147856060860161438c565b905092959194509250565b803561ffff811681146143a2575f5ffd5b5f5f604083850312156147b2575f5ffd5b823591506143c860208401614790565b5f5f604083850312156147d3575f5ffd5b82356001600160401b038111156147e8575f5ffd5b8301601f810185136147f8575f5ffd5b80356148038161460a565b60405161481082826144b1565b80915082815260208101915060208360051b850101925087831115614833575f5ffd5b6020840193505b8284101561485e57833561484d81614299565b82526020938401939091019061483a565b945050505060208301356001600160401b0381111561487b575f5ffd5b613e3f8582860161462c565b5f8151808452602084019350602083015f5b828110156148b7578151865260209586019590910190600101614899565b5093949350505050565b602081525f6108996020830184614887565b5f5f5f606084860312156148e5575f5ffd5b83356148f081614299565b9250602084013561490081614299565b929592945050506040919091013590565b5f5f5f60608486031215614923575f5ffd5b833592506020840135915061493a6040850161438c565b90509250925092565b5f5f5f60608486031215614955575f5ffd5b83359250602084013561496781614299565b9150604084013561497781614299565b809150509250925092565b5f5f5f5f5f60808688031215614996575f5ffd5b85356001600160401b038111156149ab575f5ffd5b6149b7888289016143d1565b90965094505060208601356149cb81614299565b92506149d960408701614790565b915060608601356149e981614299565b809150509295509295909350565b801515811461209b575f5ffd5b5f5f60408385031215614a15575f5ffd5b8235614a2081614299565b91506020830135614381816149f7565b5f5f5f5f5f5f60a08789031215614a45575f5ffd5b86356001600160401b03811115614a5a575f5ffd5b614a6689828a016143d1565b9097509550506020870135614a7a81614299565b9350604087013592506060870135614a9181614299565b9150614a9f60808801614790565b90509295509295509295565b5f5f60408385031215614abc575f5ffd5b823591506143c860208401614560565b5f5f60408385031215614add575f5ffd5b50508035926020909101359150565b5f5f5f5f5f5f60a08789031215614b01575f5ffd5b8635955060208701356001600160401b03811115614b1d575f5ffd5b614b2989828a016143d1565b9096509450506040870135614b3d81614299565b9250614b4b60608801614560565b9150614a9f6080880161438c565b5f5f5f5f60408587031215614b6c575f5ffd5b84356001600160401b03811115614b81575f5ffd5b614b8d878288016143d1565b90955093505060208501356001600160401b03811115614bab575f5ffd5b614bb7878288016143d1565b95989497509550505050565b5f5f5f5f60808587031215614bd6575f5ffd5b843593506020850135614be881614299565b9250604085013561477781614299565b5f5f5f60608486031215614c0a575f5ffd5b8335925060208401359150604084013561497781614299565b5f5f60408385031215614c34575f5ffd5b8235614c3f81614299565b9150602083013561438181614299565b5f5f5f5f60608587031215614c62575f5ffd5b84356001600160401b03811115614c77575f5ffd5b614c83878288016143d1565b9095509350506020850135614c9781614299565b91506040850135614ca781614299565b939692955090935050565b5f5f5f5f5f60a08688031215614cc6575f5ffd5b8535614cd181614299565b94506020860135614ce181614299565b9350604086013592506060860135915060808601356001600160401b03811115614734575f5ffd5b5f60208284031215614d19575f5ffd5b81516001600160401b03811115614d2e575f5ffd5b8201601f81018413614d3e575f5ffd5b8051614d49816144dd565b604051614d5682826144b1565b828152866020848601011115614d6a575f5ffd5b8260208501602083015e5f9281016020019290925250949350505050565b9182526001600160a01b0316602082015260400190565b5f5f5f5f60808587031215614db2575f5ffd5b84356001600160401b03811115614dc7575f5ffd5b614dd387828801614503565b9450506020850135614de481614299565b9250614df260408601614790565b91506060850135614ca781614299565b5f60208284031215614e12575f5ffd5b5051919050565b634e487b7160e01b5f52601160045260245ffd5b6001600160401b0381811683821601908111156107ea576107ea614e19565b600181811c90821680614e6057607f821691505b602082108103614e7e57634e487b7160e01b5f52602260045260245ffd5b50919050565b60208082526025908201527f455243313135353a207472616e7366657220746f20746865207a65726f206164604082015264647265737360d81b606082015260800190565b634e487b7160e01b5f52603260045260245ffd5b6020808252602a908201527f455243313135353a20696e73756666696369656e742062616c616e636520666f60408201526939103a3930b739b332b960b11b606082015260800190565b604081525f614f396040830185614887565b8281036020840152614f4b8185614887565b95945050505050565b5f60208284031215614f64575f5ffd5b815161089981614299565b5f60208284031215614f7f575f5ffd5b8151610899816149f7565b818382375f9101908152919050565b60208082526028908201527f436f6e74726f6c6c61626c653a2043616c6c6572206973206e6f74206120636f604082015267373a3937b63632b960c11b606082015260800190565b81835281816020850137505f828201602090810191909152601f909101601f19169091010190565b60c081525f61501c60c083018a8c614fe1565b6001600160a01b03898116602085015263ffffffff891660408501526001600160401b03881660608501528616608084015282810360a0840152615061818587614fe1565b9b9a5050505050505050505050565b601f8211156108e057805f5260205f20601f840160051c810160208510156150955750805b601f840160051c820191505b81811015611213575f81556001016150a1565b6001600160401b038311156150cb576150cb61449d565b6150df836150d98354614e4c565b83615070565b5f601f841160018114615110575f85156150f95750838201355b5f19600387901b1c1916600186901b178355611213565b5f83815260208120601f198716915b8281101561513f578685013582556020948501946001909201910161511f565b508682101561515b575f1960f88860031b161c19848701351681555b505060018560011b0183555050505050565b6001600160401b0382811682821603908111156107ea576107ea614e19565b81516001600160401b038111156151a5576151a561449d565b6151b9816151b38454614e4c565b84615070565b6020601f8211600181146151eb575f83156151d45750848201515b5f19600385901b1c1916600184901b178455611213565b5f84815260208120601f198516915b8281101561521a57878501518255602094850194600190920191016151fa565b508482101561523757868401515f19600387901b60f8161c191681555b50505050600190811b01905550565b6001600160a01b0386811682528516602082015260a0604082018190525f9061527190830186614887565b82810360608401526152838186614887565b9050828103608084015261349b818561431e565b5f602082840312156152a7575f5ffd5b8151610899816142ee565b5f60033d11156152c85760045f5f3e505f5160e01c5b90565b5f60443d10156152d85790565b6040513d600319016004823e80513d60248201116001600160401b038211171561530157505090565b80820180516001600160401b0381111561531c575050505090565b3d8401600319018282016020011115615336575050505090565b6115cf602082850101856144b1565b60208082526028908201527f455243313135353a204552433131353552656365697665722072656a656374656040820152676420746f6b656e7360c01b606082015260800190565b608081525f61539f608083018761431e565b6001600160a01b039590951660208301525063ffffffff9290921660408301526001600160401b0316606090910152919050565b818103818111156107ea576107ea614e19565b808201808211156107ea576107ea614e19565b5f81518060208401855e5f93019283525090919050565b60f884901b6001600160f81b03191681525f614f4b61543260018401866153f9565b846153f9565b6001600160a01b03868116825285166020820152604081018490526060810183905260a0608082018190525f906154719083018461431e565b97965050505050505056fe93cdeb708b7545dc668eb9280176169d1c33cfd8ed6f04690a0bcc88a93fc4aea2646970667358221220d450cf2f576762a7ca1bb070a7d7f44d5a52b6871176ff99837ead3d3a9b291864736f6c634300081c0033",
  "linkReferences": {},
  "deployedLinkReferences": {},
  "immutableReferences": {
    "2837": [
      {
        "length": 32,
        "start": 1206
      },
      {
        "length": 32,
        "start": 2648
      },
      {
        "length": 32,
        "start": 3390
      },
      {
        "length": 32,
        "start": 3785
      },
      {
        "length": 32,
        "start": 3957
      },
      {
        "length": 32,
        "start": 4725
      },
      {
        "length": 32,
        "start": 7964
      },
      {
        "length": 32,
        "start": 8260
      },
      {
        "length": 32,
        "start": 8764
      },
      {
        "length": 32,
        "start": 9190
      },
      {
        "length": 32,
        "start": 9895
      },
      {
        "length": 32,
        "start": 10968
      },
      {
        "length": 32,
        "start": 11140
      },
      {
        "length": 32,
        "start": 11319
      },
      {
        "length": 32,
        "start": 11443
      },
      {
        "length": 32,
        "start": 12651
      },
      {
        "length": 32,
        "start": 12937
      },
      {
        "length": 32,
        "start": 13540
      },
      {
        "length": 32,
        "start": 14971
      }
    ],
    "2840": [
      {
        "length": 32,
        "start": 1129
      },
      {
        "length": 32,
        "start": 2764
      },
      {
        "length": 32,
        "start": 2926
      },
      {
        "length": 32,
        "start": 3063
      },
      {
        "length": 32,
        "start": 6243
      },
      {
        "length": 32,
        "start": 6386
      },
      {
        "length": 32,
        "start": 6558
      },
      {
        "length": 32,
        "start": 6765
      },
      {
        "length": 32,
        "start": 6873
      },
      {
        "length": 32,
        "start": 7001
      },
      {
        "length": 32,
        "start": 7527
      },
      {
        "length": 32,
        "start": 7837
      },
      {
        "length": 32,
        "start": 8132
      },
      {
        "length": 32,
        "start": 8462
      },
      {
        "length": 32,
        "start": 8593
      },
      {
        "length": 32,
        "start": 10410
      }
    ]
  },
  "inputSourceName": "project/contracts/ens/wrapper/NameWrapper.sol",
  "buildInfoId": "solc-0_8_28-300fa46441a3dd4a63fdadb658ea93a3695669e1"
}