{
  "_format": "hh3-artifact-1",
  "contractName": "MockVault4626",
  "sourceName": "contracts/mock/MockVault4626.sol",
  "abi": [
    {
      "inputs": [
        {
          "internalType": "contract IERC20",
          "name": "asset_",
          "type": "address"
        },
        {
          "internalType": "string",
          "name": "name_",
          "type": "string"
        },
        {
          "internalType": "string",
          "name": "symbol_",
          "type": "string"
        }
      ],
      "stateMutability": "nonpayable",
      "type": "constructor"
    },
    {
      "inputs": [
        {
          "internalType": "address",
          "name": "spender",
          "type": "address"
        },
        {
          "internalType": "uint256",
          "name": "allowance",
          "type": "uint256"
        },
        {
          "internalType": "uint256",
          "name": "needed",
          "type": "uint256"
        }
      ],
      "name": "ERC20InsufficientAllowance",
      "type": "error"
    },
    {
      "inputs": [
        {
          "internalType": "address",
          "name": "sender",
          "type": "address"
        },
        {
          "internalType": "uint256",
          "name": "balance",
          "type": "uint256"
        },
        {
          "internalType": "uint256",
          "name": "needed",
          "type": "uint256"
        }
      ],
      "name": "ERC20InsufficientBalance",
      "type": "error"
    },
    {
      "inputs": [
        {
          "internalType": "address",
          "name": "approver",
          "type": "address"
        }
      ],
      "name": "ERC20InvalidApprover",
      "type": "error"
    },
    {
      "inputs": [
        {
          "internalType": "address",
          "name": "receiver",
          "type": "address"
        }
      ],
      "name": "ERC20InvalidReceiver",
      "type": "error"
    },
    {
      "inputs": [
        {
          "internalType": "address",
          "name": "sender",
          "type": "address"
        }
      ],
      "name": "ERC20InvalidSender",
      "type": "error"
    },
    {
      "inputs": [
        {
          "internalType": "address",
          "name": "spender",
          "type": "address"
        }
      ],
      "name": "ERC20InvalidSpender",
      "type": "error"
    },
    {
      "inputs": [
        {
          "internalType": "address",
          "name": "receiver",
          "type": "address"
        },
        {
          "internalType": "uint256",
          "name": "assets",
          "type": "uint256"
        },
        {
          "internalType": "uint256",
          "name": "max",
          "type": "uint256"
        }
      ],
      "name": "ERC4626ExceededMaxDeposit",
      "type": "error"
    },
    {
      "inputs": [
        {
          "internalType": "address",
          "name": "receiver",
          "type": "address"
        },
        {
          "internalType": "uint256",
          "name": "shares",
          "type": "uint256"
        },
        {
          "internalType": "uint256",
          "name": "max",
          "type": "uint256"
        }
      ],
      "name": "ERC4626ExceededMaxMint",
      "type": "error"
    },
    {
      "inputs": [
        {
          "internalType": "address",
          "name": "owner",
          "type": "address"
        },
        {
          "internalType": "uint256",
          "name": "shares",
          "type": "uint256"
        },
        {
          "internalType": "uint256",
          "name": "max",
          "type": "uint256"
        }
      ],
      "name": "ERC4626ExceededMaxRedeem",
      "type": "error"
    },
    {
      "inputs": [
        {
          "internalType": "address",
          "name": "owner",
          "type": "address"
        },
        {
          "internalType": "uint256",
          "name": "assets",
          "type": "uint256"
        },
        {
          "internalType": "uint256",
          "name": "max",
          "type": "uint256"
        }
      ],
      "name": "ERC4626ExceededMaxWithdraw",
      "type": "error"
    },
    {
      "inputs": [
        {
          "internalType": "address",
          "name": "token",
          "type": "address"
        }
      ],
      "name": "SafeERC20FailedOperation",
      "type": "error"
    },
    {
      "anonymous": false,
      "inputs": [
        {
          "indexed": true,
          "internalType": "address",
          "name": "owner",
          "type": "address"
        },
        {
          "indexed": true,
          "internalType": "address",
          "name": "spender",
          "type": "address"
        },
        {
          "indexed": false,
          "internalType": "uint256",
          "name": "value",
          "type": "uint256"
        }
      ],
      "name": "Approval",
      "type": "event"
    },
    {
      "anonymous": false,
      "inputs": [
        {
          "indexed": true,
          "internalType": "address",
          "name": "sender",
          "type": "address"
        },
        {
          "indexed": true,
          "internalType": "address",
          "name": "owner",
          "type": "address"
        },
        {
          "indexed": false,
          "internalType": "uint256",
          "name": "assets",
          "type": "uint256"
        },
        {
          "indexed": false,
          "internalType": "uint256",
          "name": "shares",
          "type": "uint256"
        }
      ],
      "name": "Deposit",
      "type": "event"
    },
    {
      "anonymous": false,
      "inputs": [
        {
          "indexed": true,
          "internalType": "address",
          "name": "from",
          "type": "address"
        },
        {
          "indexed": true,
          "internalType": "address",
          "name": "to",
          "type": "address"
        },
        {
          "indexed": false,
          "internalType": "uint256",
          "name": "value",
          "type": "uint256"
        }
      ],
      "name": "Transfer",
      "type": "event"
    },
    {
      "anonymous": false,
      "inputs": [
        {
          "indexed": true,
          "internalType": "address",
          "name": "sender",
          "type": "address"
        },
        {
          "indexed": true,
          "internalType": "address",
          "name": "receiver",
          "type": "address"
        },
        {
          "indexed": true,
          "internalType": "address",
          "name": "owner",
          "type": "address"
        },
        {
          "indexed": false,
          "internalType": "uint256",
          "name": "assets",
          "type": "uint256"
        },
        {
          "indexed": false,
          "internalType": "uint256",
          "name": "shares",
          "type": "uint256"
        }
      ],
      "name": "Withdraw",
      "type": "event"
    },
    {
      "inputs": [],
      "name": "accrueYield",
      "outputs": [],
      "stateMutability": "nonpayable",
      "type": "function"
    },
    {
      "inputs": [],
      "name": "accumulatedYield",
      "outputs": [
        {
          "internalType": "uint256",
          "name": "",
          "type": "uint256"
        }
      ],
      "stateMutability": "view",
      "type": "function"
    },
    {
      "inputs": [
        {
          "internalType": "address",
          "name": "owner",
          "type": "address"
        },
        {
          "internalType": "address",
          "name": "spender",
          "type": "address"
        }
      ],
      "name": "allowance",
      "outputs": [
        {
          "internalType": "uint256",
          "name": "",
          "type": "uint256"
        }
      ],
      "stateMutability": "view",
      "type": "function"
    },
    {
      "inputs": [
        {
          "internalType": "address",
          "name": "spender",
          "type": "address"
        },
        {
          "internalType": "uint256",
          "name": "value",
          "type": "uint256"
        }
      ],
      "name": "approve",
      "outputs": [
        {
          "internalType": "bool",
          "name": "",
          "type": "bool"
        }
      ],
      "stateMutability": "nonpayable",
      "type": "function"
    },
    {
      "inputs": [],
      "name": "asset",
      "outputs": [
        {
          "internalType": "address",
          "name": "",
          "type": "address"
        }
      ],
      "stateMutability": "view",
      "type": "function"
    },
    {
      "inputs": [
        {
          "internalType": "address",
          "name": "account",
          "type": "address"
        }
      ],
      "name": "balanceOf",
      "outputs": [
        {
          "internalType": "uint256",
          "name": "",
          "type": "uint256"
        }
      ],
      "stateMutability": "view",
      "type": "function"
    },
    {
      "inputs": [
        {
          "internalType": "uint256",
          "name": "shares",
          "type": "uint256"
        }
      ],
      "name": "convertToAssets",
      "outputs": [
        {
          "internalType": "uint256",
          "name": "",
          "type": "uint256"
        }
      ],
      "stateMutability": "view",
      "type": "function"
    },
    {
      "inputs": [
        {
          "internalType": "uint256",
          "name": "assets",
          "type": "uint256"
        }
      ],
      "name": "convertToShares",
      "outputs": [
        {
          "internalType": "uint256",
          "name": "",
          "type": "uint256"
        }
      ],
      "stateMutability": "view",
      "type": "function"
    },
    {
      "inputs": [],
      "name": "decimals",
      "outputs": [
        {
          "internalType": "uint8",
          "name": "",
          "type": "uint8"
        }
      ],
      "stateMutability": "view",
      "type": "function"
    },
    {
      "inputs": [
        {
          "internalType": "uint256",
          "name": "assets",
          "type": "uint256"
        },
        {
          "internalType": "address",
          "name": "receiver",
          "type": "address"
        }
      ],
      "name": "deposit",
      "outputs": [
        {
          "internalType": "uint256",
          "name": "",
          "type": "uint256"
        }
      ],
      "stateMutability": "nonpayable",
      "type": "function"
    },
    {
      "inputs": [
        {
          "internalType": "uint256",
          "name": "amount",
          "type": "uint256"
        }
      ],
      "name": "generateYield",
      "outputs": [],
      "stateMutability": "nonpayable",
      "type": "function"
    },
    {
      "inputs": [],
      "name": "lastYieldUpdate",
      "outputs": [
        {
          "internalType": "uint256",
          "name": "",
          "type": "uint256"
        }
      ],
      "stateMutability": "view",
      "type": "function"
    },
    {
      "inputs": [
        {
          "internalType": "address",
          "name": "",
          "type": "address"
        }
      ],
      "name": "maxDeposit",
      "outputs": [
        {
          "internalType": "uint256",
          "name": "",
          "type": "uint256"
        }
      ],
      "stateMutability": "view",
      "type": "function"
    },
    {
      "inputs": [
        {
          "internalType": "address",
          "name": "",
          "type": "address"
        }
      ],
      "name": "maxMint",
      "outputs": [
        {
          "internalType": "uint256",
          "name": "",
          "type": "uint256"
        }
      ],
      "stateMutability": "view",
      "type": "function"
    },
    {
      "inputs": [
        {
          "internalType": "address",
          "name": "owner",
          "type": "address"
        }
      ],
      "name": "maxRedeem",
      "outputs": [
        {
          "internalType": "uint256",
          "name": "",
          "type": "uint256"
        }
      ],
      "stateMutability": "view",
      "type": "function"
    },
    {
      "inputs": [
        {
          "internalType": "address",
          "name": "owner",
          "type": "address"
        }
      ],
      "name": "maxWithdraw",
      "outputs": [
        {
          "internalType": "uint256",
          "name": "",
          "type": "uint256"
        }
      ],
      "stateMutability": "view",
      "type": "function"
    },
    {
      "inputs": [
        {
          "internalType": "uint256",
          "name": "shares",
          "type": "uint256"
        },
        {
          "internalType": "address",
          "name": "receiver",
          "type": "address"
        }
      ],
      "name": "mint",
      "outputs": [
        {
          "internalType": "uint256",
          "name": "",
          "type": "uint256"
        }
      ],
      "stateMutability": "nonpayable",
      "type": "function"
    },
    {
      "inputs": [],
      "name": "name",
      "outputs": [
        {
          "internalType": "string",
          "name": "",
          "type": "string"
        }
      ],
      "stateMutability": "view",
      "type": "function"
    },
    {
      "inputs": [
        {
          "internalType": "uint256",
          "name": "assets",
          "type": "uint256"
        }
      ],
      "name": "previewDeposit",
      "outputs": [
        {
          "internalType": "uint256",
          "name": "",
          "type": "uint256"
        }
      ],
      "stateMutability": "view",
      "type": "function"
    },
    {
      "inputs": [
        {
          "internalType": "uint256",
          "name": "shares",
          "type": "uint256"
        }
      ],
      "name": "previewMint",
      "outputs": [
        {
          "internalType": "uint256",
          "name": "",
          "type": "uint256"
        }
      ],
      "stateMutability": "view",
      "type": "function"
    },
    {
      "inputs": [
        {
          "internalType": "uint256",
          "name": "shares",
          "type": "uint256"
        }
      ],
      "name": "previewRedeem",
      "outputs": [
        {
          "internalType": "uint256",
          "name": "",
          "type": "uint256"
        }
      ],
      "stateMutability": "view",
      "type": "function"
    },
    {
      "inputs": [
        {
          "internalType": "uint256",
          "name": "assets",
          "type": "uint256"
        }
      ],
      "name": "previewWithdraw",
      "outputs": [
        {
          "internalType": "uint256",
          "name": "",
          "type": "uint256"
        }
      ],
      "stateMutability": "view",
      "type": "function"
    },
    {
      "inputs": [
        {
          "internalType": "uint256",
          "name": "shares",
          "type": "uint256"
        },
        {
          "internalType": "address",
          "name": "receiver",
          "type": "address"
        },
        {
          "internalType": "address",
          "name": "owner",
          "type": "address"
        }
      ],
      "name": "redeem",
      "outputs": [
        {
          "internalType": "uint256",
          "name": "",
          "type": "uint256"
        }
      ],
      "stateMutability": "nonpayable",
      "type": "function"
    },
    {
      "inputs": [
        {
          "internalType": "uint256",
          "name": "rateBPS",
          "type": "uint256"
        }
      ],
      "name": "setYieldRate",
      "outputs": [],
      "stateMutability": "nonpayable",
      "type": "function"
    },
    {
      "inputs": [
        {
          "internalType": "uint256",
          "name": "amount",
          "type": "uint256"
        }
      ],
      "name": "simulateYield",
      "outputs": [],
      "stateMutability": "nonpayable",
      "type": "function"
    },
    {
      "inputs": [],
      "name": "symbol",
      "outputs": [
        {
          "internalType": "string",
          "name": "",
          "type": "string"
        }
      ],
      "stateMutability": "view",
      "type": "function"
    },
    {
      "inputs": [],
      "name": "totalAssets",
      "outputs": [
        {
          "internalType": "uint256",
          "name": "",
          "type": "uint256"
        }
      ],
      "stateMutability": "view",
      "type": "function"
    },
    {
      "inputs": [],
      "name": "totalSupply",
      "outputs": [
        {
          "internalType": "uint256",
          "name": "",
          "type": "uint256"
        }
      ],
      "stateMutability": "view",
      "type": "function"
    },
    {
      "inputs": [
        {
          "internalType": "address",
          "name": "to",
          "type": "address"
        },
        {
          "internalType": "uint256",
          "name": "value",
          "type": "uint256"
        }
      ],
      "name": "transfer",
      "outputs": [
        {
          "internalType": "bool",
          "name": "",
          "type": "bool"
        }
      ],
      "stateMutability": "nonpayable",
      "type": "function"
    },
    {
      "inputs": [
        {
          "internalType": "address",
          "name": "from",
          "type": "address"
        },
        {
          "internalType": "address",
          "name": "to",
          "type": "address"
        },
        {
          "internalType": "uint256",
          "name": "value",
          "type": "uint256"
        }
      ],
      "name": "transferFrom",
      "outputs": [
        {
          "internalType": "bool",
          "name": "",
          "type": "bool"
        }
      ],
      "stateMutability": "nonpayable",
      "type": "function"
    },
    {
      "inputs": [
        {
          "internalType": "uint256",
          "name": "assets",
          "type": "uint256"
        },
        {
          "internalType": "address",
          "name": "receiver",
          "type": "address"
        },
        {
          "internalType": "address",
          "name": "owner",
          "type": "address"
        }
      ],
      "name": "withdraw",
      "outputs": [
        {
          "internalType": "uint256",
          "name": "",
          "type": "uint256"
        }
      ],
      "stateMutability": "nonpayable",
      "type": "function"
    },
    {
      "inputs": [],
      "name": "yieldRateBPS",
      "outputs": [
        {
          "internalType": "uint256",
          "name": "",
          "type": "uint256"
        }
      ],
      "stateMutability": "view",
      "type": "function"
    }
  ],
  "bytecode": "0x60c0604052620f4240600555348015610016575f5ffd5b506040516118df3803806118df8339810160408190526100359161020a565b82828260036100448382610310565b5060046100518282610310565b5050505f5f6100658361009760201b60201c565b9150915081610075576012610077565b805b60ff1660a05250506001600160a01b0316608052505042600655506103f7565b60408051600481526024810182526020810180516001600160e01b031663313ce56760e01b17905290515f918291829182916001600160a01b038716916100dd916103ca565b5f60405180830381855afa9150503d805f8114610115576040519150601f19603f3d011682016040523d82523d5f602084013e61011a565b606091505b509150915081801561012e57506020815110155b15610161575f8180602001905181019061014891906103e0565b905060ff811161015f576001969095509350505050565b505b505f9485945092505050565b634e487b7160e01b5f52604160045260245ffd5b5f82601f830112610190575f5ffd5b81516001600160401b038111156101a9576101a961016d565b604051601f8201601f19908116603f011681016001600160401b03811182821017156101d7576101d761016d565b6040528181528382016020018510156101ee575f5ffd5b8160208501602083015e5f918101602001919091529392505050565b5f5f5f6060848603121561021c575f5ffd5b83516001600160a01b0381168114610232575f5ffd5b60208501519093506001600160401b0381111561024d575f5ffd5b61025986828701610181565b604086015190935090506001600160401b03811115610276575f5ffd5b61028286828701610181565b9150509250925092565b600181811c908216806102a057607f821691505b6020821081036102be57634e487b7160e01b5f52602260045260245ffd5b50919050565b601f82111561030b57805f5260205f20601f840160051c810160208510156102e95750805b601f840160051c820191505b81811015610308575f81556001016102f5565b50505b505050565b81516001600160401b038111156103295761032961016d565b61033d81610337845461028c565b846102c4565b6020601f82116001811461036f575f83156103585750848201515b5f19600385901b1c1916600184901b178455610308565b5f84815260208120601f198516915b8281101561039e578785015182556020948501946001909201910161037e565b50848210156103bb57868401515f19600387901b60f8161c191681555b50505050600190811b01905550565b5f82518060208501845e5f920191825250919050565b5f602082840312156103f0575f5ffd5b5051919050565b60805160a05161149d6104425f395f61057c01525f81816102c3015281816105a20152818161070c0152818161079a0152818161084901528181610d820152610e34015261149d5ff3fe608060405234801561000f575f5ffd5b50600436106101e7575f3560e01c80638f8c8aee11610109578063c63d75b61161009e578063dd62ed3e1161006e578063dd62ed3e14610401578063e7ca856d14610439578063ef8b30f7146103c8578063fcdfd5c51461044c575f5ffd5b8063c63d75b6146102ed578063c6e6f592146103c8578063ce96cb77146103db578063d905777e146103ee575f5ffd5b8063b3d7f6b9116100d9578063b3d7f6b914610386578063b460af9414610399578063ba087652146103ac578063c57c7330146103bf575f5ffd5b80638f8c8aee1461034f57806394bf804d1461035857806395d89b411461036b578063a9059cbb14610373575f5ffd5b806323b872dd1161017f578063458e551e1161014f578063458e551e146103015780634cdad506146102255780636e553f651461031457806370a0823114610327575f5ffd5b806323b872dd14610289578063313ce5671461029c57806338d52e0f146102b6578063402d267d146102ed575f5ffd5b8063095ea7b3116101ba578063095ea7b3146102385780630a28a4771461025b5780631411dab01461026e57806318160ddd14610281575f5ffd5b806301e1d114146101eb578063059d9c751461020657806306fdde031461021057806307a2d13a14610225575b5f5ffd5b6101f3610455565b6040519081526020015b60405180910390f35b61020e610475565b005b61021861047f565b6040516101fd91906110d3565b6101f3610233366004611108565b61050f565b61024b61024636600461113a565b610520565b60405190151581526020016101fd565b6101f3610269366004611108565b610537565b61020e61027c366004611108565b610543565b6002546101f3565b61024b610297366004611162565b610550565b6102a4610575565b60405160ff90911681526020016101fd565b6040516001600160a01b037f00000000000000000000000000000000000000000000000000000000000000001681526020016101fd565b6101f36102fb36600461119c565b505f1990565b61020e61030f366004611108565b6105a0565b6101f36103223660046111b5565b610637565b6101f361033536600461119c565b6001600160a01b03165f9081526020819052604090205490565b6101f360065481565b6101f36103663660046111b5565b61064a565b61021861065d565b61024b61038136600461113a565b61066c565b6101f3610394366004611108565b610679565b6101f36103a73660046111df565b610685565b6101f36103ba3660046111df565b6106a1565b6101f360055481565b6101f36103d6366004611108565b6106b5565b6101f36103e936600461119c565b6106c0565b6101f36103fc36600461119c565b6106e2565b6101f361040f366004611218565b6001600160a01b039182165f90815260016020908152604080832093909416825291909152205490565b61020e610447366004611108565b6106ff565b6101f360075481565b5f61045e610737565b610466610797565b6104709190611254565b905090565b61047d610821565b565b60606003805461048e90611267565b80601f01602080910402602001604051908101604052809291908181526020018280546104ba90611267565b80156105055780601f106104dc57610100808354040283529160200191610505565b820191905f5260205f20905b8154815290600101906020018083116104e857829003601f168201915b5050505050905090565b5f61051a825f6108ce565b92915050565b5f3361052d818585610906565b5060019392505050565b5f61051a826001610918565b61054b610821565b600555565b5f3361055d858285610947565b6105688585856109b9565b60019150505b9392505050565b5f610470817f000000000000000000000000000000000000000000000000000000000000000061129f565b7f00000000000000000000000000000000000000000000000000000000000000006040516340c10f1960e01b8152306004820152602481018390526001600160a01b0391909116906340c10f19906044015f604051808303815f87803b158015610608575f5ffd5b505af115801561061a573d5f5f3e3d5ffd5b505050508060075f82825461062f9190611254565b909155505050565b5f610640610821565b61056e8383610a16565b5f610653610821565b61056e8383610a31565b60606004805461048e90611267565b5f3361052d8185856109b9565b5f61051a8260016108ce565b5f61068e610821565b610699848484610a4c565b949350505050565b5f6106aa610821565b610699848484610aa2565b5f61051a825f610918565b6001600160a01b0381165f9081526020819052604081205461051a905f6108ce565b6001600160a01b0381165f9081526020819052604081205461051a565b6107346001600160a01b037f000000000000000000000000000000000000000000000000000000000000000016333084610aef565b50565b5f610740610797565b5f0361074b57505f90565b5f6006544261075a91906112b8565b90505f610765610797565b905064496cebb800826005548361077c91906112cb565b61078691906112cb565b61079091906112f6565b9250505090565b5f7f00000000000000000000000000000000000000000000000000000000000000006040516370a0823160e01b81523060048201526001600160a01b0391909116906370a0823190602401602060405180830381865afa1580156107fd573d5f5f3e3d5ffd5b505050506040513d601f19601f820116820180604052508101906104709190611309565b5f61082a610737565b90508015610734578060075f8282546108439190611254565b909155507f000000000000000000000000000000000000000000000000000000000000000090506040516340c10f1960e01b8152306004820152602481018390526001600160a01b0391909116906340c10f19906044015f604051808303815f87803b1580156108b1575f5ffd5b505af11580156108c3573d5f5f3e3d5ffd5b505042600655505050565b5f61056e6108da610455565b6108e5906001611254565b6108f05f600a611403565b6002546108fd9190611254565b85919085610b56565b6109138383836001610b98565b505050565b5f61056e61092782600a611403565b6002546109349190611254565b61093c610455565b6108fd906001611254565b6001600160a01b038381165f908152600160209081526040808320938616835292905220545f198110156109b357818110156109a557828183604051637dc7a0d960e11b815260040161099c93929190611411565b60405180910390fd5b6109b384848484035f610b98565b50505050565b6001600160a01b0383166109e257604051634b637e8f60e11b81525f600482015260240161099c565b6001600160a01b038216610a0b5760405163ec442f0560e01b81525f600482015260240161099c565b610913838383610c6a565b5f5f195f610a23856106b5565b905061069933858784610d7d565b5f5f195f610a3e85610679565b905061069933858388610d7d565b5f5f610a57836106c0565b905080851115610a8057828582604051633fa733bb60e21b815260040161099c93929190611411565b5f610a8a86610537565b9050610a993386868985610e01565b95945050505050565b5f5f610aad836106e2565b905080851115610ad657828582604051632e52afbb60e21b815260040161099c93929190611411565b5f610ae08661050f565b9050610a99338686848a610e01565b6040516001600160a01b0384811660248301528381166044830152606482018390526109b39186918216906323b872dd906084015b604051602081830303815290604052915060e01b6020820180516001600160e01b038381831617835250505050610ec1565b5f610b83610b6383610f2d565b8015610b7e57505f8480610b7957610b796112e2565b868809115b151590565b610b8e868686610f59565b610a999190611254565b6001600160a01b038416610bc15760405163e602df0560e01b81525f600482015260240161099c565b6001600160a01b038316610bea57604051634a1406b160e11b81525f600482015260240161099c565b6001600160a01b038085165f90815260016020908152604080832093871683529290522082905580156109b357826001600160a01b0316846001600160a01b03167f8c5be1e5ebec7d5bd14f71427d1e84f3dd0314c0f7b2291e5b200ac8c7c3b92584604051610c5c91815260200190565b60405180910390a350505050565b6001600160a01b038316610c94578060025f828254610c899190611254565b90915550610cf19050565b6001600160a01b0383165f9081526020819052604090205481811015610cd35783818360405163391434e360e21b815260040161099c93929190611411565b6001600160a01b0384165f9081526020819052604090209082900390555b6001600160a01b038216610d0d57600280548290039055610d2b565b6001600160a01b0382165f9081526020819052604090208054820190555b816001600160a01b0316836001600160a01b03167fddf252ad1be2c89b69c2b068fc378daa952ba7f163c4a11628f55a4df523b3ef83604051610d7091815260200190565b60405180910390a3505050565b610da97f0000000000000000000000000000000000000000000000000000000000000000853085610aef565b610db38382611009565b826001600160a01b0316846001600160a01b03167fdcbc1c05240f31ff3ad067ef1ee35ce4997762752e3a095284754544f4c709d78484604051610c5c929190918252602082015260400190565b826001600160a01b0316856001600160a01b031614610e2557610e25838683610947565b610e2f8382611041565b610e5a7f00000000000000000000000000000000000000000000000000000000000000008584611075565b826001600160a01b0316846001600160a01b0316866001600160a01b03167ffbde797d201c681b91056529119e0b02407c7bb96a4a2c75c01fc9667232c8db8585604051610eb2929190918252602082015260400190565b60405180910390a45050505050565b5f5f60205f8451602086015f885af180610ee0576040513d5f823e3d81fd5b50505f513d91508115610ef7578060011415610f04565b6001600160a01b0384163b155b156109b357604051635274afe760e01b81526001600160a01b038516600482015260240161099c565b5f6002826003811115610f4257610f42611432565b610f4c9190611446565b60ff166001149050919050565b5f5f5f610f6686866110a6565b91509150815f03610f8a57838181610f8057610f806112e2565b049250505061056e565b818411610fa157610fa160038515026011186110c2565b5f848688095f868103871696879004966002600389028118808a02820302808a02820302808a02820302808a02820302808a02820302808a02909103029181900381900460010185841190960395909502919093039390930492909217029150509392505050565b6001600160a01b0382166110325760405163ec442f0560e01b81525f600482015260240161099c565b61103d5f8383610c6a565b5050565b6001600160a01b03821661106a57604051634b637e8f60e11b81525f600482015260240161099c565b61103d825f83610c6a565b6040516001600160a01b0383811660248301526044820183905261091391859182169063a9059cbb90606401610b24565b5f805f1983850993909202808410938190039390930393915050565b634e487b715f52806020526024601cfd5b602081525f82518060208401528060208501604085015e5f604082850101526040601f19601f83011684010191505092915050565b5f60208284031215611118575f5ffd5b5035919050565b80356001600160a01b0381168114611135575f5ffd5b919050565b5f5f6040838503121561114b575f5ffd5b6111548361111f565b946020939093013593505050565b5f5f5f60608486031215611174575f5ffd5b61117d8461111f565b925061118b6020850161111f565b929592945050506040919091013590565b5f602082840312156111ac575f5ffd5b61056e8261111f565b5f5f604083850312156111c6575f5ffd5b823591506111d66020840161111f565b90509250929050565b5f5f5f606084860312156111f1575f5ffd5b833592506112016020850161111f565b915061120f6040850161111f565b90509250925092565b5f5f60408385031215611229575f5ffd5b6112328361111f565b91506111d66020840161111f565b634e487b7160e01b5f52601160045260245ffd5b8082018082111561051a5761051a611240565b600181811c9082168061127b57607f821691505b60208210810361129957634e487b7160e01b5f52602260045260245ffd5b50919050565b60ff818116838216019081111561051a5761051a611240565b8181038181111561051a5761051a611240565b808202811582820484141761051a5761051a611240565b634e487b7160e01b5f52601260045260245ffd5b5f82611304576113046112e2565b500490565b5f60208284031215611319575f5ffd5b5051919050565b6001815b600184111561135b5780850481111561133f5761133f611240565b600184161561134d57908102905b60019390931c928002611324565b935093915050565b5f826113715750600161051a565b8161137d57505f61051a565b8160018114611393576002811461139d576113b9565b600191505061051a565b60ff8411156113ae576113ae611240565b50506001821b61051a565b5060208310610133831016604e8410600b84101617156113dc575081810a61051a565b6113e85f198484611320565b805f19048211156113fb576113fb611240565b029392505050565b5f61056e60ff841683611363565b6001600160a01b039390931683526020830191909152604082015260600190565b634e487b7160e01b5f52602160045260245ffd5b5f60ff831680611458576114586112e2565b8060ff8416069150509291505056fea2646970667358221220b873074d46f1400d31c3b12bcb9b91b6da36dae956dba3cd636b0a45f869212164736f6c634300081c0033",
  "linkReferences": {},
  "deployedLinkReferences": {},
  "immutableReferences": {
    "1012": [
      {
        "length": 32,
        "start": 707
      },
      {
        "length": 32,
        "start": 1442
      },
      {
        "length": 32,
        "start": 1804
      },
      {
        "length": 32,
        "start": 1946
      },
      {
        "length": 32,
        "start": 2121
      },
      {
        "length": 32,
        "start": 3458
      },
      {
        "length": 32,
        "start": 3636
      }
    ],
    "1014": [
      {
        "length": 32,
        "start": 1404
      }
    ]
  },
  "inputSourceName": "project/contracts/mock/MockVault4626.sol",
  "buildInfoId": "solc-0_8_28-0431a926a2ea5779ccb0e032183f441e20586229"
}