{
  "_format": "hh3-artifact-1",
  "contractName": "IdentityAccount",
  "sourceName": "contracts/IdentityAccount.sol",
  "abi": [
    {
      "inputs": [],
      "stateMutability": "nonpayable",
      "type": "constructor"
    },
    {
      "inputs": [],
      "name": "InvalidInitialization",
      "type": "error"
    },
    {
      "inputs": [],
      "name": "NotInitializing",
      "type": "error"
    },
    {
      "anonymous": false,
      "inputs": [
        {
          "indexed": false,
          "internalType": "uint64",
          "name": "version",
          "type": "uint64"
        }
      ],
      "name": "Initialized",
      "type": "event"
    },
    {
      "inputs": [
        {
          "internalType": "address",
          "name": "target",
          "type": "address"
        },
        {
          "internalType": "bytes",
          "name": "data",
          "type": "bytes"
        },
        {
          "internalType": "uint256",
          "name": "value",
          "type": "uint256"
        }
      ],
      "name": "execute",
      "outputs": [
        {
          "internalType": "bytes",
          "name": "",
          "type": "bytes"
        }
      ],
      "stateMutability": "nonpayable",
      "type": "function"
    },
    {
      "inputs": [],
      "name": "id",
      "outputs": [
        {
          "internalType": "bytes32",
          "name": "",
          "type": "bytes32"
        }
      ],
      "stateMutability": "view",
      "type": "function"
    },
    {
      "inputs": [
        {
          "internalType": "address",
          "name": "registry_",
          "type": "address"
        },
        {
          "internalType": "bytes32",
          "name": "id_",
          "type": "bytes32"
        }
      ],
      "name": "initialize",
      "outputs": [],
      "stateMutability": "nonpayable",
      "type": "function"
    },
    {
      "inputs": [],
      "name": "registry",
      "outputs": [
        {
          "internalType": "contract IEntityRegistry",
          "name": "",
          "type": "address"
        }
      ],
      "stateMutability": "view",
      "type": "function"
    },
    {
      "stateMutability": "payable",
      "type": "receive"
    }
  ],
  "bytecode": "0x6080604052348015600e575f5ffd5b5060156019565b60c9565b7ff0c57e16840df040f15088dc2f81fe391c3923bec73e23a9662efc9c229c6a00805468010000000000000000900460ff161560685760405163f92ee8a960e01b815260040160405180910390fd5b80546001600160401b039081161460c65780546001600160401b0319166001600160401b0390811782556040519081527fc7f505b2f371ae2175ee4913f4499e1f2633a7b5936321eed1cdaeb6115181d29060200160405180910390a15b50565b610506806100d65f395ff3fe608060405260043610610041575f3560e01c80637b1039991461004c578063a04a090814610087578063af640d0f146100b3578063be13f47c146100d6575f5ffd5b3661004857005b5f5ffd5b348015610057575f5ffd5b505f5461006a906001600160a01b031681565b6040516001600160a01b0390911681526020015b60405180910390f35b348015610092575f5ffd5b506100a66100a13660046103b9565b6100f7565b60405161007e9190610440565b3480156100be575f5ffd5b506100c860015481565b60405190815260200161007e565b3480156100e1575f5ffd5b506100f56100f0366004610475565b61027d565b005b5f54600154604051637dd5641160e01b8152600481019190915260609133916001600160a01b0390911690637dd5641190602401602060405180830381865afa158015610146573d5f5f3e3d5ffd5b505050506040513d601f19601f8201168201806040525081019061016a919061049f565b6001600160a01b0316146101c55760405162461bcd60e51b815260206004820152601a60248201527f4964656e746974794163636f756e743a206e6f74206f776e657200000000000060448201526064015b60405180910390fd5b5f5f866001600160a01b03168487876040516101e29291906104c1565b5f6040518083038185875af1925050503d805f811461021c576040519150601f19603f3d011682016040523d82523d5f602084013e610221565b606091505b5091509150816102735760405162461bcd60e51b815260206004820152601c60248201527f4964656e746974794163636f756e743a2063616c6c206661696c65640000000060448201526064016101bc565b9695505050505050565b7ff0c57e16840df040f15088dc2f81fe391c3923bec73e23a9662efc9c229c6a008054600160401b810460ff16159067ffffffffffffffff165f811580156102c25750825b90505f8267ffffffffffffffff1660011480156102de5750303b155b9050811580156102ec575080155b1561030a5760405163f92ee8a960e01b815260040160405180910390fd5b845467ffffffffffffffff19166001178555831561033457845460ff60401b1916600160401b1785555b5f80546001600160a01b0319166001600160a01b0389161790556001869055831561039957845460ff60401b19168555604051600181527fc7f505b2f371ae2175ee4913f4499e1f2633a7b5936321eed1cdaeb6115181d29060200160405180910390a15b50505050505050565b6001600160a01b03811681146103b6575f5ffd5b50565b5f5f5f5f606085870312156103cc575f5ffd5b84356103d7816103a2565b9350602085013567ffffffffffffffff8111156103f2575f5ffd5b8501601f81018713610402575f5ffd5b803567ffffffffffffffff811115610418575f5ffd5b876020828401011115610429575f5ffd5b949760209190910196509394604001359392505050565b602081525f82518060208401528060208501604085015e5f604082850101526040601f19601f83011684010191505092915050565b5f5f60408385031215610486575f5ffd5b8235610491816103a2565b946020939093013593505050565b5f602082840312156104af575f5ffd5b81516104ba816103a2565b9392505050565b818382375f910190815291905056fea2646970667358221220aabf619e30fcaa087432fa6b65013920cc8445be6fecb57375f49257a3ff2a6064736f6c634300081c0033",
  "linkReferences": {},
  "deployedLinkReferences": {},
  "immutableReferences": {},
  "inputSourceName": "project/contracts/IdentityAccount.sol",
  "buildInfoId": "solc-0_8_28-ec4a6df9f8dfb04ed4eced28938614b408ae6f0c"
}