{
  "_format": "hh3-artifact-1",
  "contractName": "GitHubVerifier",
  "sourceName": "contracts/verifiers/VerifierGitHub.sol",
  "abi": [
    {
      "inputs": [
        {
          "internalType": "address",
          "name": "registry_",
          "type": "address"
        },
        {
          "internalType": "address",
          "name": "trustedSigner_",
          "type": "address"
        },
        {
          "internalType": "address",
          "name": "admin",
          "type": "address"
        }
      ],
      "stateMutability": "nonpayable",
      "type": "constructor"
    },
    {
      "inputs": [],
      "name": "ECDSAInvalidSignature",
      "type": "error"
    },
    {
      "inputs": [
        {
          "internalType": "uint256",
          "name": "length",
          "type": "uint256"
        }
      ],
      "name": "ECDSAInvalidSignatureLength",
      "type": "error"
    },
    {
      "inputs": [
        {
          "internalType": "bytes32",
          "name": "s",
          "type": "bytes32"
        }
      ],
      "name": "ECDSAInvalidSignatureS",
      "type": "error"
    },
    {
      "inputs": [
        {
          "internalType": "address",
          "name": "owner",
          "type": "address"
        }
      ],
      "name": "OwnableInvalidOwner",
      "type": "error"
    },
    {
      "inputs": [
        {
          "internalType": "address",
          "name": "account",
          "type": "address"
        }
      ],
      "name": "OwnableUnauthorizedAccount",
      "type": "error"
    },
    {
      "anonymous": false,
      "inputs": [
        {
          "indexed": true,
          "internalType": "address",
          "name": "previousOwner",
          "type": "address"
        },
        {
          "indexed": true,
          "internalType": "address",
          "name": "newOwner",
          "type": "address"
        }
      ],
      "name": "OwnershipTransferred",
      "type": "event"
    },
    {
      "anonymous": false,
      "inputs": [
        {
          "indexed": true,
          "internalType": "address",
          "name": "previous",
          "type": "address"
        },
        {
          "indexed": true,
          "internalType": "address",
          "name": "next",
          "type": "address"
        }
      ],
      "name": "TrustedSignerUpdated",
      "type": "event"
    },
    {
      "inputs": [],
      "name": "OWNERSHIP_PROOF_TYPEHASH",
      "outputs": [
        {
          "internalType": "bytes32",
          "name": "",
          "type": "bytes32"
        }
      ],
      "stateMutability": "view",
      "type": "function"
    },
    {
      "inputs": [],
      "name": "owner",
      "outputs": [
        {
          "internalType": "address",
          "name": "",
          "type": "address"
        }
      ],
      "stateMutability": "view",
      "type": "function"
    },
    {
      "inputs": [],
      "name": "registry",
      "outputs": [
        {
          "internalType": "address",
          "name": "",
          "type": "address"
        }
      ],
      "stateMutability": "view",
      "type": "function"
    },
    {
      "inputs": [],
      "name": "renounceOwnership",
      "outputs": [],
      "stateMutability": "nonpayable",
      "type": "function"
    },
    {
      "inputs": [
        {
          "internalType": "address",
          "name": "signer",
          "type": "address"
        }
      ],
      "name": "setTrustedSigner",
      "outputs": [],
      "stateMutability": "nonpayable",
      "type": "function"
    },
    {
      "inputs": [
        {
          "internalType": "address",
          "name": "newOwner",
          "type": "address"
        }
      ],
      "name": "transferOwnership",
      "outputs": [],
      "stateMutability": "nonpayable",
      "type": "function"
    },
    {
      "inputs": [],
      "name": "trustedSigner",
      "outputs": [
        {
          "internalType": "address",
          "name": "",
          "type": "address"
        }
      ],
      "stateMutability": "view",
      "type": "function"
    },
    {
      "inputs": [
        {
          "internalType": "bytes32",
          "name": "id",
          "type": "bytes32"
        },
        {
          "internalType": "address",
          "name": "claimant",
          "type": "address"
        },
        {
          "internalType": "bytes",
          "name": "proof",
          "type": "bytes"
        }
      ],
      "name": "verify",
      "outputs": [
        {
          "internalType": "bool",
          "name": "",
          "type": "bool"
        }
      ],
      "stateMutability": "view",
      "type": "function"
    }
  ],
  "bytecode": "0x60a060405234801561000f575f5ffd5b506040516109b43803806109b483398101604081905261002e91610100565b828282806001600160a01b03811661005f57604051631e4fbdf760e01b81525f600482015260240160405180910390fd5b61006881610096565b50506001600160a01b03918216608052600180546001600160a01b0319169190921617905550610140915050565b5f80546001600160a01b038381166001600160a01b0319831681178455604051919092169283917f8be0079c531659141344cd1fd0a4f28419497f9722a3daafe3b4186f6b6457e09190a35050565b80516001600160a01b03811681146100fb575f5ffd5b919050565b5f5f5f60608486031215610112575f5ffd5b61011b846100e5565b9250610129602085016100e5565b9150610137604085016100e5565b90509250925092565b60805161085661015e5f395f818160e5015261038401526108565ff3fe608060405234801561000f575f5ffd5b5060043610610085575f3560e01c80638da5cb5b116100585780638da5cb5b1461011f578063f2fde38b1461012f578063f5cf2ce114610142578063f74d548014610165575f5ffd5b80631ebcdbf41461008957806356a1c701146100c3578063715018a6146100d85780637b103999146100e0575b5f5ffd5b6100b07fd200b575bcd97c3adcf3e94a9776b99caca6ef4fce67a0180a70bf277e76688a81565b6040519081526020015b60405180910390f35b6100d66100d13660046106a0565b610178565b005b6100d66101db565b6101077f000000000000000000000000000000000000000000000000000000000000000081565b6040516001600160a01b0390911681526020016100ba565b5f546001600160a01b0316610107565b6100d661013d3660046106a0565b6101ee565b6101556101503660046106c0565b610230565b60405190151581526020016100ba565b600154610107906001600160a01b031681565b610180610415565b6001546040516001600160a01b038084169216907f4a297cf5d32586f80d2b0708a39d2da1f46e6ae7722171e1c51dfd685b5b8aa8905f90a3600180546001600160a01b0319166001600160a01b0392909216919091179055565b6101e3610415565b6101ec5f610441565b565b6101f6610415565b6001600160a01b03811661022457604051631e4fbdf760e01b81525f60048201526024015b60405180910390fd5b61022d81610441565b50565b5f808061023f84860186610757565b915091508042106102925760405162461bcd60e51b815260206004820152601d60248201527f4f7261636c6556657269666965723a2070726f6f662065787069726564000000604482015260640161021b565b604080517fd200b575bcd97c3adcf3e94a9776b99caca6ef4fce67a0180a70bf277e76688a60208201529081018890526001600160a01b0387166060820152608081018290525f9060a0016040516020818303038152906040528051906020012090505f6103e96103c9604080517f8b73c3c69bb8fe3d512ecc4cf759cc79239f7b179b0ffacaa9a75d522b39400f60208201527fe6b64eba5dadd0b95864a82260d88db5fca10dcb8d74bc5df423b56f4ff6324e918101919091527fc89efdaa54c0f20c7adf612882df0950f5a951637e0307cdcb4c672f298b8bc660608201524660808201526001600160a01b037f00000000000000000000000000000000000000000000000000000000000000001660a08201525f9060c00160405160208183030381529060405280519060200120905090565b8360405161190160f01b8152600281019290925260228201526042902090565b90505f6103f68286610490565b6001546001600160a01b039081169116149a9950505050505050505050565b5f546001600160a01b031633146101ec5760405163118cdaa760e01b815233600482015260240161021b565b5f80546001600160a01b038381166001600160a01b0319831681178455604051919092169283917f8be0079c531659141344cd1fd0a4f28419497f9722a3daafe3b4186f6b6457e09190a35050565b5f5f5f5f61049e86866104b8565b9250925092506104ae8282610501565b5090949350505050565b5f5f5f83516041036104ef576020840151604085015160608601515f1a6104e1888285856105bd565b9550955095505050506104fa565b505081515f91506002905b9250925092565b5f8260038111156105145761051461080c565b0361051d575050565b60018260038111156105315761053161080c565b0361054f5760405163f645eedf60e01b815260040160405180910390fd5b60028260038111156105635761056361080c565b036105845760405163fce698f760e01b81526004810182905260240161021b565b60038260038111156105985761059861080c565b036105b9576040516335e2f38360e21b81526004810182905260240161021b565b5050565b5f80807f7fffffffffffffffffffffffffffffff5d576e7357a4501ddfe92f46681b20a08411156105f657505f9150600390508261067b565b604080515f808252602082018084528a905260ff891692820192909252606081018790526080810186905260019060a0016020604051602081039080840390855afa158015610647573d5f5f3e3d5ffd5b5050604051601f1901519150506001600160a01b03811661067257505f92506001915082905061067b565b92505f91508190505b9450945094915050565b80356001600160a01b038116811461069b575f5ffd5b919050565b5f602082840312156106b0575f5ffd5b6106b982610685565b9392505050565b5f5f5f5f606085870312156106d3575f5ffd5b843593506106e360208601610685565b9250604085013567ffffffffffffffff8111156106fe575f5ffd5b8501601f8101871361070e575f5ffd5b803567ffffffffffffffff811115610724575f5ffd5b876020828401011115610735575f5ffd5b949793965060200194505050565b634e487b7160e01b5f52604160045260245ffd5b5f5f60408385031215610768575f5ffd5b823567ffffffffffffffff81111561077e575f5ffd5b8301601f8101851361078e575f5ffd5b803567ffffffffffffffff8111156107a8576107a8610743565b604051601f8201601f19908116603f0116810167ffffffffffffffff811182821017156107d7576107d7610743565b6040528181528282016020018710156107ee575f5ffd5b816020840160208301375f6020928201830152969401359450505050565b634e487b7160e01b5f52602160045260245ffdfea264697066735822122076506f24ac34e6c5cc09f9f3e230e740c573d30a4e88784b28635cbea02defc164736f6c634300081c0033",
  "linkReferences": {},
  "deployedLinkReferences": {},
  "immutableReferences": {
    "5651": [
      {
        "length": 32,
        "start": 229
      },
      {
        "length": 32,
        "start": 900
      }
    ]
  },
  "inputSourceName": "project/contracts/verifiers/VerifierGitHub.sol",
  "buildInfoId": "solc-0_8_28-3e17145cf12487c84daf3dd3db0c72b6a94a9797"
}